:020000040000fa
:10a220000f8325000eff27000e01880000000000ac
:10a230000c00070020e22900010020000f000700a9
:10a24000000020000000e0000200320000000200d8
:10a2500000000000a2b50200000000000040da008b
:10a260000000fe00a08620000000e0000200320096
:10a27000002020009001880000000600a102880054
:10a28000800078000000eb001a003700e2804000f8
:10a2900054a0b4009101ba00e280400054a0b40080
:10a2a0009102ba00e280400054a0b4000002eb002a
:10a2b000472bde00f507b200a6018800602ce10004
:10a2c00008003a000049eb000201e80002003900f2
:10a2d0003420ec0002f0a0008301e900f9ff3e0009
:10a2e000040037006128e100010032000082eb0029
:10a2f000040007001101ba000200e000e3ff3a0089
:10a300000000060004d0a300e20f49001c00390041
:10a31000810278003549ba000201e80002003900e4
:10a320003420ec0002f0a0008301e9000f003200ad
:10a330002549ba000201e800020039003420ec008f
:10a3400002f0a0008301e900080032000400e000f0
:10a350000600320015c9ba000201e8000200390007
:10a360003420ec0002f0a0008301e9008180e800c5
:10a3700054a0b4000300e000e2ff3a000000060031
:10a380009102ba00055978008301e900f7ff320015
:10a39000c82ade00055978008301e900f3ff320086
:10a3a0000400e000f1ff320011d9ba00eeff3700df
:10a3b00080b50400000000001aca0400000000007c
:10a3c0003ebf0400000000000ecb040000000000af
:10a3d0009aca04000000000004cb04000000000042
:10a3e0005ccb04000000000022cb04000000000051
:10a3f000f2c90400000000005ecb04000000000071
:10a400005acb0400000000005400f800a1028800ac
:10a410008002780062004000e08048003549ba00c0
:10a420003204e0000410a700100032008301e900ac
:10a430000e0032002549ba003204e0000410a700e3
:10a440000a0032008301e900080032000408a3007a
:10a45000eeff320015c9ba003204e0000410a70074
:10a46000020032008301e900e8ff3a005400f900dd
:10a4700000000600020ab900001bb9000200b80083
:10a480008100420081004300000006008000780047
:10a490001106b100030035009101b10001003c003c
:10a4a0000050a10000000600800078001104b100f7
:10a4b000030035009101b10001003c000050a000f4
:10a4c000000006006022b800060220000000d00054
:10a4d0008180d2000482d2008582d2000000a000d8
:10a4e0000202520083825a0003003100020242003d
:10a4f00083824a000000a1000603e900f3ff3a004e
:10a50000000006008001eb000200370061f07900d6
:10a510008301e800828f5100fcff3a000000060032
:10a520000400fa00e0bf9f00e48157008129780011
:10a530000002eb000f0037006fb8970090407800e2
:10a540007fb89700104078000402e80080cf5000e8
:10a55000040032008180fb000080fb00008050007e
:10a56000070037006fb897000000e800e0bf9f00c9
:10a570009309e800820f5200efff3a000000eb0061
:10a580000080fa00000006008001eb0002003700a6
:10a59000817178008301e800828f5100fcff3a004e
:10a5a00000000600000378008002780002027800b4
:10a5b0008001eb00080037000402e90063c0780066
:10a5c000805a78008301e8000004e00002003a00ad
:10a5d0008000eb0006003700828f5100f6ff3a0042
:10a5e000fbff37000040eb0080f07a008100e800bc
:10a5f000848f5000fbff3a00060078000000060040
:10a60000800078003004e000feff3a0001005000b6
:10a610000000e900000006000040da000000fe0033
:020000040000fa
:10a0000010510400000000000c5304000000000088
:10a010000c530400000000000c530400000000007a
:10a020000c530400000000000c530400000000006a
:10a030000c530400000000001e7f0400000000001c
:10a040000c530400000000000c530400000000004a
:10a05000fc7e0400000000000c530400000000001f
:10a060000c53040000000000969004000000000063
:10a070000c53040000000000bc6c04000000000051
:10a08000367304000000000012710400000000009c
:10a0900082900400000000000c5304000000000047
:10a0a0001e760400000000000c53040000000000b5
:10a0b000fa990400000000000c53040000000000a6
:10a0c000527e040000000000307e0400000000000a
:10a0d0000c530400000000000c53040000000000ba
:10a0e0000aa3040000000000c27c0400000000007d
:10a0f0000c530400000000008873040000000000fe
:10a10000f0700400000000000c5304000000000088
:10a11000de6c040000000000da7e04000000000095
:10a12000b87e040000000000967e040000000000dd
:10a13000747e0400000000000c53040000000000c6
:10a140000c530400000000000c5304000000000049
:10a150000c530400000000000c5304000000000039
:10a160000c530400000000004076040000000000d2
:10a170000c530400000000000c5304000000000019
:10a180000c530400000000000c5304000000000009
:10a190000c53040000000000e68f040000000000e3
:10a1a0000c530400000000000c53040000000000e9
:10a1b0000c53040000000000de73040000000000e7
:10a1c000ce700400000000000c53040000000000ea
:10a1d00062760400000000000c5304000000000040
:10a1e000ea6f040000000000ac70040000000000f2
:10a1f0000c53040000000000006d0400000000008b
:10a200000c530400000000000e7e0400000000005b
:10a210000c530400000000000c5304000000000078
:020000040000fa
:10a62000ff0a000011020000040300000c0b0000f0
:10a63000ff250000181700001619000014ff000085
:10a64000ffff0000ffff0000ffff0000ffff000012
:10a65000ffff0000ff1500001a1300001b1200008e
:10a660001cff00000d0100000006000007080000ac
:10a6700009ff0000ffff0000ff0e00001d000000aa
:10a68000640000007000000058000000800000001e
:10a690007fff000064000000700000005800000010
:10a6a00002000000fdff00006400000070000000d8
:10a6b0005800000004000000fbff000068000000dc
:10a6c000740000005c00000020000000dfff0000bc
:10a6d00068000000740000005c0000004000000002
:10a6e000bfff000068000000740000005c00000074
:10a6f000800000007fff0000680000007400000080
:10a700005c00000000010000fffe00006800000087
:10a71000740000005c00000002000000fdff00006b
:10a72000620000006e000000560000000200000001
:10a73000fdff0000620000006e00000056000000f7
:10a7400001000000feff000068000000740000002f
:10a750005c00000004000000fbff00006800000037
:10a76000740000005c00000008000000f7ff00001b
:10a7700068000000740000005c0000001000000091
:10a78000efff0000620000006e00000056000000b5
:10a7900000200000ffdf0000620000006e000000eb
:10a7a0005600000000400000ffbf000062000000f3
:10a7b0006e0000005600000000800000ff7f0000d7
:10a7c000640000007000000058000000010000005c
:10a7d000feff00006a000000760000005e0000003e
:10a7e00010000000efff00006a000000760000008b
:10a7f0005e00000020000000dfff00006800000095
:10a80000740000005c00000000040000fffb00007a
:10a8100068000000740000005c00000000080000f8
:10a82000fff7000068000000740000005c000000fa
:10a8300000100000ffef000068000000740000003e
:10a840005c00000000200000ffdf00006800000046
:10a85000740000005c00000000400000ffbf00002a
:10a8600068000000740000005c0000000080000030
:10a87000ff7f00006a000000760000005e0000001c
:10a8800001000000feff00006a00000076000000ea
:10a890005e00000002000000fdff000062000000fa
:10a8a0006e0000005600000000010000fffe0000e6
:10a8b000620000006e000000560000000002000070
:10a8c000fffd0000620000006e0000005600000066
:10a8d00000040000fffb0000620000006e000000aa
:10a8e0005600000000080000fff7000062000000b2
:10a8f0006e00000056000000800000007fff000096
:10a90000620000006e0000005600000040000000e1
:10a91000bfff0000620000006e0000005600000053
:10a9200020000000dfff0000620000006e00000059
:10a930005600000010000000efff00006200000061
:10a940006e0000005600000008000000f7ff000045
:10a95000620000006e0000005600000004000000cd
:10a96000fbff0000640000007000000058000000c1
:10a9700000010000fffe0000640000007000000005
:10a980005800000000020000fffd0000640000000d
:10a99000700000005800000000040000fffb0000f1
:10a9a0006400000070000000580000000008000073
:10a9b000fff7000064000000700000005800000075
:10a9c00000100000ffef00006400000070000000b5
:10a9d0005800000000200000ffdf000064000000bd
:10a9e000700000005800000000400000ffbf0000a1
:10a9f00064000000700000005800000000800000ab
:10aa0000ff7f000066000000720000005a00000096
:10aa100001000000feff0000620000006e00000068
:10aa20005600000000100000ffef0000d002000000
:10aa3000e4040000d2020000d4020000d6020000ac
:10aa40001c1c0000041c0000101c00000010000072
:10aa5000ffef0000010000000c000000e802000011
:10aa6000ea040000ea020000ec020000ee0200002e
:10aa7000161c0000fe1b00000a1c00001000000055
:10aa8000efff00000400000004000000e8020000e6
:10aa9000ea040000ea020000ec020000ee020000fe
:10aaa000161c0000fe1b00000a1c00002000000015
:10aab000dfff00000400000005000000d8020000d5
:10aac000e6040000da020000dc020000de02000002
:10aad0001a1c0000021c00000e1c000000010000f7
:10aae000fffe00000200000008000000d802000085
:10aaf000e6040000da020000dc020000de020000d2
:10ab00001a1c0000021c00000e1c000000020000c5
:10ab1000fffd00000200000009000000d802000054
:10ab2000e6040000da020000dc020000de020000a1
:10ab30001a1c0000021c00000e1c00000004000093
:10ab4000fffb0000020000000a000000d802000025
:10ab5000e6040000da020000dc020000de02000071
:10ab60001a1c0000021c00000e1c0000000800005f
:10ab7000fff70000020000000b000000d8020000f8
:10ab8000e6040000da020000dc020000de02000041
:10ab90001a1c0000021c00000e1c00000100000036
:10aba000feff00000200000000000000d0020000d4
:10abb000e4040000d2020000d4020000d60200002b
:10abc0001c1c0000041c0000101c000000200000e1
:10abd000ffdf0000010000000d000000d0020000b7
:10abe000e4040000d2020000d4020000d6020000fb
:10abf0001c1c0000041c0000101c00000040000091
:10ac0000ffbf0000010000000e000000d80200009d
:10ac1000e6040000da020000dc020000de020000b0
:10ac20001a1c0000021c00000e1c000002000000a4
:10ac3000fdff00000200000001000000d80200003b
:10ac4000e6040000da020000dc020000de02000080
:10ac50001a1c0000021c00000e1c00000400000072
:10ac6000fbff00000200000002000000d80200000c
:10ac7000e6040000da020000dc020000de02000050
:10ac80001a1c0000021c00000e1c0000080000003e
:10ac9000f7ff00000200000003000000d8020000df
:10aca000e6040000da020000dc020000de02000020
:10acb0001a1c0000021c00000e1c00001000000006
:10acc000efff00000200000004000000d8020000b6
:10acd000e6040000da020000dc020000de020000f0
:10ace0001a1c0000021c00000e1c000020000000c6
:10acf000dfff00000200000005000000d802000095
:10ad0000e6040000da020000dc020000de020000bf
:10ad10001a1c0000021c00000e1c00004000000075
:10ad2000bfff00000200000006000000d802000083
:10ad3000e6040000da020000dc020000de0200008f
:10ad40001a1c0000021c00000e1c00008000000005
:10ad50007fff00000200000007000000e802000082
:10ad6000ea040000ea020000ec020000ee0200002b
:10ad7000161c0000fe1b00000a1c00000100000061
:10ad8000feff00000400000000000000e8020000d8
:10ad9000ea040000ea020000ec020000ee020000fb
:10ada000161c0000fe1b00000a1c00000200000030
:10adb000fdff00000400000001000000e0020000b0
:10adc00000000000e2020000e4020000e6020000d1
:10add000181c0000001c00000c1c000001000000fa
:10ade000feff00000300000000000000e002000081
:10adf00000000000e2020000e4020000e6020000a1
:10ae0000181c0000001c00000c1c000002000000c8
:10ae1000fdff00000300000001000000e002000050
:10ae200000000000e2020000e4020000e602000070
:10ae3000181c0000001c00000c1c00000400000096
:10ae4000fbff00000300000002000000e002000021
:10ae500000000000e2020000e4020000e602000040
:10ae6000181c0000001c00000c1c00000800000062
:10ae7000f7ff00000300000003000000e0020000f4
:10ae800000000000e2020000e4020000e602000010
:10ae9000181c0000001c00000c1c0000100000002a
:10aea000efff00000300000004000000e0020000cb
:10aeb00000000000e2020000e4020000e6020000e0
:10aec000181c0000001c00000c1c000020000000ea
:10aed000dfff00000300000005000000e0020000aa
:10aee00000000000e2020000e4020000e6020000b0
:10aef000181c0000001c00000c1c0000400000009a
:10af0000bfff00000300000006000000e002000098
:10af100000000000e2020000e4020000e60200007f
:10af2000181c0000001c00000c1c00008000000029
:10af30007fff00000300000007000000f002000097
:10af4000ec040000f2020000f4020000f60200002f
:10af5000141c0000fc1b0000081c00004000000046
:10af6000bfff00000500000006000000f002000026
:10af7000ec040000f2020000f4020000f6020000ff
:10af8000141c0000fc1b0000081c000080000000d6
:10af90007fff00000500000007000000f002000035
:10afa000ec040000f2020000f4020000f6020000cf
:10afb000141c0000fc1b0000081c00000001000025
:10afc000fffe00000500000008000000f002000085
:10afd000ec040000f2020000f4020000f60200009f
:10afe000141c0000fc1b0000081c000000020000f4
:10aff000fffd00000500000009000000c80200007d
:10b00000e2040000ca020000cc020000ce020000f0
:10b010001e1c0000061c0000121c00002000000086
:10b02000dfff00000000000005000000c802000073
:10b03000e2040000ca020000cc020000ce020000c0
:10b040001e1c0000061c0000121c00001000000066
:10b05000efff00000000000004000000c802000034
:10b06000e2040000ca020000cc020000ce02000090
:10b070001e1c0000061c0000121c0000080000003e
:10b08000f7ff00000000000003000000c8020000fd
:10b09000e2040000ca020000cc020000ce02000060
:10b0a0001e1c0000061c0000121c00000400000012
:10b0b000fbff00000000000002000000c8020000ca
:10b0c000e2040000ca020000cc020000ce02000030
:10b0d0001e1c0000061c0000121c000002000000e4
:10b0e000fdff00000000000001000000c802000099
:10b0f000e2040000ca020000cc020000ce02000000
:10b100001e1c0000061c0000121c000001000000b4
:10b11000feff00000000000000000000c802000068
:10b12000e2040000ca020000cc020000ce020000cf
:10b130001e1c0000061c0000121c00004000000045
:10b14000bfff00000000000006000000c802000071
:10b15000e2040000ca020000cc020000ce0200009f
:10b160001e1c0000061c0000121c000080000000d5
:10b170007fff00000000000007000000c802000080
:10b18000e2040000ca020000cc020000ce0200006f
:10b190001e1c0000061c0000121c00000001000024
:10b1a000fffe00000000000008000000c8020000d0
:10b1b000e2040000ca020000cc020000ce0200003f
:10b1c0001e1c0000061c0000121c000000020000f3
:10b1d000fffd00000000000009000000c8020000a0
:10b1e000e2040000ca020000cc020000ce0200000f
:10b1f0001e1c0000061c0000121c000000040000c1
:10b20000fffb0000000000000a000000c802000070
:10b21000e2040000ca020000cc020000ce020000de
:10b220001e1c0000061c0000121c0000000800008c
:10b23000fff70000000000000b000000c802000043
:10b24000e2040000ca020000cc020000ce020000ae
:10b250001e1c0000061c0000121c00000010000054
:10b26000ffef0000000000000c000000c80200001a
:10b27000e2040000ca020000cc020000ce0200007e
:10b280001e1c0000061c0000121c00000020000014
:10b29000ffdf0000000000000d000000c8020000f9
:10b2a000e2040000ca020000cc020000ce0200004e
:10b2b0001e1c0000061c0000121c000000400000c4
:10b2c000ffbf0000000000000e000000c8020000e8
:10b2d000e2040000ca020000cc020000ce0200001e
:10b2e0001e1c0000061c0000121c00000080000054
:10b2f000ff7f0000000000000f00000005000000bc
:10b300000400000003000000020000000100000033
:10b310000000000006000000070000000800000018
:10b32000090000000a0000000b0000000c000000f3
:10b330000d0000000e0000000f000000242300009c
:10b3400022210000201f00002526000027280000e1
:10b35000292a00002b2c00002d2e000024230000a1
:10b3600022210000201f00002526000027280000c1
:10b37000292a00002b2c00002d2e0000ffff0000ca
:10b38000ffff0000ffff0000ffff0000ffff0000c5
:10b39000ffff00000008000009ff0000070a00008e
:10b3a0000b0c00000d0e00000f1000000304000045
:10b3b00005060000ffff0000ffff0000131400005f
:10b3c0001516000017180000191a0000ffff0000f2
:10b3d000ffff0000ffff0000ffff00001112000050
:10b3e000ffff000001020000ffff0000ffff000060
:10b3f000ffff0000ffff0000ffff0000ffff000055
:10b40000ffff0000ffff00001b1c00001d1e0000ce
:10b41000ffff0000ffff0000ffff00000000000032
:10b42000000000000000000000000000000000001c
:10b430000000000000000000000000000095000077
:10b44000000000000000000001f900000000000002
:10b450000000000008870000040000000000000059
:10b4600009af000000000000010000000a1b0000fe
:10b4700000000000010000000cc3000001000000fb
:10b48000000000000daf00000200000000000000fe
:10b4900010ff0000000000000000000011ff00008d
:10b4a000000000000100000012ff0000000000008a
:10b4b0000100000018ff0000000000000100000073
:10b4c00019ff0000000000000100000020ff000044
:10b4d000000000000000000021ff0000000000004c
:10b4e0000000000026df0000010000000000000056
:10b4f0003773000000000000000000003a25000043
:10b5000004000000000000003b25000000000000d7
:10b510000000000029ff00000400000000000000ff
:10b5200017ff000000000000000000001c000000e9
:10b530000100000001000000010200000000000006
:10b5400000000000010100000102000001020000f3
:10b5500002010000020200000202000000000000e0
:10b5600001010000010000000000000000040000d4
:10b5700000080000010100000101000002020000bb
:10b5800003030000010100000301000002020000ab
:10b59000030200000104000000030000000000009e
:10b5a0000001000002020000000100000003000092
:10b5b00050490000584c0000303000003134000089
:10b5c00000000000030500001c1e0000080b000026
:10b5d000210700000a200000494f0000494f0000e9
:10b5e0003030000030330000004900004f490000b7
:10b5f0004f3000003030000032000000494f0000a2
:10b60000494f000030300000303100000059000088
:10b61000544100004930000030300000310000008b
:10b620005954000041490000303000003032000021
:10b6300000000000720000006d61000074720000e4
:10b6400069780000747000002e620000696e0000ce
:10b6500000660000707300002e620000696e00003a
:10b6600000610000727400006461000074610000f9
:10b670002e620000696e00000077000000000000ec
:10b68000001c00000000000000080000000c00008a
:10b69000030000000200000023000000240000005e
:10b6a0002500000001000000010000000000000073
:10b6b00000000000000000003031000032330000c4
:10b6c00034350000363700003839000041420000b0
:10b6d0004344000045460000001c0000000c000030
:10b6e00000080000000400009d000000250000008c
:04b6f0000d00000049
:020000040000fa
:10b6f400889fbe008a9fbe008c1f7800800278005d
:10b704000105780082047800030678008405780037
:10b714003e1de200040032004f0678004f05be00d3
:10b724004f04be0000000600180280000002200042
:10b73400100288009580fb0060a92d0060c178008c
:10b744000241e8000281fb008500780040d421001a
:10b75400c8a8020000000000090178008a007800ef
:10b7640040d42100c8a80200000000000b017800aa
:10b774008c00780040d42100c8a80200000000001a
:10b78400180288004f0678004f05be004f04be0023
:10b7940000000600e4ff37000200fa00881f78006a
:10b7a40000047800f0e98000e20f5000230032002a
:10b7b400e10f500024003200347102000000000048
:10b7c400226d0200000000008476020000000000e8
:10b7d4002881020000000000080078003cca020032
:10b7e400000000000000e0001400320011ea8000b4
:10b7f4000100e0001f003a0022d42100e480570039
:10b8040040d421007aa802000000000012ea80005f
:10b814000200e0000900340000ea8000800f5100bb
:10b82400020034000001780010ea8800efb89700a5
:10b83400080078002cca0200000000004f047800c1
:10b844000080fa00000006004c1de200daff3a0016
:10b85400080078004cca020000000000200020000c
:10b86400f0e988004f0478000080fa000000060028
:10b87400f5ff370040d4210060a80200000000005a
:10b88400423def00dcff3700881f7800800178001c
:10b894003e1de200020032004f0478000000060062
:10b8a4001802800000022000100288009380fb0030
:10b8b40060a92d0060c178000241e8000281fb000c
:10b8c4008300780040d42100c8a8020000000000d2
:10b8d400180288004f04780000000600f0ff3700cb
:10b8e400889fbe008a1f78008001780001057800d7
:10b8f400820478003e1de200030032004f05780008
:10b904004f04be0000000600180280000002200060
:10b91400100288009380fb0060a92d0060c17800ac
:10b924000241e8000281fb008300780040d421003a
:10b93400c8a8020000000000090178008a0078000d
:10b9440040d42100c8a802000000000018028800aa
:10b954004f0578004f04be0000000600eaff3700e0
:10b964001e00fa00881f7800423def003c3def00c6
:10b9740011002000d1e98800383def004c3def0074
:10b98400483def004a3def005cca020000000000a1
:10b9940000ea88003e3def000040eb0080e79f0096
:10b9a400f00f20008fb0970080806000009024008a
:10b9b4008080700081b79f00f004b30090b79f00af
:10b9c4002fb0970001f02f0001006000f004b300d5
:10b9d400a0b79f000002eb00830020007b8157008a
:10b9e40000f82400011020000452020000000000ae
:10b9f4000002eb00830020007381570080f82400cc
:10ba04000110200004520200000000006b80570067
:10ba140081ad2d0007000900315878008000b10085
:10ba24003e1de200030032004f0478000080fa005b
:10ba340000000600180280000002200010028800a6
:10ba44000fe097008080fb0060a92d0060c17800a2
:10ba54000241e8000281fb0001fe2f008f804000bc
:10ba640040d42100c8a80200000000001802880089
:10ba74004f0478000080fa0000000600edff370054
:10ba8400889fbe008a9fbe008c9fbe008e1f7800d8
:10ba9400800478000205be003e1de2003f003a002b
:10baa400e00f5100e08f5900200032000c0022000a
:10bab4002d002200ee022000d2e980006110b900be
:10bac400800f5500818f5d003b0039000c00780029
:10bad4003c1db4008900780082520200000000007e
:10bae400d2e98000828444006110b9000005550049
:10baf40081855d00020078003c3db4003a3def00d2
:10bb04003a1de20006003a00c0e98000e10f50004f
:10bb14003d00320033003900e20f500014003200bf
:10bb2400e00f5500e08f5d00e3ff3a0010002000b5
:10bb34004f0778004f06be004f05be004f04be00fd
:10bb440000000600200022001004e00069003d000f
:10bb5400380022009880fb001080fb004600de00c5
:10bb64006100600000804000d0e98800ecff3a00ea
:10bb7400383def0010002000d0e988003c3def0084
:10bb84001c4078000080fb0001002000040220001b
:10bb9400840f5000e08f58002a0036000000eb00ac
:10bba4004f0778004f06be004f05be004f04be008d
:10bbb40000000600e3ff37000c0078003c1db400d1
:10bbc4000a01780089007800825202000000000017
:10bbd4000a0078003c3db4003a3db5006055b80019
:10bbe400c7ff370010002000c0e988009c80fb00dc
:10bbf40070ab2d00e0c078000180fb00d0e9880024
:10bc04000104e000c6ff3a0020002000c0e98800db
:10bc14001c407800f14f5000caff32002b00360060
:10bc2400f44f5000d9023200ff4f50003b00320065
:10bc34000000eb00d0e988000000e000b8ff3a0003
:10bc4400cbff3700006001003a003700490137009c
:10bc54005a01370046023700560237000d023700fa
:10bc64001d023700cdff3700600237007402370031
:10bc740059013700700137007a0137008701370016
:10bc8400a0013700af013700c5013700dd013700df
:10bc9400a500370027013700ce003700bfff37006b
:10bca400e8003700c50037001c013700f2003700f8
:10bcb400f70037004e0037006b0037008400370070
:10bcc4008b0037003100370037003700ee4f50004b
:10bcd400d7ff3a00f2c3b300110022001140610003
:10bce4000080fb000000e800d0e988008cff3a00e7
:10bcf4009fff3700f3c3b30090c061008180fb0055
:10bd04001080fb004600de006100600000804000ff
:10bd1400d0e9880082ff3a0095ff3700dca20200d8
:10bd240000000000d0e988000000e0007cff3a0039
:10bd34008fff3700150022009580fb001d80fb005b
:10bd44004800dd0001017000380022009880fb00eb
:10bd5400400022001080fb004800dd0081017000db
:10bd640090f4240091f42400800f5100818f590035
:10bd74008aff3a00f27b020000000000e00f550049
:10bd8400e08f5d004cff3a0068ff3700100022008e
:10bd9400548b020000000000e00f5500e08f5d00ae
:10bda40045ff3a0061ff3700380022001881fb008c
:10bdb4004411de006301610018447800ef40640020
:10bdc4008180fb00100022009081fb001d80fb009d
:10bdd4004800dd0003007000348c02000000000005
:10bde400e00f5500e08f5d0033ff3a004fff37004e
:10bdf40011002200914078006fc060000082fb00b7
:10be0400e80f520065ff3c00230022001304e00009
:10be140002003d000408a30060ff3a009380fb0089
:10be24004308de0067016000e50f51005bff3c0042
:10be34009341780063c061000080fb00e30f500071
:10be440056ff3c00c708de0080017800040078003b
:10be54007480020000000000e00f5500e08f5d00d8
:10be640015ff3a0031ff370022002200924178008a
:10be74006fc061008080fb00e88f500047ff3c00ea
:10be84001204e00006003d00f5c3b30014002200d4
:10be940014c062000080fb008e0f50003fff3c0086
:10bea4001281fb004711de00f3c3b3001600220029
:10beb40016c061000080fb00087a02000000000048
:10bec400e00f5500e08f5d00fbfe3a0017ff3700de
:10bed4003e1de200ef01320010002000f0e988006e
:10bee400e00f5500e08f5d00f3fe3a000fff3700ce
:10bef40015002200954278006fc062003b023200b8
:10bf04008580fb00c408de00e38060000080fb0045
:10bf1400ba8b020000000000e00f5500e08f5d00c6
:10bf2400e5fe3a0001ff3700260022001680fb00e0
:10bf34004200de0063016000e20f510017ff3c0085
:10bf4400964078007cc06000e44f50000600320048
:10bf540010002200f3c3b30010c061000080fb0096
:10bf64008e0f50000dff3c000148a300d9013a0098
:10bf74006cc06000e44f5000d60132009681fb0093
:10bf8400c419de0016437800e34063008180fb009f
:10bf9400f6c3b30015002200154063000080fb00c7
:10bfa400e1816100567b020000000000e00f5500b3
:10bfb400e08f5d00c0fe3a00dcfe3700968102008f
:10bfc40000000000e00f5500e08f5d00bafe3a006b
:10bfd400d6fe3700130022009341780063c061004d
:10bfe4008082fb00e28f5200ecfe3c00834078002c
:10bff4000158a300030232009d80fb00c808dd0045
:10c004000380fb004600de000000400080807000da
:10c01400010fb30038002200400022001082fb0010
:10c024009881fb005200220005007800347402005d
:10c0340000000000e00f5500e08f5d009efe3a0016
:10c04400bafe3700120022009281fb001d81fb0022
:10c054004811dd0003007100380022009880fb00c5
:10c064005683020000000000e00f5500e08f5d00e1
:10c0740091fe3a00adfe3700a880020000000000e7
:10c08400e00f5500e08f5d008bfe3a00a7fe3700fd
:10c09400130022009341780061c061000200320065
:10c0a4003e1de2009d0132001500220095427800f9
:10c0b40061c062000080fb00c0800200000000003c
:10c0c40016002200164378006140630094fe3a0093
:10c0d4003e1de20092fe3a00180280000002200099
:10c0e400100288009c80fb0060a92d0060c17800cc
:10c0f4000241e8000281fb000100220040d421003b
:10c10400c8a802000000000018028800e00f5500d3
:10c11400e08f5d0068fe3a0084fe3700488202002a
:10c1240000000000e00f5500e08f5d0062fe3a0061
:10c134007efe3700110022009140780063c0600049
:10c144000080fb00e20f500094fe3c008180fb0065
:10c154004709de00c508de00e38060006278020063
:10c1640000000000e00f5500e08f5d0052fe3a0031
:10c174006efe3700f67b0200000000003e1de20068
:10c1840067fe3a00180280000602200016028800aa
:10c194009c80fb0060a92d0060c178000241e8008a
:10c1a4000281fb000100220040d42100c8a8020043
:10c1b4000000000018028800d4ff3700100022009d
:10c1c400507c020000000000e00f5500e08f5d008d
:10c1d40039fe3a0055fe3700120022009280fb001f
:10c1e4000100d100ef016000e88f51006bfe3c00bc
:10c1f40012427800614162000281fb004708de00c0
:10c2040000004000000171001d80fb003800220086
:10c214009880fb00c808dd0080807000030078006f
:10c2240070c4020000000000e00f5500e08f5d00c4
:10c2340021fe3a003dfe370015002200154078002b
:10c244008e4f500055fe3e000080fb00207b020014
:10c2540000000000e00f5500e08f5d0016fe3a007c
:10c2640032fe3700f6c3b300150022001540630008
:10c274000080fb008e0f500048fe3c009580fb00c0
:10c28400c708de008e91020000000000e00f550098
:10c29400e08f5d0008fe3a0024fe37001200220001
:10c2a4009280fb00c60ade00e38f52003bfe3c0096
:10c2b4009241780063c061000082fb00e20f5200eb
:10c2c40036fe3c00c209de004309de006101610064
:10c2d4001d80fb00380022009880fb00c808dd00a8
:10c2e40080807000e181610005007800067302001f
:10c2f40000000000e00f5500e08f5d00eefd3a0005
:10c304000afe3700160022001680fb004600de00fd
:10c31400e30f500021fe3c00f1c3b30016c16000de
:10c324000281fb000201e80021002200c66f020026
:10c3340000000000e00f5500e08f5d00defd3a00d4
:10c34400fafd3700f5c3b3001400220014c06200e4
:10c354000082fb008e0f520010fe3c0022002200df
:10c3640012437800634063008080fb00e38f500039
:10c374000afe3c008681fb004619de006101610073
:10c38400c719de00040078006c7902000000000088
:10c39400e00f5500e08f5d00c7fd3a00e3fd370074
:10c3a400160022009680fb004508de006300600052
:10c3b400e20f5000f9fd3c001d417800e1426100ac
:10c3c4008281fb000302d100c219de00164378000b
:10c3d400674163000281fb00c308de00e380600064
:10c3e400e182620061026200e18161009c6f0200ef
:10c3f40000000000e00f5500e08f5d00aefd3a0044
:10c40400cafd3700110022001180fb00c603de00c4
:10c41400e28f5300e1fd3c00f2c3b3001140610020
:10c424008080fb008e8f5000dcfd3c002600220043
:10c43400164061000040e800164178000204e00064
:10c444000401350080417800380022000268a3000e
:10c45400d3003a000082fb008002eb001680fb0050
:10c464004701de004600de0061006000000141007b
:10c47400080141008381fb0007007800606c020022
:10c4840000000000e00f5500e08f5d008afd3a00d7
:10c49400a6fd3700160022001680fb004201de00d4
:10c4a4008e0f5100bdfd3c009640780063c06000d3
:10c4b4008080fb00e28f5000b8fd3c000200780051
:10c4c4008678020000000000e00f5500e08f5d0058
:10c4d40079fd3a0095fd3700120022001280fb001e
:10c4e4004200de008e0f5000acfd3c00924178000b
:10c4f40061c06100020032003e1de200950032007e
:10c504001500220095427800e1c062008180fb00a2
:10c514000580fb004200de00b69902000000000026
:10c52400110022009140780061c060007cfd3a0057
:10c534003e1de2007afd3a0018028000020220004b
:10c54400120288009c80fb0060a92d0060c1780065
:10c554000241e8000281fb000100220040d42100d6
:10c56400c8a802000000000018028800e7fe370097
:10c57400100022009080fb004208de008e0f500065
:10c5840086fd3c00130022009341780061c16100e4
:10c594000281fb008100d100e1806000fe7802008e
:10c5a40000000000e00f5500e08f5d0042fd3a00fe
:10c5b4005efd3700140022001480fb004200de0000
:10c5c4008e0f500075fd3c0094427800e1c062007b
:10c5d4008180fb00b299020000000000e00f5500ca
:10c5e400e08f5d0034fd3a0050fd3700f4c3b30022
:10c5f40013002200134062008081fb008e8f5100e3
:10c6040066fd3c0022002200924278006fc0620066
:10c614008080fb00e88f500060fd3c000581fb003a
:10c624004711de0003007800527902000000000088
:10c63400e00f5500e08f5d001ffd3a003bfd370021
:10c64400160022001680fb004200de00ef016000ad
:10c65400e88f510051fd3c001640780063416000b2
:10c664000281fb001d80fb00380022009880fb0043
:10c67400c808dd00808070000300780090c40200c8
:10c6840000000000e00f5500e08f5d000afd3a0055
:10c6940026fd3700180280000402200014028800de
:10c6a4009c80fb0060a92d0060c178000241e80075
:10c6b4000281fb000100220040d42100c8a802002e
:10c6c400000000001802880010002000f0e9880033
:10c6d40003fe370016427800634062000080fb00ce
:10c6e400e20f50002dfd3c009681fb00c419de00d2
:10c6f40016437800e34063008180fb00f6c3b30077
:10c7040015002200154063000080fb00e1816100f8
:10c71400567b02000000000024fe3700180280004f
:10c7240004022000140288009c80fb0060a92d00f4
:10c7340060c178000241e8000281fb000100220090
:10c7440040d42100c8a8020000000000180288009c
:10c7540055fe3700180280000402200014028800ed
:10c764009c80fb0060a92d0060c178000241e800b4
:10c774000281fb000100220040d42100c8a802006d
:10c7840000000000180288005dff37003800220016
:10c794001880fb00d0e98800e1fc3a00f4fc370083
:10c7a4000082fb001680fb004700de000080e800ea
:10c7b40015002200654078000080fb0080025200d2
:10c7c4001680fb004701de004600de0061006000c9
:10c7d40000014100080141008381fb00070078004b
:10c7e400606c02000000000026ff37007e8b020010
:10c7f40000000000e00f5500e08f5d00aefc3a0041
:10c80400cafc370000ccb30000c06100e3fc3a006e
:10c814009d80fb004708de000004e000dffc3a00d6
:10c824004208de00fe4f5000dcfc320081804000f4
:10c8340038002200400022001082fb009881fb0097
:10c844005200220005007800347402000000000049
:10c85400f8fd37003800220098417800fbfe3700cd
:020000040000fa
:10c864000200fa00889fbe008a1f780084c4bf00bb
:10c874000038a30005003a000000eb00a024880063
:10c884006024880010858a003703370011858200f0
:10c894000100e00010003a00a1248800612488000f
:10c8a4002000200030258800412588008644a90006
:10c8b400f0092000802488006024880001003700eb
:10c8c4009404a80094c4bf000008a300fcff320035
:10c8d4001000200010858a0010858200e10f5000ae
:10c8e40009003a0094c4bf000068a30006003a009f
:10c8f4008aa4ef008c24ef008c04a8008c84a80088
:10c904002000200010858a0080c4bf000048a300d6
:10c914000c00320082c4bf000048a30009003200aa
:10c9240008012000082488000001eb0022858a0009
:10c934008200780040072000683207008284a90042
:10c944000824880088c4bf000018a30006033a0026
:10c954008ac4bf000008a300080032008cc4bf00d2
:10c964000008a30005003200922b070040002000bd
:10c9740010858a0010002000502488008ac4bf005b
:10c984000048a3000d0032008cc4bf000048a3007f
:10c994000a0032008284a80008012000582488007c
:10c9a4001000200020858a000001eb008000eb00cd
:10c9b4005007200049320700582488008ac4bf0069
:10c9c4000028a300090032008cc4bf000028a30083
:10c9d40004003200120020008000eb003007200029
:10c9e4003e32070040002000502488008a44e200c0
:10c9f40014003d008c44e20012003d00aac4bf00b4
:10ca04000018a3000d00320062848200924090005e
:10ca140000c8b30080cf500007003a007084820041
:10ca24009040900040c8b30080cf500002003a000c
:10ca34006840400010419800aa24a9000008200082
:10ca4400502488008ac4bf000018a3000a003200e2
:10ca54008cc4bf000018a30007003200120020009d
:10ca64008000eb00f0ff27001c3207008ea4ef00cb
:10ca7400200020005024880010858200e30f50001d
:10ca8400b90236008cc4bf000038a300b6023200dd
:10ca94000045eb008ac4bf000038a300b202320094
:10caa4009024800051082500804878004208250021
:10cab4000080fb004400de00004978008000200074
:10cac400502488001281fb009140780068c0600007
:10cad40002003a00b007250001003700e0072500f6
:10cae4000000410010417800e14061000104a2000f
:10caf4001004a10010c87000400825001004e000d4
:10cb040092023a00500825001080fb008001780052
:10cb14000320a1000300e00052023a00c00fb2005b
:10cb2400012025000101400062848a0052848a00a9
:10cb3400a00825001024a20012409000c043b200b7
:10cb440041c3b300814f5000ed013a0082007800e8
:10cb5400e40625001100900090717a001100900005
:10cb64000000e800900098008301e800e88f51007d
:10cb7400f8ff3a0094009800900825000048eb0064
:10cb84008000eb0081858a0071858a0091858a0086
:10cb940011848a008008250001487800e2082500f5
:10cba40073848200134090000074a10090419800a7
:10cbb4001224a20073848200134090000074a10028
:10cbc400904198001224a2005284820012409000e6
:10cbd4000074a10010419800a00a250001487800c3
:10cbe40061858a00c009250001487800d009250024
:10cbf40001487800e00925000148780001c6b30027
:10cc040014c0600084013a00f0062500104078004a
:10cc14000080fb0001002000eb0f5000e08f580063
:10cc24007d013e000060010069003700a900370063
:10cc340079013700a7003700770137000600370075
:10cc44000a003700700137005f00370034003700f6
:10cc54005701370062013700508582000070a00040
:10cc640050858a008000200050003700e10625002e
:10cc740000c8b300914f100067013a00a10a2500d3
:10cc840000ccb300804878001007250010407800dd
:10cc9400e24f500008003200e34f5000120032000f
:10cca400e14f50001c003a004005250040858a00f1
:10ccb4002001200016003700000725001080fb002b
:10ccc40000004000e1fc2400e080780041858a00f7
:10ccd400c00a25002141900002487800d00a2500ae
:10cce400b1409000790037000007250022c0b3004e
:10ccf400904f110008003e001080fb00000040002f
:10cd040081fc24006080780040858a001080fb004c
:10cd140060858a00400137008048eb003e013700ff
:10cd2400508582000070a00050858a00ac24ef007a
:10cd3400ae24ef000000eb00012025008018eb007a
:10cd44008018eb000000e800ec0f5000fbff3a00f5
:10cd54009424a8000000eb00e3072500804078003d
:10cd6400b207250001f07900017079000000e800a5
:10cd7400e30f5000fbff3a009424a9008020250013
:10cd840070848a000020250060848a0050848a0010
:10cd94000007250010407800110a2500804878001b
:10cda4000004e00003003a000001200010858a001e
:10cdb400190137001200200010002000473107003d
:10cdc40000022000f9ff3700100a2500fc0037009c
:10cdd400610625008048eb00700625000048eb0042
:10cde400e0062500104078007f4060000080fb00d2
:10cdf400e10f50000d003200e20f50000f0032002e
:10ce04000000e00026003a00508582000070a00077
:10ce140050858a001104a00030858200e10f500083
:10ce24001f003a001114a0001d0037005085820035
:10ce34000070a00050858a001900370050858200d8
:10ce44000070a00050858a00200725001004e0002f
:10ce540006003500104078006f4060000080fb0041
:10ce6400000040004109250005003700104078000b
:10ce74006f4060000080fb0000004000e1082500d6
:10ce8400610078000140280010806000810f50008c
:10ce940003003a0011c0b300600625000148780081
:10cea400a10a25000008200011006000da00320009
:10ceb4006006250040858a00508582000000a0009d
:10cec40050858a0021c0b300c00a250001487800bb
:10ced400d10037000007250011c0b30090cf100027
:10cee4000f003a00e0062500104078007f40600003
:10cef4000b003a00508582000070a00050858a0023
:10cf0400f006250032c0b300904f110002003a0031
:10cf140010002000010037000000eb0030858a007b
:10cf2400000725001004e000bb003a00e0062500dd
:10cf3400104078007f406000e24f5000b6003a0095
:10cf440022072500924078006fc06000b2003200d2
:10cf5400924078006fc060000080fb00e20f500038
:10cf6400ad003c001185820000022000808f50003b
:10cf7400a9003a00508582000070a00050858a0004
:10cf84001204e0000c003500924078006fc060008d
:10cf94000080fb000000400041092500e10078000a
:10cfa400c1bf9f00124178006f4061000080fb0008
:10cfb400b10725000b003700924078006fc0600075
:10cfc4000080fb0000004000e1082500e10078003b
:10cfd400c1bf9f00124178006f4061000080fb00d8
:10cfe400e1072500614478000808a30004003a0022
:10cff4000ff997000224a10082ff9f00030037006d
:10d004000ff897000024a00080ff9f002007250050
:10d014001004e00006003500104078006f40600006
:10d024000080fb0000004000410925000500370096
:10d03400104078006f4060000080fb00000040005a
:10d04400e10825004fb9970082307800f0062500ea
:10d0540031c0b30090cf100017003a004fb89700ca
:10d064001000e0000e003d00200725001004e00041
:10d0740005003500104078006f4060000080fb0020
:10d08400b107250004003700104078006f406000ad
:10d094000080fb00e1072500010040001014a000ff
:10d0a4004fb897009040900042c8b30082c070000f
:10d0b4001140980058003700e88457000ff9970092
:10d0c4000224a20082ff9f00cfb897001140900075
:10d0d4001100e0000b003d000074a1009040980096
:10d0e400cfb89700114090000064a00090409800d1
:10d0f40022002000cfb897005000200077300700ae
:10d10400020037000064a000904098001924a20097
:10d114000818a30003003a00cfb897001100e000fc
:10d1240017003d00200725001004e000050035002d
:10d13400104078006f4060000080fb00b1072500bc
:10d1440004003700104078006f4060000080fb004e
:10d15400e1072500010040001014a100cfb897009a
:10d1640011409000b043b20090409800220020008b
:10d17400cfb8970050002000583007000300370054
:10d1840011409000b043b200904098002007250061
:10d19400104078006f4060000080fb0000004000f9
:10d1a400a14a2000010040001014a1001a00370019
:10d1b400200725001080fb00e10825000100400045
:10d1c40040858a005185820012c0b300c00a250040
:10d1d400024878001108b30051858a000e00370018
:10d1e400508582000070a00050858a002007250029
:10d1f400104078000080fb0002072500e1082500ac
:10d2040092707800040037000001eb008000eb000e
:10d2140020002000313007000001eb008000eb000b
:10d22400300020002d30070094a4a900a10a250095
:10d23400000820001104600016003a00c00925000f
:10d244001004e0000a003d0020c0b300810825005e
:10d2540080487800908582000000e00001003a00d8
:10d26400532d0700b8838a00c8838a00bb003700a7
:10d2740081c0b30050848200014878005184820048
:10d28400e006250090009800c0c8b30090409800c4
:10d294009300370081082500e20625001204e0000f
:10d2a40007003d0010c0b3008048780070858200fc
:10d2b4000000e0000b003a003d2d07000900370094
:10d2c40020c0b3008048780081c0b300508482003d
:10d2d40001487800518482009200980040c8b3004d
:10d2e400904098000000eb00b0838a00c0838a005d
:10d2f400808582000000e00098003a004900370071
:10d304008008250021c0b30090cf100047003a00e8
:10d3140012427800d20925001280fb00e50925009d
:10d324009580fb00c808dd00808070000480fb004d
:10d33400810f500001003600014278000480fb0098
:10d3440000805000004978004800de00804a7800e0
:10d35400a6092500b5092500670625000a0037003f
:10d364001680fb009580fb00c808dd0080807000fb
:10d374000280fb00e7587800014b7800c808de0003
:10d38400814a78008301e8000341780084cf51008a
:10d39400f3ff390052848200d00925009080fb00fd
:10d3a400e00925001080fb004800dd00010070004a
:10d3b4000a00320080c0b300004978005184820022
:10d3c4006006250090009800608482001040900060
:10d3d4000068a300490032004a00370080c0b3004f
:10d3e4000049780051848200e006250090009800ee
:10d3f40040c8b30090409800f00925009080fb00dd
:10d40400000a25001080fb004800dd0001007000c8
:10d414000100320000000100c00925001074a100c1
:10d42400b3ff3700082d07004c003700034878008d
:10d43400108482000000e00008003a0081c0b300bc
:10d44400508482000148780051848200e00625005f
:10d4540090009800c0c8b3002b00370013848a00e2
:10d464003e003700e88f51003c003a00e1082500f7
:10d4740070848200104090004600de006104600069
:10d484001124a20010858200e80f500008003a0021
:10d49400000725001080fb00b02488000001200054
:10d4a4009604e20001003a004000200010858a0042
:10d4b4008008250012c0b300904f110014003a00f8
:10d4c400600625007184820090009800342c0700c7
:10d4d4009008250021c0b30090cf100004003a004a
:10d4e40041c8b30070848200114098001b003700cb
:10d4f400718482000804e00002003a0080ccb3008a
:10d504000100370080c8b300904098001300370032
:10d51400c80925001804e00009003d00f0092500b1
:10d524009080fb00000a25001080fb004800dd000d
:10d534000100700001003200000001001874a10015
:10d54400800825000048eb00040037000001eb00d0
:10d554005108250020072000602f07000a45e80035
:10d56400e44f55004bfd3a008ec0a9004f057800ea
:0cd574004f04be000080fa00000006001a
:020000040000fa
:10d58000889fbe008a9fbe008c9fbe0080057800e9
:10d5900080004000a0d621006105780020222000f4
:10d5a00000d8b9008205210000044100f8064400bb
:10d5b000ec0444001800e000350032001a58a300c3
:10d5c00012003a00ca009000784090000004e00089
:10d5d0001b0032000040e9007044980008489000a9
:10d5e0000040e900004c9800284890000040e80006
:10d5f000204c98008000eb000b0078008689020028
:10d60000000000001a58a300eeff32000848900006
:10d610000004e0001800320010002000980f1000f5
:10d620004400320020002000980f10005f003200fc
:10d630004f06be004f05be004f04be0000000600ae
:10d640000900780098a80200000000000848900037
:10d650000040e900004c9800284890000040e80095
:10d66000204c98008000eb000b00780086890200b7
:10d6700000000000e3ff370020002000000c7800cd
:10d6800010002000980f1000e6ff3a002900370034
:10d690008000eb000b00780086890200000000008b
:10d6a0000d00780004a8020000000000404498002b
:10d6b0000d00780004a8020000000000504498000b
:10d6c000004c98000d00780004a802000000000043
:10d6d000604498000d00780004a8020000000000db
:10d6e0007044980080c0b300204c98008880e80007
:10d6f000400020009108400008489000f840900049
:10d7000001405000104c98005d003a0048409000e5
:10d710000080fb008000eb00e0a902000000000098
:10d7200010002000000c780010002000980f10005e
:10d73000bcff3a00584090008080fb0028489000d1
:10d740000080fb00808f5000470034008004e90017
:10d750000000e000b3ff34000886e8006840900055
:10d76000f10f20000004e0002a003a004105980073
:10d77000584090000040e90050449800284890002c
:10d780000040e900204c98008904e9000900e80005
:10d790004240a900a3ff340068409000f10f200030
:10d7a0000004e000f1ff32001a003700484090000a
:10d7b0000080fb0011002000e0a902000000000032
:10d7c000184890000004e00029003a00000ceb002b
:10d7d0004d0090008000eb000000e00001003400ec
:10d7e000110020000b007800668902000000000094
:10d7f000110020000b007800868902000000000064
:10d800004f06be004f05be004f04be0000000600dc
:10d810008bff37000d00780004a802000000000014
:10d82000e84090008140e900614498001100200028
:10d830001c8e40008080fb004105980058409000fd
:10d840000040e90050449800284890000040e9005a
:10d85000204c98008904e9000900e8004240a90032
:10d86000cdff3c006fff370001007800b7ff3700a5
:10d87000f60044001000200091084000d3ff37005c
:10d88000c84090000900780098a80200000000003d
:10d89000984890000900780098a802000000000055
:10d8a000484090000080fb008000eb00e0a90200ef
:10d8b0000000000010002000000c78009aff3700e4
:10d8c000889fbe008a9fbe008c9fbe008e1f78007e
:10d8d00080057800820678008304780004047800cc
:10d8e000050578002022200000d9b900000721009a
:10d8f000000741001c028000000620001002880082
:10d900000e00780098a8020000000000884078000f
:10d910000e00780098a802000000000089407800fe
:10d920000e00780098a80200000000008a407800ed
:10d930000e00780098a8020000000000090178009d
:10d940008d0078000e007800c8a8020000000000da
:10d95000110020000b007800668902000000000022
:10d960001c0288004f0778004f06be004f05be001e
:10d970004f04be00000006003600f800809fbe0085
:10d98000829fbe00849fbe00869fbe003200f800ca
:10d9900000202000900188000000eb00f8fe070046
:10d9a0003200f9004f03be004f02be004f01be001f
:10d9b0004f00be003600f900004006003600f800b7
:10d9c000809fbe00829fbe00849fbe00869fbe00d7
:10d9d0003200f80000202000900188001000200094
:10d9e000e7fe07003200f9004f03be004f02be0001
:10d9f0004f01be004f00be003600f9000040060097
:10da00003600f800809fbe00829fbe00849fbe004b
:10da1000869fbe003200f8000020200090018800a0
:10da200020002000d6fe07003200f9004f03be00a0
:10da30004f02be004f01be004f00be003600f9008d
:10da4000004006006f04b000889fbe008a9fbe00a1
:10da50008c9fbe008e1f78008c0521000047eb00d4
:10da600060fb2f0000854700ec0546003c08900055
:10da70000000e0000f003a009c0090000008200029
:10da8000808f500081003c002c22b0000e47e8003f
:10da900063476700e34f5700f3ff3a004f077800f2
:10daa0004f06be004f05be004f04be006f04b1001c
:10dab00000000600f60646004e70dd0080bf9f00a5
:10dac00010c1b300004d7800f0ff23001a0d600074
:10dad0000fb897001a0d70000b00780004a8020020
:10dae00000000000f003b200cf98970002fc2f0066
:10daf0008280600080807000c19f9f000b007800d2
:10db000004a80200000000000040e900f003b20099
:10db10004800dd00f10f2c001a8d60001a0d700016
:10db20009a007800c808de00f103b2008100e80026
:10db300005fb2f008f82420044fb2f000f024200a2
:10db4000e3fa2f008f81410022fb2f000f014100db
:10db50000b00780030a8020000000000ff9497003e
:10db60000f9c97009f98970008027800af99970044
:10db7000090178000a0078007a5b020000000000ca
:10db8000888044000b00780060a8020000000000bc
:10db90000080eb009d0e40003c0890000000e0007b
:10dba000b5ff320010c1b300004d7800f0ff230034
:10dbb0001a0d60000fb897001a0d70000b00780066
:10dbc00004a8020000000000f003b200cf98970004
:10dbd00002fc2f008280600080807000c19f9f0047
:10dbe0000b00780004a80200000000000040e900db
:10dbf000f003b2004800dd00f10f2c001a8d600028
:10dc00001a0d70009a007800c808de00f103b20017
:10dc10008100e80005fb2f008f82420044fb2f00ab
:10dc20000f024200e3fa2f008f81410022fb2f00f8
:10dc30000f0141000b00780030a802000000000036
:10dc4000ff9497000f9c97009f9897000802780018
:10dc5000af999700090178000a0078007a5b02000a
:10dc600000000000888044000b00780060a80200db
:10dc7000000000000080eb009d0e40003c0890007a
:10dc80000000e0008eff3a007bff370011028000a9
:10dc900000062000100288001c0190000000eb002c
:10dca000100698001102880020c1b300b0d79f0071
:10dcb000c210dd006340670001407000c0d79f00c4
:10dcc0004611de00d2d79f0030fd2f000f0040002c
:10dcd000465c0200000000002c22b0000e47e80065
:10dce00063476700e34f57005fff3a006bff370061
:10dcf0002f04b000889fbe008a9fbe008c9fbe008c
:10dd00008e1f780080047800810678000207780072
:10dd1000e3b79f00f4b79f0085bf9f000606780019
:10dd200080004000a0d6210061057800202220005c
:10dd300000c8b90082052100000441008000eb000a
:10dd40000900780066890200000000008000eb00f6
:10dd5000010d78006c0044002202200002084400fb
:10dd60000b1020001b009800410098002100980033
:10dd7000310098007800440022122000020844007c
:10dd80001b009800011498002100980031009800b1
:10dd900011049800310c9800010c78000d00e0008f
:10dda0000a003a000e00e00008003a000c00e00013
:10ddb0004d003a004f0778004f06be004f05be00e9
:10ddc0004f04be002f04b100000006000c00e0006c
:10ddd0001e003a001b0498006fb09700c900dd00d8
:10dde0007fb197004810dd00808070000fb9970068
:10ddf0004610dd0080807000670017004200dd00e3
:10de00008080700063801600808070000150a00048
:10de100011059800110020002105980040002800fd
:10de2000000d7800090078008689020000000000db
:10de30004f0778004f06be004f05be004f04be00de
:10de40002f04b10000000600e0ff370000c1b3005e
:10de5000a0779f00638064004800dd00f1cf2f00b1
:10de60001f999700010161008000710000002800e7
:10de700000817000929f9f0020fb2f000f00400048
:10de8000465c0200000000001b0498006fb0970081
:10de9000c900dd007fb197004810dd008080700070
:10dea0000fb997004610dd008080700067001700f2
:10deb0004200dd008080700063801600808070006a
:10dec0000150a000110598001100200021059800c4
:10ded00040002800000d78000900780086890200c3
:10dee00000000000d2ff3700f1fc2f000180470046
:10def00001c1b30001487800e3c164008fd09700ee
:10df0000c2cfb30082c0600083c070000174a10062
:10df100081d79f00465c0200000000004f07780098
:10df20004f06be004f05be004f04be002f04b100d7
:10df300000000600a5ff3700160020006cff370028
:10df4000881f78000004eb000003eb0086027800d5
:10df500006027800860178000601780086007800c5
:10df60000800780062ff07003100200008007800f8
:10df7000a6890200000000000804e800e30f540036
:10df8000f1ff3a004f04780000000600889fbe00b1
:10df900000047800190280000004200010028800ac
:10dfa0006021200000c2b900c080200000004200b3
:10dfb000c8a802000000000011002000080078003e
:10dfc000ca87020000000000190288004f04be004a
:10dfd000000006003600f800809fbe00829fbe0051
:10dfe000849fbe00869fbe00881f78003200f80024
:10dff0000020200090018800a8ea8000180090000e
:10e000000008a30012003a003200f9004f04780023
:10e010004f03be004f02be004f01be004f00be00c6
:10e020003600f9000040060040e4200098a80200f5
:10e03000000000008000eb00300020006a87020032
:10e0400000000000180090000008a300eeff32005e
:10e05000b8009000180090006c006000f2ff3200e1
:10e060008000eb00300020006a8702000000000002
:10e07000180090000008a300f5ff3a00e2ff370007
:10e08000889fbe008a9fbe00000578008000400087
:10e09000e0d42100e10578006021200000d0b90023
:10e0a00002802000800441006c84440048009000fd
:10e0b0000000e000030032001b0090000098a30065
:10e0c0000a003200480090008000ea008080700062
:10e0d000cf08de000a007800ca87020000000000b6
:10e0e0004f05be004f04be00000006008000eb009c
:10e0f0000a007800f28702000000000008007800a3
:10e1000004a80200000000000080fb00a0059800a9
:10e11000990ce800480090000000e000e9ff3200a0
:10e120001b0090000098a300f0ff32004800900010
:10e130008000ea0080807000cf08de000a007800ce
:10e14000ca870200000000004f05be004f04be0059
:10e1500000000600e5ff37003600f800809fbe0093
:10e16000829fbe00849fbe00869fbe003200f800e2
:10e17000002020009001880030002000c0ff070030
:10e180003200f9004f03be004f02be004f01be0037
:10e190004f00be003600f900004006003600f800cf
:10e1a000809fbe00829fbe00849fbe00869fbe00ef
:10e1b0003200f8000020200090018800200020009c
:10e1c000afff07003200f9004f03be004f02be0050
:10e1d0004f01be004f00be003600f90000400600af
:10e1e0003600f800809fbe00829fbe00849fbe0064
:10e1f000869fbe003200f8000020200090018800b9
:10e20000100020009eff07003200f9004f03be00ff
:10e210004f02be004f01be004f00be003600f900a5
:10e22000004006003600f800809fbe00829fbe00be
:10e23000849fbe00869fbe003200f80000202000b0
:10e24000900188000000eb008dff07003200f9000c
:10e250004f03be004f02be004f01be004f00be0084
:10e260003600f900004006004f04b000889fbe0051
:10e270008a9fbe008c9fbe008e1f78000a802000ff
:10e280000044eb0000fb2f000f0040000087e80077
:10e29000e606400064064000e80440008a85e80085
:10e2a0008e0278000d02780003fb2f008f81410061
:10e2b0000c017800010420000b00780030a8020057
:10e2c000000000000f9997000200e0000d003a00e6
:10e2d000000820009a0f100026003c006a21b000c0
:10e2e0000844e80063446400ecff3a004f077800fc
:10e2f0004f06be004f05be004f04be004f04b100e4
:10e3000000000600e0c0b300804c7800ce40dd0085
:10e31000f0ff2300990c6000998c70001f9a970001
:10e32000044041000040e900f003b2004800dd0075
:10e33000f10f2c00998c6000990c7000af98970039
:10e34000bf999700090078007a5b02000000000086
:10e350009f9897000f989700810040000b0078006d
:10e3600060a8020000000000000820009a0f1000c2
:10e37000daff34001202800000042000100288003e
:10e380009a007800000deb0012028800f0c0b30084
:10e39000d0d79f004209dd00634064000240700056
:10e3a000e0d79f00c608de00f1d79f0050fd2f0088
:10e3b0000f004000465c0200000000006a21b0002f
:10e3c0000844e80063446400b4ff3a00c7ff370024
:10e3d0000f04b000889fbe008a9fbe008c9fbe00c5
:10e3e0008e1f78008004780081067800f2b79f00c5
:10e3f00083bf9f0004077800050678008000400076
:10e40000e0d42100e10578006021200000c8b900b7
:10e4100002802000000541008000eb000900780028
:10e4200042870200000000008000eb000900780035
:10e43000ca870200000000000004eb00880d78008d
:10e440000a80e800760845000110200011009800bd
:10e450004800980028009800380098006c0045009b
:10e460006211200002084500110098004800980041
:10e470002800980038009800080d78000d00e00092
:10e48000210032000c00e0003f003a00cd0598006a
:10e4900088007800090078006a8702000000000008
:10e4a0001100200009007800f2870200000000003f
:10e4b00011002000090078004287020000000000df
:10e4c00080002800ffb097000100e0002400320027
:10e4d0000fb99700820070000e004700808d700019
:10e4e000004028009005980000102000000d7800e2
:10e4f0004f0778004f06be004f05be004f04be0018
:10e500000f04b100000006000c00e000f8ff32002c
:10e5100011fd2f0001804700d1c0b30001487800f1
:10e52000e3c16400afd09700c2cfb30082c06000e7
:10e5300083c070000174a100a1d79f00465c020057
:10e54000000000004f0778004f06be004f05be00d8
:10e550004f04be000f04b10000000600eaff3700c0
:10e56000680050000fb99700820070000e0047004d
:10e57000808d700000402800900598000010200059
:10e58000000d7800daff3700d0c0b300c0779f00dd
:10e59000638064004800dd00f1cf2f002f999700c1
:10e5a00001016100800071000000280000817000fe
:10e5b000a29f9f0040fb2f000f004000465c02001e
:10e5c00000000000cd059800880078000900780060
:10e5d0006a87020000000000110020000900780096
:10e5e000f2870200000000001100200009007800fe
:10e5f000428702000000000080002800ffb0970062
:10e600000100e000b2ff3a00d5ff370015002000fe
:10e610006fff3700881f78000004eb008002eb00da
:10e6200005027800850178000501780085007800f2
:10e630000800780066ff070041002000080078000d
:10e6400092870200000000002100200008007800ee
:10e650001a880200000000000804e800e40f5400db
:10e66000eeff3a004f047800000006003600f80084
:10e67000809fbe00829fbe00849fbe00869fbe001a
:10e68000881f78003200f8000020200090018800e8
:10e6900078ea8000180090000008a30011003a00fa
:10e6a0003200f9004f0478004f03be004f02be0055
:10e6b0004f01be004f00be003600f90000400600ca
:10e6c0002080200098a80200000000006000b80030
:10e6d0006a87020000000000180090000008a300f4
:10e6e000efff3200b8009000180090006c0060004e
:10e6f000f3ff32006000b8006a87020000000000eb
:10e70000180090000008a300f6ff3a00e4ff37006d
:10e710003600f800809fbe00829fbe00849fbe002e
:10e72000869fbe00881f78003200f800002020007d
:10e730009001880088ea8000180090000008a3007b
:10e7400012003a003200f9004f0478004f03be0077
:10e750004f02be004f01be004f00be003600f90060
:10e760000040060080a1200098a8020000000000e0
:10e770008000eb00100020006a870200000000000b
:10e78000180090000008a300eeff3200b8009000cf
:10e79000180090006c006000f2ff32008000eb0077
:10e7a000100020006a87020000000000180090009e
:10e7b0000008a300f5ff3a00e2ff37003600f8003a
:10e7c000809fbe00829fbe00849fbe00869fbe00c9
:10e7d000881f78003200f800002020009001880097
:10e7e00098ea8000180090000008a30012003a0088
:10e7f0003200f9004f0478004f03be004f02be0004
:10e800004f01be004f00be003600f9000040060078
:10e81000e0c2200098a80200000000008000eb0089
:10e82000200020006a87020000000000180090000d
:10e830000008a300eeff3200b8009000180090001e
:10e840006c006000f2ff32008000eb00200020002e
:10e850006a87020000000000180090000008a30072
:10e86000f5ff3a00e2ff37000400fa00889fbe007f
:10e870008a9fbe008c1f7800800478000205780013
:10e880000304780091bf9f00c3f79f00d4f79f0057
:10e890001b0280000004200010028800001a2000e3
:10e8a00000c9b900406d210000064100420020006f
:10e8b000ee8057000c007800c8a80200000000009d
:10e8c000080178008a0078000c007800c8a80200cf
:10e8d000000000001100200009007800d289020029
:10e8e000000000001b0288004f0678004f05be00a4
:10e8f0004f04be000080fa0000000600889fbe00a2
:10e900008a9fbe0000047800001a200000c0b900f1
:10e91000e26b2100800441008800440040d62100c1
:10e92000610578008000eb0008007800f2890200a1
:10e93000000000001900780001002000e90f5000dd
:10e94000e08f58001f003e000060010020003700eb
:10e95000970037008a003700060037007000370044
:10e9600081003700760037005d0037004700370030
:10e970002e0037004a0090000000e0005b003500e8
:10e980007680440004a80200000000000080fb0024
:10e9900010059800e6804400100020009108400017
:10e9a000490090000000e900c004980005003a000a
:10e9b000594090000080fb000000e9004f00de009d
:10e9c000e50c10004f05be004f04be00000006001d
:10e9d0008980e800768044004200200038a90200c7
:10e9e00000000000e6804400400020009108400044
:10e9f000494090000080fb00c00498003a0090005d
:10ea00000000a00030059800490090000000e000e0
:10ea100084003a0060002000800c78004f05be00a2
:10ea20004f04be0000000600e9ff370049009000d7
:10ea30000000e900c004980071003a00f685440027
:10ea4000f480440010002000910840003a0090003b
:10ea50000020a00030059800800ceb004b009000d7
:10ea60008000eb000000e0000100340011002000f5
:10ea700008007800d2890200000000004f05be00a7
:10ea80004f04be0000000600d1ff37009a00780056
:10ea90006a80440098a80200000000003a0090003c
:10eaa0000050a10030059800ba0090004900900085
:10eab00002032000e10f500001003200020120009b
:10eac000010071003005980090002000800c780053
:10ead0004f05be004f04be0000000600bcff37001b
:10eae0004a0090000000e0003f003d00c900900097
:10eaf000f68544000b00780060a8020000000000ca
:10eb0000e680440049009000910840006a8044007b
:10eb100080c0eb0098a8020000000000c8ff37008a
:10eb20004a009000cf00de00f0ff3a006a80440007
:10eb300098a8020000000000f6854400c0ff3700de
:10eb4000294090000004a0000080fb001005980000
:10eb500070002000800c78004f05be004f04be00fe
:10eb6000000006009aff37003a0090000010a00055
:10eb70003005980060002000800c7800a7ff370067
:10eb80004a0090000000e000d8ff350039409000b6
:10eb90000080fb001005980030002000800c7800f9
:10eba0004f05be004f04be000000060088ff37007e
:10ebb000294090000080fb0010059800294090003b
:10ebc0000080fb004300de00fe4f5000f2ff3a00e1
:10ebd00020002000800c78004f05be004f04be00ce
:10ebe000000006007aff3700d94090000180fb004a
:10ebf000c00498006a80440098a802000000000049
:10ec00003a0090000030a0003005980080002000fd
:10ec1000800c78004f05be004f04be0000000600c7
:10ec20006bff370010002000800c78004f05be00fd
:10ec30004f04be000000060065ff37003600f800f4
:10ec4000809fbe00829fbe00849fbe00869fbe0044
:10ec50003200f80000202000900188000000eb0046
:10ec600026ff07003200f9004f03be004f02be002e
:10ec70004f01be004f00be003600f9000040060004
:10ec80003600f800809fbe00829fbe00849fbe00b9
:10ec9000869fbe003200f80000202000900188000e
:10eca0001000200015ff07003200f9004f03be00de
:10ecb0004f02be004f01be004f00be003600f900fb
:10ecc000004006003600f800809fbe00829fbe0014
:10ecd000849fbe00869fbe003200f8000020200006
:10ece000900188002000200004ff07003200f90096
:10ecf0004f03be004f02be004f01be004f00be00da
:10ed00003600f900004006006f04b000889fbe0086
:10ed10008a9fbe008c9fbe008e1f7800ed6b210085
:10ed20000040eb0080f79f0061fb2f00018547004a
:10ed300080417800ea854600638061004807dd0075
:10ed400074864600ad0990000300e00029003200ff
:10ed500040c1b300004d7800f0cf2f001a0d6000c5
:10ed60001a0d77000b00780004a8020000000000d4
:10ed700080407800807f9f000080eb001c0e4000e8
:10ed80000140e900e34f40002b003e008180fb0082
:10ed9000e0fa2f000f0040008082e8006602400089
:10eda00080017800640140000b00780030a8020068
:10edb00000000000ff9497000f9c97009f98970019
:10edc00008027800af999700090178000a007800de
:10edd0007a5b020000000000888044000b0078008d
:10ede00060a8020000000000ad0990000300e000f0
:10edf000d7ff3a00bd00900000082000808f50002f
:10ee000011003c000d1ab0000ff097000040e80020
:10ee10006340600080f79f00e34f50002400320001
:10ee200080417800ea854600638061004807dd0084
:10ee300074864600c3ff37000a007800465c020073
:10ee400000000000bfff3700120280000004200015
:10ee500010028800bd009000b306980012028800de
:10ee600050c1b300b0d79f004209dd008ff1970079
:10ee700063c0610002407000c0d79f00c608de007a
:10ee8000d1d79f0030fd2f000f004000465c0200ec
:10ee9000000000000d1ab0000ff097000040e800dd
:10eea0006340600080f79f00e34f5000dcff3a00b2
:10eeb0004f0778004f06be004f05be004f04be004e
:10eec0006f04b10000000600ef03b000889fbe0091
:10eed0008a9fbe008c9fbe008e1f78000005be007a
:10eee00082bf9f00830678008000400040d621004a
:10eef00061067800001a200000d0b900e26b210002
:10ef0000800441008000eb000a007800d2890200f2
:10ef1000000000000004eb0038069800880078002c
:10ef20000a007800f28902000000000076804400a8
:10ef3000010a2000018844000e1020001e009800e5
:10ef40004800980028009800380098006a80440023
:10ef500002022000028844000108200011009800ed
:10ef6000480098002800980038009800b8049800dd
:10ef7000a80c9800880c78000b00e0001900320003
:10ef80000d00e0002d003a00be0498000b80450003
:10ef90000080e90041b72d00e100780021069800cb
:10efa00001202800e28f55003c0032000fb9970085
:10efb0004810dd000080700030069800110020002d
:10efc0000a007800f2890200000000004f07780074
:10efd0004f06be004f05be004f04be00ef03b10058
:10efe000000006000d00e000f8ff320031fd2f00a8
:10eff0000180470031c1b30001487800e34165005a
:10f00000cfd09700c2cfb30082c0600083c0700031
:10f010000174a100c1d79f00465c020000000000ff
:10f020004f0778004f06be004f05be004f04be00dc
:10f03000ef03b10000000600eaff370030c1b30063
:10f04000e0779f00630065004800dd00f1cf2f00ee
:10f050003f999700010161008000710000002800c5
:10f0600000817000b29f9f0060fb2f000f004000e6
:10f07000465c020000000000be0498000b804500c2
:10f080000080e90041b72d00e100780021069800da
:10f0900001202800e28f5500c4ff3a00010028003b
:10f0a0000fb997004810dd0000807000300698000e
:10f0b000110020000a007800f28902000000000020
:10f0c000c2ff3700130020007fff3700881f780041
:10f0d0000004eb002100200008007800128a0200e2
:10f0e000000000008001eb0003017800830078003d
:10f0f0000800780074ff07000804e800e30f5400dc
:10f10000f4ff3a004f04780000000600889fbe001c
:10f110000004be008000eb00c6a902000000000051
:10f120008000eb0008007800c8aa02000000000080
:10f130008000eb000800780026aa02000000000012
:10f14000e18f540010003200e28f54001c003200a6
:10f150008000eb000800780094aa02000000000084
:10f160008000eb0008007800aeaa0200000000005a
:10f170001100200008007800aca902000000000087
:10f180004f04be00000006008000eb00080078007d
:10f19000aeaa0200000000000800be0094aa02000f
:10f1a000000000001100200008007800aca9020057
:10f1b000000000004f04be0000000600f2ff370010
:10f1c0008000eb000800780094aa02000000000014
:10f1d0001100200008007800aeaa02000000000024
:10f1e0001100200008007800aca902000000000017
:10f1f0004f04be0000000600e3ff3700889fbe00fa
:10f200008a1f7800000478000105780082047800e5
:10f210000000e00001003a00190020008000eb002f
:10f2200008007800c6a90200000000008000eb0082
:10f2300008007800c8aa0200000000008000eb006f
:10f240000800780026aa0200000000008000eb0001
:10f250000800780094aa0200000000008000eb0083
:10f2600008007800aeaa0200000000008a007800c2
:10f2700008007800e0a90200000000000800be00bd
:10f280000caa0200000000008000eb0008007800db
:10f29000aca90200000000004f0578004f04be003a
:10f2a00000000600810178000200e0000600320044
:10f2b00031022000e88f510001003200f28041004d
:10f2c000c8aa04000000000082007800c8aa040058
:10f2d00000000000fcff3700881f78000002780063
:10f2e00001047800830078000200e0000a00320088
:10f2f0000300e0000300320020ae2d0060407c00df
:10f300008080fb0004007800c8aa02000000000012
:10f310004f04780000000600f00320000300e00026
:10f3200013003a00e10f540016003200e10f5400c0
:10f330002a003400e20f54001d003200e30f540095
:10f34000f3ff3a00f043b200616b20009140780077
:10f3500002ccb30082c0600080c070000100780061
:10f36000b6e6b7004f04780000000600eaff370059
:10f37000040078002cab020000000000e10f5400f4
:10f38000eaff3a00f043b200616a20009140780041
:10f3900002ccb30082c0600080c070000100780021
:10f3a000a6e6b7004f04780000000600daff370039
:10f3b000f043b200316a20009140780002ccb300e3
:10f3c00082c0600080c0700001007800a3e6b70032
:10f3d0004f04780000000600cfff37000800e0006f
:10f3e000cbff3a00f043b200416a20009140780020
:10f3f00002ccb30082c0600080c0700001007800c1
:10f40000a4e6b7004f04780000000600c2ff3700f2
:10f41000881f780001047800f10320000200e0005a
:10f4200020003a00e40f540023003200e40f54009f
:10f4300009003400e60f5400450032002a00350070
:10f44000e70f540072003200e80f540064003200ed
:10f450004f04780000000600e10f5400480032001d
:10f460002d003400e20f540051003200e30f54002d
:10f47000f7ff3a00f2c3b30002c060001169200038
:10f480009140780002ccb30082c0600080c0700060
:10f490000100780091e6b7004f04780000000600f4
:10f4a000edff37002cab0200000000008000780068
:10f4b000e40f5400ddff3a00f2c3b30002c0600065
:10f4c000216920009140780002ccb30082c0600026
:10f4d00080c070000100780092e6b7004f04780009
:10f4e00000000600dcff3700f2c3b30002c060007a
:10f4f000316920009140780002ccb30082c06000e6
:10f5000080c070000100780093e6b7004f047800d7
:10f5100000000600d0ff37000800e000ccff3a00f2
:10f52000f2c3b30002c06000e1682000914078009f
:10f5300002ccb30082c0600080c07000010078007f
:10f540008ee6b7004f04780000000600c2ff3700c7
:10f55000f2c3b30002c0600041692000914078000e
:10f5600002ccb30082c0600080c07000010078004f
:10f5700094e6b7004f04780000000600b6ff37009d
:10f58000f2c3b30002c06000f1682000914078002f
:10f5900002ccb30082c0600080c07000010078001f
:10f5a0008fe6b7004f04780000000600aaff37007e
:10f5b000f2c3b30002c060000169200091407800ee
:10f5c00002ccb30082c0600080c0700001007800ef
:10f5d00090e6b7004f047800000006009eff370059
:10f5e000f2c3b30002c06000f169200091407800ce
:10f5f00002ccb30082c0600080c0700001007800bf
:10f600009fe6b7004f0478000000060092ff370025
:10f61000f2c3b30002c0600051692000914078003d
:10f6200002ccb30082c0600080c07000010078008e
:10f6300095e6b7004f0478000000060086ff37000b
:10f64000881f7800000478008000eb00c8aa020040
:10f65000000000008000eb000800780026aa0200ed
:10f66000000000008000eb000800780094aa02006f
:10f67000000000008000eb0008007800aeaa020045
:10f68000000000001100200008007800c6a9020058
:10f69000000000001100200008007800aca9020062
:10f6a000000000004f04780000000600881f78006a
:10f6b000000278000104780083007800e10f510017
:10f6c00011003200e20f5100230032000200e0007e
:10f6d000020032004f047800000006000300e00042
:10f6e0000300320090ae2d0060407c008080fb0063
:10f6f00004007800c8aa0200000000004f0478004f
:10f7000000000600f5ff3700f00320000300e000d2
:10f710001a003a00e10f540027003200e20f5400b3
:10f720001a0032000800e000eaff3a00f043b2009d
:10f73000816a20009140780002ccb30082c0600052
:10f7400080c0700001007800a8e6b7004f04780080
:10f7500000000600e1ff37000300e000e4ff320094
:10f7600060ae2d0060407c008080fb0004007800cb
:10f77000c8aa020000000000e0ff37000400780083
:10f780002cab020000000000e2ff3700f043b200a3
:10f79000816b20009140780002ccb30082c06000f1
:10f7a00080c0700001007800b8e6b7004f04780010
:10f7b00000000600c9ff3700f043b200c16a200014
:10f7c0009140780002ccb30082c0600080c070001d
:10f7d00001007800ace6b7004f0478000000060096
:10f7e000beff37000000fe0000000600889fbe003c
:10f7f0008a1f78001a028000000e20001002880084
:10f800002ac80200000000009660a9001200200033
:10f81000110020000000eb0078fe07001800200017
:10f82000f90220008000eb000800780037fe070096
:10f830000804e800890f5400faff3a008660a90026
:10f840009660a800adc0bf00f1c8b30001406000e1
:10f850000044a000ade0b700aac402000000000010
:10f8600054910200000000000a7302000000000032
:10f87000a06f020000000000667802000000000097
:10f880007880020000000000f68a020000000000fc
:10f890001a0288004f0578004f04be0000000600e1
:10f8a0001e00fa00881f78000004780020c0b30012
:10f8b00080e79f0082002000c1ae2d000800780084
:10f8c00090520200000000000000e0000e003a002c
:10f8d00011c0b300618060004800dd008fb0970068
:10f8e0000180a1008080700081b79f0000fe2f0082
:10f8f0000f004000465c0200000000004f0478004a
:10f900000080fa00000006008200200051af2d00a8
:10f910000800780090520200000000000000e000a3
:10f92000ebff320082002000e1af2d0008007800dc
:10f9300090520200000000000000e000e4ff3200ee
:10f940008200200071b02d00080078009052020063
:10f95000000000000000e000ddff32008200200017
:10f9600001b12d0008007800905202000000000054
:10f970008040eb000000e000d6ff3a0011c0b30069
:10f98000d4ff3700809fbe00829fbe003200f80087
:10f99000002020009001880021e780000100e000a5
:10f9a00010003200a0eb80000004b00001017800dc
:10f9b00083d021000288a3000300320013087800de
:10f9c000820078000180a100818040000101780060
:10f9d0008381e900680050000100e000f5ff3a0073
:10f9e00021e788008780a9003200f9004f01be009e
:10f9f0004f00be00004006008f02b000889fbe008e
:10fa00008a9fbe008c9fbe008e1f78000005780084
:10fa10008000eb00a2880200000000004350dd00df
:10fa2000a1eb8000010440006803440098059000a9
:10fa30000b10b2000a07450060ce21006e0078006e
:10fa4000f0b79f00180c68000b00e00001003200c6
:10fa5000160b6800a1d021006e8078000000e00045
:10fa60006100320001fd2f0081814700c0c1b30059
:10fa7000804978006f0065004800dd00f10f2f001d
:10fa800093896000930970000b00e0002d003a009c
:10fa900028009000a800900080805000e1a79f00ff
:10faa000f00f2000808f50003e0036002200200022
:10fab00002407800ce00dd00f0ff230093096000d3
