:020000040000fa
:080000000002040000000000f2
:020000040000fa
:100400008fdb20000eff27000e0188000000000097
:100410000c000700a0302100010020001d00070093
:10042000000020000000e000020032000000020096
:1004300000000000580d0200000000000040da003b
:100440000000fe00000020000000e000020032007a
:10045000000020009001880000000600f03fb1007d
:100460000180b10006003500ee0309000000000025
:10047000403fb1000180b100fbff3d001000b00023
:10048000203fb0000200350000800900000000009d
:1004900000000600a1028800800078000000eb0048
:1004a0001a003700e280400054a0b4009101ba0065
:1004b000e280400054a0b4009102ba00e280400003
:1004c00054a0b4000002eb00472bde00f507b20099
:1004d000a6018800602ce10008003a000049eb000a
:1004e0000201e800020039003420ec0002f0a00014
:1004f0008301e900f9ff3e00040037006128e100b4
:10050000010032000082eb00040007001101ba0074
:100510000200e000e3ff3a000000060004d0a30060
:10052000e20f49001c003900810278003549ba0009
:100530000201e800020039003420ec0002f0a000c3
:100540008301e9000f0032002549ba000201e800ea
:10055000020039003420ec0002f0a0008301e90021
:10056000080032000400e0000600320015c9ba009d
:100570000201e800020039003420ec0002f0a00083
:100580008301e9008180e80054a0b4000300e0008a
:10059000e2ff3a00000006009102ba000559780017
:1005a0008301e900f7ff3200c82ade000559780010
:1005b0008301e900f3ff32000400e000f1ff3200a4
:1005c00011d9ba00eeff37005400f800a1028800ec
:1005d0008002780062004000e08048003549ba009f
:1005e0003204e0000410a700100032008301e9008b
:1005f0000e0032002549ba003204e0000410a700c2
:100600000a0032008301e900080032000408a30058
:10061000eeff320015c9ba003204e0000410a70052
:10062000020032008301e900e8ff3a005400f900bb
:10063000000006008001eb000200370061f0790045
:100640008301e800828f5100fcff3a0000000600a1
:100650000400fa00e0bf9f00e48157008129780080
:100660000002eb000f0037006fb897009040780051
:100670007fb89700104078000402e80080cf500057
:10068000040032008180fb000080fb0000805000ed
:10069000070037006fb897000000e800e0bf9f0038
:1006a0009309e800820f5200efff3a000000eb00d0
:1006b0000080fa00000006000040da000000fe00a2
:0406c0000000fe0038
:020000040000fa
:109f000050490000584c0000303000003230000052
:109f1000494f0000494f000030340000303100004c
:020000040000fa
:020000040005f5
:0457f400131c000082
:020000040000fa
:020000040005f5
:0457f8009f09000005
:020000040000fa
:020000040005f5
:0457fc007f3e0000ec
:020000040000fa
:1000080060030000085000000c5000001050000071
:10001800145000006003000060030000600300004b
:10002800185000001c500000205000002450000010
:1000380060030000285000002c50000030500000e1
:1000480034500000385000003c5000004050000080
:1000580044500000485000006003000060030000a6
:100068004c50000050500000545000005850000000
:100078005c50000060030000605000006450000005
:1000880060030000685000006c50000070500000d1
:1000980074500000785000007c5000008050000030
:1000a80084500000885000006003000060030000d6
:1000b800600300008c500000905000009450000035
:1000c800985000009c500000a0500000a450000070
:1000d800a8500000ac50000060030000600300005e
:1000e80060030000b0500000b4500000600300003e
:1000f80060030000b8500000bc500000600300001e
:10010800600300006003000060030000600300005b
:100118006003000060030000c0500000600300009e
:1001280060030000c4500000c8500000cc5000001c
:10013800600300006003000060030000600300002b
:10014800d05000006003000060030000600300005e
:1001580060030000d450000060030000600300004a
:1001680060030000d8500000dc500000e0500000a0
:10017800e4500000e85000000c510000ec50000072
:10018800f0500000f4500000f8500000fc5000004f
:1001980000510000045100006003000060030000eb
:1001a80060030000600300006003000060030000bb
:1001b80008510000600300006003000060030000b5
:1001c800600300006003000060030000600300009b
:1001d800600300006003000060030000600300008b
:1001e800600300006003000060030000600300007b
:0801f800600300006003000039
:020000040000fa
:1006c4000200fa00889fbe008a1f780084c4bf001d
:1006d4000038a30005003a000000eb00a0248800c5
:1006e40060248800304d880037033700314d800086
:1006f4000100e00010003a00a12488006124880071
:100704002000200030258800412588008644a90067
:10071400f00920008024880060248800010037004c
:100724009404a80094c4bf000008a300fcff320096
:1007340010002000304d8800304d8000e10f500043
:1007440009003a0094c4bf000068a30006003a0000
:100754008aa4ef008c24ef008c04a8008c84a800e9
:1007640020002000304d880080c4bf000048a30052
:100774000c00320082c4bf000048a300090032000c
:1007840008012000082488000001eb00424d880085
:1007940082007800400720003a0b07008284a900f9
:1007a4000824880088c4bf000018a30006033a0088
:1007b4008ac4bf000008a300080032008cc4bf0034
:1007c4000008a300050032001509070040002000be
:1007d400304d880010002000502488008ac4bf00d7
:1007e4000048a3000d0032008cc4bf000048a300e1
:1007f4000a0032008284a8000801200058248800de
:1008040010002000404d88000001eb008000eb0048
:10081400500720001b0b0700582488008ac4bf001f
:100824000028a300090032008cc4bf000028a300e4
:1008340004003200120020008000eb00300720008a
:10084400100b070040002000502488008a44e20076
:1008540014003d008c44e20012003d00aac4bf0015
:100864000018a3000d003200824c800092409000da
:1008740000c8b30080cf500007003a00904c8000bd
:100884009040900040c8b30080cf500002003a006e
:100894006840400010419800aa24a90000082000e4
:1008a400502488008ac4bf000018a3000a00320044
:1008b4008cc4bf000018a3000700320012002000ff
:1008c4008000eb00f0ff2700ee0a07008ea4ef0083
:1008d4002000200050248800304d8000e30f500099
:1008e400b90236008cc4bf000038a300b60232003f
:1008f4000045eb008ac4bf000038a300b2023200f6
:1009040090248000919820008048780082982000ec
:100914000080fb004400de000049780080002000d5
:10092400502488001281fb009140780068c0600068
:1009340002003a00f09720000100370020982000c0
:100944000000410010417800e14061000104a20070
:100954001004a10010c87000809820001004e0006a
:1009640092023a00909820001080fb0080017800e9
:100974000320a1000300e00052023a00c00fb200bd
:1009840001a0200001014000824c8800724c8800c4
:10099400e09820001024a20012409000c043b2004e
:1009a40041c3b300814f5000ed013a00820078004a
:1009b400249720001100900090717a00110090009b
:1009c4000000e800900098008301e800e88f5100df
:1009d400f8ff3a0094009800d09820000048eb00fb
:1009e4008000eb00a14d8800914d8800b14d880036
:1009f400314c8800c09820000148780022992000da
:100a0400934c8000134090000074a1009041980022
:100a14001224a200934c8000134090000074a100a3
:100a2400904198001224a200724c80001240900061
:100a34000074a10010419800e09a20000148780059
:100a4400814d8800009a200001487800109a200007
:100a540001487800209a20000148780001c6b300bc
:100a640014c0600084013a003097200010407800e0
:100a74000080fb0001002000eb0f5000e08f5800c5
:100a84007d013e000060010069003700a9003700c5
:100a940079013700a70037007701370006003700d7
:100aa4000a003700700137005f0037003400370058
:100ab4005701370062013700704d80000070a000bc
:100ac400704d8800800020005000370021972000de
:100ad40000c8b300914f100067013a00e19a20006a
:100ae40000ccb30080487800509720001040780074
:100af400e24f500008003200e34f50001200320071
:100b0400e14f50001c003a00c0882000604d88006e
:100b14002001200016003700409720001080fb00c1
:100b24000000400061802000e0807800614d880072
:100b3400009b20002141900002487800109b200077
:100b4400b1409000790037004097200022c0b300e4
:100b5400904f110008003e001080fb000000400090
:100b64000180200060807800604d88001080fb00c8
:100b7400804d8800400137008048eb003e0137007b
:100b8400704d80000070a000704d8800ac24ef0010
:100b9400ae24ef000000eb0001a020008018eb0061
:100ba4008018eb000000e800ec0f5000fbff3a0057
:100bb4009424a8000000eb002398200080407800d3
:100bc400f297200001f07900017079000000e8003c
:100bd400e30f5000fbff3a009424a90080a02000fa
:100be400904c880000a02000804c8800704c880045
:100bf4004097200010407800519a200080487800e7
:100c04000004e00003003a0000012000304d880099
:100c1400190137001200200010002000190a0700f3
:100c240000022000f9ff3700509a2000fc00370032
:100c3400a19620008048eb00b09620000048eb000d
:100c440020972000104078007f4060000080fb0067
:100c5400e10f50000d003200e20f50000f0032008f
:100c64000000e00026003a00704d80000070a000f3
:100c7400704d88001104a000504d8000e10f500019
:100c84001f003a001114a0001d003700704d8000b1
:100c94000070a000704d880019003700704d80006e
:100ca4000070a000704d8800609720001004e000e0
:100cb40006003500104078006f4060000080fb00a3
:100cc40000004000819920000500370010407800a2
:100cd4006f4060000080fb0000004000219920006c
:100ce400610078000140280010806000810f5000ee
:100cf40003003a0011c0b300a09620000148780018
:100d0400e19a20000008200011006000da0032009f
:100d1400a0962000604d8800704d80000000a00067
:100d2400704d880021c0b300009b2000014878006a
:100d3400d10037004097200011c0b30090cf1000bd
:100d44000f003a0020972000104078007f40600098
:100d54000b003a00704d80000070a000704d8800b8
:100d64003097200032c0b300904f110002003a00c7
:100d740010002000010037000000eb00504d8800f7
:100d8400409720001004e000bb003a0020972000a8
:100d9400104078007f406000e24f5000b6003a00f7
:100da40062972000924078006fc06000b200320069
:100db400924078006fc060000080fb00e20f50009a
:100dc400ad003c00314d800000022000808f5000b7
:100dd400a9003a00704d80000070a000704d88009a
:100de4001204e0000c003500924078006fc06000ef
:100df4000080fb000000400081992000e1007800a1
:100e0400c1bf9f00124178006f4061000080fb0069
:100e1400f19720000b003700924078006fc060000b
:100e24000080fb000000400021992000e1007800d0
:100e3400c1bf9f00124178006f4061000080fb0039
:100e440021982000614478000808a30004003a00b7
:100e54000ff997000224a10082ff9f0003003700ce
:100e64000ff897000024a00080ff9f0060972000e7
:100e74001004e00006003500104078006f40600068
:100e84000080fb000000400081992000050037002d
:100e9400104078006f4060000080fb0000004000bc
:100ea400219920004fb997008230780030972000b4
:100eb40031c0b30090cf100017003a004fb897002c
:100ec4001000e0000e003d00609720001004e000d8
:100ed40005003500104078006f4060000080fb0082
:100ee400f197200004003700104078006f40600044
:100ef4000080fb0021982000010040001014a00095
:100f04004fb897009040900042c8b30082c0700070
:100f14001140980058003700e88457000ff99700f3
:100f24000224a20082ff9f00cfb8970011409000d6
:100f34001100e0000b003d000074a10090409800f7
:100f4400cfb89700114090000064a0009040980032
:100f540022002000cfb89700500020004909070064
:100f6400020037000064a000904098001924a200f9
:100f74000818a30003003a00cfb897001100e0005e
:100f840017003d00609720001004e00005003500c4
:100f9400104078006f4060000080fb00f197200053
:100fa40004003700104078006f4060000080fb00b0
:100fb40021982000010040001014a100cfb8970030
:100fc40011409000b043b2009040980022002000ed
:100fd400cfb89700500020002a090700030037000b
:100fe40011409000b043b2009040980060972000f8
:100ff400104078006f4060000080fb00000040005b
:10100400a14a2000010040001014a1001a0037007a
:10101400609720001080fb0021992000010040000f
:10102400604d8800714d800012c0b300009b200009
:10103400024878001108b300714d88000e00370093
:10104400704d80000070a000704d880060972000f3
:10105400104078000080fb00429720002199200076
:1010640092707800040037000001eb008000eb0070
:1010740020002000030907000001eb008000eb00c2
:1010840030002000ff08070094a4a900e19a200082
:10109400000820001104600016003a00009a2000a5
:1010a4001004e0000a003d0020c0b300c1982000f5
:1010b40080487800b04d80000000e00001003a0054
:1010c4007f070700d84b8800e84b8800bb00370037
:1010d40081c0b300704c800001487800714c8000de
:1010e4002097200090009800c0c8b300904098005a
:1010f40093003700c1982000229720001204e000da
:1011040007003d0010c0b30080487800904d800077
:101114000000e0000b003a006907070009003700ef
:1011240020c0b3008048780081c0b300704c8000b8
:1011340001487800714c80009200980040c8b300c8
:10114400904098000000eb00d04b8800e04b8800f2
:10115400a04d80000000e00098003a0049003700ec
:10116400c098200021c0b30090cf100047003a007f
:1011740012427800129a20001280fb00259a200067
:101184009580fb00c808dd00808070000480fb00af
:10119400810f500001003600014278000480fb00fa
:1011a40000805000004978004800de00804a780042
:1011b400e6992000f5992000a79620000a00370040
:1011c4001680fb009580fb00c808dd00808070005d
:1011d4000280fb00e7587800014b7800c808de0065
:1011e400814a78008301e8000341780084cf5100ec
:1011f400f3ff3900724c8000109a20009080fb00ad
:10120400209a20001080fb004800dd0001007000df
:101214000a00320080c0b30000497800714c80009d
:10122400a096200090009800804c80001040900010
:101234000068a300490032004a00370080c0b300b0
:1012440000497800714c800020972000900098009d
:1012540040c8b30090409800309a20009080fb0072
:10126400409a20001080fb004800dd00010070005f
:101274000100320000000100009a20001074a10057
:10128400b3ff3700340707004c00370003487800e9
:10129400304c80000000e00008003a0081c0b30038
:1012a400704c800001487800714c80002097200029
:1012b40090009800c0c8b3002b003700334c88005e
:1012c4003e003700e88f51003c003a00219920008d
:1012d400904c8000104090004600de0061046000e5
:1012e4001124a200304d8000e80f500008003a009d
:1012f400409720001080fb00b024880000012000eb
:101304009604e20001003a0040002000304d8800bd
:10131400c098200012c0b300904f110014003a008e
:10132400a0962000914c8000900098008b06070046
:10133400d098200021c0b30090cf100004003a00e0
:1013440041c8b300904c8000114098001b00370046
:10135400914c80000804e00002003a0080ccb30005
:101364000100370080c8b300904098001300370094
:10137400089a20001804e00009003d00309a20007b
:101384009080fb00409a20001080fb004800dd00a4
:101394000100700001003200000001001874a10077
:1013a400c09820000048eb00040037000001eb0067
:1013b4009198200020072000320807000a45e80021
:1013c400e44f55004bfd3a008ec0a9004f0578004c
:0c13d4004f04be000080fa00000006007c
:020000040000fa
:1013e000800078001081fb00e0b7200060417900a8
:1013f0000241e8000281fb0080b82000330337007f
:101400001e00fa00881f78000004eb00e8578800ef
:101410003857880010002000010020001057880075
:101420002157880008578800885c8800685c88001d
:10143000785c880000042000d057880088e79f006f
:10144000f10f20000fb097000100600080b79f00ef
:10145000002024000fb197000001710082b79f00a7
:1014600002f02f001fb0970002006000f004b300ec
:101470000100600001f024000100700090b79f009f
:101480002fb09700020060004005b300a0b79f0096
:1014900008027800830020007b81570000f82400b8
:1014a0000110200048fc070008027800830020009b
:1014b0007381570080f824000110200042fc0700cf
:1014c0006b80570021ba20000700090031587800ce
:1014d0008000b10000fe2f000f004000c0ff070099
:1014e0004f0478000080fa00000006000200fa00b5
:1014f000c0ad20001004e00015003a00e157800064
:101500000100e0000400320080b820009f020700c4
:101510000000eb00e0578800c2af20008f80e90098
:1015200080b82000c6020700e15780000100e000fb
:1015300007003400d0578000808f50000100340035
:10154000e0578800e15780007fb89700dd0707006b
:101550000080fa0000000600889fbe008a9fbe003f
:101560008005780001057800bc0037006154b800a0
:10157000125780002357800000578000820f5400cc
:10158000838f5c0024003900e20f500012003a0003
:10159000f45680008002eb000400370065c07d0037
:1015a0000080fb00000242008502e8006128b900cb
:1015b000820f5000838f5800f8ff3900f4568800de
:1015c000820078000b007800a00307000000e00014
:1015d0000a003a00a50037003057800081ae200095
:1015e000010040008b00780012fc0700305780009b
:1015f00021ae2000110040003057880010578000b5
:1016000080854500000555006000b800105788002f
:101610002157880022003700e20f500010003a00e6
:10162000f15680000001eb000400370062c07d002d
:101630000080fb00808040000201e8008a0f51001a
:10164000faff3a00f15688008a0078000b00780013
:101650007e0307000000e0000a003a008300370024
:101660003057800081ae2000010040000a01780060
:101670008b007800effb070030578000000045002a
:101680003057880010578000215780000800500014
:101690008980580010578800215788000005eb000a
:1016a0001057800021578000e00f5000e08f580055
:1016b0006a003a0000578000e10f5000130032002a
:1016c00003003900e20f500064003a005800370070
:1016d000100020000057880080ae200010407800e5
:1016e000e44f500061003e008080fb0030b82000d5
:1016f00060c178000280fb000100200010578800c4
:10170000215788000204e00054003a000004eb0076
:1017100008578800100020000100200010578800a2
:10172000215788003857880080ae2000104078008c
:10173000e24f50002100320005003e000004e000ae
:1017400008003200e14f500048003a00180037000e
:10175000e34f50001b003200e44f500043003a00ba
:101760001d00370090ae20009080fb00a0ae20004e
:101770001080fb004800dd0001017000b0ae2000c9
:101780009080fb00c0ae20001080fb004800dd0010
:101790008101700090f4240091f42400800f510026
:1017a000818f590031003a000303070031003700f0
:1017b00090ae2000020307002e00370088020700c9
:1017c0000200370090ae2000c60207000004e000cf
:1017d0002600320027003700200020000057880034
:1017e00090ae20009080fb00a0ae20001080fb0097
:1017f0004800dd0001017000b0ae20009080fb00c9
:10180000c0ae20001080fb004800dd0081017000a8
:1018100012578800235788008d0207000004e0005b
:1018200012003200f8568800fc0207001100370051
:101830006e0307000000e0000c003200f05680004c
:10184000c90207000000eb000057880010002000cc
:101850000100200010578800215788000a00e0008e
:1018600042ff3a0010002000080037000000eb00a3
:10187000060037001057800021578000e00f50000d
:10188000e08f5800f5ff3a00e9ff37004f05be0032
:101890004f04be00000006008a44a8008ac4bf00ae
:1018a0000028a300fdff32003208800040088000bd
:1018b0000300200001002000c000dd000000200027
:1018c00000027100818271008a44a8008ac4bf00ae
:1018d0000028a300fdff320030088000420880008d
:1018e0000100200003002000c011dd0002002000e4
:1018f0000200700083807000040050008580580052
:1019000000000600881f78003f0207008040780032
:10191000f0c3b30080cf50005a003600d782a80031
:10192000d582a800d182a90002070700800020000c
:10193000800888000ea1ef00700880006008880011
:1019400080002800800888000004eb0012003700a7
:10195000f5060700f0ff2300000064000804e8001b
:101960000000e0000c003a00d5c2bf000080fb0080
:101970004400de000004a200614060004400dd007d
:10198000512d2000914078000144a10080c07000da
:1019900001007800d5e2b700304d8000e20f500022
:1019a000ebff3a00d582a80048c7bf0001ccb300c6
:1019b0000140600048e7b700f8012000b6ff0700cb
:1019c0000001be0080562c00f1ff2f0002004000f5
:1019d00083804800047d2000840f5000e08f580071
:1019e000f6ff3e00f0e72300800f5100e08f590022
:1019f00006003e0048c7bf00f043b200ff4f500052
:101a0000150032004847ec000b00370004e82300c3
:101a1000840f5100e08f59000f00360048c7bf0007
:101a2000f043b20001c2b300814f50000a003200ff
:101a300048c7bf00f043b000f043b20081742000fb
:101a40009140780002ccb30082c0600080c070007a
:101a50000100780048e7b7000804e900d7ff3b0021
:101a60001021ef00aa06070000802400811e20003c
:101a70007afa070048c7bf00f043b200e701070049
:101a800009003700f2c3b30002c060008174200077
:101a90009140780002ccb30082c0600080c070002a
:101aa0000100780048e7b7004f0478000000060006
:101ab000881f7800d3c2bf000048a3000300320093
:101ac00090ff07000050040000000000d3c2bf00d8
:101ad0000048a300fdff3200d782a800d582a800ed
:101ae000d182a9007020a800eac2bf007020a9001e
:101af0000048a30001003a00f301070081ff07003e
:101b00005800200008003700d582a90000a0260058
:101b10008101200051fa0700d582a80000402d0065
:101b2000010320004dfa07000804e900e10f44001a
:101b3000f5ff3a007f060700010037007a0607002c
:101b4000314d800000022000808f5000fbff3a00e2
:101b5000205680000000e000f8ff320028fe070059
:101b6000120037007006070001c4b300809b2000fc
:101b7000850507008080fb00809b200076fe070023
:101b80000004e00008003a000000eb00a0248800f8
:101b900060248800304d880000802400811e2000d1
:101ba0002efa0700e6ff370050fe0700314d800097
:101bb00000022000808f5000e1ff3a002056800094
:101bc0000000e000e7ff3a00ddff370010000500ed
:101bd00087c0bf000068a300fdff3200b011800085
:101be00087c0a9000000fb000000060020022000c2
:101bf000c01188000000eb00801188003062a8004e
:101c00009011880031e2a8003342a80087c0a900e3
:101c10000000060087c0bf004600de0061006000d3
:101c2000000006000000fb00a0118800000000007a
:101c300033c2bf000008a300fdff32000000060011
:101c4000881f78000004780001003700f5ff0700c6
:101c5000384078000004e000fcff3a004f047800b0
:101c600000000600881f7800004478000042eb0066
:101c700030c6b300804f5400070036000880fb00d8
:101c800042062000110009000280d8000043b00085
:101c9000e4ff070014c0b3000880fb0042062000e8
:101ca000110009000280d8000280b90000445400ed
:101cb000e94f540002003e00e14f520006003a0096
:101cc0000880fb00a2002000110009000280d8005b
:101cd0000043b000d3ff07000880fb00a2002000f3
:101ce000110009000280d8008000fd006a08b900d8
:101cf000004054000043b000caff07004f047800c2
:101d000000000600889fbe00800478004480de004a
:101d10006f00600028b9200068407800c1ff07000c
:101d20006f80640068407800beff07004f04be006b
:101d300000000600889fbe00800478004c00de0092
:101d400028b9200068407800b6ff07004848de0048
:101d50006f00600068407800b2ff07004448de0072
:101d60006f00600068407800aeff07006f8064007d
:101d700068407800abff07004f04be00000006007b
:101d8000889fbe008a1f78000004be004c08de0059
:101d90006f0060002ab920006a407800a1ff0700a8
:101da0004848de00010020006f0060006a407800b3
:101db0009cff07004448de00010020006f00600027
:101dc0006a40780097ff07004048de0001002000cd
:101dd0006f0060006a40780092ff07004449dd0010
:101de0004c40de0000007100cc48de006f00600057
:101df0006a4078008bff07004849dd004840de005c
:101e000000007100c848de006f0060006a40780082
:101e100084ff07004c49dd004440de0000007100f3
:101e2000c448de006f0060006a4078007dff070054
:101e30006f0464006a407c007aff07004f05780059
:101e40004f04be00000006008040780060c6b3006a
:101e500080cf500017003c006640500080cf5000fb
:101e60000200340090cab3000f00370060c4b30012
:101e700080cf50000f003c006640500080cf5000e3
:101e80000200340090ccb3000700370090c3b300c9
:101e900080cf500007003c006a40500080cf5000c7
:101ea0000400340000cdb30000c040000000fb007f
:101eb00000000600000005006f406000e94f500080
:101ec000030034007043b0000000fb000000060077
:101ed0000043b0000000fb000000060032c2bf005b
:101ee0000018a300010032003222a9000000060001
:101ef00000000600000178002000900092007800a9
:101f0000e14178000000e800200198009200900074
:101f1000810f500002003a000000eb002001980001
:101f2000680041008080eb00108840000380fb00c7
:101f300000000600881f7800800378000104780004
:101f4000c0009000810f54000100340001047800ab
:101f50002703900017094300170190000800430071
:101f6000820f5000050034000600510080097800ff
:101f7000170a7800800a54000200370088097800a8
:101f8000800aeb004f047800000006000001780092
:101f900020009000808140002301980068004100eb
:101fa0008100ea001088400012009000808f5100ec
:101fb000020035000080510020019800000006005a
:101fc0000800fa00889fbe008a1f7800000578008c
:101fd0000104780082047800e88257006c82570080
:101fe000ea8157006e81570089007800d1ff070011
:101ff0003fb997000200e000030032009fb897004d
:10200000080078008bf907004fb997000200e00044
:10201000040032003fb8970000004400afb89700ba
:1020200084f90700890078000a007800d7ff0700cc
:102030004f0578004f04be000080fa000000060043
:10204000a001900090884100c00090000100e000d5
:1020500002003a000109780000000600b00090007c
:10206000838f500003003c001000900003095000d3
:1020700000000600038950000000060000017800ff
:1020800081417800c000900010009000808f5000c7
:102090000d003200320090009200780083707800ca
:1020a0000000e8003001980092009000810f50007d
:1020b00002003a000000eb0030019800e800410007
:1020c000100020009108400000000600889fbe001c
:1020d0008a9fbe00800478008105780002057800a0
:1020e0000200e0002600320040009000190190003c
:1020f0000a004000820f500021003c00b90090000f
:102100000a80400099814000820f50000c003c0082
:102110000a0178008b0078000300780045f9070079
:102120003900900000004500b0049800990090002c
:10213000810f500010003a000000eb000d00370046
:1021400001045100080178008b007800030078003a
:1021500038f907001900780008015500888045000b
:1021600034f907001900900000005500b9009000f4
:1021700001004000b0049800688044001008450049
:102180004f05be004f04be0000000600889fbe0041
:102190008a1f78000005780008402a0029002000e6
:1021a0000800be00e8010700004d78004800de008e
:1021b000104598000a85e80062044400e0844c0061
:1021c00000412a0021002000800f5400818f5c0014
:1021d000f3ff3a004f0578004f04be0000000600f0
:1021e0001e00fa007e80570021c0b300015878001d
:1021f000e6ff07007e80570079fc070010002000f2
:102200000080fa000000060000412a0021002000a2
:10221000cd0107000080fb00000006000080fb00ed
:102220000100200002f02f00f3ff2f0002017000d8
:102230008381700000412a002100200081010700f5
:102240000000e00001003200100020000000060045
:102250001000fa00881f780072805700cbff07003b
:10226000728057008f80e90000c1eb00b04f110071
:1022700004003a00810f5000fbff3a0010002000dc
:102280000e003700e0ff07000044780000402a00fd
:1022900021002000540107000000e000050032008a
:1022a00008407800ddff0700110020000004e00076
:1022b00001003a008000eb000180fb004f04780031
:1022c0000080fa000000060000402a0021002000e3
:1022d000450107000000e00001003200100020006e
:1022e00000000600889fbe008a1f78000004780066
:1022f000d7ff07000004e00017003200080578004f
:1023000008402a00290020006011b8001a81fb0053
:102310001a4090004800dd00f20fb2000001710089
:102320000a85e8000800be00460107000000e00042
:102330000900320062044400e0844c0000412a009d
:1023400021002000800f5400818f5c00eeff3a00d6
:1023500010002000010037000000eb004f0578005e
:102360004f04be00000006001e00fa0041c0b3008a
:10237000a1e79f00f20f2000c800dd009fb1970089
:10238000828161008181710093b79f004800de0067
:1023900002006000afb0970002f02f008280600062
:1023a00080807000a1b79f007e8057000cfc070062
:1023b0000080fa00000006000000fe000000060099
:1023c0001e00fa00889fbe0019c0b300e9df9f001d
:1023d0000044eb0082002000c1ba20009cf80700f6
:1023e0000000e00001003a00094478006100640048
:1023f0004800dd00ffa897000180a10080807000e8
:10240000f1af9f00e0fd2f000f004000f4fb07003c
:102410004f04be000080fa0000000600508a200031
:102420000048eb0081c0b300408a200001487800da
:102430000080eb008080eb0000458800114588009b
:102440000000eb00f044880000000600889fbe00fa
:102450008a9fbe008c9fbe008e1f78008006780089
:102460000106780057003700418a20001180fb00e8
:102470000c047800800f560001003600000478003c
:102480005e8a20001e80fb00698a2000090040004f
:10249000080178008d00780066f807001e4f4400a0
:1024a000428a20001240780008405000004978001d
:1024b00088864600080656000004e00041003a0005
:1024c000f04480000000e00003003200e10f500003
:1024d0003c003a000d00370082002000819f200060
:1024e000090078005af807000000e00039003a00bf
:1024f000004f780040ccb300418a2000804878002b
:1025000010002000f04488002e0037003a4580007b
:102510004b4580000a03be000a007800f007b200b5
:102520002c003a0000002b00f1ff2f000a004000b1
:102530008b804800f23f250023002000820f5000ce
:10254000838f580023003e0004458000154580001d
:10255000e10f4200e08f4a0003003200840f550073
:10256000858f5d001b00390000c02f000000630054
:1025700087017800000178000204be00840f540037
:10258000858f5c00060032000800be009600070040
:102590000000e0000f00320008458800194588005f
:1025a000a28a20000a00be00bc0007000000e00074
:1025b00008003200004feb0040ccb300428a2000fc
:1025c000004978000c00e000a7ff3a00100020004e
:1025d000010037000000eb004f0778004f06be00f7
:1025e0004f05be004f04be0000000600f24480000c
:1025f000e10f510006003a00418a200040ccb300b0
:10260000914f100002003a0002007800000006001e
:0426100000000500c1
:020000040000fa
:10261400f80900000800000082000000494f49004a
:102624004f010000000000009e080000cc000000e4
:10263400800000007e0b00001400000082000000f7
:102644001c011000000204000800100004fe0a002f
:10265400800000000000000000000000de0a00000e
:10266400a000000080000000a20b00000a0000008f
:1026740082000000494f49004f30300033300000e1
:1026840000000000ac0b00000a0000008200000003
:10269400424f4f0054303000303100000000000041
:1026a400920b000010000000820000003031320064
:1026b400333435003637380039414200434445004d
:1026c40046000000b809000040000000800000003f
:1026d400300a0000ae000000800000006a0900001b
:1026e4004e00000080000000000a000030000000de
:1026f40080000000b60b0000020000008000000013
:10270400000800009e00000082000000440812003f
:102714000808080048080a00034900004f0049005f
:10272400004f000032034900004f000049004f00f1
:10273400002000004f007000006500006e002d00b6
:10274400005300006f007500007200006300650014
:102754000020000050007200006f00006a00650055
:10276400006300007400040003090400090243002c
:102774000002010000c0fa00090400000001020088
:1027840002010000052400001001040024020200dc
:1027940005240600000105002401000001070500ce
:1027a400810308000002090004010000020a00007d
:1027b4000000070005020200400000000705820037
:1027c40002400000000012000100020002000000ac
:1027d400084f1b0008000000020102000001000075
:0427e40000000000f1
:020000040000fa
:1027e80022042400023b88000181fb00a202880029
:1027f8000081eb000208bb000500fc00500520002a
:10280800303b8800a00a2000303b880061e7a80020
:1028180000000000000000006147e200feff3500f4
:1028280061c7a90061c7bf000080fb004500de004a
:102838000000a200610060000000060034002400cf
:10284800043b8800a10288000208bb000388bb0083
:102858000500fc0050052000303b8800a00a20003d
:10286800303b880061e7a80000000000000000007d
:102878006147e200feff350061c7a90061c7bf00dc
:102888000080fb004500de000000a200610060003f
:10289800000006006022b80013002400033b8800f3
:1028a800a1028800800078008001eb0006f02f006c
:1028b800070c20001280fb00040263000002720073
:1028c800124090004800dd00f40fb20000027200d0
:1028d800224090000080fb00850263008082720025
:1028e800e38141008408bb008588bb008180e80043
:1028f80063014100878f5100eeff3a000500fc009c
:1029080050052000303b8800a00a2000303b88009a
:1029180061e7a80000000000000000006147e20035
:10292800feff350061c7a90061c7bf000080fb003a
:102938004500de000000a200610060000000060003
:10294800a10288009081ba001001ba000200be00fe
:042958000000060075
:020000040000fa
:10295c00881f7800f05180000000e0000300320076
:10296c00104090000004e00051003500c8ad20007c
:10297c0030c0b300984f100001003a00004ceb003f
:10298c00184078000004e00049003200e24f50008b
:10299c0008003a008041eb000001eb0011c0b300cd
:1029ac0090010700f051880030c0b300004c780053
:1029bc003f003700e14f50003d003a0090ad200041
:1029cc009040780000c4b30080cf50000200360065
:1029dc0080417800010037008141780090ad2000e3
:1029ec0003c8500040a420001052880080ad200085
:1029fc001004e00002003200034178001a00370096
:102a0c00034178000042eb000a003700d1568000e9
:102a1c001052800011487800105280000000e8002d
:102a2c0010528800d05680000000e800d056880074
:102a3c000241e900844f5100f4ff3a000c003700ca
:102a4c00d15680001052800011487800105280003e
:102a5c000000e80010528800d05680000000e8000a
:102a6c00d05688000241e9000204e000f4ff3a006d
:102a7c0090ad20001004e00008003a00c1ad200029
:102a8c0000c4b30080cf510002003a0020c0b30054
:102a9c000100370030c0b3008048780042a4200009
:102aac0011c0b30020c0b3004e010700f0518800e4
:082abc004f0478000000060041
:020000040000fa
:102ac40021972000114178007f406100e14f5000c0
:102ad40052003a0000c6b3001141600000c2b300c6
:102ae400804f51004d003a00609720001004e00030
:102af4000300320011c0b30090cf100047003a0029
:102b0400309720009040780082cf50001a003200a5
:102b140005003e000104e0000a003200e1cf50004d
:102b24003e003a000e00370010c2b30080cf5000c0
:102b3400290032000040e80080cf500037003a00fe
:102b44002d00370000a32000604d88008000200085
:102b5400804d8800704d80001008b30004003700d9
:102b640000a32000604d8800704d80000070a0001c
:102b7400704d880000000600809720009080fb00c4
:102b8400909720001080fb004800dd0001007000d9
:102b9400119a2000804878004800de00219a200025
:102ba4008048780060ac2000e199200080487800db
:102bb4004800de00f199200080487800309a200017
:102bc4000048eb00409a20000048eb00009a2000e7
:102bd4001074a0000000060060ac2000604d880066
:102be40070002000804d880011ccb300e09a2000d2
:102bf400014878000000060041972000c0a320008f
:102c040011487800e051800061006000205688007f
:102c1400704d80000070a000704d88000000060018
:020000040000fa
:102c24009ec0a9008ea4ef008aa4ef00aa24ef009e
:102c3400ac24ef00ae24ef002000200030258800f3
:102c4400a824ef008644a900f0092000802488000d
:102c5400602488008804a80001a020004808de0041
:102c6400c02488000000eb008018eb008018eb0003
:102c74000000e800ec0f5000fbff3a009424a80089
:102c84009624ef0094a4a9009424a900e09a2000bb
:102c94009040780085002000049a2000139a2000b8
:102ca400229a20000500370055248800004aeb00d2
:102cb4008049eb000049eb008040eb008ac4bf0070
:102cc4000038a300f8ff3a00e09a20000148780099
:102cd40010002000e04b8800d04b88000000eb007f
:102ce400904d8800b04d8800404d88002499200004
:102cf400819920000001780025982000f397200096
:102d0400001aeb008018eb0002f07a0002f0790060
:102d14000000e800e30f5000f9ff3a0080a0200013
:102d2400904c8800d0002000502588002097200077
:102d34001050880081c0b30000a020000148780032
:102d440041c8b30010a0200001487800509a200028
:0c2d540002487800324d880000000600a4
:020000040000fa
:102d6000814d800083c0b300e78f50000b003e0010
:102d700081417800d2982000124078000004e000e1
:102d800002003a0010c0b30003003700e14f5000ca
:102d900002003a0020c0b300004978000380fb0025
:102da00000805000804d8800904c800003487800df
:102db000a0962000504c8800e09a20001000780077
:102dc0006100600002003200034178001200370009
:102dd000034178008041eb0006003700504c800032
:102de000614d800031587800504c8800614d88005a
:102df0000241e900834f5100f8ff3a00000006004d
:102e0000504c8000614d800031587800504c880053
:102e1000614d88000241e9000204e000f8ff3a0039
:042e200000000600a8
:020000040000fa
:102e240042c0bf0001ceb300014060008000eb004f
:102e340021003200cfc0bf0082cfb3000240600047
:102e44000004a000cfe0b700832480006424800045
:102e540015248000e109200091407800c608de00b6
:102e6400e18060009024ef008c24ef008224ef00c6
:102e74008ec0a9008284a8000001200000248800dc
:102e84009ec0a8000040fe00cfc0bf00024060000a
:102e9400cfe0b700c608dd009ec0bf000064a100fb
:102ea400014070009ee0b7008324880064248800f9
:102eb400152488001100200001007800000006009d
:020000040000fa
:102ec4000000eb00904d8800b04d8800c0982000b1
:102ed40021c0b30090cf100009003a0081c0b300b4
:102ee400704c800001487800714c8000a09620004e
:102ef4009000980080ccb300904098000000060039
:102f0400839720001380fb00929720009280fb009f
:102f1400c808dd0080807000009b2000908f500066
:102f2400050031009380fb001280fb004800dd00a7
:102f340001007000804d880088ff0700a1962000e2
:102f4400904c80001100980081ccb300904c80001c
:082f5400114098000000060086
:020000040000fa
:102f5c00e04b80000000e00021003a00140020004b
:102f6c00e44b8800d14b80000100e0001c003a00cb
:102f7c00d44b8800c098200010407800e24f5000dd
:102f8c0006003a00904c80000148780081ccb300d8
:102f9c00904c80001140980000000600e14f50005a
:102fac000f003a0083c0b300804c800003487800c7
:102fbc00814c8000229720009200980040c8b300fa
:102fcc0090409800344c8800704c80000348780086
:102fdc00714c80009200980000c8b300904098009b
:042fec0000000600db
:020000040000fa
:102ff000004378000082fb00814378000104e00078
:1030000003003200840042002099200002003700b3
:103010008400420080992000e08278000500e000f2
:1030200002003a0005007800000006000682fb005e
:1030300092029800834a7800154090000044b20044
:10304000904298001540900081c8b3000140700084
:10305000904298000704e0000300320004004200a0
:1030600021992000020037000400420081992000cd
:10307000010040001024a2000500780000000600b6
:020000040000fa
:10308000881f780000b0240001002000305688001e
:10309000415688000044eb00a0ac200008487800ae
:1030a000b0ac20000848780081c0b300c0ac20005c
:1030b00001487800d0ad20000848780051c1b30025
:1030c00010c0b300b3000700d1c1b30020c0b300eb
:1030d000b000070003c4b30042a820008840780075
:1030e00020c0b300c2ff0700005288000000eb00c0
:1030f000f0518800c1ad200080487800205688003b
:083100004f04780000000600f6
:020000040000fa
:10310800014178000004e0000c003a0081c0b300df
:10311800704c800001487800714c80002097200096
:1031280090009800c0c8b3009040980041c8b30010
:10313800904c800011409800000006008080fb0041
:10314800818040000280fb0080804000c308dd00d1
:1031580002a02000028140001240900043c8b30042
:10316800034070001041980040a02000808040007b
:103178001140900003407000904098000000060045
:020000040000fa
:1031880000027800d3ad20008049eb000252800095
:103198000200e00003003200124090000004e0004a
:1031a8001200350092cf500001003600924078009e
:1031b8000301780043a82000030037000080fb00cb
:1031c800637278001249e80012407800814f50007d
:1031d800faff390003c4b30042a820008040eb0086
:1031e80020c0b30080ff070000528800d0ad200047
:0831f8001080fb00000006003e
:020000040000fa
:103200008040780094c4bf000058a300180032002a
:103210000181fb000201410024992000e4017900b2
:103220001300be00050420000080620001002000a1
:103230008089be00e4017900000420000100200024
:103240009319680093916800040141001224a200c0
:1032500092007800114090000044b2009040980025
:10326000920078001140900005406800904098005e
:043270000000060054
:020000040000fa
:10327400504d8000e10f500015003a00404d800091
:10328400e10f500012003a008824a9008000eb00ee
:10329400414d880000e12000b05d88008100e80015
:1032a400808f5000fdff3a009444a80080702000f5
:1032b400b05d88008000eb008100e800808f500042
:1032c400fdff3a000000eb00b05d88009444a900c3
:0432d40000000600f0
:020000040000fa
:1032d800881f7800010478008000eb00e50f50009b
:1032e80010003a0000528000800f540005003a0098
:1032f80003c4b30042a8200020c0b3003aff07006f
:103308000052880011002000f0518000800f540006
:1033180004003a00c0ad20000048eb0090ad20004a
:103328000048eb00010078004f0478000000060018
:020000040000fa
:103338000080fb00800140000180fb00008041000c
:103348004300dd0002a0200002014000124090006e
:103358000074a10010419800809920000104e00049
:10336800010032002099200002b07900124090003c
:103378000064a10010419800e40041001140900051
:0c3388000064a0009040980000000600c7
:020000040000fa
:10339400889fbe008a1f78000044780001457800a9
:1033a4008184fb000938a300020032008040eb0056
:1033b400e0ff07000928a3000300320011c0b30096
:1033c40008407800dbff07000880fb000000400095
:1033d400a14a20000af078004f0578004f04be008f
:0433e40000000600df
:020000040000fa
:1033e80000017800c0ad20001004e0000f003a0092
:1033f800020078008040eb008140e800e1cf400007
:10340800020032003004e000fbff3a00d256880088
:1034180090ad20000148780011c0b30080ad2000b5
:1034280001487800c0ad200001487800000006007f
:020000040000fa
:1034380000017800c0ad20001004e0000f003a0041
:10344800020078008040eb008140e800e1cf4000b6
:10345800020032003004e000fbff3a00d256880038
:1034680090ad20000148780080ad20000048eb00b6
:1034780011c0b300c0ad200001487800000006006c
:020000040000fa
:1034880080007800e30f50000a0032005007200047
:10349800808f500003003200e18f500006003a0090
:1034a8000200370023000700030037002700070049
:0c34b80001003700230007001000050091
:020000040000fa
:1034c400c2ad20001204e00007003a00d056880084
:1034d40090ad20000148780011c0b30080ad2000f9
:0c34e40001487800014978000000060053
:020000040000fa
:1034f000304d8000ff0f50000400360088c4bf002c
:103500000018a30001003a0014fd070000000600a7
:020000040000fa
:103510000000eb00a024880060248800304d880063
:083520008804a9000000060068
:020000040000fa
:0c35280066f40700f0ff0700000005003b
:020000040000fa
:04353400bbfd3700a4
:020000040000fa
:043538000000060089
:020000040000fa
:04353c0039fe37001d
:020000040000fa
:043540000000060081
:020000040000fa
:04354400000006007d
:020000040000fa
:043548000000060079
:020000040000fa
:04354c005dfd3700ea
:020000040000fa
:043550000000060071
:020000040000fa
:04355400cafe370074
:020000040000fa
:10a220004f1527000eff27000e01880000000000d8
:10a230000c000700c0822900010020000f00070069
:10a24000000020000000e0000200320000000200d8
:10a2500000000000fef30200000000000040da00f1
:10a260000000fe0060c620000000e0000200320096
:10a27000002020009001880000000600a102880054
:10a28000800078000000eb001a003700e2804000f8
:10a2900054a0b4009101ba00e280400054a0b40080
:10a2a0009102ba00e280400054a0b4000002eb002a
:10a2b000472bde00f507b200a6018800602ce10004
:10a2c00008003a000049eb000201e80002003900f2
:10a2d0003420ec0002f0a0008301e900f9ff3e0009
:10a2e000040037006128e100010032000082eb0029
:10a2f000040007001101ba000200e000e3ff3a0089
:10a300000000060004d0a300e20f49001c00390041
:10a31000810278003549ba000201e80002003900e4
:10a320003420ec0002f0a0008301e9000f003200ad
:10a330002549ba000201e800020039003420ec008f
:10a3400002f0a0008301e900080032000400e000f0
:10a350000600320015c9ba000201e8000200390007
:10a360003420ec0002f0a0008301e9008180e800c5
:10a3700054a0b4000300e000e2ff3a000000060031
:10a380009102ba00055978008301e900f7ff320015
:10a39000c82ade00055978008301e900f3ff320086
:10a3a0000400e000f1ff320011d9ba00eeff3700df
:10a3b000dcf30400000000004c5004000100000029
:10a3c000544c0400010000002e4f04000100000066
:10a3d00050500400010000000a4e0400010000007b
:10a3e0005450040001000000344f0400010000003c
:10a3f00058500400010000005c50040001000000ff
:10a40000944c04000100000070fb040000000000f8
:10a410003a4f040001000000a24c040001000000bb
:10a42000444d040001000000144e0400010000002f
:10a430001e4e040001000000223e04000100000046
:10a440006050040001000000c8500400010000003a
:10a45000284e0400010000004a070400010000002b
:10a46000645004000100000068490400010000007d
:10a47000404f040001000000524f040001000000a2
:10a48000464f0400010000004c4f04000100000092
:10a49000cc50040001000000ca500400010000007c
:10a4a00042f8040000000000964b04000100000088
:10a4b000ca160400010000003c4e04000100000028
:10a4c000b04c040001000000324e04000100000006
:10a4d000d050040001000000964e0400010000006e
:10a4e0000a4b040001000000d250040001000000eb
:10a4f000ce50040001000000ec2204000100000026
:10a50000ee42040001000000883704000100000052
:10a510004c04040001000000583c0400010000004d
:10a52000e250040001000000e450040001000000bb
:10a53000b0a0040000000000ecb504000000000022
:10a54000f050040001000000f2500400010000007f
:10a55000c641040001000000b050040001000000ea
:10a56000b450040001000000e644040001000000b3
:10a57000f450040001000000f65004000100000047
:10a58000fc350400010000003c2a0400010000002a
:10a59000fe43040001000000c23504000100000079
:10a5a0009427040001000000204404000100000082
:10a5b000ec27040001000000f85004000100000036
:10a5c0007048040001000000d005040001000000f4
:10a5d000562e040001000000f64c040001000000ab
:10a5e00012420400010000009c1a04000100000057
:10a5f00030200400010000009cf104000000000075
:10a60000c83d040001000000c0310400010000004a
:10a61000be2b0400010000005400f800a1028800d5
:10a620008002780062004000e08048003549ba00ae
:10a630003204e0000410a700100032008301e9009a
:10a640000e0032002549ba003204e0000410a700d1
:10a650000a0032008301e900080032000408a30068
:10a66000eeff320015c9ba003204e0000410a70062
:10a67000020032008301e900e8ff3a005400f900cb
:10a6800000000600020ab900001bb9000200b80071
:10a690008100420081004300000006008000780035
:10a6a0001106b100030035009101b10001003c002a
:10a6b0000050a10000000600800078001104b100e5
:10a6c000030035009101b10001003c000050a000e2
:10a6d00000000600889fbe0080047800805a830036
:10a6e0000000e00003003a00470007000000e0001f
:10a6f0000a003500805a83000900e00002003a0099
:10a7000000047800060037000004780009004000cb
:10a710003d0007000000e00001003d000084eb0068
:10a72000080078004f04be00000006000a00fa008e
:10a7300080017800e20f500028003e00905a83000c
:10a74000e10f500008003200802320000000e000ec
:10a75000050032000423200025232000462320008a
:10a760008001780004003700042220002522200008
:10a770004622200083222000144090000004e000c4
:10a78000040035008009eb00144090000074a00024
:10a7900010429800154090000028a30003003a00e2
:10a7a000154090000024a000904298008001eb002a
:10a7b00007003700154090000008a300fdff32009d
:10a7c00063c078000000fb00000b78008301e80004
:10a7d000828f5100f7ff3a00080037003000200058
:10a7e000b0bf9f00c3bf9f00d1bf9f00e2bf9f00cb
:10a7f0006a80570000c0da006fb997000200780045
:10a800000080fa0000000600800078000000e000f0
:10a8100004003a0040b52600805a8b000101780000
:10a82000060037000081eb0040152700808f5000a4
:10a8300002003e00815a8b000001eb00020078000c
:10a84000000006006022b800060220000000d000d0
:10a850008180d2000482d2008582d2000000a00054
:10a860000202520083825a000300310002024200b9
:10a8700083824a000000a1000603e900f3ff3a00ca
:10a8800000000600881f7800000478005001be0018
:10a890004000be00040040008580480006014900d9
:10a8a00087814900009cbe000294be000400e100c4
:10a8b0000588e1000690e1000798e1000200310000
:10a8c000680044001008e8004f047800000006000b
:10a8d000f4874700889fbe008a9fbe008c9fbe0001
:10a8e0008e1f78000205be000004be00d4b79f0092
:10a8f000e5b79f00f6b79f0087bf9f000000eb0001
:10a90000c0b79f00b0b79f00a0b79f0090b79f004f
:10a9100080b79f000d042000bfb097004fb0970094
:10a92000000140000000e0000f003d004f08de0085
:10a9300000007100c0b79f009e00070001003d00ad
:10a9400012002000a100070001003d0012002000bd
:10a95000a6000700b1000700b60007000f00400086
:10a96000c8ff0700220037004f08de000006710014
:10a97000ccb79f008f00070001003d0012002000af
:10a980009200070001003d00120020009700070020
:10a99000a20007000fb297009fb297002fb3970055
:10a9a000bfb39700a90007000000520081805a0041
:10a9b00002015b0083815b0080b79f0091b79f001d
:10a9c000a2b79f00b3b79f000007eb009f000700ee
:10a9d0000020e10001a8e10002b0e10003b8e100bd
:10a9e000010031001e0020000e005600c0b79f007d
:10a9f0004fb297000400e00007003500100020006f
:10aa0000010020006011b800080470008984700003
:10aa10000a0571008b8571008d06e900beff3a00c2
:10aa20000400e00003003d00820007000f0040002a
:10aa300094ff07004fa897000000e00004003a00d0
:10aa40000fb497009fb497002fb59700bfb597003c
:10aa5000940007004f0778004f06be004f05be0068
:10aa60004f04be004f01b10000000600881f7800af
:10aa700018002000881f780095ff07008f87e900e5
:10aa80004f04780000000600801feb0090ff0700d5
:10aa90008f87e90000000600889fbe008a9fbe00e5
:10aaa0008c1f78006e00070007003d007300070050
:10aab000e00f5b00e08f5b0007003d003200070005
:10aac0000006eb00040037003400070002003d00e0
:10aad0002a0007001c00200072000700e3ff0700a7
:10aae0000203be000002be000c00e00001003200c4
:10aaf000220007000400be000601be004f067800d9
:10ab00004f05be004f04be0000000600889fbe0037
:10ab10008a9fbe008c1f78005100070005003d0091
:10ab200056000700e00f5b00e08f5b0006003d0071
:10ab3000040037001900070003003d006000b80062
:10ab40006011b8001000070056000700ceff070094
:10ab50000203be000002be000c00e0000100320053
:10ab6000060007000400be000601be004f06780084
:10ab70004f05be004f04be00000006006000b80094
:10ab80006011b800000037000402500085825800b0
:10ab90000603590087835900000006000006eb00f9
:10aba000e00f5200e08f5a00e00f5b00e08f5b0087
:10abb000000006000180400090b79f000001eb00fc
:10abc0008fb097000100e000000006000200700056
:10abd00090b79f000180400080b79f000001eb000c
:10abe000ffa897000100e0000000060002007000ce
:10abf00080b79f00018040006faa9700cf20de0041
:10ac000001007000f0af9f00040242002500070021
:10ac10004f18de000002720000000600e4af9f0043
:10ac20000804440089844c000a054d008b854d00c2
:10ac3000000006003fb29700cfb297005fb39700c5
:10ac4000efb3970000fe2f00000006003fb0970012
:10ac5000cfb097005fb19700efb1970000000600fa
:10ac60000205be000004be00e00f5000e08f580057
:10ac7000e00f5900e08f5900000006006000b800a6
:10ac80006011b80008045000898458000a05590072
:10ac90008b8559001c002000e00f5200e08f5a0005
:10aca000000006000800be000a01be000000060009
:10acb0008001eb000200370061f079008301e800b9
:10acc000828f5100fcff3a00000006000400fa00e9
:10acd000e0bf9f00e4815700812978000002eb006b
:10ace0000f0037006fb89700904078007fb897004a
:10acf000104078000402e80080cf500004003200c9
:10ad00008180fb000080fb000080500007003700be
:10ad10006fb897000000e800e0bf9f009309e800cb
:10ad2000820f5200efff3a000000eb000080fa00b3
:10ad3000000006008001eb000200370081717800fe
:10ad40008301e800828f5100fcff3a0000000600fa
:10ad50000c00fa00889fbe0000047800cfb0970076
:10ad6000f0ff2700d0bf9f008004eb0099bf9f0039
:10ad700088bf9f00a8bf9f00200c2000b0bf9f008d
:10ad800078815700708057005f0107000fb8970067
:10ad9000094878000fb897000804500008007800b0
:10ada0004f04be000080fa00000006000003780097
:10adb00080027800020278008001eb000800370072
:10adc0000402e90063c07800805a78008301e8003b
:10add0000004e00002003a008000eb0006003700ab
:10ade000828f5100f6ff3a00fbff37000040eb0076
:10adf00080f07a008100e800848f5000fbff3a0069
:10ae00000600780000000600800078003004e000b2
:10ae1000feff3a00010050000000e90000000600bb
:10ae2000889fbe008a9fbe008c9fbe0000017800f4
:10ae300021af26001100e0000b003a0060af2600b1
:10ae400090578b0070578b00b1578b0081578b0048
:10ae5000214090000004a000a040980061409000b4
:10ae60000004a000e0409800e7004100c208de00b6
:10ae7000c20cdd00845783004db526004015270025
:10ae80000d05500022002000811f780011000900ec
:10ae90000205d80000067800cf007800c308dd0066
:10aea000e48540008001eb0046b5260025af260072
:10aeb0000100370001027800244090000008a30040
:10aec000020032000a003700110a7800940078006e
:10aed000214090000008a300fbff3200090142005e
:10aee000828f500002003900840f5100460031006b
:10aef00094007800848f5000eeff3e00868f500053
:10af000002003900858f5000eaff39007057830036
:10af1000800f52004f003a00858f50004d003a00dc
:10af20008301e800e18f5100e2ff36008c8f54006e
:10af3000040036008a8f5400020031000b047800b0
:10af400012003700614ab8006151b900b0ff2f000c
:10af5000010020000200500083805800800f520042
:10af6000818f5a000200350009047800070037007d
:10af70000d805400721527000200400011000900e6
:10af80000a80d8000a80b900000478000800780020
:10af9000d0fd070080017800e10f40002d00320055
:10afa00070578300030878007257830064004100e3
:10afb000a2409000808f5100020032000104a000e6
:10afc000010037000104a1002141980008804100e0
:10afd000640050008009780070578b0022af260073
:10afe0000208780071578300214090000004a000ff
:10aff000a0409800234090000004a100a0419800c8
:10b0000002027800a7ff370082578b00828f500022
:10b010000900360092007800c0ae2600a2419000e0
:10b020000348780051578b00140978008040eb00ea
:10b03000805783002140980080578300000a7800e1
:10b04000244090000004a0002042980064004200c8
:10b05000010037000000eb004f06be004f05be00a8
:10b060004f04be00000006006400500080578b00b3
:10b07000a04090000104a1002140980000000600bb
:10b08000889fbe008a9fbe0000057800e401500042
:10b0900013001000c285de00234090000008a300ca
:10b0a0000400320083578b00234090000004a1006d
:10b0b000a04198000100780059ff070000047800c3
:10b0c0000000e000170032008a0f50001500320027
:10b0d00060b8970008005000c284de00898f5500d8
:10b0e00001003600890578004259dd008a007800a9
:10b0f00008007800eefe07008a0f540009003100b6
:10b100004248dd00000044008a0f50000500360070
:10b110000a00500000004400525783006357830028
:10b120000288be00080078004f05be004f04be0034
:10b1300000000600619626002c0037008001780090
:10b140000001780031407800005978000004e000e8
:10b15000fcff3a0003007800000006008001780040
:10b1600000017800010037000201e8001204e0004d
:10b17000fdff3a0031407800005978000004e000fb
:10b18000fcff3a000300780000000600810178000f
:10b190000002eb000b003700e44078000104e000ff
:10b1a000030032000402e80093cf50000400320094
:10b1b0008180fb001380fb0000805000000006002f
:10b1c0008301e800820f5200f3ff3a0000000500ff
:10b1d0000000fa00cfb897006881570060962600fb
:10b1e000490007000080fa0000000600889fbe00aa
:10b1f0000001780001047800b10090000118a3005c
:10b200003d0032000198a30003003a0018009000ae
:10b210000000e00038003a000190a00031049800de
:10b2200082047800f90fb200180090000000e000de
:10b2300002003a0028009000000c7800ea8f5400c9
:10b2400006003a00380090000078a30003003a009e
:10b2500088007800d0002000e4ff070098009000ec
:10b2600058009000808f50000b0032000100e80071
:10b27000100498001800780009587800000c780035
:10b2800011c0b300c0b3260001487800ea8f540013
:10b290000600320019003700880078000940780065
:10b2a000ce020700800478001400370038009000b8
:10b2b0000088a3001100320018019000a80090003f
:10b2c0004800900019fd070098009000810f500081
:10b2d00004003200380090000003b30030049800ee
:10b2e0008084eb000000eb00100498002800900020
:10b2f000000c7800010037008084eb000900780022
:10b300004f04be0000000600fe874700889fbe0075
:10b310008a9fbe008c9fbe008e1f7800f0b79f00f2
:10b320000107780082bf9f000000eb00a0b79f00dc
:10b330009f0237008006eb0050c2b30080cf500060
:10b34000090032000100fb00ffb09700a7ff0700d3
:10b35000e10f400096023200afb097008100e80094
:10b36000a1b79f00920237009e407800d0c2b30080
:10b3700080cf50000c00320007003c006d405000b0
:10b3800080cf50000a0032006b40400080cf500058
:10b390000e003a000800370000c3b30080cf500011
:10b3a0000a003a00060037000d30a0000500370003
:10b3b0000d00a000030037000d10a00001003700b1
:10b3c0000d20a0000e07e800e7ff37000d18a300ce
:10b3d000010032000d00a1000d38a3000100320071
:10b3e0000d20a1000100fb0002fd2f000200400023
:10b3f000e90f50000e003e000002eb00c4b79f00b2
:10b4000082017800cfb297006a28b9001e01fb00c4
:10b410000001410003014100c2b79f005e00fb0034
:10b4200003004000e90f50000b003e00f5ff37001d
:10b430000006eb00ccb79f00a0c2b30080cf500045
:10b4400005003a000fb89700c000780080bf9f0049
:10b45000c1b79f000e07e8000001eb00b2b79f00e4
:10b46000e0c2b3009e4f100018003a000de0a000ab
:10b470008e00e80064405000914f1000020032003e
:10b48000010778000c0037000fba9700c40278005b
:10b4900084bf9f00b5b79f000e87e8000b00370000
:10b4a0003fb697006a60b900000041000300400009
:10b4b000b0b79f000e07e8001e01fb0003fd2f0040
:10b4c00003004100e90f5000f5ff3600be40780050
:10b4d000e1d79f00c0c6b30080cf500022003200e9
:10b4e0000f003c006940500080cf500077003200d0
:10b4f00004003c000104e000310232006b405000c7
:10b500000f00370040c6b30080cf500093003200d8
:10b510006540400080cf50008b003a008f0037001c
:10b5200030c7b30080cf50001a00320007003c0043
:10b530006440500080cf5000110032000040e8000d
:10b5400080cf500080003a000f00370050c7b30092
:10b5500080cf5000800032006340400080cf500018
:10b5600079003a0009003700000028000d48a300c8
:10b5700001003a000001200080867600d3ff3700ea
:10b580000d60a000750037000d50a0000d70a000e8
:10b59000720037008fb897004100780081bf9f008c
:10b5a000000478000000e00001003a00e892260064
:10b5b0008004eb00010037008104e8008900780076
:10b5c000088044001004e000fbff3a003fb1970000
:10b5d0000200e00003003200890f51000100310039
:10b5e000820478000002eb00e4af9f00cfb2970026
:10b5f000898f52000200360009805200e0af9f00a0
:10b600004368de00e10660001b003a000d0678008a
:10b6100009003700ffb0970000022000f3fe07008a
:10b62000e10f4000030032002fb097000000e80057
:10b63000a0b79f000c06e800efa89700810f560006
:10b64000f4ff3a000081eb00e2af9f000a003700f0
:10b65000880078003100fb0001047800ffb09700fb
:10b66000e2fe0700e10f4000030032002fb2970016
:10b670000402e800a4b79f000900e90080047800f4
:10b68000e10f4000f2ff3a000006eb000d00e00081
:10b690000a003a00c6013700ffb097000002200000
:10b6a000d2fe0700e10f400003003200afb2970066
:10b6b0008502e800a5b79f000c06e8006fa8970078
:10b6c000800f5600f4ff3a00b90137008fb8970099
:10b6d0004100780081bf9f00cf80de00010178002b
:10b6e000820178000205be000004be000203be0015
:10b6f0000002be004822de00482edd000402760073
:10b70000e4d79f000d48a3000a0032000404e000c3
:10b7100008003200e14f42000600320071fd2f00a8
:10b720000180470004487800184098002900200054
:10b7300002003700f0d79f001900200072fd2f0093
:10b7400002844700a1ff370064fd2f0004844700f6
:10b75000190020009dff37000d0cb3000d0078008c
:10b76000000cb20028003a000d00e00005003d008a
:10b770008fba97004505be004504be0085bf9f00f7
:10b78000140037000d48a3000b0032000fbe9700d5
:10b790004c00be008cbf9f004f89de00cf91de00c1
:10b7a0000002be0002037800820378000605be0096
:10b7b0000404be00070037008fb8970041007800ee
:10b7c00081bf9f0000047800cfc4de000905780027
:10b7d0008a057800e00f5400e08f5c00e00f5d0008
:10b7e000e08f5d001f003d003d00b3006000b80029
:10b7f0006011b80008045000898458000a055900f7
:10b800008b855900170037000d00e00005003d0052
:10b810000fb997004205be004204be0082bf9f00e0
:10b82000100037000d48a300070032000fba970040
:10b830004400be0084bf9f006011b8000205be0036
:10b840000004be00070037008fba9700450078005b
:10b8500085bf9f0000047800090020000a00200036
:10b860000b0020003fb697000c00e00007003a00f4
:10b87000e00f5400e08f5c00e00f5d00e08f5d00a2
:10b8800002003a0010002000b0b79f008d00780041
:10b89000010cb200e1b79f0000042000808f50002f
:10b8a0003000320003003c000100e00008003200dc
:10b8b00040003700000820006fb19700800f510052
:10b8c00014003200000c2000800f510039003a00b3
:10b8d00014c0b300656f26000b0037000400fb00a6
:10b8e0004300dd00050040005001be004000be00e6
:10b8f0000040e10001c8e10002d0e10003d8e1000e
:10b900002b0039000442e800f44f5200f3ff3a00e4
:10b910002700370000012000010020006011b8005e
:10b9200014c0b3000040e10001c8e10002d0e10012
:10b9300003d8e1001e003900450020000000d000bf
:10b940008180d2000281d2008381d2008502e90089
:10b95000faff3a000442e800f04f5200f1ff3a00cb
:10b960001300370080002000010020006011b800a3
:10b9700014c0b3000040e10001c8e10002d0e100c2
:10b9800003d8e1000a0039003c0020000000d0008c
:10b990008180d2000281d2008381d2000c06e900ae
:10b9a000faff3a000442e800f54f5200f1ff3a0076
:10b9b000e4d79f00efd097000100fb003fb1970054
:10b9c000820f500002003d00e2d79f0004003700c4
:10b9d0003fb29700800f520001003d00b0b79f00ba
:10b9e000cfb297000500e0000400320063806600db
:10b9f000020032008502e900c5b79f000de8a300f0
:10ba00000b0032004fb697003fb09700800f5600f2
:10ba100003003c008000eb00c1b79f00040037002a
:10ba20004fb197003fb2970004015100c2b79f0089
:10ba3000efd297000500fb000006eb00dcaf9f0093
:10ba4000cfb09700808f500002003400008050007b
:10ba5000d0af9f000d28a30037003200e1806600c0
:10ba60000d18a3000c003200d00220000100e000fd
:10ba700001003a000080e900ffb09700dbfd0700fd
:10ba8000e10f40000e0032002fb197000201e800e4
:10ba9000a2b79f000a0037000100e0000800320052
:10baa000ffb0970000022000d0fd0700e10f40002a
:10bab000030032002fb297000402e800a4b79f00f1
:10bac000dfaa97000500e0000f0032000006eb003f
:10bad000ffb0970000032000c4fd0700e10f400005
:10bae000030032002fb097000000e800a0b79f00cd
:10baf0000c06e800dfa89700810f5600f4ff3a001b
:10bb00000001eb00d2af9f003fb29700c320dd00e1
:10bb1000e06e26008080400091b79f004220dd004b
:10bb20006400500080b79f006320b900f0af9f0011
:10bb30006306500084003700dfaa97000500e0008c
:10bb400011003200688066000f003a00000678009d
:10bb5000ffb0970000022000a4fd0700e10f4000a5
:10bb6000030032002fb097000000e800a0b79f004c
:10bb70000c06e800dfa89700810f5600f4ff3a009a
:10bb80000001eb00d2af9f00e18066000d18a3001a
:10bb90000c003200d00220000100e00001003a0059
:10bba0000080e900ffb0970090fd0700e10f400022
:10bbb000d5ff32002fb297000402e800a4b79f001f
:10bbc000d1ff37000100e000cfff3200ffb0970047
:10bbd0000002200085fd0700e10f4000caff32008f
:10bbe000afb297008502e800a5b79f00c6ff3700f7
:10bbf00000042000efb09700808f50003100320029
:10bc000003003c000100e000080032003e00370065
:10bc1000000820006fb19700800f51001100320022
:10bc2000000c2000800f510037003a001fb0970031
:10bc30003002be002003be000800be000a01be00a4
:10bc40008afb0700a4002000050020006033b80034
:10bc50008dfb070004c3b30004424000e4d79f00fb
:10bc60002900370055932600d5b79f000d58a30033
:10bc700002003a0060942600d0b79f001400200014
:10bc8000050020006033b8008fb097008100e90004
:10bc9000050033000402d0008582d2000683d20062
:10bca0008783d200f9ff37000800be000a01be00fa
:10bcb0006efb07006f0060005fb197006240780084
:10bcc0001000370014002000050020006033b80089
:10bcd0000c0078000000e900050033000402d000e9
:10bce0008582d2000683d2008783d200f9ff370015
:10bcf0000800be000a01be005cfb07006740600050
:10bd00000043b000e0d79f00efd097000100fb0098
:10bd1000ffb0970035fd0700e10f4000030032003f
:10bd20002fb197000201e800a2b79f001fb2970051
:10bd30006802520094b79f008fb29700e4825200cd
:10bd400085b79f0063065600d0ff2f003fb19700d4
:10bd50000090b9007faa97000000420063005000e5
:10bd6000800f5600a2ff3a000d38a30010003200e9
:10bd7000dfaa97000500e0000d0034000006eb008c
:10bd8000ffb097000002200018fd0700e10f4000ff
:10bd9000030032002fb097000000e800a0b79f001a
:10bda0000c06e800dfa89700810f5600f4ff3a0068
:10bdb000be407800e1d79f000104e0005dfd3a003d
:10bdc0002fb097004f0778004f06be004f05be000a
:10bdd0004f04be00ef01b100000006000200fa00af
:10bde000889fbe00a0ff9f0001047800b100900072
:10bdf000810478000904b200020032000000fb0058
:10be0000360037000118a30005003a000103b30013
:10be100031049800190498000080eb002f003700cf
:10be2000580090000000e00006003a004800900032
:10be300012002000e68057003cfa07001904980021
:10be400024003700280090000000e00008003a00bd
:10be500080b3260020049800000c78002000200009
:10be600050049800100498000130a000310498009c
:10be700018019000a8009000480090002bfa0700dd
:10be800028009000000c78000080eb00100498005f
:10be900018007800aff8970001587800000c78007f
:10bea0002ff89700ea4f50000a003a00380090003f
:10beb0000088a3000700320018019000a80090003d
:10bec0004800900019fa070019049800a800900093
:10bed000010c7800aff897000100fb004f04be0092
:10bee0000080fa00000006003600f800809fbe00c7
:10bef000829fbe00849fbe00869fbe00881f780080
:10bf00008ec0a90082c4bf000068a3002f003200c9
:10bf100080c4bf000068a3002c0032000004200091
:10bf20000024880080500200010000000004780016
:10bf30000000e00009003200324b02000100000066
:10bf40000000e000210032006022b8000001eb0098
:10bf5000a1c0b3000040eb000c0037007c50020091
:10bf6000010000000000e0000b0032001e4b020048
:10bf7000010000000000e000140032006022b80060
:10bf80000801780091c0b30008407800bef20200ba
:10bf9000000000000d003700404983000000e00071
:10bfa0000a003200404983000000e90040498b004c
:10bfb000404983000000e00004003a0082c4a90068
:10bfc000204983000000e80020498b008cc4bf009a
:10bfd0000068a3001e0032008ac4bf000068a300ee
:10bfe0001b0032008cc4a9000004200050248800eb
:10bff0002149830070005000808f500002003a00f9
:10c000000010200030488b006022b8000001eb00d7
:10c0100011c0b3000040eb00bef2020000000000bf
:10c020006022b8000001eb0031c0b3000040eb001b
:10c03000bef20200000000006022b8000001eb0028
:10c0400071c0b3000040eb00bef20200000000002f
:10c050008cc4bf000008a300160032008ac4bf00d1
:10c060000008a300130032001000200050248800b4
:10c070008c04a9000004eb0038488b006022b80053
:10c08000080178008840780008407800bef202007d
:10c09000000000006022b8000801780041c0b30031
:10c0a00008407800bef20200000000006a4f020063
:10c0b000010000008044e20006003d008244e200ee
:10c0c00004003d004c230200010000000008200095
:10c0d0000024880080c4bf000028a3000d003200a7
:10c0e00082c4bf000028a3000a0032008444e2009a
:10c0f00006003d00884f020001000000e14f5000a3
:10c1000002003a004c230200010000004000200021
:10c110000024880080c4bf000038a300190032004a
:10c1200082c4bf000038a300160032008e4f020008
:10c1300001000000e14f500010003a00785002006a
:10c14000010000000000e0000c00320084c4bf00c9
:10c15000684060006022b8000001eb0061c0b300dd
:10c16000040032006022b8000001eb0051c0b300af
:10c170000040eb00bef20200000000008000200042
:10c18000002488008ac4bf000058a3000b003200be
:10c190008cc4bf000058a300080032006022b80021
:10c1a0000001eb00b1c0b3000040eb00bef20200a2
:10c1b0000000000000022000502488008cc4bf0052
:10c1c0000038a300d00032008ac4bf000038a300aa
:10c1d000cd0032008cc4bf000018a300080032005c
:10c1e0008ac4bf000018a300050032003049830054
:10c1f0003058900063406000e14f5000c2003a00a8
:10c20000009226001044a1009224800080002000ab
:10c210005024880034498300a4589000f024800002
:10c22000ef8060006f006000808f5000b4003a0023
:10c23000640061000238a30005003200c2a026009d
:10c240000000e00006003a0082a02600040037004b
:10c2500042a026000000e00001003a0002a02600f3
:10c2600000c023009200600000802000808f5000fa
:10c2700037003a00f03f20001201600004089000ef
:10c280009408900002004000e0804800000a9800f6
:10c29000110a98000000eb00700a980034409000ea
:10c2a0004300de00610060000004a2004300dd00e6
:10c2b000b44090000134a10080c070003142980069
:10c2c00004589000f04f500008003200845890004d
:10c2d00000c2b30080cf50000400320084589000a8
:10c2e0007040400080cf500032003a0004099000b6
:10c2f000940990007400900001002000800f51000c
:10c30000818f59007e0039006000b800000a980053
:10c31000110a98000a00370004099000940990005f
:10c3200054009000e4009000800f5100818f59006c
:10c3300073003900344090000004a000304298009f
:10c34000045890000040e800005a98006c00370044
:10c3500000c02000808f50000300320000c0220087
:10c36000808f50001b003a00f03f20001201600057
:10c37000040890009408900002004000e08048000b
:10c38000000a9800110a98000000eb00700a98005b
:10c39000344090004300de00610060000004a20011
:10c3a0004300dd00b44090000134a10080c0700063
:10c3b000314298003458900063406000e14f5000d3
:10c3c000dcff320044009000800f5100d9ff39009b
:10c3d000d1ff370000802200808f500021003a00fa
:10c3e000344090000044a00030429800740890004f
:10c3f0000000e800700a9800345890006300600064
:10c40000e10f5000cbff320003003c000000e000d1
:10c41000080032003a003700e20f500005003200f9
:10c42000e30f500036003a00245890000004e0006a
:10c43000c0ff3500344090000058a30030003200a7
:10c44000f408900004109000808f50002c003600fb
:10c45000244090000064a0002042980070c1b30006
:10c460000700370000802300808f50000a003a0048
:10c47000244090000054a0002042980010c1b30056
:10c48000405a98000458900001cfb300014060006a
:10c49000f040b300acff3700a44090008140e800ba
:10c4a000ffc060002440900002ceb3000240600054
:10c4b0000140700020429800244090007f006000fe
:10c4c000f30f50000e003400244090000064a000e0
:10c4d0002042980030c1b300405a980004589000a0
:10c4e00001cfb30001406000f040b300005a980053
:10c4f000f00f2000702488002000200050248800c5
:10c500006ad90200000000008cc4bf000028a3000c
:10c510002c0032008ac4bf000028a300290032008a
:10c520004000200050248800d24883001a003700c1
:10c53000220090000000e00016003200a0009000f1
:10c540000430200003102000100037005108900034
:10c550000030b200840f500002003200830f500000
:10c5600006003a00310090000000e00003003200b5
:10c57000310090000000e900b000980031409000c8
:10c580000044a100b0409800910078000100e00054
:10c59000eeff3a00120178000200e000e4ff3a00ea
:10c5a000009226001004a1001014a1001024a10084
:10c5b0001034a10020922600024878006ad90200b7
:10c5c000000000008cc4bf000018a300440032002b
:10c5d0008ac4bf000018a300410032000092260068
:10c5e0001044a10033498300335890006340600039
:10c5f000e14f500036003200a34090008140e80037
:10c60000ffc060002340900002ceb30002406000f3
:10c6100001407000a0419800234090007f0060001e
:10c62000f30f50002a0034008e44e20002003d0067
:10c6300000c2b300c05998008ec4bf000058a300c8
:10c640000200320010c2b300c05998008ec4bf006f
:10c650000048a3000200320020c2b300c059980075
:10c660008ec4bf000038a3000200320030c2b30005
:10c67000c05998008ec4bf000028a30002003200f9
:10c6800040c2b300c05998008ec4bf000018a30078
:10c690000200320050c2b300c05998008ec4bf00df
:10c6a0000008a3000200320060c2b300c059980025
:10c6b000234090000064a000a0419800035890001f
:10c6c00001cfb30001406000f040b30080599800f2
:10c6d000f00f2000702488002000200050248800e3
:10c6e0004f0478004f03be004f02be004f01be0052
:10c6f0004f00be003600f900004006000040da009e
:04c700000000fe0037
:020000040000fa
:10a0000010510400000000007e6304000000000006
:10a010007e630400000000007e6304000000000076
:10a020007e630400000000007e6304000000000066
:10a030007e6304000000000036a70400000000005a
:10a040007e630400000000007e6304000000000046
:10a0500014a70400000000007e630400000000005c
:10a060007e630400000000002cc204000000000019
:10a070007e63040000000000628c04000000000009
:10a08000dc92040000000000b89004000000000012
:10a0900018c20400000000007e63040000000000fd
:10a0a000c4950400000000007e630400000000006e
:10a0b00006d30400000000007e63040000000000de
:10a0c0006aa604000000000048a60400000000008a
:10a0d0007e630400000000007e63040000000000b6
:10a0e0009ad5040000000000daa40400000000007b
:10a0f0007e630400000000002e93040000000000b6
