:020000040000fa
:080000000002040000000000f2
:020000040000fa
:100400004fc121000eff27000e01880000000000f0
:100410000c00070060862200010020001d0007007c
:10042000000020000000e000020032000000020096
:1004300000000000f43b0200000000000040da0071
:100440000000fe00000020000000e000020032007a
:10045000000020009001880000000600f03fb1007d
:100460000180b10006003500ee0309000000000025
:10047000403fb1000180b100fbff3d001000b00023
:10048000203fb0000200350000800900000000009d
:1004900000000600a1028800800078000000eb0048
:1004a0001a003700e280400054a0b4009101ba0065
:1004b000e280400054a0b4009102ba00e280400003
:1004c00054a0b4000002eb00472bde00f507b20099
:1004d000a6018800602ce10008003a000049eb000a
:1004e0000201e800020039003420ec0002f0a00014
:1004f0008301e900f9ff3e00040037006128e100b4
:10050000010032000082eb00040007001101ba0074
:100510000200e000e3ff3a000000060004d0a30060
:10052000e20f49001c003900810278003549ba0009
:100530000201e800020039003420ec0002f0a000c3
:100540008301e9000f0032002549ba000201e800ea
:10055000020039003420ec0002f0a0008301e90021
:10056000080032000400e0000600320015c9ba009d
:100570000201e800020039003420ec0002f0a00083
:100580008301e9008180e80054a0b4000300e0008a
:10059000e2ff3a00000006009102ba000559780017
:1005a0008301e900f7ff3200c82ade000559780010
:1005b0008301e900f3ff32000400e000f1ff3200a4
:1005c00011d9ba00eeff37005400f800a1028800ec
:1005d0008002780062004000e08048003549ba009f
:1005e0003204e0000410a700100032008301e9008b
:1005f0000e0032002549ba003204e0000410a700c2
:100600000a0032008301e900080032000408a30058
:10061000eeff320015c9ba003204e0000410a70052
:10062000020032008301e900e8ff3a005400f900bb
:1006300000000600020ab900001bb9000200b80061
:100640008100420081004300000006008000780025
:100650001106b100030035009101b10001003c001a
:100660000050a10000000600800078001104b100d5
:10067000030035009101b10001003c000050a000d2
:10068000000006000a00fa0080017800e20f500026
:1006900028003e0090d08000e10f5000080032009a
:1006a000802320000000e000050032000423200029
:1006b0002523200046232000800178000400370015
:1006c0000422200025222000462220008322200030
:1006d000144090000004e000040035008009eb00a5
:1006e000144090000074a000104298001540900043
:1006f0000028a30003003a00154090000024a00049
:10070000904298008001eb000700370015409000f0
:100710000008a300fdff320063c078000000fb006a
:10072000000b78008301e800828f5100f7ff3a0048
:100730000800370030002000b0bf9f00c3bf9f00fb
:10074000d1bf9f00e2bf9f006a80570000c0da005f
:100750006fb99700020078000080fa0000000600e0
:100760006022b800060220000000d0008180d20084
:100770000482d2008582d2000000a0000202520052
:1007800083825a00030031000202420083824a0041
:100790000000a1000603e900f3ff3a000000060094
:1007a000881f7800000478005001be004000be00a1
:1007b0000400400085804800060149008781490007
:1007c000009cbe000294be000400e1000588e10028
:1007d0000690e1000798e100020031006800440043
:1007e0001008e8004f04780000000600f487470076
:1007f000889fbe008a9fbe008c9fbe008e1f78001f
:100800000205be000004be00d4b79f00e5b79f00fc
:10081000f6b79f0087bf9f000000eb00c0b79f00a6
:10082000b0b79f00a0b79f0090b79f0080b79f0010
:100830000d042000bfb097004fb0970000014000aa
:100840000000e0000f003d004f08de0000007100d6
:10085000c0b79f009e00070001003d00120020006d
:10086000a100070001003d0012002000a6000700c3
:10087000b1000700b60007000f004000c8ff0700e6
:10088000220037004f08de0000067100ccb79f0041
:100890008f00070001003d001200200092000700b9
:1008a00001003d001200200097000700a200070091
:1008b0000fb297009fb297002fb39700bfb3970076
:1008c000a90007000000520081805a0002015b006d
:1008d00083815b0080b79f0091b79f00a2b79f0004
:1008e000b3b79f000007eb009f0007000020e10066
:1008f00001a8e10002b0e10003b8e100010031000d
:100900001e0020000e005600c0b79f004fb2970097
:100910000400e00007003500100020000100200066
:100920006011b80008047000898470000a05710025
:100930008b8571008d06e900beff3a000400e000df
:1009400003003d00820007000f00400094ff0700f5
:100950004fa897000000e00004003a000fb4970091
:100960009fb497002fb59700bfb59700940007007c
:100970004f0778004f06be004f05be004f04be0073
:100980004f01b10000000600881f78001800200009
:10099000881f780095ff07008f87e9004f047800d3
:1009a00000000600801feb0090ff07008f87e90022
:1009b00000000600889fbe008a9fbe008c1f780042
:1009c0006e00070007003d0073000700e00f5b00aa
:1009d000e08f5b0007003d00320007000006eb00df
:1009e000040037003400070002003d002a00070021
:1009f0001c00200072000700e3ff07000203be0096
:100a00000002be000c00e0000100320022000700de
:100a10000400be000601be004f0678004f05be0070
:100a20004f04be0000000600889fbe008a9fbe00e3
:100a30008c1f78005100070005003d00560007009c
:100a4000e00f5b00e08f5b0006003d000400370014
:100a50001900070003003d006000b8006011b800f5
:100a60001000070056000700ceff07000203be007b
:100a70000002be000c00e00001003200060007008a
:100a80000400be000601be004f0678004f05be0000
:100a90004f04be00000006006000b8006011b800fe
:100aa00000003700040250008582580006035900f8
:100ab00087835900000006000006eb00e00f52009b
:100ac000e08f5a00e00f5b00e08f5b000000060043
:100ad0000180400090b79f000001eb008fb09700ad
:100ae0000100e000000006000200700090b79f00c7
:100af0000180400080b79f000001eb00ffa8970035
:100b00000100e000000006000200700080b79f00b6
:100b1000018040006faa9700cf20de000100700026
:100b2000f0af9f0004024200250007004f18de00ce
:100b30000002720000000600e4af9f0008044400b9
:100b400089844c000a054d008b854d00000006008d
:100b50003fb29700cfb297005fb39700efb3970013
:100b600000fe2f00000006003fb09700cfb09700b6
:100b70005fb19700efb19700000006000205be00cc
:100b80000004be00e00f5000e08f5800e00f590055
:100b9000e08f5900000006006000b8006011b80046
:100ba00008045000898458000a0559008b855900b3
:100bb0001c002000e00f5200e08f5a0000000600e9
:100bc0000800be000a01be00000006008001eb0024
:100bd0000200370061f079008301e800828f510044
:100be000fcff3a00000006000400fa00e0bf9f008e
:100bf000e4815700812978000002eb000f003700e4
:100c00006fb89700904078007fb897001040780048
:100c10000402e80080cf5000040032008180fb0015
:100c20000080fb0000805000070037006fb897007d
:100c30000000e800e0bf9f009309e800820f520027
:100c4000efff3a000000eb000080fa000000060011
:100c5000889fbe000004be00060037000804e800bc
:100c60000000fb008900780021000700e10f400030
:100c700004003200184078000004e000f7ff3a005a
:100c80000000eb004f04be0000000600881f780043
:100c9000819a2100eeff070000047800819a21006c
:100ca000a000200012000700080078004f04780020
:100cb000000006000000fa00cfb8970068815700d6
:100cc000809a2100510007000080fa000000060011
:100cd000819a210006003700800078003004e0008f
:100ce000feff3a00010050000000e900000006008d
:100cf000889fbe000001780001047800b1009000d8
:100d00000118a3003d0032000198a30003003a003f
:100d1000180090000000e00038003a000190a000a8
:100d20003104980082047800f90fb2001800900096
:100d30000000e00002003a0028009000000c78005b
:100d4000ea8f540006003a00380090000078a300b3
:100d500003003a0088007800d0002000e4ff07007c
:100d60009800900058009000808f50000b003200d7
:100d70000100e80010049800180078000958780075
:100d8000000c780011c0b300c0a021000148780019
:100d9000ea8f5400060032001900370088007800fe
:100da00009407800ce020700800478001400370064
:100db000380090000088a300110032001801900054
:100dc000a8009000480090002efe070098009000b8
:100dd000810f500004003200380090000003b3007f
:100de000300498008084eb000000eb0010049800b1
:100df00028009000000c7800010037008084eb0090
:100e0000090078004f04be0000000600fe8747007e
:100e1000889fbe008a9fbe008c9fbe008e1f7800f8
:100e2000f0b79f000107780082bf9f000000eb0031
:100e3000a0b79f009f0237008006eb0050c2b300ae
:100e400080cf5000090032000100fb00ffb0970086
:100e5000a7ff0700e10f400096023200afb09700f5
:100e60008100e800a1b79f00920237009e40780001
:100e7000d0c2b30080cf50000c00320007003c000d
:100e80006d40500080cf50000a0032006b4040009f
:100e900080cf50000e003a000800370000c3b300b6
:100ea00080cf50000a003a00060037000d30a00045
:100eb000050037000d00a000030037000d10a00052
:100ec000010037000d20a0000e07e800e7ff370003
:100ed0000d18a300010032000d00a1000d38a30081
:100ee000010032000d20a1000100fb0002fd2f00d7
:100ef00002004000e90f50000e003e000002eb002f
:100f0000c4b79f0082017800cfb297006a28b90069
:100f10001e01fb000001410003014100c2b79f0018
:100f20005e00fb0003004000e90f50000b003e0094
:100f3000f5ff37000006eb00ccb79f00a0c2b3005e
:100f400080cf500005003a000fb89700c00078002d
:100f500080bf9f00c1b79f000e07e8000001eb00b3
:100f6000b2b79f00e0c2b3009e4f100018003a00d5
:100f70000de0a0008e00e80064405000914f10008a
:100f800002003200010778000c0037000fba97000a
:100f9000c402780084bf9f00b5b79f000e87e800a9
:100fa0000b0037003fb697006a60b90000004100af
:100fb00003004000b0b79f000e07e8001e01fb00d1
:100fc00003fd2f0003004100e90f5000f5ff36003c
:100fd000be407800e1d79f00c0c6b30080cf50006c
:100fe000220032000f003c006940500080cf5000ca
:100ff0007700320004003c000104e00031023200be
:101000006b4050000f00370040c6b30080cf500047
:10101000930032006540400080cf50008b003a00c2
:101020008f00370030c7b30080cf50001a00320065
:1010300007003c006440500080cf50001100320097
:101040000040e80080cf500080003a000f003700d9
:1010500050c7b30080cf5000800032006340400092
:1010600080cf500079003a000900370000002800c6
:101070000d48a30001003a000001200080867600a0
:10108000d3ff37000d60a000750037000d50a000a1
:101090000d70a000720037008fb8970041007800f3
:1010a00081bf9f00000478000000e00001003a00ca
:1010b000089721008004eb00010037008104e8005c
:1010c00089007800088044001004e000fbff3a002b
:1010d0003fb197000200e00003003200890f510089
:1010e00001003100820478000002eb00e4af9f00b1
:1010f000cfb29700898f520002003600098052005b
:10110000e0af9f004368de00e10660001b003a008c
:101110000d06780009003700ffb09700000220009c
:10112000f3fe0700e10f4000030032002fb09700ec
:101130000000e800a0b79f000c06e800efa89700a9
:10114000810f5600f4ff3a000081eb00e2af9f00f0
:101150000a003700880078003100fb0001047800a5
:10116000ffb09700e2fe0700e10f400003003200ed
:101170002fb297000402e800a4b79f000900e9001d
:1011800080047800e10f4000f2ff3a000006eb0017
:101190000d00e0000a003a00c6013700ffb09700da
:1011a00000022000d2fe0700e10f400003003200e1
:1011b000afb297008502e800a5b79f000c06e800d3
:1011c0006fa89700800f5600f4ff3a00b90137006e
:1011d0008fb897004100780081bf9f00cf80de006c
:1011e00001017800820178000205be000004be0003
:1011f0000203be000002be004822de00482edd00d1
:1012000004027600e4d79f000d48a3000a003200d4
:101210000404e00008003200e14f42000600320002
:1012200071fd2f00018047000448780018409800a5
:101230002900200002003700f0d79f00190020008d
:1012400072fd2f0002844700a1ff370064fd2f00cc
:1012500004844700190020009dff37000d0cb300e7
:101260000d007800000cb20028003a000d00e000ec
:1012700005003d008fba97004505be004504be003d
:1012800085bf9f00140037000d48a3000b003200fb
:101290000fbe97004c00be008cbf9f004f89de0040
:1012a000cf91de000002be000203780082037800c6
:1012b0000605be000404be00070037008fb8970083
:1012c0004100780081bf9f0000047800cfc4de0099
:1012d000090578008a057800e00f5400e08f5c0073
:1012e000e00f5d00e08f5d001f003d003d00b3009a
:1012f0006000b8006011b8000804500089845800ec
:101300000a0559008b855900170037000d00e000d1
:1013100005003d000fb997004205be004204be0023
:1013200082bf9f00100037000d48a3000700320065
:101330000fba97004400be0084bf9f006011b80040
:101340000205be000004be00070037008fba9700f8
:101350004500780085bf9f00000478000900200048
:101360000a0020000b0020003fb697000c00e000b0
:1013700007003a00e00f5400e08f5c00e00f5d00d2
:10138000e08f5d0002003a0010002000b0b79f001f
:101390008d007800010cb200e1b79f00000420002e
:1013a000808f50003000320003003c000100e0005c
:1013b0000800320040003700000820006fb197009d
:1013c000800f510014003200000c2000800f5100eb
:1013d00039003a0014c0b300a53a21000b003700d1
:1013e0000400fb004300dd00050040005001be008a
:1013f0004000be000040e10001c8e10002d0e10071
:1014000003d8e1002b0039000442e800f44f5200f9
:10141000f3ff3a0027003700000120000100200000
:101420006011b80014c0b3000040e10001c8e10041
:1014300002d0e10003d8e1001e0039004500200081
:101440000000d0008180d2000281d2008381d200ce
:101450008502e900faff3a000442e800f04f52002a
:10146000f1ff3a0013003700800020000100200047
:101470006011b80014c0b3000040e10001c8e100f1
:1014800002d0e10003d8e1000a0039003c0020004e
:101490000000d0008180d2000281d2008381d2007e
:1014a0000c06e900faff3a000442e800f54f52004a
:1014b000f1ff3a00e4d79f00efd097000100fb0056
:1014c0003fb19700820f500002003d00e2d79f001d
:1014d000040037003fb29700800f520001003d002a
:1014e000b0b79f00cfb297000500e00004003200c3
:1014f00063806600020032008502e900c5b79f00e4
:101500000de8a3000b0032004fb697003fb09700e4
:10151000800f560003003c008000eb00c1b79f0025
:10152000040037004fb197003fb29700040151000b
:10153000c2b79f00efd297000500fb000006eb004a
:10154000dcaf9f00cfb09700808f500002003400c6
:1015500000805000d0af9f000d28a300370032005c
:10156000e18066000d18a3000c003200d0022000bc
:101570000100e00001003a000080e900ffb09700a0
:10158000dbfd0700e10f40000e0032002fb1970095
:101590000201e800a2b79f000a0037000100e00046
:1015a00008003200ffb0970000022000d0fd0700c5
:1015b000e10f4000030032002fb297000402e80060
:1015c000a4b79f00dfaa97000500e0000f003200db
:1015d0000006eb00ffb0970000032000c4fd0700e9
:1015e000e10f4000030032002fb097000000e80038
:1015f000a0b79f000c06e800dfa89700810f5600f7
:10160000f4ff3a000001eb00d2af9f003fb2970019
:10161000c320dd00203a21008080400091b79f0068
:101620004220dd006400500080b79f006320b900b5
:10163000f0af9f006306500084003700dfaa9700d8
:101640000500e00011003200688066000f003a00db
:1016500000067800ffb0970000022000a4fd0700fc
:10166000e10f4000030032002fb097000000e800b7
:10167000a0b79f000c06e800dfa89700810f560076
:10168000f4ff3a000001eb00d2af9f00e18066005a
:101690000d18a3000c003200d00220000100e00071
:1016a00001003a000080e900ffb0970090fd0700bc
:1016b000e10f4000d5ff32002fb297000402e8008e
:1016c000a4b79f00d1ff37000100e000cfff320038
:1016d000ffb097000002200085fd0700e10f4000e9
:1016e000caff3200afb297008502e800a5b79f009d
:1016f000c6ff370000042000efb09700808f500035
:101700003100320003003c000100e000080032001c
:101710003e003700000820006fb19700800f510095
:1017200011003200000c2000800f510037003a00f9
:101730001fb097003002be002003be000800be00ac
:101740000a01be0090fc0700a40020000500200054
:101750006033b80093fc070004c3b30004424000a8
:10176000e4d79f002900370075972100d5b79f0067
:101770000d58a30002003a0080982100d0b79f00c6
:1017800014002000050020006033b8008fb09700df
:101790008100e900050033000402d0008582d200f8
:1017a0000683d2008783d200f9ff37000800be000d
:1017b0000a01be0074fc07006f0060005fb1970073
:1017c000624078001000370014002000050020005f
:1017d0006033b8000c0078000000e9000500330019
:1017e0000402d0008582d2000683d2008783d20013
:1017f000f9ff37000800be000a01be0062fc0700c6
:10180000674060000043b000e0d79f00efd0970032
:101810000100fb00ffb0970035fd0700e10f40001d
:10182000030032002fb197000201e800a2b79f0029
:101830001fb297006802520094b79f008fb29700c2
:10184000e482520085b79f0063065600d0ff2f0048
:101850003fb197000090b9007faa970000004200b6
:1018600063005000800f5600a2ff3a000d38a3001d
:1018700010003200dfaa97000500e0000d003400e0
:101880000006eb00ffb097000002200018fd0700e3
:10189000e10f4000030032002fb097000000e80085
:1018a000a0b79f000c06e800dfa89700810f560044
:1018b000f4ff3a00be407800e1d79f000104e00049
:1018c0005dfd3a002fb097004f0778004f06be002d
:1018d0004f05be004f04be00ef01b100000006003e
:1018e0000200fa00889fbe00a0ff9f00010478005c
:1018f000b1009000810478000904b20002003200b7
:101900000000fb00360037000118a30005003a0074
:101910000103b30031049800190498000080eb0023
:101920002f003700580090000000e00006003a0049
:101930004800900012002000e680570051fb07008d
:101940001904980024003700280090000000e000ef
:1019500008003a0080a0210020049800000c7800c4
:101960002000200050049800100498000130a000ce
:101970003104980018019000a800900048009000e1
:1019800040fb070028009000000c78000080eb006e
:101990001004980018007800aff8970001587800fc
:1019a000000c78002ff89700ea4f50000a003a0028
:1019b000380090000088a300070032001801900052
:1019c000a8009000480090002efb07001904980022
:1019d000a8009000010c7800aff897000100fb0010
:1019e0004f04be000080fa00000006000040da004c
:0819f0000000fe000000fe00f3
:020000040000fa
:109f000050490000584c000030300000323500004d
:109f1000494f0000494f000030340000303100004c
:020000040000fa
:020000040005f5
:0457f400131c000082
:020000040000fa
:020000040005f5
:0457f8009f09000005
:020000040000fa
:020000040005f5
:0457fc007f3e0000ec
:020000040000fa
:10000800fa0c0000085000000c50000010500000ce
:1000180014500000fa0c0000fa0c0000fa0c000062
:10002800185000001c500000205000002450000010
:10003800fa0c0000285000002c500000305000003e
:1000480034500000385000003c5000004050000080
:100058004450000048500000fa0c0000fa0c000060
:100068004c50000050500000545000005850000000
:100078005c500000fa0c0000605000006450000062
:10008800fa0c0000685000006c500000705000002e
:1000980074500000785000007c5000008050000030
:1000a8008450000088500000fa0c0000fa0c000090
:1000b800fa0c00008c500000905000009450000092
:1000c800985000009c500000a0500000a450000070
:1000d800a8500000ac500000fa0c0000fa0c000018
:1000e800fa0c0000b0500000b4500000fa0c0000f8
:1000f800fa0c0000b8500000bc500000fa0c0000d8
:10010800fa0c0000fa0c0000fa0c0000fa0c0000cf
:10011800fa0c0000fa0c0000c0500000fa0c0000b5
:10012800fa0c0000c4500000c8500000cc50000079
:10013800fa0c0000fa0c0000fa0c0000fa0c00009f
:10014800d0500000fa0c0000fa0c0000fa0c000075
:10015800fa0c0000d4500000fa0c0000fa0c000061
:10016800fa0c0000d8500000dc500000e0500000fd
:10017800e4500000e85000000c510000ec50000072
:10018800f0500000f4500000f8500000fc5000004f
:100198000051000004510000fa0c0000fa0c0000a5
:1001a800fa0c0000fa0c0000fa0c0000fa0c00002f
:1001b80008510000fa0c0000fa0c0000fa0c0000cc
:1001c800fa0c0000fa0c0000fa0c0000fa0c00000f
:1001d800fa0c0000fa0c0000fa0c0000fa0c0000ff
:1001e800fa0c0000fa0c0000fa0c0000fa0c0000ef
:0801f800fa0c0000fa0c0000f3
:020000040000fa
:1019f800c03621001080fb0000000600881f780018
:101a0800000478000202be0020609000e34f5000fe
:101a180010003200e10f5100e08f59000d003e0028
:101a2800a84890008180fb00384890004800dd00fd
:101a380001017000c84890008180fb005848900060
:101a48004800dd00810170000200420083804a00e6
:101a58001200370062005200e0805a0018619000be
:101a68000281fb0003002000f0fa0700e84990001b
:101a78008381fb00784990004811dd000302710062
:101a8800885190008381fb00185190004811dd00b7
:101a9800830271000000420081804a004f047800f0
:101aa80000000600ec874700889fbe008a9fbe00a2
:101ab8008c9fbe008e1f7800000778000202be00cf
:101ac800709d21000048eb002e60900090f79f0069
:101ad800e14f500011003200e34f50001e003a0061
:101ae800421edd00ce16de008d0676004216dd00b1
:101af8008040eb0081f79f00f2ff2f00f3ff2000ea
:101b0800e2b79f00f3b79f0080ff2f00f1ff20008e
:101b1800c0b79f00d1b79f001b00370032002000dc
:101b2800030020000400be00c0fa07006141600005
:101b380082f79f008106d1000086d300f0ff2f00b6
:101b480001002000e0b79f00f1b79f0082ff20004e
:101b5800030020000a00370002064100838649007e
:101b68008041eb0083f79f00f0ff2f000100200069
:101b7800e0b79f00f1b79f0082ff2f00030020000d
:101b8800c2b79f00d3b79f008e5890008180fb009a
:101b98001e5890004800dd0001047000ae58900007
:101ba8008180fb003e5890004800dd0081047000f1
:101bb800ee4090008180fb007e4090004800dd00f0
:101bc800010570008e4890008180fb001e4890003f
:101bd8004800dd00810570000801be000c00be0051
:101be800ddfa07000a0540008b85480061045400af
:101bf800e0845c0008037800090278008c00640027
:101c08000d80640080017800010178000204be00a4
:101c180010cf800021cf80008a0f50008b8f580092
:101c28003c003a009ff19700e3cf51004800320092
:101c38001ff09700e24f50004b0032009ff09700d2
:101c4800e1cf500080003a00c3e9200068c0790065
:101c58000086fb000d0020000ff197000204e00051
:101c6800040032004c68dd004466de000c0670009b
:101c7800c46ede0061004400e0804c000001630097
:101c88000100620080007800020078000004be00b5
:101c9800e00f5400e08f5c0009003a006105450040
:101ca800e0854d00030178000a00be00350a0700f0
:101cb8000004e0001c0032001acf88002bcf8800f7
:101cc800c0e92000684078000080fb000100200087
:101cd8000ff197000204e00005003200c409dd009e
:101ce800cc00de00818071004400dd000600370072
:101cf8006f00600001002000c808dd000080fd00c2
:101d0800804078000040eb000c0040008d804800c7
:101d18004e003700c2e920000a00be00190a070079
:101d28000004e00005003a00f0ff2f000100200049
:101d380010cf880021cf88004c0037001acf8800c8
:101d48002bcf88002e609000e34f500004003a002b
:101d5800c0e92000000044001000be003b0037002e
:101d6800e24f500004003a00c0e920006800780003
:101d78000100200035003700e14f500032003a00e2
:101d8800cae9200068407d000083fb0007002000ae
:101d98000ff097000004e00004003200cc38dd00aa
:101da8004433de0006837000c43bde006102440059
:101db800e0824c008e5990008381fb001e599000f0
:101dc8004811dd0003007100ae5990008381fb00cb
:101dd8003e5990004811dd008300710061005000f9
:101de800e0805800040160000580600080027800ef
:101df800020278000400be0060407d000080fb0005
:101e0800010020000ff197000204e00005003200f5
:101e1800c409dd00cc00de00818071004400dd00d3
:101e2800060037006f00600001002000c808dd00d0
:101e38000080fd00804078000040eb000600400074
:101e480087804800010037006000b8004fb1970054
:101e5800dfb19700820f5000838f580001003900ce
:101e68000200be00e0b79f00f1b79f006fb0970077
:101e7800ffb097004f0778004f06be004f05be0021
:101e88004f04be00cf00b10000000600ea874700fb
:101e9800889fbe008a9fbe008c9fbe008e1f780060
:101ea80000077800f1b79f0082f79f009004780040
:101eb80070139000801b9000101d9000a01d9000d2
:101ec80011027800895890008180fb001958900011
:101ed8004800dd0001017000a95890008180fb00d6
:101ee800395890004800dd00810170004b18dd0072
:101ef8004511de0002017000c519de008286fb0074
:101f0800110009000d82d800004678002960900071
:101f1800e34f50000b003a000c80fb001961900061
:101f28000281fb00110009000280d80001467800f8
:101f380080ff2f00f1ff2000d0b79f00e1b79f007e
:101f48000d00370080ff2f0001002000d0b79f0050
:101f5800e1b79f00e00f5300e08f5b0006003200fe
:101f68000c80fb00196190000281fb001100090040
:101f78000280d800014678008ff097000104e00045
:101f880002003a006f00620077003a000c04e0009b
:101f980002003a008d0f5200030031000ff1970044
:101fa8000204e0001d003200e00f5300e08f5b00e8
:101fb80002003a000605be00180037000ff097002f
:101fc8000004e00008003200196190000281fb0063
:101fd80002e9b900110009000282d8000001780066
:101fe800024478000b00370018c0b3000a01be0095
:101ff80009007800abfe07000005be005fb097003f
:10200800efb09700800f5500818f5d0051003100bf
:102018000844e9000804e000f4ff3a005fb09700c4
:10202800efb09700800f5500818f5d0049003100a7
:102038001a1f98002b1f98000a01be00090078009b
:102048006efe07000003be00709b8000819b80002d
:10205800800f5500818f5d0015003a000c82fb004f
:10206800050020000602420087824a00e9489000e5
:102078008180fb00794890004800dd000101700074
:10208800895090008180fb00195090004800dd00c5
:1020980081017000820f5200838f5a0004003900ba
:1020a800296090000001eb00e34f500039003a002e
:1020b8000004eb00f8ce8800709d210008487800e5
:1020c8001980fb00194190004811dd0000017100e2
:1020d8000c80fb00010020000600400087804800bb
:1020e80028090700e14f500002003200080178007b
:1020f80013003700194090009980fb000ff19700fa
:102108000204e0000c0032004800dd00010070000d
:102118007fb1970092007800801f780011000900b5
:102128008d80d800010178004f0078004511dd004e
:1021380002014000020037004800dd000101700084
:102148000080eb008080eb00d0ce8800e1ce8800d4
:102158001000370011c0b300809d210001487800ad
:102168000001eb000b0037001980fb00994090003c
:10217800c808dd0080807000811f78001100090008
:102188000d82d80001007800cf0078004500dd00fe
:1021980000814000020078004f0778004f06be001b
:1021a8004f05be004f04be00af00b100000006009e
:1021b800ea874700889fbe008a9fbe008c9fbe00aa
:1021c8008e1f780000077800f2b79f0083bf9f003a
:1021d800100578002a609000e14f50000500320099
:1021e8008cff2f000d002000e34f500003003a0041
:1021f8000a0037008cff20000d002000f0ff2f00a0
:1022080001002000d0b79f00e1b79f007fb497007e
:102218008fbc97008045eb00050037008cff2f002e
:10222800fdff2000f0ff2f00f1ff2000f5ff370031
:102238003e019000ce0190000a00780019fe0700c8
:102248000002be005fb09700efb09700800f520009
:10225800818f5a0002003a008bc0b3001400370087
:10226800ca5090008180fb005a5090004800dd0061
:1022780001017000ea5090008180fb007a509000c4
:102288004800dd008101700062014100e0814900e1
:10229800820f5200838f5a0001003900abc0b3008f
:1022a8008c0f52008d8f5a0001003900cbc3b30048
:1022b800340798004507980061045400e0845c00e6
:1022c800020032000b04e000d9ff32000b80fb0053
:1022d8004f0778004f06be004f05be004f04be00f2
:1022e800af00b1000000060060c078000080fb006d
:1022f8000000060081004000114090004800dd0009
:102308009180fb000100700000000600889fbe005d
:102318008a9fbe0080047800010478008180e8006c
:10232800f4ff070001002000c005dd000a002000be
:102338008800780009007800eeff070001002000ff
:1023480000007500818075004f05be004f04be0077
:10235800000006000001780020089000010020001d
:10236800c000dd000000200052099000030020009a
:10237800020070008380700000000600889fbe0085
:102388000004780010019000e10f510046003a0067
:10239800042a2100040878006000b800000c9800a6
:1023a800110c98000000eb001004980034609000b5
:1023b800e14f500002003200220498007b003700f1
:1023c800f00f2000200498002460900060449800da
:1023d800845890008180fb00145890004800dd006c
:1023e800010170004204980014609000204c98008d
:1023f800c45090008180fb00545090004800dd00dc
:1024080001017000e45090008180fb00745090003e
:102418004800dd0081017000620498007304980090
:1024280024609000e24f50000c003200e34f50004f
:1024380003003200e14f500013003a000a00370051
:1024480070ff2f00f1ff2000600c9800710c9800bd
:10245800f0ff2f00f1ff20000900370070ff2f0068
:10246800010020000200370070ff2000010020005a
:10247800600c9800710c9800f0ff2f0001002000fc
:102488000014980011149800220020000300200076
:10249800220c9800330c9800420c9800530c9800ba
:1024a800180078007ffd0700100020001800e000e9
:1024b8003d00320004003700200020003a003700b9
:1024c8000000eb0038003700a8009000f00f200053
:1024d800808f500035003a0080c4eb002809900036
:1024e800b8099000180078006efd07000001be00d2
:1024f8000810900098109000800f5100818f5900ab
:10250800edff3200e00f5100e08f590006003a005d
:10251800080890009808900061004000e08048009a
:10252800000c9800110c980028089000b80890003a
:1025380061024000e0824800240c9800350c9800a5
:1025480068089000f8089000800f5100818f5900aa
:102558000700320068009000f80090006200400018
:10256800e0804800800f5200818f5a000400390033
:102578002000200001002000200c9800310c980059
:1025880028099000b809900048089000d8089000e1
:10259800800f5100818f5900c9ff32008944e9003a
:1025a800ceff3a00f00f2000200498004f04be0030
:1025b80000000600c13621008048eb00b0089000fa
:1025c8000110a1003108980041372100810f500007
:1025d80003003a0011c0b3002037210001487800f9
:1025e80000000500881f78008003780030089000fc
:1025f8007f436000c500de00f3c3b30003c1600081
:10260800cb01de00470890007f4260008000780020
:10261800011eb200c50ade004904de00fc4f53006b
:1026280002003e000640e80021003700a0c3b300c6
:10263800804f510003003e000241e8000040eb00db
:102648001b003700f6cf510004003e008341e8002c
:102658000040eb000041780015003700fd4f5200a4
:1026680005003e000442e8000040eb00004178000d
:10267800804178000e003700ebcf520006003e0084
:102688008542e8000040eb00004178008041780076
:1026980014c0b300060037000844e8000040eb000f
:1026a800004178008041780014c0b300844278006b
:1026b8008080fb000280fb004500dd008080700008
:1026c8004b18dd0080807000b10b98008480fb00ff
:1026d8000580fb004500dd00808070004940dd007a
:1026e80080807000c10b98004f047800000006003d
:1026f800889fbe008004780001047800801890004c
:1027080070109000901c9800a11c980012c0b30093
:102718008800780009007800dcfd07000000e00070
:1027280011003200904078000104e0000e003200f1
:10273800fbcf40000c00320007003700180ce800ff
:102748000041eb008800780009007800cffd070001
:102758000000e00004003200b0489000efcf5000c5
:10276800f6ff3200010037000000eb004f04be0006
:10277800000006000001eb0063032000617079008f
:102788000201e800830f5100fcff3a000000060038
:10279800c13621008048eb0080089000700090004e
:1027a800000006006011b800720098000308980045
:1027b8008000eb0061009800510098001001900023
:1027c800a00190003200980043009800f1ce8800e4
:1027d80000000600c03621001080fb000000060043
:1027e800c13621008048eb000002eb007001900028
:1027f80080099000a008900010089000800f5100f8
:10280800818f590001003a0014002000040078006c
:1028180000000600f0874700889fbe008a9fbe0020
:102828008c9fbe008e1f780080bf9f000107780034
:10283800830478000288b90001002000e0b79f00f7
:10284800f1b79f00cd362100804eeb0013047800cd
:10285800630690007300900083089000c0b79f0043
:10286800d1b79f0033089000e200600003003a00ef
:10287800e0c1b300804e78009a003700f0ce8000a7
:10288800830f5000340032006162b800885890000d
:102898008180fb00185890004800dd00010170009d
:1028a800a85890008180fb00385890004800dd004f
:1028b80081017000820f5200838f5a002600320077
:1028c800f9ce880039019000c9019000080078000d
:1028d8004afc07005901900002054000e0854800c5
:1028e800709d21000048eb001880fb001841900003
:1028f8004811dd00000171000a00be002107070031
:102908000004e00012003a0080c0b300804e780056
:102918008000eb0073003700d1c3b300c03621003c
:102928000148780067003700f1c0b300c0362100c5
:10293800014878000a0678006200370081c0b300b9
:10294800c0362100014878000006eb005d00370022
:10295800dace8800ebce88006011b800a2b79f00dd
:10296800b3b79f004f00370019089000a9089000de
:102978004fb19700dfb19700800f5100818f590048
:10298800e5ff32006162b800885890008180fb0042
:10299800185890004800dd0001017000a858900008
:1029a8008180fb00385890004800dd0081017000ec
:1029b800820f5200838f5a0024003a00d9009000f9
:1029c8008100e800d1049800186090000080fb00a6
:1029d800808f500008003a000005eb00da049800e8
:1029e800120020000300200009007800f0fd070015
:1029f8000004e000ccff3a0039019000c9019000c2
:102a080008007800fdfb070059019000020540000e
:102a1800e0854800f9ce8800709d21000048eb0051
:102a28001880fb00184190004811dd00000171007a
:102a38000a00be00d30607000004e000bfff320012
:102a4800dace8800ebce88000006eb009880fb0009
:102a5800184090004800dd000100700060407e00d2
:102a68008fb897002fb19700bfb197008070790099
:102a78000c06e8004fb19700dfb1970061014100f3
:102a8800e0814900c2b79f00d3b79f002fb09700dd
:102a9800bfb0970061004000e0804800a0b79f00e9
:102aa800b1b79f00afb697002fb19700bfb197009d
:102ab8006fb09700ffb09700800f5100818f5900c9
:102ac800a9ff3a00ec0498004fb19700dfb19700d6
:102ad800f2049800830c9800110009008e86d80033
:102ae8008000fd00010078004f0778004f06be0007
:102af8004f05be004f04be000f01b10000000600e4
:102b080000437800e494800062002000ec0f52003b
:102b180001003e000001eb00f59480008043eb00cb
:102b28008001eb0049003700e3c07a00ffcf500076
:102b380002003e00e5cf500047003a0020c2b30033
:102b480080cf5000440032006d40400080cf5000dc
:102b5800410032006b40400080cf50003e00320000
:102b680000c0e80080cf50003b00320000c0e80001
:102b780080cf5000380032007e40400080cf5000a7
:102b880035003200c0c7b30080cf50003200320099
:102b98000604e00006003a00a0c2b30080cf50004f
:102ba8002d0032007540400080cf50002a003200ce
:102bb800e60f51002400320000c2b30080cf50005d
:102bc800200032006b40400080cf50001d003200d2
:102bd8000040e80080cf50001a0032006f404000eb
:102be80080cf50001700320000c0e80080cf5000ae
:102bf800140032007e40400080cf500011003200a7
:102c080000c0e80080cf50000e003200e0c2b300e0
:102c180080cf500003003a00e1cf53000900320092
:102c280017c0b300e10f510007003200f0c9b3002c
:102c380000c04000f94f500003003e001200200081
:102c480001003700620020008301e800848f5100f2
:102c5800b5ff39000100370072002000020078003b
:102c6800000006001a00fa00889fbe008a1f78003c
:102c780000047800010578008244780014f8070001
:102c8800e0948800ec0f50005e003e009840780009
:102c9800e0c2b30080cf50005a0032000104e000c7
:102ca8005800320000fe2f000f004000f09488000a
:102cb8008000eb0003003700f094800068f0780093
:102cc8008100e800e0948000808f5000faff39000e
:102cd800094078008aff0700e70f500049003200da
:102ce800e7948000e60f500046003200f39480001d
:102cf8000002eb000c003700e4c07900e2c2b30028
:102d080082cf500003003a0004805300e40f5000c3
:102d18003c003c00e90f52003a00320082cf5000dc
:102d2800030032000402e800870f5200f2ff35006a
:102d3800fc0045000000eb0002c2b30002f078007e
:102d48000000e800eb0f5000fcff3a00f894800008
:102d58008002eb0005037800fac9b30009ceb3007e
:102d68000d00370065417c000204e00007003200d6
:102d780086814000824978000a404100f94f50009e
:102d880001003e00894941000603e8008502e80089
:102d9800e70f530002003c00848f5200f1ff35001a
:102da800870f520019003d000402e8008402440025
:102db80086002000f9c9b30008ceb3000e00370022
:102dc800154178000204e0000700320086814000c7
:102dd8008249780009404100f94f500001003e0047
:102de800884941000603e8000402e8008502e8007b
:102df800ea0f530005003c00870f5200f0ff350032
:102e0800020037000000eb0001003700100020002e
:102e18004f0578004f04be000080fa00000006004d
:102e2800e4874700889fbe008a9fbe008c9fbe0033
:102e38008e1f7800000778001000780080bf9f0080
:102e4800e18f500004003200e28f5000070032008a
:102e58000206be00090037007e0090008e08900030
:102e68000206400083864800040037001e089000d0
:102e7800ae08900002065000838658001e0090009d
:102e8800ae00900030079800410798001e08900097
:102e9800ae089000800f5600818f5e000200360059
:102ea800f1c1b3003e0037003e0890000020a100a9
:102eb800300f98007c0798000d0f98000fb9970005
:102ec800825890008180fb00125890004800dd0075
:102ed80001047000a25890008180fb0032589000d5
:102ee8004800dd00810470000801be000c00be002f
:102ef80019f607000005be000801be00cbf5070063
:102f08000000560081805e00600798000fba9700a5
:102f1800146490000884fb00090020000801be002a
:102f28000a00be000cf607000006be000001be0045
:102f38000800be00bdf507000005550081855d004d
:102f48005a079800e00f5600e08f5e002300320019
:102f58000c01be000e00780095fc07008040780048
:102f68000004e0001d003200c0c3b30080cf500051
:102f78000a003a001e009000ae009000300798004a
:102f88004107980061015600e0815e000e0078005c
:102f980087fc07000004e00005003200f1c0b30020
:102fa800c0362100014878000080eb002700370078
:102fb8000fba9700845890008180fb001458900045
:102fc8004800dd000101700062079800146090005d
:102fd8000080fb000000e90050079800ca36210075
:102fe8003e019000ce0190000fb8970083fa0700c9
:102ff8005e01900002064000e08648000004eb00f5
:10300800f8ce8800709d2100084878008fb8970096
:103018001180fb00114190004811dd000001710092
:103028000c00be00570507000004e00003003a004a
:10303800b0c1b300004d7800dbff3700dcce88005c
:10304800edce8800084d7800080078004f0778001a
:103058004f06be004f05be004f04be004f00b10032
:1030680000000600881f7800000478001080fb002c
:10307800184190004811dd00000171006000b8009f
:103088004005070081c0b300e14f50007b003a00c3
:103098009880fb00184090004800dd000101700096
:1030a800e2f8930050c5b30080cf50003b003a00cf
:1030b800f2f89300a0cab30080cf500037003a005e
:1030c800e270900060c4b30080cf500016003a0050
:1030d800f27090006540500080cf500012003a0016
:1030e800827890007340400080cf50000e003a0074
:1030f8009278900010c3b30080cf50000a003a00c5
:10310800e26090006840500080cf500006003a000e
:103118000040eb0020449800304498004044980058
:10312800504498004b003700a2d0900060c4b30010
:1031380080cf500019003a00b2d09000654050008e
:1031480080cf500015003a00c2d090007340400074
:1031580080cf500011003a00d2d0900030c3b300a5
:1031680080cf50000d003a00a2c090006a40500085
:1031780080cf500009003a000040eb00204498003e
:1031880030449800404498005044980030c0b30040
:10319800206498000000eb003b003700e2f8930041
:1031a80050c5b30080cf500004003a00f2f89300f5
:1031b800a0cab30080cf50000200320041c0b30063
:1031c8002e00370045c0b300241c20000202420034
:1031d800c44090008180fb00544090004800dd000e
:1031e80001017000e44090008180fb007440900071
:1031f8004800dd0081017000224498004810de007c
:1032080030449800434498004818de005044980021
:1032180014407800ee4f500014003e000000fb0000
:10322800130020008018dd000005240000806000e5
:1032380008003a006281600004003a000080210022
:103248000080600005003a000800370023649800f9
:103258000600370020c0b300cdff370030c0b300f0
:1032680020649800020078000700370070024200ce
:103278008542e900d6ff3a0051c0b300c0362100ac
:10328800014878000180fb004f0478000000060028
:10329800f4874700889fbe008a9fbe008c9fbe00af
:1032a8008e1f7800000578001080fb001a419000fe
:1032b8004811dd00000171002a4290000482fb00e1
:1032c800ba419000c819dd00048071004a4290009c
:1032d8000482fb00da419000c819dd008480710087
:1032e800a804070082c0b300e14f50006f013a0004
:1032f8009a80fb001a4090004800dd0081057000ac
:103308000000eb0090b79f00800078006001370054
:103318001200200092b79f00ebf8930050c5b3004d
:1033280080cf5000e7003a00fbf89300a0cab30032
:1033380080cf5000e3003a009a80fb001a409000ca
:103348004800dd0001047000e1002000080078005a
:10335800e8fb0700d8499000136598006101b800a0
:10336800c2b79f00d3b79f00aa4190008381fb009a
:103378003a4190004811dd0003007100ca419000f5
:103388008381fb005a4190004811dd0083007100e1
:103398004fb19700dfb197000000410081804900dc
:1033a800604598004801de0072459800014d98007c
:1033b8004808de00104d9800885190000365980079
:1033c8006101200008007800cafb07006101b8000d
:1033d800425d98004811de00525d98008000eb00c5
:1033e800615d9800715d98000000e00009003a00f6
:1033f8004102200008007800c4fb0700405d9800e7
:103408004801de00525d9800615d98004808de00c2
:10341800705d9800ea4090008180fb007a4090003f
:103428004800dd00010470008a4890008180fb009c
:103438001a4890004800dd00810470000a6090007e
:103448000081fb0003002000e2b79f00f3b79f0054
:10345800ca5890008180fb005a5890004800dd004f
:103468000100700080bf9f0000017800ea589000ba
:103478008180fb007a5890004800dd000107700049
:103488008e0178006fb09700ffb0970067f40700cf
:103498000804400089844800284d98004840de0010
:1034a800304d9800494d98004848de00504d98002e
:1034b8009a80fb001a4090004800dd00010470006b
:1034c80011012000080078008afb070080047800ba
:1034d800205598004800de00305598003101200042
:1034e8000800780083fb07006106b8000000e000d0
:1034f80004003a00010220000800780083fb07005e
:103508000006be00b10020000800780079fb070023
:10351800000478000000e0006c0032000008a300fe
:103528006a003a004548dd00080040000000e90054
:10353800110009000880d8006101b800a2b79f00f7
:10354800b3b79f000fb997008e0178006fb097004e
:10355800ffb0970035f407004fb19700dfb197002f
:1035680002004000838048002fb19700bfb1970048
:1035780000004100818049000000560081805e0003
:103588001a6190000281fb000300200072f407001a
:103598000001be00405598004800de0050559800d4
:1035a800635598004818de007055980040ff2000c9
:1035b800800f5100e08f590002003e0010c0b30098
:1035c8000500370020c0b300ec0f4100e08f590020
:1035d8000100360030c0b300206598002a609000d2
:1035e800e34f500017003a009a80fb001a40900001
:1035f8004800dd0001007000c102200043fb070005
:10360800709b8800819b8800aa4990008381fb00f9
:103618003a4990004811dd0003007100ca49900042
:103628008381fb005a4990004811dd008300710036
:103638002fb19700bfb19700000041008180490079
:10364800150037006000b800709b8800819b8800d7
:10365800aa4890008180fb003a4890004800dd00ad
:1036680001027000ca4890008180fb005a4890000f
:103678004800dd00810270002a5190000281fb00a1
:103688003a5090004800dd00020070004400de005f
:1036980000004200e0804a00604d98004801de00ca
:1036a800724d9800015598004808de0010559800a2
:1036b8000041eb0000202000800f54000400360079
:1036c8000200370032c0b3000100370012c2b30055
:1036d8002a609000e34f5000070032000204e00027
:1036e800740032002bc0900081cdb300014040002f
:1036f800e14f50006d003e00bb5090008180fb0000
:103708004b5090004800dd00010070002c003a008a
:103718004b7090000004e00029003a005b709000b4
:103728000004e00026003a006b7090000004e000fe
:1037380023003a007b7090000004e00020003a006b
:103748000b7890000004e0001d003a001b78900000
:103758000004e0001a003a002b7890000004e00012
:1037680017003a003b7890000004e00014003a008b
:103778004b7890000004e00011003a005b7890005c
:103788000004e0000e003a006b7890000004e000ae
:103798000b003a007b7890000004e00008003a0033
:1037a8002bc0900081cdb30001404000e14f500094
:1037b80003003e000204e00002003a003d0037002a
:1037c80032c0b3009fb197000300e00019003a002f
:1037d8001a80fb001a4190004811dd0000017100b9
:1037e800aa4090008180fb003a4090004800dd002c
:1037f80001027000ca4090008180fb005a4090008e
:103808004800dd0081027000ab7190008381fb00ed
:103818003b7090004800dd0003007000000042008b
:10382800e0804a0057030700e14f5000b8fe32001d
:10383800190037000fb097000000e0001b003a00a5
:103848001a80fb001a4190004811dd000001710048
:103858002a4290000482fb00ba419000c819dd009a
:10386800048071004a4290000482fb00da41900013
:10387800c819dd008480710066004000e0804800bf
:1038880040030700e14f500003003a0011002000f8
:1038980081b79f00a0fe370081c0b300c036210069
:1038a800014878008000200003003700c03621005e
:1038b800024878000280fb004f0778004f06be00e0
:1038c8004f05be004f04be004f01b10000000600c6
:1038d800889fbe00000478008044eb00396098009f
:1038e800c0092100004c78004800de001044980010
:1038f80071040700000178001004e00004003200a1
:1039080061c0b300c0362100014878001f003700ad
:103918000010200012006000100032001200900019
:1039280001002000005c98004800de00105c980050
:10393800295c9800395c98009200900000202000d3
:10394800808f50000500360011c2b300c036210038
:1039580001487800100220000d00370008007800a8
:10396800c0fd0700804078000004e00007003a002e
:103978000800780046fe0700804078000004e00058
:1039880002003a0010c0b300306498000180fb00c8
:103998004f04be000000060011c0b300203721000c
:1039a80001487800709d21000048eb00009e21002e
:1039b8000048eb000080eb008080eb0010cf88000f
:1039c80021cf8800d0ce8800e1ce8800c201070050
:1039d800002a2100beff0700804078000000eb00ad
:1039e8000104e00003003a00c036210001487800d5
:1039f8001000200000000600889fbe008a9fbe00bd
:103a08008c9fbe0000057800810678009100780040
:103a18006f80600008003a000100e00006003200f4
:103a28007a1090008a189000101d9800211d9800a7
:103a380012c0b300010037000041eb008d00780090
:103a48000a00780011f90700800478000000e000ff
:103a58003e0032001040780014c0b300fb4f400015
:103a68003b0032000004e00038003200090678000c
:103a7800fc0545000044eb003c80fb00f1f2070028
:103a8800805d78000844e800e84f5400faff3a00e7
:103a9800688644008005eb0068c445000884fb0084
:103aa8007c044400080445003c80fb00e5f2070064
:103ab800004c78008b05e800e38f5500f6ff3a00cc
:103ac8009d0678004d15980050ceb3001940680047
:103ad8000080fb000000e9004f02de00690890004a
:103ae800f9089000100d9800210d98002908900001
:103af80001002000c000dd000000200059099000ee
:103b080003002000020070008380700010059800f8
:103b180021059800394890000080fb006015980046
:103b28000048a30004003200f9009000410d9800fd
:103b3800890c90000300370039089000400d980068
:103b4800c90c9000590d98000100370024c0b3003b
:103b58000480fb004f06be004f05be004f04be00a8
:103b680000000600889fbe008a9fbe008c9fbe0092
:103b78000004780001057800100678003c60900089
:103b88007d0020000004e0003e0032007810900024
:103b980088189000101c9800211c98001a007800c2
:103ba8000000e000020032006f00600007003200f1
:103bb80012c0b3008a00780008007800b3f8070044
:103bc800bd0120000000e000010032008006eb008b
:103bd8008a0078000800780087ff07000004e000ea
:103be80002003200bd002000260037006000b80047
:103bf80070049800010c980018009000a80090002c
:103c080030049800410498008004eb00590498009f
:103c1800690498000001be000c00780077f70700df
:103c28000005be00f8ce8800d0ce8000e1ce80002e
:103c38008a0f50008b8f58000d003200709d2100b4
:103c4800094878001c80fb001c4190004811dd00e9
:103c5800000171000a00be004a0207000004e000eb
:103c680001003a008d002000dace8800ebce8800f3
:103c7800380890000020a1000000a1000010a0005a
:103c8800300c98000d0078004f06be004f05be00ae
:103c98004f04be0000000600e8874700889fbe006a
:103ca8008a9fbe008c9fbe008e1f78000006780099
:103cb8000107780082f79f0093f79f00401090005b
:103cc800e0b79f007c1090008c189000101e9800a0
:103cd800211e98006e1090000080ea00f0b79f0047
:103ce8006fb097000000e000020032006f00600033
:103cf8007a00320012c0b300f48057000c0078003c
:103d080062f807000000e00074003a007100370014
:103d1800f48057000c00780037ff0700e24f50008e
:103d2800700032000004e0005d003a00ec109000e2
:103d3800f103b2001ff197000204e0000300320013
:103d4800e14f51005d003a0014003700e88f500041
:103d58005a0032007c054600fc044700bbc0b30093
:103d68001a80fb003ef20700000478001980fb006f
:103d78003bf20700800f54004d003a008b45e900e4
:103d88000a05e8008904e8000b04e0004a00320054
:103d9800f3ff3700b8002000210037007fb19700fb
:103da8000280600045003a00ef8f50004300320067
:103db800ce589000a0c2b30080cf50001700320048
:103dc800fc0546007c0547008dc0b3009b40780089
:103dd8009a447800a0c2b30080cf54000f0032008c
:103de8007540400080cf5400070032000180fb007e
:103df8001bf20700000478000980fb0018f2070096
:103e0800800f5400e3ff3a008d46e9008b05e80077
:103e18000a05e8000d04e000ecff3a000004eb009e
:103e2800ce609000a0c2b30080cf500023003200c3
:103e38000800e00021003a004b0220008c85450074
:103e48004a0220000e0545003dc0b3009b407800a3
:103e58009a447800a0c2b30080cf54001600320004
:103e68007540400080cf5400070032000180fb00fd
:103e7800fbf10700000478000980fb00f8f1070057
:103e8800800f54000a003a008d46e9008b05e800cf
:103e98000a05e8000d04e00007003200ebff3700d8
:103ea8000ff097000004e000030032000300370021
:103eb800b8002000010037000004eb00efb09700c5
:103ec8008100e800e1b79f000800e000050032002b
:103ed8008fff3700b801200002003700b80020002b
:103ee8008bff3700080078004f0778004f06be00a8
:103ef8004f05be004f04be008f00b1000000060051
:103f08000200fa00889fbe008a1f7800000578002a
:103f180091447800b10207000004e0000700320075
:103f280020c7b30080cf54000400320020c5b3007e
:103f380081c1b30080cf54000c003a00283721001b
:103f480001c2b3001804e00008003200004ceb0086
:103f58000041eb00413721000a00780041fb0700cf
:103f68000004e00009003a0004003700c0362100d0
:103f7800014878000000eb004500370010c0b3008e
:103f8800004c780021c1b300f8ff3700002a210057
:103f9800a09b8800603721000008eb0030107800f3
:103fa800a03721000008eb0030107800c03921004c
:103fb8000008eb0000022000009d8800709b800034
:103fc800819b8000109d8800219d8800309d88007d
:103fd800419d880041372100a02f2100e5f9070005
:103fe8008041eb0012c0b300a12f2100403721000f
:103ff80029ff07000000e00013003a0020c5b300c5
:1040080080cf54000300320020c7b30080cf540093
:1040180008003a00e09c8000c0bf9f0022c7b300a0
:10402800e880570040372100cefe070000047800e2
:1040380009003700f1c1b300c036210001487800fb
:10404800f80f200004003700b1c0b300c0362100cb
:1040580001487800b8002000600207000004e00072
:1040680003003200509c80000000a100509c880092
:104078000800e0000300320011c0b300203721001f
:10408800bbff3700c03621000848780040372100c0
:104098004f0578004f04be000080fa0000000600bb
:1040a8000080fb004012880040c2bf000008a30047
:1040b800fdff3200401280000000050041e2a90027
:1040c8000000060020af80000000060030af80002e
:1040d80041af800000000600d5c2a800d1c2a900e7
:1040e80000000600f00f20004012880040c2bf0008
:1040f8000008a300fdff3200401280000080fb0092
:10410800000006000e00fa00889fbe008a9fbe00cd
:1041180000057800014478000202be00d5c2a9005b
:10412800f08457008185fb000140780062c0b3002d
:104138000440bc00a08421000000410090407800a9
:10414800e1f79f0094bf9f00a5bf9f00104090001b
:10415800804c78003fb897000060a000b0bf9f0077
:104168006ff09700ceff07005ff09700ccff0700c5
:104178004ff09700caff07003ff09700c8ff0700fd
:104188002ff09700c6ff070019407800c4ff07000a
:10419800e54f540001003a00d2ff07004801200013
:1041a800d0ff0700804178000804e900e14f400093
:1041b80002003a000800e000f9ff3a00a3ef9f0070
:1041c8006658b9000080e800a284210062007800e7
:1041d800e20f500004003a00b3ef9f00c1ff070050
:1041e800a0ef9f0019003700e10f50000d003a00c2
:1041f80008002000a9002000baff0700610454004d
:10420800e0845c000004e00003003a00e00f540082
:10421800e08f5c00f8ff3a000041eb00a2ef9f003e
:104228000a003700e40f500008003a00adff07000d
:10423800f0ef9f00abff0700e0ef9f00a9ff07002a
:10424800d0ef9f00a7ff0700c0ef9f0000c0eb0062
:1042580093ff07006658b900e2842100020040007d
:104268001004e00001003a00d5c2a8005fb0970032
:10427800efb09700008dbe00ffb0970021059800b1
:104288000a0078004f05be004f04be000080fa0007
:10429800000006001e00fa00889fbe008004780017
:1042a800c0489000e2cf50005f00320006003e0098
:1042b8000000eb000104e000af003200e1cf500045
:1042c800a9003a0005003700e3cf50004000320053
:1042d800e2cf4000a4003a009700370000202000f9
:1042e80040ae8800a05e2100060009003918780059
:1042f800e900b100205e21001004e00008003a0047
:1043080090af8000a1af80004909dd00c700de0042
:10431800810071004900dd0090af8800a1af8800de
:10432800c25e21000020200001002000b20f100012
:10433800a28f18000e003e001000200010ae88006a
:104348007c84570092af8000a3af800081c0b30087
:10435800080078006bff07001802be00f4af9f004a
:1043680085b79f00cfb2970095b79f000d00370023
:104378000000eb0010ae88007684570092af8000f2
:10438800a3af800091c0b300080078005dff07006c
:104398001800be00f0af9f0081b79f00ffb09700e4
:1043a80091b79f006fd997000204e0001c003a0003
:1043b800000020004100200020ae880031ae8800b7
:1043c80030c0b300c04c9800100020006a003700cd
:1043d80020ae800031ae8000e00f5000e08f580022
:1043e8000f00320061005000e080580020ae8800c5
:1043f80031ae88003bff07008040780010002000a5
:10440800e1cf40005c003200e2cf400004003a00f7
:1044180020c0b300c04c9800200020005600370090
:10442800e0cfb300e7ff370062af800073af8000d2
:10443800e00f5100e08f590032003200100278007e
:1044480054af8800b002900085af880084017800de
:104458006120b800c25e210032021000a28218005a
:1044680064af880075af880040ae8000030250003a
:1044780044ae880080af80000300e00012003200e4
:104488000001e900f50f2000830041004512880073
:104498000201e800810f51000600320040c2bf004f
:1044a8000008a300fdff3200401280000049780098
:1044b800f6ff370040c2bf000008a300fdff32002e
:1044c8004012800000497800200020000400e0002d
:1044d80029003a0003ff070002ff070060af8000d1
:1044e80071af8000e00f5000e08f580002003200ea
:1044f80030c0b300c04c98000020200040ae8800b7
:10450800b1ff370010ae80000000e00003003a0061
:1045180051c0b30070805700fafe0700d5c2a8004a
:1045280000c0eb00defe07000040eb00c04c980026
:104538000000eb001000370000c0eb00c04c9800f2
:104548006a8457006011b80051c0b30008007800b1
:10455800ecfe07001800be00f0af9f0081b79f0077
:10456800dfb8970091b79f00d5c2a80000c0eb0044
:10457800cbfe0700f00f20004f04be000080fa00b9
:10458800000006000e00fa000320200093bf9f00e1
:104598000420200005002000a4bf9f00b5bf9f0095
:1045a800c2bf9f00d0bf9f00e1bf9f0010c0b300f3
:1045b800e0ff9f006e80570036ff07000004e00010
:1045c80002003a001000200003003700e14f4000cd
:1045d800f8ff3a000000eb000080fa000000060037
:1045e8001e00fa00889fbe008a9fbe0080047800e3
:1045f800c0489000e2cf50005800320006003e004c
:104608000000eb000104e000d6003200e1cf5000ca
:1046180050003a0006003700e4cf5000b3003200e3
:1046280088003900e2cf4000c50032004900370059
:104638000020200080ae8800a05e2100060009004e
:1046480039187800e900b10062af800073af8000cc
:10465800a15c210004202000840f5100e08f590044
:1046680003003e00a0c0b300804878001d0037005a
:10467800b0c0b30080487800c91dde00c71add004d
:104688004915de000a857200e00f5500e08f5d00d5
:1046980002003a001a0020000b00200000fe2f0044
:1046a800008447006011b800f1c0b300080078002a
:1046b80094fe07001802be00d4af9f00e5af9f002c
:1046c800afb29700f5af9f002fd897000004e00025
:1046d80004003a000a01be0031c1b3007a805700d5
:1046e80088fe0700205e21001004e00008003a0060
:1046f80090af8000a1af80004909dd00c700de004f
:10470800810071004900dd0090af8800a1af8800ea
:104718007484570092af8000a3af8000a05c210092
:10472800904078000800780076fe07001802be0066
:10473800d4af9f00e5af9f008fba9700f5af9f00f9
:104748002fd897000004e0006100320000c0eb00a1
:10475800c04c9800f00f20008200370081ae800026
:1047680000202000808f500008003a00a05c210043
:10477800b1c0b30090cf100002003a00c0cfb30020
:1047880001003700e0cfb30045fe070019017800ab
:1047980052af88003902900084af88008201780007
:1047a8006110b800c25e210032021000a282180017
:1047b80064af880075af880080ae800003025000a7
:1047c80084ae880081af8000838140003180fb0087
:1047d8004012880040c2bf000008a300fdff32005d
:1047e80042128000838f5000f8ff3a00205d2100bc
:1047f80002487800200020000400e00059003a0038
:104808000020200080ae880000c0eb0024fe0700d6
:1048180000c0eb0022fe070032fe07007f006000a8
:10482800e50f50002e003a0030c0b300c04c98008d
:1048380000002000a100200060ae880071ae880052
:104848004700370060ae800071ae8000e00f500076
:10485800e08f58002200320061005000e0805800cc
:1048680060ae880071ae880000c0eb000cfe070047
:104878001cfe0700215d2100804878000004e0004c
:104888003700320060af800071af8000e00f500049
:10489800e08f58000e003a0000002000a100200020
:1048a80060ae880071ae8800a05c2100b5c0b3007e
:1048b80090cf12001b003a00d0cfb300f8fd0700dc
:1048c80000c0eb00f6fd070040c0b300050037004c
:1048d80020c0b300c04c9800200020002100370001
:1048e800e0cfb300c04c98001d00370060ae8000d8
:1048f80071ae8000e00f5000e08f580010003200c9
:1049080061005000e080580060ae880071ae8800f9
:10491800f4fd0700215d2100804878000004e000d4
:104928000f003200d5c2a80000c0eb00dcfd070074
:104938000040eb00c04c98000000eb000900370075
:104948006011b80051c0b3006e805700edfd07003c
:10495800d5c2a80000c0eb00d1fd07007bff3700df
:10496800300020004f05be004f04be000080fa0052
:10497800000006000002be000304e00003003a0045
:10498800e00f5000e08f5800130032000020200094
:10499800a0ae88000020200001002000b0ae8800f2
:1049a800c1ae8800d2ae8800e4ae8800f5ae8800bb
:1049b80011c0b300005e210001487800405d21006d
:1049c80007ff07000004e00001003a00100005009e
:1049d800e14f4000f9ff3a00000005000000050023
:1049e80080c0eb0007003700b27c200003002000e5
:1049f80061015100e0815900e10f4100e08f490059
:104a0800fbff3a000040e900814f5000f6ff3a00f2
:104a180000000000000006000001eb000212880000
:104a2800121288004222b70042c2a8004302a9001d
:104a3800a8c6bf0001ccb300014060004041b300ec
:104a4800a8e6b700c2c6bf00014060007040b300ce
:104a5800c2e6b700d9c6bf00014060000034a0001c
:104a6800d9e6b7000212880041e2a800000006005b
:104a7800010520003200200002003700e88f5000b6
:104a8800060036000201e900638060000100320080
:104a9800e4804000c208de00f8ff3a000100e900a7
:104aa8004200dd000080ea007c0060000000710028
:104ab8000050a000d8ff37006200fa00889fbe00af
:104ac800805f21000048eb00905f21000048eb0068
:104ad8006000b80030af880041af8800205e210038
:104ae8000048eb00d5c2a800e1ff0700e0c1b30011
:104af800bbff0700d5c2a800a800200000c0eb003b
:104b080067fd07000804e900fcff3a004906200099
:104b1800d5c2a80000c0eb0061fd0700d5c2a900fe
:104b28008904e90040fb2f00008447006011b800a9
:104b38008040eb000800780072fd07001800be00f6
:104b4800d08f9f00e18f9f00cf989700f18f9f0033
:104b58002f599700e14f5100030032000900e0008f
:104b680003003200eaff37000900e00021003a00a4
:104b7800d5c2a80000c0eb0049fd0700d5c2a900b6
:104b8800a8fb2f00088447006011b80051c0b3008b
:104b9800080078005bfd07001800be00d08f9f005a
:104ba800e18f9f00ff989700f18f9f0008fc2f006e
:104bb800088447006011b8008040eb0008007800c6
:104bc80050fd07001800be00d08f9f00e18f9f00a6
:104bd800afa09700f18f9f002f599700e14f510028
:104be8000400320021c0b300805f21000148780032
:104bf800f800370068fc2f0008844700a21a20003c
:104c08000300200021c0b300080078003dfd070024
:104c18001800be00d08f9f00e18f9f00dfa0970093
:104c2800f18f9f006f889700f2ff2000020060005c
:104c380001002000a21a2000820f5000e08f5800c7
:104c480039003a00df8897006480600036003a0037
:104c5800c8fc2f00088447006011b80001c1b300e8
:104c68000800780027fd07001800be00d08f9f00bd
:104c7800e18f9f008fa89700f18f9f008084eb0041
:104c88006011b800f1c0b30020fd2f00008047007c
:104c98001cfd070088fd2f00088447000200200043
:104ca8000300240021c1b3000800780015fd0700a7
:104cb8001800be00d08f9f00e18f9f00efa89700db
:104cc800f18f9f002f5997000204e0000300320083
:104cd8008904e900bb003200e9ff3700295e2100a2
:104ce800e8fd2f00088447006011b80001c1b30037
:104cf8000800780003fd07001800be00d08f9f0051
:104d0800e18f9f009fb09700f18f9f0001e8a300fb
:104d18000300320010c0b300804c78002000370038
:104d2800804ceb001e003700d5c2a80010c0b300ad
:104d38002bff0700d5c2a900205e21000048eb0028
:104d4800f9ff21007c8457006011b80011c0b3003e
:104d580008007800ebfc07001800be00d08f9f0009
:104d6800e18f9f00cfb09700f18f9f008904e90081
:104d78002f5997000204e000030032000900e00008
:104d880003003200efff37000900e00004003a009a
:104d980021c0b300805f210001487800d5c2a80077
:104da800d5c2a800f00320001bff0700d5c2a90048
:104db80049012000768457006011b80031c0b30063
:104dc80008007800cffc07001800be00d08f9f00b5
:104dd800e18f9f00ffb09700f18f9f008904e900e1
:104de8002f5997000204e000030032000900e00098
:104df80003003200efff37000900e00004003a002a
:104e080021c0b300805f2100014878006b003700a3
:104e18008044eb000004eb00b2fc070001fa2f000d
:104e2800018147008980fb0000f178008944e8008f
:104e38000804e00004003a00e0cfb300924f1000ed
:104e480001003a00884478000804e800f40f540090
:104e5800f1ff3a000020200020af8800d0af880082
:104e6800c0af80000080a000c0af88009f6a970094
:104e78000f6a9700ff60970002fa2f000280470030
:104e88001080fb00000cb200140032000100780012
:104e9800f003b20001002000c000dd000000200087
:104ea8004821dd00030020000200700083807000ac
:104eb8000581fb0003002000020070008380700061
:104ec8004a09dd00c600de00810071004a00dd00ed
:104ed800f03fb0000180b0002d0037006f619700ef
:104ee8008281fb00020020004808dd00010020004c
:104ef80000017100818171000480fb000100200025
:104f0800000171008181710000fc2f003100200038
:104f180002026000038060008001780004017800cc
:104f28000200be004a09dd004600de0000007100f4
:104f3800c608de0061004000e080480063c16200ee
:104f4800024141002f6a97000408b20047a2de0020
:104f5800044171000281fb000281e8001800200072
:104f68000241dd0003002000b0ed07005f619700fb
:104f78006f016100690151000241dd000281fb00ff
:104f880003002000a9ed070061005000e0805800f0
:104f980030af880041af88006011b80011c1b3007c
:104fa8007080570057fc070022af800003002000e4
:104fb80071c0b3006a80570052fc0700d5c2a80030
:104fc8000400370021c0b300805f21000148780049
:104fd80042ff3700805f21004f04be000080fa00c6
:104fe800000006001200fa00889fbe004142e2005d
:104ff800170035009efe070049c0b300d5c2a800bf
:1050080000c0eb0026fc0700d5c2a9008944e900ce
:10501800708457006011b8008040eb0008007800e9
:1050280038fc07001800be00d0b79f00e1b79f000a
:10503800afb89700f1b79f002fe89700e14f5000f5
:10504800120032000904e000ecff3a0013003700b8
:105058006a8457006011b80061c0b3000800780086
:1050680028fc07001800be00d0b79f00e1b79f00da
:10507800dfb89700f1b79f00c0c02e00dfb09700df
:10508800008060000800320041e2a9008afe0700a3
:10509800805f21001004e0000300320041e2a90013
:1050a8000000eb0001003700100020004f04be0094
:1050b8000080fa000000060041e2a900d5c2a8005d
:0450c80000000500df
:020000040000fa
:1050cc00001a00000800000082000000494f49004f
:1050dc004f0100000000000030160000cc00000062
:1050ec0080000000c01900001400000082000000c5
:1050fc001c011000000204000800100004ca170074
:10510c00800000000000000000000000aa17000052
:10511c00a000000080000000f61900000a0000004a
:10512c0082000000504958004c30300032350000ed
:10513c0000000000e8140000da000000820000000b
:10514c0020436f006e666900672050006167650040
:10515c000020200020726f00775b2500645d20002a
:10516c000020250030325800202530003258000035
:10517c005b626f006f745f0066656100747572002e
:10518c0065732e00633a2500645d2000202020000a
:10519c002057720069746500446576006963650088
:1051ac00427261006e64200020693a002025640080
:1051bc0020206100646472003a2025006c780a009b
:1051cc00005b62006f6f74005f6665006174750050
:1051dc00726573002e633a0025645d002020200068
:1051ec00202057007269740065446500766963007d
:1051fc00655555004944200020693a00202564007b
:10520c0020206100646472003a2025006c780a004a
:10521c00005b62006f6f74005f66650061747500ff
:10522c00726573002e633a0025645d002020200017
:10523c0020205700726974006546500020206900d8
:10524c003a2025006420200061646400723a20003a
:10525c00256c78000a0042004f4f5400303030006b
:10526c0031000000e6190000100000008200000070
:10527c003031320033343500363738003941420092
:10528c004344450046000000d41900001200000001
:10529c0082000000c412000000000000ffffff00ad
:1052ac00ff0000000000ff00ffffff009c12000049
:1052bc000e010000800000009c0e000000020000a7
:1052cc00800000009c100000000200008000000024
:1052dc004a180000780000008200000000950000d1
:1052ec000000000001f90000000000000887040025
:1052fc000000000009af0000000100000a1b0000c4
:10530c00000100000cc30100000000000daf020002
:10531c000000000010ff00000000000011ff000062
:10532c000001000012ff00000001000018ff000047
:10533c000001000019ff00000001000020ff000028
:10534c000000000021ff00000000000026df01002b
:10535c000000000037730000000000003a25040034
:10536c00000000003b2500000000000029ff0400a5
:10537c000000000017ff000000000000c215000034
:10538c003c000000800000000e1a00000400000029
:10539c0082000000ffffff00ff000000c2180000a9
:1053ac006000000080000000000800009c06000067
:1053bc008200000025303200582000005b626f0034
:1053cc006f746c006f61640065722e00633a250087
:1053dc00645d20005265610064207400756e650088
:1053ec00207661006c7565002030780025582e0001
:1053fc000a005b00626f6f00746c6f006164650083
:10540c00722e63003a2564005d2045006e746500c1
:10541c0072696e0067206f00736369006c6c6100c9
:10542c00746f7200206361006c69620072617400b9
:10543c00696f6e00207072006f63650073732e00cd
:10544c000a005b00626f6f00746c6f006164650032
:10545c00722e63003a2564005d2043006f6e6e006f
:10546c006563740065642000746f2000686f7300be
:10547c00742e200053746100727469006e672000f2
:10548c0063616c0069627200617469006f6e2e005a
:10549c000a005b00626f6f00746c6f0061646500e2
:1054ac00722e63003a2564005d2044007572610021
:1054bc0074696f006e3a2000256c75002c20540026
:1054cc00554e3d0025640a000072000046572e0020
:1054dc00494d4700005b62006f6f74006c6f610098
:1054ec00646572002e633a0025645d00202d2d004a
:1054fc0020696d0061676500206669006c6520009d
:10550c00464f55004e440a00005b62006f6f7400fa
:10551c006c6f6100646572002e633a0025645d0057
:10552c00202d2d0020696d006167650020666900e3
:10553c006c652000455252004f522000726561008c
:10554c0064696e00672069006d6167006520680002
:10555c006561640065720a00005b62006f6f740025
:10556c006c6f6100646572002e633a0025645d0007
:10557c00202d2d0020696d00616765002066690093
:10558c006c6520006865610064657200203d200038
:10559c0027002700005b62006f6f74006c6f610066
:1055ac00646572002e633a0025645d00202d2d0089
:1055bc00204d690073616c0069676e0065642000a2
:1055cc00626c6f00636b3a0020307800256c7800b9
:1055dc000a005b00626f6f00746c6f0061646500a1
:1055ec00722e63003a2564005d202d002d204100b1
:1055fc00646465007265730073206f0075747300ca
:10560c0069646500206f660020706500726d69002a
:10561c007474650064207200616e6700653a200046
:10562c00307825006c780a00005b62006f6f7400a4
:10563c006c6f6100646572002e633a0025645d0036
:10564c00204f7500742d6f00662d6f00726465001d
:10565c007220610064647200657373003a2030003c
:10566c0078256c00780a00005b626f006f746c0028
:10567c006f61640065722e00633a2500645d200042
:10568c0020202000202d2d00204572006173690020
:10569c006e672000466c61007368200070616700c3
:1056ac00653a2000307825006c782000207061006d
:1056bc0067653a0020256c00780a00005b626f0079
:1056cc006f746c006f61640065722e00633a250084
:1056dc00645d200020202000202d2d00204572002c
:1056ec00617369006e672000466c6100736820006e
:1056fc0070616700653a2000307825006c782000d6
:10570c002d2d2000455252004f520a00005b6200c2
:10571c006f6f74006c6f6100646572002e633a00e9
:10572c0025645d002020200020202d002d2020004d
:10573c0020577200697469006e672000466c610026
:10574c0073682000626c6f00636b3a002030780045
:10575c00256c780020207000616765003a202500d8
:10576c006c780a00005b62006f6f74006c6f6100f4
:10577c00646572002e633a0025645d0020202000d1
:10578c0020202d002d202000205772006974690004
:10579c006e672000466c610073682000626c6f00bd
:1057ac00636b3a0020307800256c7800202d2d009a
:1057bc0020455200524f52000a005b00626f6f008e
:1057cc00746c6f0061646500722e63003a2564008e
:1057dc005d202d002d207700726f7400652066000f
:1057ec00696e61006c2062006c6f63006b3a200084
:1057fc002564200020206e00756d3a002025640081
:10580c000a005b00626f6f00746c6f00616465006e
:10581c00722e63003a2564005d202d002d20690056
:10582c006d61670065206600696c6500204e4f0055
:10583c00542046004f554e00440a00005b626f0036
:10584c006f746c006f61640065722e00633a250002
:10585c00645d2000436f6e00666967002050610034
:10586c0067650a00005b62006f6f74006c6f61000b
:10587c00646572002e633a0025645d0020202000d0
:10588c00726f77005b2564005d202000616464000a
:10589c00723a2000307825006c780000202530000a
:1058ac00325820002530320058005b00626f6f00c8
:1058bc00746c6f0061646500722e63003a2564009d
:1058cc005d0a00005b626f006f746c006f616400b6
:1058dc0065722e00633a2500645d20002d2d2d008d
:1058ec002d204d0061796200655570006461740073
:1058fc0065466900726d7700617265000a005b0095
:10590c00626f6f00746c6f0061646500722e6300cf
:10591c003a2564005d200a00005b62006f6f740022
:10592c006c6f6100646572002e633a0025645d0043
:10593c00202d2d0020637500727265006e7420009e
:10594c0066696e0067657200707269006e743a0069
:10595c00202700005b626f006f746c006f61640045
:10596c0065722e00633a2500645d20002d2d200009
:10597c00465369006e697400202d3e00202564009a
:10598c000a004600572e4800445200005b626f002c
:10599c006f746c006f61640065722e00633a2500b1
:1059ac00645d20002d2d200066696c0065203d0093
:1059bc00202570000a005b00626f6f00746c6f0032
:1059cc0061646500722e63003a2564005d202d0031
:1059dc002d206600696e67006572700072696e003a
:1059ec0074206600696c650020666f00756e64003b
:1059fc000a005b00626f6f00746c6f00616465007d
:105a0c00722e63003a2564005d202d002d20650068
:105a1c0072726f007220720065616400696e6700bb
:105a2c0020466900726d77006172650048656100ff
:105a3c0064657200206e75006d3a200025640a00c2
:105a4c00005b62006f6f74006c6f610064657200c4
:105a5c002e633a0025645d00202d2d002065720018
:105a6c00726f7200207265006c5f76006572730055
:105a7c00696f6e00203d3d00203020002020720018
:105a8c00656c3a00202564002020640065763a009d
:105a9c00202564000a3a00005b626f006f746c0092
:105aac006f61640065722e00633a2500645d20000e
:105abc004657200048656100646572002020200074
:105acc0072656c003a202500642020006465760025
:105adc003a202500642020006e756d003a202500c8
:105aec0064202000637263003a2030007825300077
:105afc0034782000206670003a202700005b62009a
:105b0c006f6f74006c6f6100646572002e633a00f5
:105b1c0025645d00202d2d00206669006e676500f0
:105b2c0072707200696e7400206d6900736d610093
:105b3c00746368000a005b00626f6f00746c6f0026
:105b4c0061646500722e63003a2564005d202d00af
:105b5c002d205500504441005445200066696e00cc
:105b6c0067657200707269006e743a0020005b0009
:105b7c00626f6f00746c6f0061646500722e63005d
:105b8c003a2564005d202d002d2046005020610038
:105b9c00646472003a2025006c780a00005b620095
:105bac006f6f74006c6f6100646572002e633a0055
:105bbc0025645d00202d2d00206e65007720660089
:105bcc00696e67006572700072696e00743a20002d
:105bdc0027005b00626f6f00746c6f00616465007e
:105bec00722e63003a2564005d202d002d20660086
:105bfc00696e67006572700072696e0074206600d1
:105c0c00696c6500206e6f00742066006f756e0005
:105c1c00640a00005b626f006f746c006f6164005b
:105c2c0065722e00633a2500645d2000424f4f00e0
:105c3c00544c4f004144450052202000203320009a
:105c4c0020202a002a2a2000205243004f4e3a00de
