:020000040000fa
:080000000002040000000000f2
:020000040000fa
:100400000f3c21000eff27000e01880000000000b5
:100410000c00070080ca2200010020001d00070018
:10042000000020000000e000020032000000020096
:100430000000000028280200000000000040da0050
:100440000000fe00000020000000e000020032007a
:10045000000020009001880000000600f03fb1007d
:100460000180b10006003500ee0309000000000025
:10047000403fb1000180b100fbff3d001000b00023
:10048000203fb0000200350000800900000000009d
:1004900000000600a1028800800078000000eb0048
:1004a0001a003700e280400054a0b4009101ba0065
:1004b000e280400054a0b4009102ba00e280400003
:1004c00054a0b4000002eb00472bde00f507b20099
:1004d000a6018800602ce10008003a000049eb000a
:1004e0000201e800020039003420ec0002f0a00014
:1004f0008301e900f9ff3e00040037006128e100b4
:10050000010032000082eb00040007001101ba0074
:100510000200e000e3ff3a000000060004d0a30060
:10052000e20f49001c003900810278003549ba0009
:100530000201e800020039003420ec0002f0a000c3
:100540008301e9000f0032002549ba000201e800ea
:10055000020039003420ec0002f0a0008301e90021
:10056000080032000400e0000600320015c9ba009d
:100570000201e800020039003420ec0002f0a00083
:100580008301e9008180e80054a0b4000300e0008a
:10059000e2ff3a00000006009102ba000559780017
:1005a0008301e900f7ff3200c82ade000559780010
:1005b0008301e900f3ff32000400e000f1ff3200a4
:1005c00011d9ba00eeff37005400f800a1028800ec
:1005d0008002780062004000e08048003549ba009f
:1005e0003204e0000410a700100032008301e9008b
:1005f0000e0032002549ba003204e0000410a700c2
:100600000a0032008301e900080032000408a30058
:10061000eeff320015c9ba003204e0000410a70052
:10062000020032008301e900e8ff3a005400f900bb
:1006300000000600020ab900001bb9000200b80061
:100640008100420081004300000006008000780025
:100650001106b100030035009101b10001003c001a
:100660000050a10000000600800078001104b100d5
:10067000030035009101b10001003c000050a000d2
:10068000000006006022b800060220000000d00032
:100690008180d2000482d2008582d2000000a000b6
:1006a0000202520083825a0003003100020242001b
:1006b00083824a000000a1000603e900f3ff3a002c
:1006c000000006008001eb000200370061f07900b5
:1006d0008301e800828f5100fcff3a000000060011
:1006e0000400fa00e0bf9f00e481570081297800f0
:1006f0000002eb000f0037006fb8970090407800c1
:100700007fb89700104078000402e80080cf5000c6
:10071000040032008180fb000080fb00008050005c
:10072000070037006fb897000000e800e0bf9f00a7
:100730009309e800820f5200efff3a000000eb003f
:100740000080fa0000000600800078003004e0001d
:10075000feff3a00010050000000e9000000060022
:0c0760000040da000000fe000000fe0077
:020000040000fa
:109f000050490000584c000030300000323500004d
:109f1000494f0000494f000030340000303100004c
:020000040000fa
:020000040005f5
:0457f400131c000082
:020000040000fa
:020000040005f5
:0457f8009f09000005
:020000040000fa
:020000040005f5
:0457fc007f3e0000ec
:020000040000fa
:10000800b4030000085000000c500000105000001d
:1000180014500000b4030000b4030000b40300004f
:10002800185000001c500000205000002450000010
:10003800b4030000285000002c500000305000008d
:1000480034500000385000003c5000004050000080
:100058004450000048500000b4030000b4030000fe
:100068004c50000050500000545000005850000000
:100078005c500000b40300006050000064500000b1
:10008800b4030000685000006c500000705000007d
:1000980074500000785000007c5000008050000030
:1000a8008450000088500000b4030000b40300002e
:1000b800b40300008c5000009050000094500000e1
:1000c800985000009c500000a0500000a450000070
:1000d800a8500000ac500000b4030000b4030000b6
:1000e800b4030000b0500000b4500000b403000096
:1000f800b4030000b8500000bc500000b403000076
:10010800b4030000b4030000b4030000b40300000b
:10011800b4030000b4030000c0500000b4030000a2
:10012800b4030000c4500000c8500000cc500000c8
:10013800b4030000b4030000b4030000b4030000db
:10014800d0500000b4030000b4030000b403000062
:10015800b4030000d4500000b4030000b40300004e
:10016800b4030000d8500000dc500000e05000004c
:10017800e4500000e85000000c510000ec50000072
:10018800f0500000f4500000f8500000fc5000004f
:100198000051000004510000b4030000b403000043
:1001a800b4030000b4030000b4030000b40300006b
:1001b80008510000b4030000b4030000b4030000b9
:1001c800b4030000b4030000b4030000b40300004b
:1001d800b4030000b4030000b4030000b40300003b
:1001e800b4030000b4030000b4030000b40300002b
:0801f800b4030000b403000091
:020000040000fa
:10076c0000cd20001080fb0000000600881f7800e0
:10077c00000478000202be0020609000e34f50009d
:10078c0010003200e10f5100e08f59000d003e00c7
:10079c00a84890008180fb00384890004800dd009c
:1007ac0001017000c84890008180fb0058489000ff
:1007bc004800dd00810170000200420083804a0085
:1007cc001200370062005200e0805a00186190005d
:1007dc000281fb000300200093ff0700e849900012
:1007ec008381fb00784990004811dd000302710001
:1007fc00885190008381fb00185190004811dd0056
:10080c00830271000000420081804a004f0478008e
:10081c0000000600ec874700889fbe008a9fbe0040
:10082c008c9fbe008e1f7800000778000202be006d
:10083c00501721000048eb002e60900090f79f00ad
:10084c00e14f500011003200e34f50001e003a00ff
:10085c00421edd00ce16de008d0676004216dd004f
:10086c008040eb0081f79f00f2ff2f00f3ff200088
:10087c00e2b79f00f3b79f0080ff2f00f1ff20002d
:10088c00c0b79f00d1b79f001b003700320020007b
:10089c00030020000400be0063ff070061416000fc
:1008ac0082f79f008106d1000086d300f0ff2f0055
:1008bc0001002000e0b79f00f1b79f0082ff2000ed
:1008cc00030020000a00370002064100838649001d
:1008dc008041eb0083f79f00f0ff2f000100200008
:1008ec00e0b79f00f1b79f0082ff2f0003002000ac
:1008fc00c2b79f00d3b79f008e5890008180fb0039
:10090c001e5890004800dd0001047000ae589000a5
:10091c008180fb003e5890004800dd00810470008f
:10092c00ee4090008180fb007e4090004800dd008e
:10093c00010570008e4890008180fb001e489000dd
:10094c004800dd00810570000801be000c00be00ef
:10095c0049ff07000a0540008b85480061045400dc
:10096c00e0845c0008037800090278008c006400c5
:10097c000d80640080017800010178000204be0043
:10098c00008c8000118c80008a0f50008b8f5800d7
:10099c003c003a009ff19700e3cf51004800320031
:1009ac001ff09700e24f50004b0032009ff0970071
:1009bc00e1cf500080003a000380200068c079002d
:1009cc000086fb000d0020000ff197000204e000f0
:1009dc00040032004c68dd004466de000c0670003a
:1009ec00c46ede0061004400e0804c000001630036
:1009fc000100620080007800020078000004be0054
:100a0c00e00f5400e08f5c0009003a0061054500de
:100a1c00e0854d00030178000a00be00350a07008e
:100a2c000004e0001c0032000a8c88001b8c88003b
:100a3c0000802000684078000080fb00010020004e
:100a4c000ff197000204e00005003200c409dd003c
:100a5c00cc00de00818071004400dd000600370010
:100a6c006f00600001002000c808dd000080fd0060
:100a7c00804078000040eb000c0040008d80480066
:100a8c004e003700028020000a00be00190a070041
:100a9c000004e00005003a00f0ff2f0001002000e8
:100aac00008c8800118c88004c0037000a8c880060
:100abc001b8c88002e609000e34f500004003a001d
:100acc0000802000000044001000be003b003700f6
:100adc00e24f500004003a000080200068007800cb
:100aec000100200035003700e14f500032003a0081
:100afc000a80200068407d000083fb000700200076
:100b0c000ff097000004e00004003200cc38dd0048
:100b1c004433de0006837000c43bde0061024400f7
:100b2c00e0824c008e5990008381fb001e5990008e
:100b3c004811dd0003007100ae5990008381fb0069
:100b4c003e5990004811dd00830071006100500097
:100b5c00e08058000401600005806000800278008d
:100b6c00020278000400be0060407d000080fb00a3
:100b7c00010020000ff197000204e0000500320094
:100b8c00c409dd00cc00de00818071004400dd0072
:100b9c00060037006f00600001002000c808dd006f
:100bac000080fd00804078000040eb000600400013
:100bbc0087804800010037006000b8004fb19700f3
:100bcc00dfb19700820f5000838f5800010039006d
:100bdc000200be00e0b79f00f1b79f006fb0970016
:100bec00ffb097004f0778004f06be004f05be00c0
:100bfc004f04be00cf00b10000000600ea8747009a
:100c0c00889fbe008a9fbe008c9fbe008e1f7800fe
:100c1c0000077800f1b79f0082f79f0090047800de
:100c2c0070139000801b9000101d9000a01d900070
:100c3c0011027800895890008180fb0019589000af
:100c4c004800dd0001017000a95890008180fb0074
:100c5c00395890004800dd00810170004b18dd0010
:100c6c004511de0002017000c519de008286fb0012
:100c7c00110009000d82d800004678002960900010
:100c8c00e34f50000b003a000c80fb001961900000
:100c9c000281fb00110009000280d8000146780097
:100cac0080ff2f00f1ff2000d0b79f00e1b79f001d
:100cbc000d00370080ff2f0001002000d0b79f00ef
:100ccc00e1b79f00e00f5300e08f5b00060032009d
:100cdc000c80fb00196190000281fb0011000900df
:100cec000280d800014678008ff097000104e000e4
:100cfc0002003a006f00620077003a000c04e0003a
:100d0c0002003a008d0f5200030031000ff19700e2
:100d1c000204e0001d003200e00f5300e08f5b0086
:100d2c0002003a000605be00180037000ff09700cd
:100d3c000004e00008003200196190000281fb0001
:100d4c0002e9b900110009000282d8000001780004
:100d5c00024478000b00370018c0b3000a01be0033
:100d6c0009007800abfe07000005be005fb09700dd
:100d7c00efb09700800f5500818f5d00510031005e
:100d8c000844e9000804e000f4ff3a005fb0970063
:100d9c00efb09700800f5500818f5d004900310046
:100dac001a1f98002b1f98000a01be00090078003a
:100dbc006efe07000003be0090668000a1668000f6
:100dcc00800f5500818f5d0015003a000c82fb00ee
:100ddc00050020000602420087824a00e948900084
:100dec008180fb00794890004800dd000101700013
:100dfc00895090008180fb00195090004800dd0064
:100e0c0081017000820f5200838f5a000400390058
:100e1c00296090000001eb00e34f500039003a00cc
:100e2c000004eb00e88b880050172100084878007c
:100e3c001980fb00194190004811dd000001710080
:100e4c000c80fb0001002000060040008780480059
:100e5c0028090700e14f5000020032000801780019
:100e6c0013003700194090009980fb000ff1970098
:100e7c000204e0000c0032004800dd0001007000ac
:100e8c007fb1970092007800801f78001100090054
:100e9c008d80d800010178004f0078004511dd00ed
:100eac0002014000020037004800dd000101700023
:100ebc000080eb008080eb00c08b8800d18b880019
:100ecc001000370011c0b3006017210001487800f2
:100edc000001eb000b0037001980fb0099409000db
:100eec00c808dd0080807000811f780011000900a7
:100efc000d82d80001007800cf0078004500dd009d
:100f0c0000814000020078004f0778004f06be00b9
:100f1c004f05be004f04be00af00b100000006003c
:100f2c00ea874700889fbe008a9fbe008c9fbe0048
:100f3c008e1f780000077800f2b79f0083bf9f00d8
:100f4c00100578002a609000e14f50000500320037
:100f5c008cff2f000d002000e34f500003003a00df
:100f6c000a0037008cff20000d002000f0ff2f003e
:100f7c0001002000d0b79f00e1b79f007fb497001d
:100f8c008fbc97008045eb00050037008cff2f00cd
:100f9c00fdff2000f0ff2f00f1ff2000f5ff3700d0
:100fac003e019000ce0190000a00780019fe070067
:100fbc000002be005fb09700efb09700800f5200a8
:100fcc00818f5a0002003a008bc0b3001400370026
:100fdc00ca5090008180fb005a5090004800dd0000
:100fec0001017000ea5090008180fb007a50900063
:100ffc004800dd008101700062014100e081490080
:10100c00820f5200838f5a0001003900abc0b3002d
:10101c008c0f52008d8f5a0001003900cbc3b300e6
:10102c00340798004507980061045400e0845c0084
:10103c00020032000b04e000d9ff32000b80fb00f1
:10104c004f0778004f06be004f05be004f04be0090
:10105c00af00b1000000060060c078000080fb000b
:10106c000000060081004000114090004800dd00a7
:10107c009180fb000100700000000600889fbe00fc
:10108c008a9fbe0080047800010478008180e8000b
:10109c00f4ff070001002000c005dd000a0020005d
:1010ac008800780009007800eeff0700010020009e
:1010bc0000007500818075004f05be004f04be0016
:1010cc0000000600000178002008900001002000bc
:1010dc00c000dd0000002000520990000300200039
:1010ec00020070008380700000000600889fbe0024
:1010fc000004780010019000e10f510046003a0006
:10110c0044c02000040878006000b800000c98006f
:10111c00110c98000000eb00100498003460900053
:10112c00e14f500002003200220498007b0037008f
:10113c00f00f200020049800246090006044980078
:10114c00845890008180fb00145890004800dd000a
:10115c00010170004204980014609000204c98002b
:10116c00c45090008180fb00545090004800dd007a
:10117c0001017000e45090008180fb0074509000dd
:10118c004800dd008101700062049800730498002f
:10119c0024609000e24f50000c003200e34f5000ee
:1011ac0003003200e14f500013003a000a003700f0
:1011bc0070ff2f00f1ff2000600c9800710c98005c
:1011cc00f0ff2f00f1ff20000900370070ff2f0007
:1011dc00010020000200370070ff200001002000f9
:1011ec00600c9800710c9800f0ff2f00010020009b
:1011fc000014980011149800220020000300200015
:10120c00220c9800330c9800420c9800530c980058
:10121c00180078007ffd0700100020001800e00087
:10122c003d00320004003700200020003a00370057
:10123c000000eb0038003700a8009000f00f2000f1
:10124c00808f500035003a0080c4eb0028099000d4
:10125c00b8099000180078006efd07000001be0070
:10126c000810900098109000800f5100818f590049
:10127c00edff3200e00f5100e08f590006003a00fc
:10128c00080890009808900061004000e080480039
:10129c00000c9800110c980028089000b8089000d9
:1012ac0061024000e0824800240c9800350c980044
:1012bc0068089000f8089000800f5100818f590049
:1012cc000700320068009000f800900062004000b7
:1012dc00e0804800800f5200818f5a0004003900d2
:1012ec002000200001002000200c9800310c9800f8
:1012fc0028099000b809900048089000d808900080
:10130c00800f5100818f5900c9ff32008944e900d8
:10131c00ceff3a00f00f2000200498004f04be00ce
:10132c000000060001cd20008048eb00b0089000c2
:10133c000110a1003108980081cd2000810f5000d0
:10134c0003003a0011c0b30060cd200001487800c2
:10135c0000000500881f780080037800300890009a
:10136c007f436000c500de00f3c3b30003c160001f
:10137c00cb01de00470890007f42600080007800bf
:10138c00011eb200c50ade004904de00fc4f53000a
:10139c0002003e000640e80021003700a0c3b30065
:1013ac00804f510003003e000241e8000040eb007a
:1013bc001b003700f6cf510004003e008341e800cb
:1013cc000040eb000041780015003700fd4f520043
:1013dc0005003e000442e8000040eb0000417800ac
:1013ec00804178000e003700ebcf520006003e0023
:1013fc008542e8000040eb00004178008041780015
:10140c0014c0b300060037000844e8000040eb00ad
:10141c00004178008041780014c0b3008442780009
:10142c008080fb000280fb004500dd0080807000a6
:10143c004b18dd0080807000b10b98008480fb009d
:10144c000580fb004500dd00808070004940dd0018
:10145c0080807000c10b98004f04780000000600db
:10146c00889fbe00800478000104780080189000ea
:10147c0070109000901c9800a11c980012c0b30032
:10148c008800780009007800dcfd07000000e0000f
:10149c0011003200904078000104e0000e00320090
:1014ac00fbcf40000c00320007003700180ce8009e
:1014bc000041eb008800780009007800cffd0700a0
:1014cc000000e00004003200b0489000efcf500064
:1014dc00f6ff3200010037000000eb004f04be00a5
:1014ec00000006000001eb0063032000617079002e
:1014fc000201e800830f5100fcff3a0000000600d7
:10150c0001cd20008048eb00800890007000900016
:10151c00000006006011b8007200980003089800e3
:10152c008000eb00610098005100980010019000c1
:10153c00a00190003200980043009800e18b8800d5
:10154c000000060000cd20001080fb00000006000b
:10155c0001cd20008048eb000002eb0070019000f0
:10156c0080099000a008900010089000800f510096
:10157c00818f590001003a0014002000040078000b
:10158c0000000600f0874700889fbe008a9fbe00bf
:10159c008c9fbe008e1f780080bf9f0001077800d3
:1015ac00830478000288b90001002000e0b79f0096
:1015bc00f1b79f000dcd2000804eeb001304780096
:1015cc00630690007300900083089000c0b79f00e2
:1015dc00d1b79f0033089000e200600003003a008e
:1015ec00e0c1b300804e78009a003700e08b800099
:1015fc00830f5000340032006162b80088589000ac
:10160c008180fb00185890004800dd00010170003b
:10161c00a85890008180fb00385890004800dd00ed
:10162c0081017000820f5200838f5a002600320015
:10163c00e98b880039019000c901900008007800fe
:10164c004afc07005901900002054000e085480063
:10165c00501721000048eb001880fb001841900047
:10166c004811dd00000171000a00be0021070700cf
:10167c000004e00012003a0080c0b300804e7800f5
:10168c008000eb0073003700d1c3b30000cd200005
:10169c000148780067003700f1c0b30000cd20008e
:1016ac00014878000a0678006200370081c0b30058
:1016bc0000cd2000014878000006eb005d003700eb
:1016cc00ca8b8800db8b88006011b800a2b79f0022
:1016dc00b3b79f004f00370019089000a90890007d
:1016ec004fb19700dfb19700800f5100818f5900e7
:1016fc00e5ff32006162b800885890008180fb00e1
:10170c00185890004800dd0001017000a8589000a6
:10171c008180fb00385890004800dd00810170008a
:10172c00820f5200838f5a0024003a00d900900097
:10173c008100e800d1049800186090000080fb0044
:10174c00808f500008003a000005eb00da04980086
:10175c00120020000300200009007800f0fd0700b3
:10176c000004e000ccff3a0039019000c901900060
:10177c0008007800fdfb07005901900002054000ad
:10178c00e0854800e98b8800501721000048eb00e9
:10179c001880fb00184190004811dd000001710019
:1017ac000a00be00d30607000004e000bfff3200b1
:1017bc00ca8b8800db8b88000006eb009880fb004e
:1017cc00184090004800dd000100700060407e0071
:1017dc008fb897002fb19700bfb197008070790038
:1017ec000c06e8004fb19700dfb197006101410092
:1017fc00e0814900c2b79f00d3b79f002fb097007c
:10180c00bfb0970061004000e0804800a0b79f0087
:10181c00b1b79f00afb697002fb19700bfb197003b
:10182c006fb09700ffb09700800f5100818f590067
:10183c00a9ff3a00ec0498004fb19700dfb1970074
:10184c00f2049800830c9800110009008e86d800d1
:10185c008000fd00010078004f0778004f06be00a5
:10186c004f05be004f04be000f01b1000000060082
:10187c00004378000460800062002000ec0f5200ee
:10188c0001003e000001eb00156080008043eb007e
:10189c008001eb0049003700e3c07a00ffcf500015
:1018ac0002003e00e5cf500047003a0020c2b300d2
:1018bc0080cf5000440032006d40400080cf50007b
:1018cc00410032006b40400080cf50003e0032009f
:1018dc0000c0e80080cf50003b00320000c0e800a0
:1018ec0080cf5000380032007e40400080cf500046
:1018fc0035003200c0c7b30080cf50003200320038
:10190c000604e00006003a00a0c2b30080cf5000ed
:10191c002d0032007540400080cf50002a0032006c
:10192c00e60f51002400320000c2b30080cf5000fb
:10193c00200032006b40400080cf50001d00320070
:10194c000040e80080cf50001a0032006f40400089
:10195c0080cf50001700320000c0e80080cf50004c
:10196c00140032007e40400080cf50001100320045
:10197c0000c0e80080cf50000e003200e0c2b3007f
:10198c0080cf500003003a00e1cf53000900320031
:10199c0017c0b300e10f510007003200f0c9b300cb
:1019ac0000c04000f94f500003003e001200200020
:1019bc0001003700620020008301e800848f510091
:1019cc00b5ff3900010037007200200002007800da
:1019dc00000006001a00fa00889fbe008a1f7800db
:1019ec0000047800010578008244780053fb07005e
:1019fc0000608800ec0f50005e003e0098407800bc
:101a0c00e0c2b30080cf50005a0032000104e00065
:101a1c005800320000fe2f000f00400010608800bc
:101a2c008000eb00030037001060800068f0780045
:101a3c008100e80000608000808f5000faff3900c0
:101a4c00094078008aff0700e70f50004900320078
:101a5c0007608000e60f50004600320013608000e3
:101a6c000002eb000c003700e4c07900e2c2b300c6
:101a7c0082cf500003003a0004805300e40f500062
:101a8c003c003c00e90f52003a00320082cf50007b
:101a9c00030032000402e800870f5200f2ff350009
:101aac00fc0045000000eb0002c2b30002f078001d
:101abc000000e800eb0f5000fcff3a0018608000bb
:101acc008002eb0005037800fac9b30009ceb3001d
:101adc000d00370065417c000204e0000700320075
:101aec0086814000824978000a404100f94f50003d
:101afc0001003e00894941000603e8008502e80028
:101b0c00e70f530002003c00848f5200f1ff3500b8
:101b1c00870f520019003d000402e80084024400c3
:101b2c0086002000f9c9b30008ceb3000e003700c0
:101b3c00154178000204e000070032008681400065
:101b4c008249780009404100f94f500001003e00e5
:101b5c00884941000603e8000402e8008502e80019
:101b6c00ea0f530005003c00870f5200f0ff3500d0
:101b7c00020037000000eb000100370010002000cd
:101b8c004f0578004f04be000080fa0000000600ec
:101b9c00e4874700889fbe008a9fbe008c9fbe00d2
:101bac008e1f7800000778001000780080bf9f001f
:101bbc00e18f500004003200e28f50000700320029
:101bcc000206be00090037007e0090008e089000cf
:101bdc000206400083864800040037001e0890006f
:101bec00ae08900002065000838658001e0090003c
:101bfc00ae00900030079800410798001e08900036
:101c0c00ae089000800f5600818f5e0002003600f7
:101c1c00f1c1b3003e0037003e0890000020a10047
:101c2c00300f98007c0798000d0f98000fb99700a3
:101c3c00825890008180fb00125890004800dd0013
:101c4c0001047000a25890008180fb003258900073
:101c5c004800dd00810470000801be000c00be00cd
:101c6c0085fa07000005be000801be006efa0700e9
:101c7c000000560081805e00600798000fba970044
:101c8c00146490000884fb00090020000801be00c9
:101c9c000a00be0078fa07000006be000001be0074
:101cac000800be0060fa07000005550081855d0044
:101cbc005a079800e00f5600e08f5e0023003200b8
:101ccc000c01be000e00780095fc070080407800e7
:101cdc000004e0001d003200c0c3b30080cf5000f0
:101cec000a003a001e009000ae00900030079800e9
:101cfc004107980061015600e0815e000e007800fb
:101d0c0087fc07000004e00005003200f1c0b300be
:101d1c0000cd2000014878000080eb002700370040
:101d2c000fba9700845890008180fb0014589000e3
:101d3c004800dd00010170006207980014609000fb
:101d4c000080fb000000e900500798000acd20003d
:101d5c003e019000ce0190000fb8970083fa070067
:101d6c005e01900002064000e08648000004eb0093
:101d7c00e88b880050172100084878008fb897002e
:101d8c001180fb00114190004811dd000001710031
:101d9c000c00be00570507000004e00003003a00e9
:101dac00b0c1b300004d7800dbff3700cc8b88004e
:101dbc00dd8b8800084d7800080078004f0778000c
:101dcc004f06be004f05be004f04be004f00b100d1
:101ddc0000000600881f7800000478001080fb00cb
:101dec00184190004811dd00000171006000b8003e
:101dfc004005070081c0b300e14f50007b003a0062
:101e0c009880fb00184090004800dd000101700034
:101e1c00e2f8930050c5b30080cf50003b003a006d
:101e2c00f2f89300a0cab30080cf500037003a00fc
:101e3c00e270900060c4b30080cf500016003a00ee
:101e4c00f27090006540500080cf500012003a00b4
:101e5c00827890007340400080cf50000e003a0012
:101e6c009278900010c3b30080cf50000a003a0063
:101e7c00e26090006840500080cf500006003a00ad
:101e8c000040eb00204498003044980040449800f7
:101e9c00504498004b003700a2d0900060c4b300af
:101eac0080cf500019003a00b2d09000654050002d
:101ebc0080cf500015003a00c2d090007340400013
:101ecc0080cf500011003a00d2d0900030c3b30044
:101edc0080cf50000d003a00a2c090006a40500024
:101eec0080cf500009003a000040eb0020449800dd
:101efc0030449800404498005044980030c0b300df
:101f0c00206498000000eb003b003700e2f89300df
:101f1c0050c5b30080cf500004003a00f2f8930093
:101f2c00a0cab30080cf50000200320041c0b30001
:101f3c002e00370045c0b300241c200002024200d2
:101f4c00c44090008180fb00544090004800dd00ac
:101f5c0001017000e44090008180fb00744090000f
:101f6c004800dd0081017000224498004810de001a
:101f7c0030449800434498004818de0050449800c0
:101f8c0014407800ee4f500014003e000000fb009f
:101f9c00130020008018dd00000524000080600084
:101fac0008003a006281600004003a0000802100c1
:101fbc000080600005003a00080037002364980098
:101fcc000600370020c0b300cdff370030c0b3008f
:101fdc00206498000200780007003700700242006d
:101fec008542e900d6ff3a0051c0b30000cd200075
:101ffc00014878000180fb004f04780000000600c7
:10200c00f4874700889fbe008a9fbe008c9fbe004d
:10201c008e1f7800000578001080fb001a4190009c
:10202c004811dd00000171002a4290000482fb007f
:10203c00ba419000c819dd00048071004a4290003a
:10204c000482fb00da419000c819dd008480710025
:10205c00a804070082c0b300e14f50006f013a00a2
:10206c009a80fb001a4090004800dd00810570004a
:10207c000000eb0090b79f008000780060013700f3
:10208c001200200092b79f00ebf8930050c5b300ec
:10209c0080cf5000e7003a00fbf89300a0cab300d1
:1020ac0080cf5000e3003a009a80fb001a40900069
:1020bc004800dd0001047000e100200008007800f9
:1020cc00e8fb0700d8499000136598006101b8003f
:1020dc00c2b79f00d3b79f00aa4190008381fb0039
:1020ec003a4190004811dd0003007100ca41900094
:1020fc008381fb005a4190004811dd008300710080
:10210c004fb19700dfb1970000004100818049007a
:10211c00604598004801de0072459800014d98001a
:10212c004808de00104d9800885190000365980017
:10213c006101200008007800cafb07006101b800ab
:10214c00425d98004811de00525d98008000eb0063
:10215c00615d9800715d98000000e00009003a0094
:10216c004102200008007800c4fb0700405d980085
:10217c004801de00525d9800615d98004808de0061
:10218c00705d9800ea4090008180fb007a409000de
:10219c004800dd00010470008a4890008180fb003b
:1021ac001a4890004800dd00810470000a6090001d
:1021bc000081fb0003002000e2b79f00f3b79f00f3
:1021cc00ca5890008180fb005a5890004800dd00ee
:1021dc000100700080bf9f0000017800ea58900059
:1021ec008180fb007a5890004800dd0001077000e8
:1021fc008e0178006fb09700ffb097000af90700c6
:10220c000804400089844800284d98004840de00ae
:10221c00304d9800494d98004848de00504d9800cc
:10222c009a80fb001a4090004800dd000104700009
:10223c0011012000080078008afb07008004780058
:10224c00205598004800de003055980031012000e0
:10225c000800780083fb07006106b8000000e0006e
:10226c0004003a00010220000800780083fb0700fc
:10227c000006be00b10020000800780079fb0700c2
:10228c00000478000000e0006c0032000008a3009d
:10229c006a003a004548dd00080040000000e900f3
:1022ac00110009000880d8006101b800a2b79f0096
:1022bc00b3b79f000fb997008e0178006fb09700ed
:1022cc00ffb09700d8f807004fb19700dfb1970027
:1022dc0002004000838048002fb19700bfb19700e7
:1022ec0000004100818049000000560081805e00a2
:1022fc001a6190000281fb0003002000def8070049
:10230c000001be00405598004800de005055980072
:10231c00635598004818de007055980040ff200067
:10232c00800f5100e08f590002003e0010c0b30036
:10233c000500370020c0b300ec0f4100e08f5900be
:10234c000100360030c0b300206598002a60900070
:10235c00e34f500017003a009a80fb001a4090009f
:10236c004800dd0001007000c102200043fb0700a3
:10237c0090668800a1668800aa4990008381fb00c2
:10238c003a4990004811dd0003007100ca499000e1
:10239c008381fb005a4990004811dd0083007100d5
:1023ac002fb19700bfb19700000041008180490018
:1023bc00150037006000b80090668800a1668800a0
:1023cc00aa4890008180fb003a4890004800dd004c
:1023dc0001027000ca4890008180fb005a489000ae
:1023ec004800dd00810270002a5190000281fb0040
:1023fc003a5090004800dd00020070004400de00fe
:10240c0000004200e0804a00604d98004801de0068
:10241c00724d9800015598004808de001055980040
:10242c000041eb0000202000800f54000400360017
:10243c000200370032c0b3000100370012c2b300f3
:10244c002a609000e34f5000070032000204e000c5
:10245c00740032002bc0900081cdb30001404000cd
:10246c00e14f50006d003e00bb5090008180fb009e
:10247c004b5090004800dd00010070002c003a0029
:10248c004b7090000004e00029003a005b70900053
:10249c000004e00026003a006b7090000004e0009d
:1024ac0023003a007b7090000004e00020003a000a
:1024bc000b7890000004e0001d003a001b7890009f
:1024cc000004e0001a003a002b7890000004e000b1
:1024dc0017003a003b7890000004e00014003a002a
:1024ec004b7890000004e00011003a005b789000fb
:1024fc000004e0000e003a006b7890000004e0004d
:10250c000b003a007b7890000004e00008003a00d1
:10251c002bc0900081cdb30001404000e14f500032
:10252c0003003e000204e00002003a003d003700c8
:10253c0032c0b3009fb197000300e00019003a00cd
:10254c001a80fb001a4190004811dd000001710057
:10255c00aa4090008180fb003a4090004800dd00ca
:10256c0001027000ca4090008180fb005a4090002c
:10257c004800dd0081027000ab7190008381fb008c
:10258c003b7090004800dd0003007000000042002a
:10259c00e0804a0057030700e14f5000b8fe3200bc
:1025ac00190037000fb097000000e0001b003a0044
:1025bc001a80fb001a4190004811dd0000017100e7
:1025cc002a4290000482fb00ba419000c819dd0039
:1025dc00048071004a4290000482fb00da419000b2
:1025ec00c819dd008480710066004000e08048005e
:1025fc0040030700e14f500003003a001100200097
:10260c0081b79f00a0fe370081c0b30000cd200031
:10261c0001487800800020000300370000cd200026
:10262c00024878000280fb004f0778004f06be007e
:10263c004f05be004f04be004f01b1000000060064
:10264c00889fbe00000478008044eb00396098003d
:10265c0000a02000004c78004800de0010449800d8
:10266c0071040700000178001004e000040032003f
:10267c0061c0b30000cd2000014878001f00370076
:10268c0000102000120060001000320012009000b8
:10269c0001002000005c98004800de00105c9800ef
:1026ac00295c9800395c9800920090000020200072
:1026bc00808f50000500360011c2b30000cd200001
:1026cc0001487800100220000d0037000800780047
:1026dc00c0fd0700804078000004e00007003a00cd
:1026ec000800780046fe0700804078000004e000f7
:1026fc0002003a0010c0b300306498000180fb0067
:10270c004f04be000000060011c0b30060cd2000d5
:10271c0001487800501721000048eb00e017210019
:10272c000048eb000080eb008080eb00008c880000
:10273c00118c8800c08b8800d18b8800c2010700e7
:10274c0040c02000beff0700804078000000eb0076
:10275c000104e00003003a0000cd2000014878009d
:10276c001000200000000600889fbe008a9fbe005b
:10277c008c9fbe00000578008106780091007800df
:10278c006f80600008003a000100e0000600320093
:10279c007a1090008a189000101d9800211d980046
:1027ac0012c0b300010037000041eb008d0078002f
:1027bc000a00780011f90700800478000000e0009e
:1027cc003e0032001040780014c0b300fb4f4000b4
:1027dc003b0032000004e0003800320009067800ab
:1027ec00fc0545000044eb003c80fb0094f707001f
:1027fc00805d78000844e800e84f5400faff3a0086
:10280c00688644008005eb0068c445000884fb0022
:10281c007c044400080445003c80fb0088f707005a
:10282c00004c78008b05e800e38f5500f6ff3a006a
:10283c009d0678004d15980050ceb30019406800e5
:10284c000080fb000000e9004f02de0069089000e8
:10285c00f9089000100d9800210d9800290890009f
:10286c0001002000c000dd0000002000590990008c
:10287c000300200002007000838070001005980097
:10288c0021059800394890000080fb0060159800e5
:10289c000048a30004003200f9009000410d98009c
:1028ac00890c90000300370039089000400d980007
:1028bc00c90c9000590d98000100370024c0b300da
:1028cc000480fb004f06be004f05be004f04be0047
:1028dc0000000600889fbe008a9fbe008c9fbe0031
:1028ec000004780001057800100678003c60900028
:1028fc007d0020000004e0003e00320078109000c3
:10290c0088189000101c9800211c98001a00780060
:10291c000000e000020032006f006000070032008f
:10292c0012c0b3008a00780008007800b3f80700e2
:10293c00bd0120000000e000010032008006eb0029
:10294c008a0078000800780087ff07000004e00088
:10295c0002003200bd002000260037006000b800e5
:10296c0070049800010c980018009000a8009000ca
:10297c0030049800410498008004eb00590498003e
:10298c00690498000001be000c00780077f707007e
:10299c000005be00e88b8800c08b8000d18b8000c6
:1029ac008a0f50008b8f58000d00320050172100f9
:1029bc00094878001c80fb001c4190004811dd0088
:1029cc00000171000a00be004a0207000004e0008a
:1029dc0001003a008d002000ca8b8800db8b880038
:1029ec00380890000020a1000000a1000010a000f9
:1029fc00300c98000d0078004f06be004f05be004d
:102a0c004f04be0000000600e8874700889fbe0008
:102a1c008a9fbe008c9fbe008e1f78000006780037
:102a2c000107780082f79f0093f79f0040109000f9
:102a3c00e0b79f007c1090008c189000101e98003e
:102a4c00211e98006e1090000080ea00f0b79f00e5
:102a5c006fb097000000e000020032006f006000d1
:102a6c007a00320012c0b300f48057000c007800da
:102a7c0062f807000000e00074003a0071003700b3
:102a8c00f48057000c00780037ff0700e24f50002d
:102a9c00700032000004e0005d003a00ec10900081
:102aac00f103b2001ff197000204e00003003200b2
:102abc00e14f51005d003a0014003700e88f5000e0
:102acc005a0032007c054600fc044700bbc0b30032
:102adc001a80fb00e1f60700000478001980fb0067
:102aec00def60700800f54004d003a008b45e900dc
:102afc000a05e8008904e8000b04e0004a003200f3
:102b0c00f3ff3700b8002000210037007fb1970099
:102b1c000280600045003a00ef8f50004300320005
:102b2c00ce589000a0c2b30080cf500017003200e6
:102b3c00fc0546007c0547008dc0b3009b40780027
:102b4c009a447800a0c2b30080cf54000f0032002a
:102b5c007540400080cf5400070032000180fb001c
:102b6c00bef60700000478000980fb00bbf60700e6
:102b7c00800f5400e3ff3a008d46e9008b05e80016
:102b8c000a05e8000d04e000ecff3a000004eb003d
:102b9c00ce609000a0c2b30080cf50002300320062
:102bac000800e00021003a004b0220008c85450013
:102bbc004a0220000e0545003dc0b3009b40780042
:102bcc009a447800a0c2b30080cf540016003200a3
:102bdc007540400080cf5400070032000180fb009c
:102bec009ef60700000478000980fb009bf60700a6
:102bfc00800f54000a003a008d46e9008b05e8006e
:102c0c000a05e8000d04e00007003200ebff370076
:102c1c000ff097000004e0000300320003003700bf
:102c2c00b8002000010037000004eb00efb0970063
:102c3c008100e800e1b79f000800e00005003200c9
:102c4c008fff3700b801200002003700b8002000c9
:102c5c008bff3700080078004f0778004f06be0046
:102c6c004f05be004f04be008f00b10000000600ef
:102c7c000200fa00889fbe008a1f780000057800c9
:102c8c0091447800b10207000004e0000700320014
:102c9c0020c7b30080cf54000400320020c5b3001d
:102cac0081c1b30080cf54000c003a0068cd2000e5
:102cbc0001c2b3001804e00008003200004ceb0025
:102ccc000041eb0081cd20000a00780041fb070099
:102cdc000004e00009003a000400370000cd200099
:102cec00014878000000eb004500370010c0b3002d
:102cfc00004c780021c1b300f8ff370040c0200021
:102d0c00c0668800a0cd20000008eb0030107800d1
:102d1c00e0cd20000008eb003010780000d020003f
:102d2c000008eb00000220002068880090668000fc
:102d3c00a16680003068880041688800506888006f
:102d4c006168880081cd2000e0c52000e5f907000e
:102d5c008041eb0012c0b300e1c5200080cd200003
:102d6c0029ff07000000e00013003a0020c5b30063
:102d7c0080cf54000300320020c7b30080cf540032
:102d8c0008003a0000688000c0bf9f0022c7b30053
:102d9c00e880570080cd2000cefe070000047800ac
:102dac0009003700f1c1b30000cd200001487800c4
:102dbc00f80f200004003700b1c0b30000cd200094
:102dcc0001487800b8002000600207000004e00011
:102ddc0003003200706780000000a100706788005b
:102dec000800e0000300320011c0b30060cd2000e9
:102dfc00bbff370000cd20000848780080cd2000b4
:102e0c004f0578004f04be000080fa000000060059
:102e1c000080fb004012880040c2bf000008a300e5
:102e2c00fdff3200401280000000050041e2a900c5
:102e3c0000000600208a800000000600308a800016
:102e4c00418a800000000600d5c2a800d1c2a900aa
:102e5c0000000600f00f20004012880040c2bf00a6
:102e6c000008a300fdff3200401280000080fb0030
:102e7c00000006000e00fa00889fbe008a9fbe006c
:102e8c0000057800014478000202be00d5c2a900fa
:102e9c00f08457008185fb000140780062c0b300cc
:102eac000440bc00a00421000000410090407800c8
:102ebc00e1f79f0094bf9f00a5bf9f0010409000ba
:102ecc00804c78003fb897000060a000b0bf9f0016
:102edc006ff09700ceff07005ff09700ccff070064
:102eec004ff09700caff07003ff09700c8ff07009c
:102efc002ff09700c6ff070019407800c4ff0700a9
:102f0c00e54f540001003a00d2ff070048012000b1
:102f1c00d0ff0700804178000804e900e14f400031
:102f2c0002003a000800e000f9ff3a00a3ef9f000e
:102f3c006658b9000080e800a20421006200780005
:102f4c00e20f500004003a00b3ef9f00c1ff0700ee
:102f5c00a0ef9f0019003700e10f50000d003a0060
:102f6c0008002000a9002000baff070061045400eb
:102f7c00e0845c000004e00003003a00e00f540021
:102f8c00e08f5c00f8ff3a000041eb00a2ef9f00dd
:102f9c000a003700e40f500008003a00adff0700ac
:102fac00f0ef9f00abff0700e0ef9f00a9ff0700c9
:102fbc00d0ef9f00a7ff0700c0ef9f0000c0eb0001
:102fcc0093ff07006658b900e2042100020040009c
:102fdc001004e00001003a00d5c2a8005fb09700d1
:102fec00efb09700008dbe00ffb097002105980050
:102ffc000a0078004f05be004f04be000080fa00a6
:10300c00000006001e00fa00889fbe0080047800b5
:10301c00c0489000e2cf50005f00320006003e0036
:10302c000000eb000104e000af003200e1cf5000e3
:10303c00a9003a0005003700e3cf500040003200f1
:10304c00e2cf4000a4003a00970037000020200097
:10305c0040898800a0142100060009003918780066
:10306c00e900b100201421001004e00008003a002f
:10307c00908a8000a18a80004909dd00c700de002b
:10308c00810071004900dd00908a8800a18a8800c7
:10309c00c21421000020200001002000b20f1000fb
:1030ac00a28f18000e003e0010002000108988002e
:1030bc007c845700928a8000a38a800081c0b30070
:1030cc00080078006bff07001802be00f4af9f00e9
:1030dc0085b79f00cfb2970095b79f000d003700c2
:1030ec000000eb001089880076845700928a8000db
:1030fc00a38a800091c0b300080078005dff070030
:10310c001800be00f0af9f0081b79f00ffb0970082
:10311c0091b79f006fd997000204e0001c003a00a1
:10312c00000020004100200020898800318988009f
:10313c0030c0b300c04c9800100020006a0037006b
:10314c002089800031898000e00f5000e08f58000a
:10315c000f00320061005000e08058002089880088
:10316c00318988003bff0700804078001000200068
:10317c00e1cf40005c003200e2cf400004003a0096
:10318c0020c0b300c04c980020002000560037002f
:10319c00e0cfb300e7ff3700628a8000738a8000bb
:1031ac00e00f5100e08f590032003200100278001d
:1031bc00548a8800b0029000858a880084017800c7
:1031cc006120b800c214210032021000a282180043
:1031dc00648a8800758a8800408980000302500048
:1031ec0044898800808a80000300e00012003200cd
:1031fc000001e900f50f2000830041004512880012
:10320c000201e800810f51000600320040c2bf00ed
:10321c000008a300fdff3200401280000049780036
:10322c00f6ff370040c2bf000008a300fdff3200cc
:10323c004012800000497800200020000400e000cb
:10324c0029003a0003ff070002ff0700608a800094
:10325c00718a8000e00f5000e08f580002003200ad
:10326c0030c0b300c04c980000202000408988007a
:10327c00b1ff3700108980000000e00003003a0025
:10328c0051c0b30070805700fafe0700d5c2a800e9
:10329c0000c0eb00defe07000040eb00c04c9800c5
:1032ac000000eb001000370000c0eb00c04c980091
:1032bc006a8457006011b80051c0b3000800780050
:1032cc00ecfe07001800be00f0af9f0081b79f0016
:1032dc00dfb8970091b79f00d5c2a80000c0eb00e3
:1032ec00cbfe0700f00f20004f04be000080fa0058
:1032fc00000006000e00fa000320200093bf9f0080
:10330c000420200005002000a4bf9f00b5bf9f0033
:10331c00c2bf9f00d0bf9f00e1bf9f0010c0b30091
:10332c00e0ff9f006e80570036ff07000004e000ae
:10333c0002003a001000200003003700e14f40006b
:10334c00f8ff3a000000eb000080fa0000000600d5
:10335c001e00fa00889fbe008a9fbe008004780081
:10336c00c0489000e2cf50005800320006003e00ea
:10337c000000eb000104e000d6003200e1cf500069
:10338c0050003a0006003700e4cf5000b300320082
:10339c0088003900e2cf4000c500320049003700f8
:1033ac000020200080898800a0142100060009005c
:1033bc0039187800e900b100628a8000738a8000b5
:1033cc00a112210004202000840f5100e08f59002d
:1033dc0003003e00a0c0b300804878001d003700f9
:1033ec00b0c0b30080487800c91dde00c71add00ec
:1033fc004915de000a857200e00f5500e08f5d0074
:10340c0002003a001a0020000b00200000fe2f00e2
:10341c00008447006011b800f1c0b30008007800c8
:10342c0094fe07001802be00d4af9f00e5af9f00ca
:10343c00afb29700f5af9f002fd897000004e000c3
:10344c0004003a000a01be0031c1b3007a80570073
:10345c0088fe0700201421001004e00008003a0048
:10346c00908a8000a18a80004909dd00c700de0037
:10347c00810071004900dd00908a8800a18a8800d3
:10348c0074845700928a8000a38a8000a0122100c5
:10349c00904078000800780076fe07001802be0005
:1034ac00d4af9f00e5af9f008fba9700f5af9f0098
:1034bc002fd897000004e0006100320000c0eb0040
:1034cc00c04c9800f00f20008200370081898000ea
:1034dc0000202000808f500008003a00a01221002c
:1034ec00b1c0b30090cf100002003a00c0cfb300bf
:1034fc0001003700e0cfb30045fe0700190178004a
:10350c00528a880039029000848a880082017800ef
:10351c006110b800c214210032021000a2821800ff
:10352c00648a8800758a88008089800003025000b4
:10353c0084898800818a8000838140003180fb006f
:10354c004012880040c2bf000008a300fdff3200fb
:10355c0042128000838f5000f8ff3a0020132100a4
:10356c0002487800200020000400e00059003a00d6
:10357c00002020008089880000c0eb0024fe07009a
:10358c0000c0eb0022fe070032fe07007f00600047
:10359c00e50f50002e003a0030c0b300c04c98002c
:1035ac0000002000a100200060898800718988003b
:1035bc00470037006089800071898000e00f50005f
:1035cc00e08f58002200320061005000e08058006b
:1035dc00608988007189880000c0eb000cfe070030
:1035ec001cfe070021132100804878000004e00035
:1035fc0037003200608a8000718a8000e00f500032
:10360c00e08f58000e003a0000002000a1002000be
:10361c006089880071898800a0122100b5c0b300b0
:10362c0090cf12001b003a00d0cfb300f8fd07007a
:10363c0000c0eb00f6fd070040c0b30005003700ea
:10364c0020c0b300c04c980020002000210037009f
:10365c00e0cfb300c04c98001d003700608980009b
:10366c0071898000e00f5000e08f5800100032008c
:10367c0061005000e08058006089880071898800e2
:10368c00f4fd070021132100804878000004e000bd
:10369c000f003200d5c2a80000c0eb00dcfd070013
:1036ac000040eb00c04c98000000eb000900370014
:1036bc006011b80051c0b3006e805700edfd0700db
:1036cc00d5c2a80000c0eb00d1fd07007bff37007e
:1036dc00300020004f05be004f04be000080fa00f1
:1036ec00000006000002be000304e00003003a00e4
:1036fc00e00f5000e08f5800130032000020200033
:10370c00a08988000020200001002000b0898800da
:10371c00c1898800d2898800e4898800f5898800ed
:10372c0011c0b3000014210001487800401321009f
:10373c0007ff07000004e00001003a00100005003c
:10374c00e14f4000f9ff3a000000050000000500c1
:10375c0080c0eb0007003700b27c20000300200083
:10376c0061015100e0815900e10f4100e08f4900f7
:10377c00fbff3a000040e900814f5000f6ff3a0091
:10378c0000000000000006000001eb00021288009f
:10379c00121288004222b70042c2a8004302a900bc
:1037ac00a8c6bf0001ccb300014060004041b3008b
:1037bc00a8e6b700c2c6bf00014060007040b3006d
:1037cc00c2e6b700d9c6bf00014060000034a000bb
:1037dc00d9e6b7000212880041e2a80000000600fa
:1037ec00010520003200200002003700e88f500055
:1037fc00060036000201e90063806000010032001f
:10380c00e4804000c208de00f8ff3a000100e90045
:10381c004200dd000080ea007c00600000007100c6
:10382c000050a000d8ff37006200fa00889fbe004d
:10383c00801521000048eb00901521000048eb009a
:10384c006000b800308a8800418a8800201421006a
:10385c000048eb00d5c2a800e1ff0700e0c1b300af
:10386c00bbff0700d5c2a800a800200000c0eb00d9
:10387c0067fd07000804e900fcff3a004906200038
:10388c00d5c2a80000c0eb0061fd0700d5c2a9009d
:10389c008904e90040fb2f00008447006011b80048
:1038ac008040eb000800780072fd07001800be0095
:1038bc00d08f9f00e18f9f00cf989700f18f9f00d2
:1038cc002f599700e14f5100030032000900e0002e
:1038dc0003003200eaff37000900e00021003a0043
:1038ec00d5c2a80000c0eb0049fd0700d5c2a90055
:1038fc00a8fb2f00088447006011b80051c0b3002a
:10390c00080078005bfd07001800be00d08f9f00f8
:10391c00e18f9f00ff989700f18f9f0008fc2f000c
:10392c00088447006011b8008040eb000800780064
:10393c0050fd07001800be00d08f9f00e18f9f0044
:10394c00afa09700f18f9f002f599700e14f5100c6
:10395c000400320021c0b30080152100014878001a
:10396c00f800370068fc2f0008844700a21a2000da
:10397c000300200021c0b300080078003dfd0700c3
:10398c001800be00d08f9f00e18f9f00dfa0970032
:10399c00f18f9f006f889700f2ff200002006000fb
:1039ac0001002000a21a2000820f5000e08f580066
:1039bc0039003a00df8897006480600036003a00d6
:1039cc00c8fc2f00088447006011b80001c1b30087
:1039dc000800780027fd07001800be00d08f9f005c
:1039ec00e18f9f008fa89700f18f9f008084eb00e0
:1039fc006011b800f1c0b30020fd2f00008047001b
:103a0c001cfd070088fd2f000884470002002000e1
:103a1c000300240021c1b3000800780015fd070045
:103a2c001800be00d08f9f00e18f9f00efa8970079
:103a3c00f18f9f002f5997000204e0000300320021
:103a4c008904e900bb003200e9ff3700291421008a
:103a5c00e8fd2f00088447006011b80001c1b300d5
:103a6c000800780003fd07001800be00d08f9f00ef
:103a7c00e18f9f009fb09700f18f9f0001e8a3009a
:103a8c000300320010c0b300804c780020003700d7
:103a9c00804ceb001e003700d5c2a80010c0b3004c
:103aac002bff0700d5c2a900201421000048eb0011
:103abc00f9ff21007c8457006011b80011c0b300dd
:103acc0008007800ebfc07001800be00d08f9f00a8
:103adc00e18f9f00cfb09700f18f9f008904e90020
:103aec002f5997000204e000030032000900e000a7
:103afc0003003200efff37000900e00004003a0039
:103b0c0021c0b3008015210001487800d5c2a8005f
:103b1c00d5c2a800f00320001bff0700d5c2a900e6
:103b2c0049012000768457006011b80031c0b30001
:103b3c0008007800cffc07001800be00d08f9f0053
:103b4c00e18f9f00ffb09700f18f9f008904e9007f
:103b5c002f5997000204e000030032000900e00036
:103b6c0003003200efff37000900e00004003a00c8
:103b7c0021c0b30080152100014878006b0037008c
:103b8c008044eb000004eb00b2fc070001fa2f00ac
:103b9c00018147008980fb0000f178008944e8002e
:103bac000804e00004003a00e0cfb300924f10008c
:103bbc0001003a00884478000804e800f40f54002f
:103bcc00f1ff3a0000202000208a8800d08a88006b
:103bdc00c08a80000080a000c08a88009f6a97007d
:103bec000f6a9700ff60970002fa2f0002804700cf
:103bfc001080fb00000cb2001400320001007800b1
:103c0c00f003b20001002000c000dd000000200025
:103c1c004821dd000300200002007000838070004a
:103c2c000581fb00030020000200700083807000ff
:103c3c004a09dd00c600de00810071004a00dd008b
:103c4c00f03fb0000180b0002d0037006f6197008d
:103c5c008281fb00020020004808dd0001002000ea
:103c6c0000017100818171000480fb0001002000c3
:103c7c00000171008181710000fc2f0031002000d7
:103c8c00020260000380600080017800040178006b
:103c9c000200be004a09dd004600de000000710093
:103cac00c608de0061004000e080480063c162008d
:103cbc00024141002f6a97000408b20047a2de00bf
:103ccc00044171000281fb000281e8001800200011
:103cdc000241dd000300200053f207005f619700f2
:103cec006f016100690151000241dd000281fb009e
:103cfc00030020004cf2070061005000e0805800e7
:103d0c00308a8800418a88006011b80011c1b30064
:103d1c007080570057fc0700228a800003002000a7
:103d2c0071c0b3006a80570052fc0700d5c2a800ce
:103d3c000400370021c0b300801521000148780031
:103d4c0042ff3700801521004f04be000080fa00ae
:103d5c00000006001200fa00889fbe004142e200fb
:103d6c00170035009efe070049c0b300d5c2a8005d
:103d7c0000c0eb0026fc0700d5c2a9008944e9006d
:103d8c00708457006011b8008040eb000800780088
:103d9c0038fc07001800be00d0b79f00e1b79f00a9
:103dac00afb89700f1b79f002fe89700e14f500094
:103dbc00120032000904e000ecff3a001300370057
:103dcc006a8457006011b80061c0b3000800780025
:103ddc0028fc07001800be00d0b79f00e1b79f0079
:103dec00dfb89700f1b79f00c0c02e00dfb097007e
:103dfc00008060000800320041e2a9008afe070042
:103e0c00801521001004e0000300320041e2a900fb
:103e1c000000eb0001003700100020004f04be0032
:103e2c000080fa000000060041e2a900d5c2a800fb
:043e3c00000005007d
:020000040000fa
:103e40000200fa00889fbe008a1f780084c4bf0069
:103e50000038a30005003a000000eb00a024880011
:103e600060248800406f880037033700416f80006e
:103e70000100e00010003a00a124880061248800bd
:103e80002000200030258800412588008644a900b4
:103e9000f009200080248800602488000100370099
:103ea0009404a80094c4bf000008a300fcff3200e3
:103eb00010002000406f8800406f8000e10f50002c
:103ec00009003a0094c4bf000068a30006003a004d
:103ed0008aa4ef008c24ef008c04a8008c84a80036
:103ee00020002000406f880080c4bf000048a3006d
:103ef0000c00320082c4bf000048a3000900320059
:103f000008012000082488000001eb00526f88009f
:103f10008200780040072000410c07008284a9003d
:103f20000824880088c4bf000018a30006033a00d4
:103f30008ac4bf000008a300080032008cc4bf0080
:103f40000008a300050032001c0a07004000200002
:103f5000406f880010002000502488008ac4bf00f1
:103f60000048a3000d0032008cc4bf000048a3002d
:103f70000a0032008284a80008012000582488002a
:103f800010002000506f88000001eb008000eb0063
:103f900050072000220c0700582488008ac4bf0064
:103fa0000028a300090032008cc4bf000028a30031
:103fb00004003200120020008000eb0030072000d7
:103fc000170c070040002000502488008a44e200bb
:103fd00014003d008c44e20012003d00aac4bf0062
:103fe0000018a3000d003200926e800092409000f5
:103ff00000c8b30080cf500007003a00a06e8000d8
:104000009040900040c8b30080cf500002003a00ba
:104010006840400010419800aa24a9000008200030
:10402000502488008ac4bf000018a3000a00320090
:104030008cc4bf000018a30007003200120020004b
:104040008000eb00f0ff2700f50b07008ea4ef00c7
:104050002000200050248800406f8000e30f5000b3
:10406000b90236008cc4bf000038a300b60232008b
:104070000045eb008ac4bf000038a300b202320042
:1040800090248000b1dc200080487800a2dc200071
:104090000080fb004400de00004978008000200022
:1040a000502488001281fb009140780068c06000b5
:1040b00002003a0010dc20000100370040dc200044
:1040c0000000410010417800e14061000104a200bd
:1040d0001004a10010c87000a0dc20001004e00053
:1040e00092023a00b0dc20001080fb0080017800d2
:1040f0000320a1000300e00052023a00c00fb2000a
:1041000001e0200001014000926e8800826e88006c
:1041100000dd20001024a20012409000c043b20035
:1041200041c3b300814f5000ed013a008200780096
:1041300044db20001100900090717a001100900083
:104140000000e800900098008301e800e88f51002b
:10415000f8ff3a0094009800f0dc20000048eb00e3
:104160008000eb00b16f8800a16f8800c16f8800ec
:10417000416e8800e0dc20000148780042dd20002c
:10418000a36e8000134090000074a100904198003d
:104190001224a200a36e8000134090000074a100be
:1041a000904198001224a200826e8000124090007c
:1041b0000074a1001041980000df20000148780041
:1041c000916f880020de20000148780030de20005a
:1041d0000148780040de20000148780001c6b300a5
:1041e00014c0600084013a0050db200010407800c9
:1041f0000080fb0001002000eb0f5000e08f580012
:104200007d013e000060010069003700a900370011
:1042100079013700a7003700770137000600370023
:104220000a003700700137005f00370034003700a4
:104230005701370062013700806f80000070a000d6
:10424000806f8800800020005000370041db200094
:1042500000c8b300914f100067013a0001df200051
:1042600000ccb3008048780070db2000104078005c
:10427000e24f500008003200e34f500012003200bd
:10428000e14f50001c003a00a0d92000706f880058
:10429000200120001600370060db20001080fb00aa
:1042a0000000400041d12000e0807800716f88005c
:1042b00020df2000214190000248780030df2000fc
:1042c000b14090007900370060db200022c0b300cd
:1042d000904f110008003e001080fb0000004000dd
:1042e000e1d0200060807800706f88001080fb00b3
:1042f000906f8800400137008048eb003e01370096
:10430000806f80000070a000806f8800ac24ef00f8
:10431000ae24ef000000eb0001e020008018eb006d
:104320008018eb000000e800ec0f5000fbff3a00a3
:104330009424a8000000eb0043dc200080407800bb
:1043400012dc200001f07900017079000000e80023
:10435000e30f5000fbff3a009424a90080e0200006
:10436000a06e880000e02000906e8800806e8800bb
:1043700060db20001040780071de2000804878006b
:104380000004e00003003a0000012000406f8800b4
:10439000190137001200200010002000200b070038
:1043a00000022000f9ff370070de2000fc0037001b
:1043b000c1da20008048eb00d0da20000048eb0092
:1043c00040db2000104078007f4060000080fb0050
:1043d000e10f50000d003200e20f50000f003200dc
:1043e0000000e00026003a00806f80000070a0000e
:1043f000806f88001104a000606f8000e10f500002
:104400001f003a001114a0001d003700806f8000cb
:104410000070a000806f880019003700806f800056
:104420000070a000806f880080db20001004e00096
:1044300006003500104078006f4060000080fb00ef
:1044400000004000a1dd200005003700104078008a
:104450006f4060000080fb000000400041dd200054
:10446000610078000140280010806000810f50003a
:1044700003003a0011c0b300c0da20000148780000
:1044800001df20000008200011006000da00320087
:10449000c0da2000706f8800806f80000000a000ec
:1044a000806f880021c0b30020df20000148780021
:1044b000d100370060db200011c0b30090cf1000a6
:1044c0000f003a0040db2000104078007f40600081
:1044d0000b003a00806f80000070a000806f8800a1
:1044e00050db200032c0b300904f110002003a00b0
:1044f00010002000010037000000eb00606f880012
:1045000060db20001004e000bb003a0040db20002c
:10451000104078007f406000e24f5000b6003a0043
:1045200082db2000924078006fc06000b200320051
:10453000924078006fc060000080fb00e20f5000e6
:10454000ad003c00416f800000022000808f5000d1
:10455000a9003a00806f80000070a000806f880082
:104560001204e0000c003500924078006fc060003b
:104570000080fb0000004000a1dd2000e100780089
:10458000c1bf9f00124178006f4061000080fb00b6
:1045900011dc20000b003700924078006fc06000f3
:1045a0000080fb000000400041dd2000e1007800b9
:1045b000c1bf9f00124178006f4061000080fb0086
:1045c00041dc2000614478000808a30004003a00a0
:1045d0000ff997000224a10082ff9f00030037001b
:1045e0000ff897000024a00080ff9f0080db2000d0
:1045f0001004e00006003500104078006f406000b5
:104600000080fb0000004000a1dd20000500370015
:10461000104078006f4060000080fb000000400008
:1046200041dd20004fb997008230780050db200038
:1046300031c0b30090cf100017003a004fb8970078
:104640001000e0000e003d0080db20001004e000c0
:1046500005003500104078006f4060000080fb00ce
:1046600011dc200004003700104078006f4060002b
:104670000080fb0041dc2000010040001014a0007d
:104680004fb897009040900042c8b30082c07000bd
:104690001140980058003700e88457000ff9970040
:1046a0000224a20082ff9f00cfb897001140900023
:1046b0001100e0000b003d000074a1009040980044
:1046c000cfb89700114090000064a000904098007f
:1046d00022002000cfb8970050002000500a0700a9
:1046e000020037000064a000904098001924a20046
:1046f0000818a30003003a00cfb897001100e000ab
:1047000017003d0080db20001004e00005003500ac
:10471000104078006f4060000080fb0011dc20003a
:1047200004003700104078006f4060000080fb00fc
:1047300041dc2000010040001014a100cfb8970018
:1047400011409000b043b200904098002200200039
:10475000cfb8970050002000310a0700030037004f
:1047600011409000b043b2009040980080db2000e0
:10477000104078006f4060000080fb0000004000a7
:10478000a14a2000010040001014a1001a003700c7
:1047900080db20001080fb0041dd20000100400094
:1047a000706f8800816f800012c0b30020df20008e
:1047b000024878001108b300816f88000e003700ae
:1047c000806f80000070a000806f880080db200078
:1047d000104078000080fb0062db200041dd2000fb
:1047e00092707800040037000001eb008000eb00bd
:1047f000200020000a0a07000001eb008000eb0007
:1048000030002000060a070094a4a90001df200060
:10481000000820001104600016003a0020de20008d
:104820001004e0000a003d0020c0b300e1dc2000dd
:1048300080487800c06f80000000e00001003a006e
:1048400086080700e86d8800f86d8800bb00370017
:1048500081c0b300806e800001487800816e8000c6
:1048600040db200090009800c0c8b3009040980042
:1048700093003700e1dc200042db20001204e0005e
:1048800007003d0010c0b30080487800a06f800092
:104890000000e0000b003a00700807000900370034
:1048a00020c0b3008048780081c0b300806e8000d3
:1048b00001487800816e80009200980040c8b300e3
:1048c000904098000000eb00e06d8800f06d8800db
:1048d000b06f80000000e00098003a004900370007
:1048e000e0dc200021c0b30090cf100047003a0068
:1048f0001242780032de20001280fb0045de2000ec
:104900009580fb00c808dd00808070000480fb00fb
:10491000810f500001003600014278000480fb0046
:1049200000805000004978004800de00804a78008e
:1049300006de200015de2000c7da20000a0037005e
:104940001680fb009580fb00c808dd0080807000a9
:104950000280fb00e7587800014b7800c808de00b1
:10496000814a78008301e8000341780084cf510038
:10497000f3ff3900826e800030de20009080fb0063
:1049800040de20001080fb004800dd0001007000c8
:104990000a00320080c0b30000497800816e8000b8
:1049a000c0da200090009800906e800010409000c7
:1049b0000068a300490032004a00370080c0b300fd
:1049c00000497800816e800040db20009000980054
:1049d00040c8b3009040980050de20009080fb005b
:1049e00060de20001080fb004800dd000100700048
:1049f000010032000000010020de20001074a10040
:104a0000b3ff37003b0807004c003700034878002d
:104a1000406e80000000e00008003a0081c0b30052
:104a2000806e800001487800816e800040db2000ad
:104a300090009800c0c8b3002b003700436e880078
:104a40003e003700e88f51003c003a0041dd200075
:104a5000a06e8000104090004600de0061046000ff
:104a60001124a200406f8000e80f500008003a00b7
:104a700060db20001080fb00b024880000012000d3
:104a80009604e20001003a0040002000406f8800d8
:104a9000e0dc200012c0b300904f110014003a0077
:104aa000c0da2000a16e80009000980092070700f5
:104ab000f0dc200021c0b30090cf100004003a00c9
:104ac00041c8b300a06e8000114098001b00370061
:104ad000a16e80000804e00002003a0080ccb30020
:104ae0000100370080c8b3009040980013003700e1
:104af00028de20001804e00009003d0050de200000
:104b00009080fb0060de20001080fb004800dd008c
:104b10000100700001003200000001001874a100c3
:104b2000e0dc20000048eb00040037000001eb004f
:104b3000b1dc200020072000390907000a45e80001
:104b4000e44f55004bfd3a008ec0a9004f05780098
:0c4b50004f04be000080fa0000000600c8
:020000040000fa
:104b5c000100e000040034000000eb000000e8005d
:104b6c00810f5000fdff3a00000006008a44a800a7
:104b7c008ac4bf000028a300fdff32003208800069
:104b8c00400880000300200001002000c000dd0070
:104b9c000000200000027100818271008a44a8008c
:104bac008ac4bf000028a300fdff3200300880003b
:104bbc00420880000100200003002000c011dd002d
:104bcc00020020000200700083807000040050007e
:104bdc008580580000000600881f7800e20407005a
:104bec0080407800f0c3b30080cf50005a003600ec
:104bfc00d782a800d582a800d182a900300907006d
:104c0c0080002000800888000ea1ef007008800052
:104c1c006008880080002800800888000004eb00f1
:104c2c001200370023090700f0ff23000000640086
:104c3c000804e8000000e0000c003a00d5c2bf00f8
:104c4c000080fb004400de000004a2006140600014
:104c5c004400dd00512d2000914078000144a1005a
:104c6c0080c0700001007800d5e2b700406f800072
:104c7c00e20f5000ebff3a00d582a80048c7bf00f6
:104c8c0001ccb3000140600048e7b700f8012000f8
:104c9c00b6ff07000001be0080562c00f1ff2f006c
:104cac000200400083804800047d2000840f5000e7
:104cbc00e08f5800f6ff3e00f0e72300800f510014
:104ccc00e08f590006003e0048c7bf00f043b20019
:104cdc00ff4f5000150032004847ec000b00370026
:104cec0004e82300840f5100e08f59000f003600b8
:104cfc0048c7bf00f043b20001c2b300814f50005f
:104d0c000a00320048c7bf00f043b000f043b200c5
:104d1c00817420009140780002ccb30082c0600006
:104d2c0080c070000100780048e7b7000804e90073
:104d3c00d7ff3b001021ef00d808070000802400ab
:104d4c00811e2000c2ed070048c7bf00f043b2002f
:104d5c008a04070009003700f2c3b30002c06000e8
:104d6c00817420009140780002ccb30082c06000b6
:104d7c0080c070000100780048e7b7004f0478004d
:104d8c000000060040f0230020358800103680001b
:104d9c000080fb000030b300103688008000eb0070
:104dac000111880020022000401188002062a80018
:104dbc001111880021e2a8002342a8008560a900f7
:104dcc0000000600cc00fa00889fbe008a9fbe003f
:104ddc008c9fbe004119210060192100a4f7070027
:104dec0080067800100020000d00e0004e0032001c
:104dfc008d017800820020001100200080f22f002d
:104e0c000f004000dff1070080007800e80f500031
:104e1c0042003a0080f22f000f0040004cff0700c8
:104e2c00320037000f1d97009f1d97000a03780072
:104e3c000a007800f007b200010032000006eb0017
:104e4c0000002b00f1ff2f000a0040008b8048006f
:104e5c00f23f250023002000820f5000838f580062
:104e6c00010036000006eb00d46f8000e56f800077
:104e7c00e10f4200e08f4a0003003200840f55001e
:104e8c00858f5d00210039000c00e000200032000d
:104e9c0000c02f00000063008b0178000001780037
:104eac000204be00840f5400858f5c0007003200a2
:104ebc000800be002f0507000000e00001003a00ca
:104ecc0000067800d86f8800e96f880040f32f0047
:104edc00008147000a00be00530507000000e000f7
:104eec000a0032000c00e000090032008d0178004d
:104efc00420c20001100200004f32f000480470016
:104f0c00a0f1070000067800010037000006eb0056
:104f1c00400c2000800f5600c2ff32000d007800bc
:104f2c0000f107000000eb004f06be004f05be006d
:104f3c004f04be000080fa00000006002000fa00ba
:104f4c00889fbe00c0fd2f000f004000e703070044
:104f5c0001012000c0fd2f000f004000fcfe0700e7
:104f6c0000402d000103200039ed0700e6f5070095
:104f7c000000e0003000320041192100d01921005e
:104f8c003bf70700800478000000e0002a003200a4
:104f9c008001780002022000110020002010210066
:104fac0078f107000004780009007800ddf00700b4
:104fbc0000022000800f54001f003a002010210036
:104fcc009080fb00301021001080fb004800dd00b9
:104fdc00010070001800320001012000a010210017
:104fec00dbfe070002012000a1102100c0fd2f00f4
:104ffc000f004000b7ed07000000e0000e0032008b
:10500c0070ff07000000e0000b003a0001012000d7
:10501c00a0102100cefe0700a010210009040700fb
:10502c007484570008007800b003070001012000c9
:10503c0008007800c6fe07004f04be000080fa008e
:10504c0000000600881f78004eff0700d3c2bf0087
:10505c000048a30004003200dffe0700b7ff070082
:10506c000050040000000000d3c2bf000048a300a1
:10507c00fdff3200d782a800d582a800d182a900fa
:10508c007020a800eac2bf007020a9000048a3004d
:10509c0001003a00e4030700cffe0700580020008f
:1050ac0008003700d582a90000a02600810120004d
:1050bc00e7ec0700d582a80000402d00010320007a
:1050cc00e3ec07000804e900e10f4400f5ff3a00a7
:1050dc00fb07070001003700f6070700416f80004f
:1050ec0000022000808f5000fbff3a00807c800083
:1050fc000000e000f8ff3200230007001200370028
:10510c00ec07070001c4b300200c210001070700c5
:10511c008080fb00200c2100710007000004e000df
:10512c0008003a000000eb00a024880060248800ee
:10513c00406f880000802400811e2000c4ec070012
:10514c00e6ff37004b000700416f80000002200093
:10515c00808f5000e1ff3a00807c80000000e0006e
:10516c00e7ff3a00ddff3700800078001081fb007c
:10517c00e0152100604179000241e8000281fb004a
:10518c0080162100290337001e00fa00881f7800c2
:10519c000004eb00487e8800987d880010002000f9
:1051ac0001002000707d8800817d8800687d88006a
:1051bc00888b8800688b8800788b8800000420001e
:1051cc00307e880088e79f00f10f20000fb0970019
:1051dc000100600080b79f00002024000fb19700f1
:1051ec000001710082b79f0002f02f001fb09700e2
:1051fc0002006000f004b3000100600001f0240024
:10520c000100700090b79f002fb097000200600063
:10521c004005b300a0b79f0008027800830020006f
:10522c007b81570000f8240001102000e3ec0700fc
:10523c0008027800830020007381570080f8240056
:10524c0001102000ddec07006b805700411a210093
:10525c0007000900315878008000b10000fe2f00d3
:10526c000f004000c0ff07004f0478000080fa00d8
:10527c00000006000200fa0080fa20001004e00092
:10528c0015003a00417e80000100e000040032006d
:10529c0080162100950207000000eb00407e88007c
:1052ac0082fc20008f80e90080162100bc020700e0
:1052bc00417e80000100e00007003400307e800059
:1052cc00808f500001003400407e8800417e8000b9
:1052dc007fb897005e0707000080fa000000060008
:1052ec00889fbe008a9fbe0080057800010578006b
:1052fc00bc0037006154b800727d8000837d800053
:10530c00607d8000820f5400838f5c002400390084
:10531c00e20f500012003a00547d80008002eb0036
:10532c000400370065c07d000080fb0000024200d5
:10533c008502e8006128b900820f5000838f580065
:10534c00f8ff3900547d8800820078000b0078004b
:10535c00960307000000e0000a003a00a5003700a1
:10536c00907d800041fb2000010040008b00780004
:10537c00d1ec0700907d8000e1fa20001100400084
:10538c00907d8800707d800080854500000555006b
:10539c006000b800707d8800817d88002200370095
:1053ac00e20f500010003a00517d80000001eb002c
:1053bc000400370062c07d000080fb00808040004c
:1053cc000201e8008a0f5100faff3a00517d880073
:1053dc008a0078000b007800740307000000e000de
:1053ec000a003a0083003700907d800041fb2000ca
:1053fc00010040000a0178008b007800aeec070039
:10540c00907d800000004500907d8800707d8000bc
:10541c00817d80000800500089805800707d8800d4
:10542c00817d88000005eb00707d8000817d80000f
:10543c00e00f5000e08f58006a003a00607d800059
:10544c00e10f50001300320003003900e20f50004e
:10545c0064003a005800370010002000607d88007e
:10546c0040fb200010407800e44f500061003e00eb
:10547c008080fb003016210060c178000280fb00a8
:10548c0001002000707d8800817d88000204e0000e
:10549c0054003a000004eb00687d880010002000e6
:1054ac0001002000707d8800817d8800987d880037
:1054bc0040fb200010407800e24f500021003200e9
:1054cc0005003e000004e00008003200e14f5000ef
:1054dc0048003a0018003700e34f50001b00320020
:1054ec00e44f500043003a001d00370050fb2000f1
:1054fc009080fb0060fb20001080fb004800dd006a
:10550c000101700070fb20009080fb0080fb2000ec
:10551c001080fb004800dd008101700090f4240035
:10552c0091f42400800f5100818f590031003a0012
:10553c00f90207003100370050fb2000f802070089
:10554c002e0037007e0207000200370050fb2000bf
:10555c00bc0207000004e0002600320027003700e0
:10556c0020002000607d880050fb20009080fb0014
:10557c0060fb20001080fb004800dd000101700082
:10558c0070fb20009080fb0080fb20001080fb0053
:10559c004800dd0081017000727d8800837d8800e9
:1055ac00830207000004e00012003200587d8800de
:1055bc00f202070011003700640307000000e0004e
:1055cc000c003200507d8000bf0207000000eb0091
:1055dc00607d88001000200001002000707d880094
:1055ec00817d88000a00e00042ff3a001000200094
:1055fc00080037000000eb0006003700707d8000cb
:10560c00817d8000e00f5000e08f5800f5ff3a00dc
:10561c00e9ff37004f05be004f04be000000060036
:10562c001000050087c0bf000068a300fdff32001a
:10563c00b011800087c0a9000000fb00000006002c
:10564c0020022000c01188000000eb0080118800af
:10565c003062a8009011880031e2a8003342a80003
:10566c0087c0a9000000060087c0bf004600de000e
:10567c0061006000000006000000fb00a011880023
:10568c000000000033c2bf000008a300fdff320081
:10569c0000000600881f7800000478000100370025
:1056ac00f5ff0700384078000004e000fcff3a00ea
:1056bc004f04780000000600881f78000044780032
:1056cc000042eb0030c6b300804f54000700360098
:1056dc000880fb0042062000110009000280d8005f
:1056ec000043b000e4ff070014c0b3000880fb00c7
:1056fc0042062000110009000280d8000280b90087
:10570c0000445400e94f540002003e00e14f5200a7
:10571c0006003a000880fb00a200200011000900de
:10572c000280d8000043b000d3ff07000880fb00c4
:10573c00a2002000110009000280d8008000fd00aa
:10574c006a08b900004054000043b000caff0700cb
:10575c004f04780000000600889fbe00800478008b
:10576c004480de006f00600048182100684078001b
:10577c00c1ff07006f80640068407800beff07001f
:10578c004f04be0000000600889fbe008004780015
:10579c004c00de004818210068407800b6ff070076
:1057ac004848de006f00600068407800b2ff0700d8
:1057bc004448de006f00600068407800aeff0700d0
:1057cc006f80640068407800abff07004f04be0098
:1057dc0000000600889fbe008a1f78000004be00ef
:1057ec004c08de006f0060004a1821006a40780007
:1057fc00a1ff07004848de00010020006f00600098
:10580c006a4078009cff07004448de00010020003d
:10581c006f0060006a40780097ff07004048de0088
:10582c00010020006f0060006a40780092ff0700c2
:10583c004449dd004c40de0000007100cc48de0025
:10584c006f0060006a4078008bff07004849dd005c
:10585c004840de0000007100c848de006f006000a8
:10586c006a40780084ff07004c49dd004440de00ac
:10587c0000007100c448de006f0060006a407800d0
:10588c007dff07006f0464006a407c007aff07000c
:10589c004f0578004f04be000000060080407800e1
:1058ac0060c6b30080cf500017003c00664050002b
:1058bc0080cf50000200340090cab3000f003700b4
:1058cc0060c4b30080cf50000f003c006640500015
:1058dc0080cf50000200340090ccb300070037009a
:1058ec0090c3b30080cf500007003c006a405000ca
:1058fc0080cf50000400340000cdb30000c0400045
:10590c000000fb0000000600000005006f40600076
:10591c00e94f5000030034007043b0000000fb005e
:10592c00000006000043b0000000fb000000060071
:10593c0032c2bf000018a300010032003222a900bd
:04594c000000060051
:020000040000fa
:10595000b81100000800000082000000494f490013
:105960004f01000000000000300e0000cc000000dd
:10597000800000005e1100001400000082000000a2
:105980001c011000000204000800100004ca0f00ef
:10599000800000000000000000000000aa0f0000ce
:1059a000a000000080000000a41100000a00000018
:1059b00082000000504958004c3030003235000061
:1059c00000000000ae1100000a000000820000008c
:1059d000424f4f00543030003031000000000000d2
:1059e00084110000100000008200000030313200fd
:1059f00033343500363738003941420043444500de
:105a00004600000072110000120000008200000039
:105a1000280c000000000000ffffff00ff00000056
:105a20000000ff00ffffff00000c00000e0100005f
:105a3000800000000008000000020000800000005c
:105a4000000a000000020000800000004a10000070
:105a500078000000820000000095000000000000b7
:105a600001f90000000000000887040000000000a9
:105a700009af0000000100000a1b00000001000047
:105a80000cc30100000000000daf02000000000088
:105a900010ff00000000000011ff000000010000e6
:105aa00012ff00000001000018ff000000010000cc
:105ab00019ff00000001000020ff000000000000ae
:105ac00021ff00000000000026df010000000000b0
:105ad00037730000000000003a25040000000000b9
:105ae0003b2500000000000029ff0400000000002a
:105af00017ff000000000000221100003c00000021
:105b000080000000fa0d0000040000008200000088
:105b1000ffffff00ff000000c21000006000000057
:105b200080000000941100001000000082000000be
:105b300072004600572e49004d47000046572e0080
:105b40004844520000000000fc0e0000ae000000bf
:105b500080000000ac0d00004e000000800000003e
:105b6000000e00003000000080000000fe0d00006c
:105b700002000000800000000e0d00009e000000ea
:105b800082000000520d20000d160d00560d0a0077
:105b9000034900004f004900004f00003203490054
:105ba000004f000049004f00002000004f0070002f
:105bb000006500006e002d00005300006f007500ae
:105bc00000720000630065000020000050007200b9
:105bd000006f00006a0065000063000074000400ac
:105be00003090400090243000002010000c0fa009a
:105bf0000904000000010200020100000524000069
:105c00001001040024020200052406000001050022
:105c100024010000010705008103080000020900bb
:105c200004010000020a0000000007000502020053
:105c30004000000007058200024000000000120042
:105c40000100020002000000084f1b0008000000d5
