:020000040000fa
:10a22000ef3e27000eff27000e018800000000000f
:10a230000c000700e02a2d00010020000f0007009d
:10a24000000020000000e0000200320000000200d8
:10a25000000000001a140200010000000040da00b3
:10a260000000fe00201025000000e0000200320087
:10a27000102020009001880000000600a102880044
:10a28000800078000000eb001a003700e2804000f8
:10a2900054a0b4009101ba00e280400054a0b40080
:10a2a0009102ba00e280400054a0b4000002eb002a
:10a2b000472bde00f507b200a6018800602ce10004
:10a2c00008003a000049eb000201e80002003900f2
:10a2d0003420ec0002f0a0008301e900f9ff3e0009
:10a2e000040037006128e100010032000082eb0029
:10a2f000040007001101ba000200e000e3ff3a0089
:10a300000000060004d0a300e20f49001c00390041
:10a31000810278003549ba000201e80002003900e4
:10a320003420ec0002f0a0008301e9000f003200ad
:10a330002549ba000201e800020039003420ec008f
:10a3400002f0a0008301e900080032000400e000f0
:10a350000600320015c9ba000201e8000200390007
:10a360003420ec0002f0a0008301e9008180e800c5
:10a3700054a0b4000300e000e2ff3a000000060031
:10a380009102ba00055978008301e900f7ff320015
:10a39000c82ade00055978008301e900f3ff320086
:10a3a0000400e000f1ff320011d9ba00eeff3700df
:10a3b0004413040001000000060204000200000033
:10a3c00084fb0400010000005800040002000000ab
:10a3d0000a02040002000000a2fe040001000000c6
:10a3e0000e020400020000005e00040002000000f3
:10a3f0001202040002000000160204000200000025
:10a4000054fc040001000000cc86040001000000a0
:10a41000640004000200000062fc0400010000006f
:10a42000acfd040001000000acfe040001000000cf
:10a43000b6fe0400010000006ae70400010000000d
:10a440001a02040002000000a6020400020000003c
:10a45000ecea040001000000747804000100000030
:10a46000a4ec040001000000a2b2040001000000fe
:10a4700042ef040001000000e2f2040001000000cd
:10a48000fec304000100000094cb040001000000a2
:10a4900008f7040001000000a80204000200000008
:10a4a000eef9040001000000dcf9040001000000e6
:10a4b0009ce104000100000074bf040001000000e2
:10a4c000f2f6040001000000846a040001000000ac
:10a4d00000fa040001000000a8ab04000100000025
:10a4e000cafe04000100000070fc0400010000002e
:10a4f000c0fe040001000000ac02040002000000e5
:10a5000060ff040001000000ecf8040001000000fe
:10a51000ae02040002000000aa02040002000000d3
:10a5200078bc04000100000064ef0400010000009a
:10a5300076dd0400010000009a9204000100000092
:10a5400072e5040001000000ba02040002000000ed
:10a55000d602040002000000d8020400020000003d
:10a56000caec0400010000005a02040002000000ce
:10a570005e02040002000000f8f004000100000088
:10a58000da02040002000000dc0204000200000005
:10a5900072ce0400010000002cc004000100000085
:10a5a000caef040001000000e8db04000100000025
:10a5b000eec1040001000000ecef04000100000007
:10a5c00046c204000100000002cf040001000000a8
:10a5d000de0204000200000082e30400000000002c
:10a5e000f8bd040001000000e002040002000000c9
:10a5f0006cf2040001000000f6c20400010000003b
:10a600005ee3040001000000a62c0400010000002d
:10a610005c9304000100000022d00400010000004f
:10a62000eefc040001000000aeed0400010000009b
:10a63000eeaf040001000000f8b8040001000000c3
:10a6400010e7040001000000f2d504000100000042
:10a65000fcca04000100000068f8040001000000ca
:10a6600050cd0400010000009aad0400010000007c
:10a670000eb604000100000032800400010000005a
:10a6800066d30400010000001aff0400010000006e
:10a6900094f80400010000002800040002000000fb
:10a6a000300004000200000070ea04000100000015
:10a6b0009ee80400010000003800040002000000d1
:10a6c000a20104000200000078f104000100000073
:10a6d0007ef80400010000008cf904000100000075
:10a6e000180304000200000034e10400010000002f
:10a6f0005400f800a1028800800278006200400047
:10a70000e08048003549ba003204e0000410a70098
:10a71000100032008301e9000e0032002549ba0022
:10a720003204e0000410a7000a0032008301e900af
:10a73000080032000408a300eeff320015c9ba0079
:10a740003204e0000410a700020032008301e90097
:10a75000e8ff3a005400f90000000600020ab900c0
:10a76000001bb9000200b8008100420081004300d4
:10a7700000000600800078001106b10003003500db
:10a780009101b10001003c000050a1000000060052
:10a79000800078001104b100030035009101b10080
:10a7a00001003c000050a00000000600889fbe0091
:10a7b00080047800506f83000000e00003003a003e
:10a7c000470007000000e0000a003500506f8300da
:10a7d0000900e00002003a0000047800060037009b
:10a7e00000047800090040003d0007000000e00080
:10a7f00001003d000084eb00080078004f04be001b
:10a80000000006000a00fa0080017800e20f500004
:10a8100028003e00606f8300e10f50000800320006
:10a82000802320000000e000050032000423200007
:10a8300025232000462320008001780004003700f3
:10a84000042220002522200046222000832220000e
:10a85000144090000004e000040035008009eb0083
:10a86000144090000074a000104298001540900021
:10a870000028a30003003a00154090000024a00027
:10a88000904298008001eb000700370015409000cf
:10a890000008a300fdff320063c078000000fb0049
:10a8a000000b78008301e800828f5100f7ff3a0027
:10a8b0000800370030002000b0bf9f00c3bf9f00da
:10a8c000d1bf9f00e2bf9f006a80570000c0da003e
:10a8d0006fb99700020078000080fa0000000600bf
:10a8e000800078000000e00004003a00e0de26006e
:10a8f000506f8b0001017800060037000081eb00eb
:10a90000e03e2700808f500002003e00516f8b0018
:10a910000001eb0002007800000006006022b80091
:10a92000060220000000d0008180d2000482d20004
:10a930008582d2000000a0000202520083825a00e9
:10a94000030031000202420083824a000000a1009d
:10a950000603e900f3ff3a0000000600881f7800b4
:10a96000000478005001be004000be00040040001a
:10a97000858048000601490087814900009cbe008f
:10a980000294be000400e1000588e1000690e100a9
:10a990000798e10002003100680044001008e80058
:10a9a0004f04780000000600f4874700889fbe002f
:10a9b0008a9fbe008c9fbe008e1f78000205be00dd
:10a9c0000004be00d4b79f00e5b79f00f6b79f0014
:10a9d00087bf9f000000eb00c0b79f00b0b79f008b
:10a9e000a0b79f0090b79f0080b79f000d04200084
:10a9f000bfb097004fb09700000140000000e0009a
:10aa00000f003d004f08de0000007100c0b79f003e
:10aa10009e00070001003d0012002000a100070079
:10aa200001003d0012002000a6000700b100070051
:10aa3000b60007000f004000c8ff070022003700e3
:10aa40004f08de0000067100ccb79f008f000700a2
:10aa500001003d00120020009200070001003d00af
:10aa60001200200097000700a20007000fb2970015
:10aa70009fb297002fb39700bfb39700a9000700bc
:10aa80000000520081805a0002015b0083815b005c
:10aa900080b79f0091b79f00a2b79f00b3b79f00f8
:10aaa0000007eb009f0007000020e10001a8e10083
:10aab00002b0e10003b8e100010031001e002000f7
:10aac0000e005600c0b79f004fb297000400e00090
:10aad0000700350010002000010020006011b800c0
:10aae00008047000898470000a0571008b8571006c
:10aaf0008d06e900beff3a000400e00003003d00bf
:10ab0000820007000f00400094ff07004fa8970045
:10ab10000000e00004003a000fb497009fb49700d3
:10ab20002fb59700bfb59700940007004f07780036
:10ab30004f06be004f05be004f04be004f01b100de
:10ab400000000600881f780018002000881f780089
:10ab500095ff07008f87e9004f047800000006008a
:10ab6000801feb0090ff07008f87e90000000600c0
:10ab7000889fbe008a9fbe008c1f78006e00070071
:10ab800007003d0073000700e00f5b00e08f5b00f3
:10ab900007003d00320007000006eb00040037000c
:10aba0003400070002003d002a0007001c002000be
:10abb00072000700e3ff07000203be000002be00b0
:10abc0000c00e00001003200220007000400be007b
:10abd0000601be004f0678004f05be004f04be00c0
:10abe00000000600889fbe008a9fbe008c1f780070
:10abf0005100070005003d0056000700e00f5b0014
:10ac0000e08f5b0006003d000400370019000700dc
:10ac100003003d006000b8006011b800100007009c
:10ac200056000700ceff07000203be000002be0070
:10ac30000c00e00001003200060007000400be0026
:10ac40000601be004f0678004f05be004f04be004f
:10ac5000000006006000b8006011b8000000370076
:10ac6000040250008582580006035900878359006a
:10ac7000000006000006eb00e00f5200e08f5a00d3
:10ac8000e00f5b00e08f5b000000060001804000e9
:10ac900090b79f000001eb008fb097000100e0002b
:10aca000000006000200700090b79f000180400085
:10acb00080b79f000001eb00ffa897000100e000b3
:10acc000000006000200700080b79f000180400075
:10acd0006faa9700cf20de0001007000f0af9f0048
:10ace00004024200250007004f18de000002720037
:10acf00000000600e4af9f000804440089844c0073
:10ad00000a054d008b854d00000006003fb29700fc
:10ad1000cfb297005fb39700efb3970000fe2f000c
:10ad2000000006003fb09700cfb097005fb19700da
:10ad3000efb19700000006000205be000004be004f
:10ad4000e00f5000e08f5800e00f5900e08f5900ed
:10ad5000000006006000b8006011b8000804500050
:10ad6000898458000a0559008b8559001c00200071
:10ad7000e00f5200e08f5a00000006000800be00fd
:10ad80000a01be00000006002800fa00889fbe00ed
:10ad90008a9fbe008c9fbe0003866b0035020700b1
:10ada0000028a30064003a000128a30067003a00cd
:10adb0000008a30062003a000108a30065003a0001
:10adc0001e009000be08900081064000ed3fb100db
:10add000f4805700ee019000111ab8008e0990001f
:10ade000311bb8009e099000311cb800511db800fd
:10adf000f485570046000700fe0190003a00070066
:10ae00008b85e8003e0007008e0990004000070097
:10ae1000ee019000340007008b85e8003800070041
:10ae20008e099000400007009e0990001b18b80092
:10ae3000890440000a854800fe01900034000700a4
:10ae40008b85e80038000700ee0190003000070015
:10ae50008e0990001b18b800890440000a8548003c
:10ae60000a98a30008003a000402420085824a00c2
:10ae700006034b0087834b0008044c0089844c0078
:10ae80000a054d008d06e900848272008502730078
:10ae90004c3add00850272000100320015002000ee
:10aea000443ade001400b2004538de00cb45dd0038
:10aeb0000b007000c540de00cb4ddd008b807000c4
:10aec0004549de00cb55dd000b017100c551de00a8
:10aed0000d0378000002070003f0a1000cf0a700aa
:10aee00003f0a000f70137001b18b80085024000ee
:10aef00006834800e0834b0060044c0007003700e5
:10af00001b18b8000603400087834800faff37008b
:10af10001b18b8008703400008844800e0844c00f8
:10af200060054d00000006001b18b8000804400032
:10af300089844800faff37000108a300de013a00c7
:10af40005800be005801be00e3ff37000008a30010
:10af5000d9013a0009047800f9ff3700810378002d
:10af6000090207000001be006000b8000478a300d9
:10af700013003a006220e10015003e000d00390088
:10af80008301d1000281d3008180d3008301d100ed
:10af90000281d3008180d3008301d1000281d300dc
:10afa0008180d3000538b000c42add00f300b20070
:10afb0008381720007f0a70003f0a00000000600e4
:10afc000f3ff2700f2ff2f006110b900fbff3700ed
:10afd00003ff2700f7ff37008f1fd100ff01070095
:10afe0008f87e9000000e00000000600801feb00f2
:10aff000fa0107008f87e9000000e000000006006a
:10b000001400fa00889fbe008a9fbe008c9fbe007d
:10b010000005be000206be00680047000c90be009e
:10b020000a90be00160207006400e1001a00320018
:10b0300016003e006100e1001a0032006e0490002c
:10b04000fe0490000e0b90009e0b90006011b80063
:10b050009e0590000b38b100d5012000828171005f
:10b06000610164008703d1000683d3008984d30083
:10b070000884d3008502e900f8ff3a0027020700a0
:10b080000df0a70001f0a0008e013700f1ff2700ae
:10b09000f0ff2f008b01370001f82700000020008f
:10b0a000f7ff37006000b800f5ff370041020700e6
:10b0b0000509780000000600809feb00c70107002b
:10b0c0008f87e9000000e000000006002800fa0079
:10b0d000889fbe008a9fbe008c9fbe0003866b00c7
:10b0e000640107006400e100440032006408e100ec
:10b0f0004a0032006100e100460032006108e100d0
:10b1000049003200ec0647006000b8003d02be0076
:10b110003d03be00f48657006011b8003d04be0038
:10b120003d05be007d0320000b0037000000a0009d
:10b130008d06e900130032000402420085824a00b5
:10b1400006034b0087834b000000400081804800cd
:10b1500002014900838149000802520089825a0095
:10b160000a035b008b835b00f0ff3b000802420098
:10b1700089824a000a034b008b834b008d06e9004d
:10b18000edff3a008482720086827200f707b200f7
:10b190008782720001003200150020001e0490001a
:10b1a0003e0b900006035400e63fb0000368a30086
:10b1b000070032000000a7000500a0008301d100b5
:10b1c0000281d3008180d3000080d3000603e80011
:10b1d0008301d1000281d3008180d3000080d3009d
:10b1e0000002eb000482d2003b01070003f0a10043
:10b1f0000cf0a70003f0a000320137006402470002
:10b200006408e1002c0132003400be003401be00ad
:10b21000f6ff37006108e100270132006011b80035
:10b220006000b800f1ff370003ff27000200200094
:10b23000fbff37001400fa00889fbe008a9fbe0003
:10b240008c9fbe000004be000205be0068004700df
:10b250000a90be000890be00890107000070a70098
:10b260000bf0a1000bf8a30016003a009e0290001c
:10b270003043200080825200b0fe2f000028e10001
:10b280000d003c00b0fc2f000028e1000d00340050
:10b290001e0990008e0890007e0090000501b0000d
:10b2a0000201d1008180d3000080d3008502e80034
:10b2b000fbff3a00030137000100280000002000d6
:10b2c000000137006000b800fe0037004f89de0043
:10b2d00082017800b00037002800fa00889fbe0085
:10b2e0008a9fbe008c9fbe00070678008786690093
:10b2f0000c003b00030478008704780008f0a100ec
:10b3000009f0a100840f5000858f5800860f590066
:10b31000890f5c00030033000cf0a20001003a002a
:10b320000cf0a100d30007006400e1005f003200d0
:10b33000780147006408e100610032006c014700b9
:10b34000748557003200be001201be003a04be00f0
:10b350001a05be001e039000be0a9000850353002c
:10b3600006003d000004fd008104fd000205fd0013
:10b370008305fd008703ea00050378000df8a300ac
:10b380000400320060041400e0841c0060051d000d
:10b39000e0851d006022b8007d0320000d38e1002b
:10b3a0008006eb000b0039004433dd00f300b200ef
:10b3b0008301730039003700848272000d02780027
:10b3c000e10664008b85d1000a85d3008984d3000f
:10b3d0000884d3008703e900f7ff3b000800400022
:10b3e000898048000a0149008b81490004003b0024
:10b3f00060001000e080180060011900e081190071
:10b400000358a300090032008d827200848272000a
:10b41000610260008301d1000281d3008180d300ea
:10b420000080d3000603e8001b0037000348a30098
:10b4300017003a000600e000170034000603e90098
:10b440000d00a3000000480081804800020149006f
:10b45000838149000348a3000f003a000600e00082
:10b46000090034000603e900000040008180480024
:10b47000020149008381490001003a000003eb000a
:10b480000348a300f5ff32006022b8000200370035
:10b4900084827200618266008f00070003f0a100c1
:10b4a0000cf0a70003f0a0008600370064014700fd
:10b4b0006408e10002003a000df8a3007e003a00a3
:10b4c0003200be001201be007e00370007f0a2006d
:10b4d00081ff37001400fa00889fbe008a9fbe00db
:10b4e0008c9fbe000004be000205be00680047003d
:10b4f0000a90be000890be00e10007000070a7009f
:10b500000bf0a1000bf8a30020003a009e09900068
:10b510000e099000fe0090006e0090009e029000c8
:10b520003443200084825200660032000a003c004e
:10b53000b4fc2f000428e100140034008301d10082
:10b540000281d3008180d3000080d3008502e8000f
:10b55000faff3a005b003700b40020000428e10045
:10b5600007003c00000040008180480002014900c3
:10b57000838149008502e900faff3a005100370053
:10b580000300280002002000010037006011b8000d
:10b590006000b8004b003700889fbe00830478002d
:10b5a0000300e0002c00350003003c000082700026
:10b5b000040271002600320036432000c50020003e
:10b5c0008383cf000a0039000541b1008283cf0098
:10b5d000070039000541b1008183cf000400390024
:10b5e0000541b1008083cf00010039000541b10061
:10b5f00085c353006022b800120032000a003b00ed
:10b6000084827200610260008301d1000281d30054
:10b610008180d3000080d3000603e8008743e80060
:10b62000f7ff3a0007003700000040008180480023
:10b6300002014900838149000603e9008743e900cc
:10b64000f9ff3a002400070009f0a70003f0a0006a
:10b650004f04be000000060060001000e0801800eb
:10b6600060011900e0811900d3ff3b00033e2c006c
:10b67000f7ff3700680447000294be000094be0044
:10b68000fc0447008694be008494be000900780044
:10b690007b00070008007800790007009900780017
:10b6a000814f70000b003b000800be00ce00070079
:10b6b0004f00b10003003700f3ff2700f2ff2f0017
:10b6c0006110b9004f06be004f05be004f04be001a
:10b6d0000080fa000000060018002000570020003b
:10b6e000080453000d003d000600200097fc2f00c9
:10b6f0000740e1001e003400848272006102600095
:10b700008301d1000281d3008180d3000080d30067
:10b710000804e800f8ff3a004700200061046000d8
:10b7200005047400040464000d0032006100400050
:10b73000e080480060014900e081490003b8a500ad
:10b74000070032000603e8006538e10004003a0013
:10b750008301d1000281d3008180d3000080d30017
:10b76000f87f20000830e10003003500080378006e
:10b770006000b8006011b8004433dd00f300b2008f
:10b780008301730000000600c70ade00f107b20063
:10b79000f50fb20008003200e1cf42000200320093
:10b7a0000170a00024000500810f7000010032002c
:10b7b0000408050044000500810f700002003a00f3
:10b7c000140005008502e9000000400081c0480027
:10b7d000fcff3b000170a00024000500889fbe0014
:10b7e0008a9fbe008c9fbe000404be000605be00fa
:10b7f000809fbe00829fbe0089000700040678007b
:10b800000800be000a01be0085000700840678001b
:10b810004f03be004f02be008d4f76007fb09700f1
:10b8200013003300f0ff2f008b8f6b0006003b00ee
:10b830000d0666000c00a7000a00370007f0a600fe
:10b84000100020000a003700880f5200898f5a002c
:10b850008a0f5b008b8f5b00030039001000200013
:10b8600001003e000000200007f0a7000000ea00f1
:10b870004f06be004f05be004f04be00000006008c
:10b88000800078005002be005003be004439de0044
:10b89000f700b200f37f20000301610009003200cd
:10b8a0000218e10016003a0085017200830173005e
:10b8b000838173000008200015003a00400020003a
:10b8c00013003700850172008301730083817300c8
:10b8d00005003a0004a8be0006a8be001000200023
:10b8e0000b0037000201e9000402420085824a0091
:10b8f00006034b0087834b000748a300f9ff320083
:10b900000740a00004a8be0006a8be00200020003a
:10b91000800098009200980000000600810020003e
:10b92000618055000b003d000b00200061fe2f00e0
:10b930000100e1001d00340082817100610164009a
:10b940008904d1000884d3000000e800faff3a001f
:10b9500071002000610064000300700002006000bc
:10b960000900320061044400e0844c000988a5000d
:10b97000050032008b05e8006808e10002003a008b
:10b980008904d1000884d300f20f20000258e1009e
:10b9900005003d00c75ddd00f907b2008980750034
:10b9a00008007800000006000bf827008b007800e4
:10b9b000000005000003be0073ff07006220e100e5
:10b9c000020032000600be0005000500e507b100d8
:10b9d000f107b20004f023008480700007f0a70094
:10b9e00001f0a00024000500e48240001078a300cc
:10b9f00007003200640240001178a3003400be004a
:10ba00001401be00040032000330a700000006004d
:10ba10003500be001501be000330a0000000060086
:10ba200005ff270005826100070032000428e100bd
:10ba300001003200240005000600070001003a0062
:10ba4000440005000408050002000700f9ff3a0061
:10ba5000140005006f826100810270008502710090
:10ba600085027200000006008001eb000200370032
:10ba700061f079008301e800828f5100fcff3a00f9
:10ba8000000006000c00fa00889fbe000004780049
:10ba9000cfb09700f0ff2700d0bf9f008004eb00dd
:10baa00099bf9f0088bf9f00a8bf9f00200c200067
:10bab000b0bf9f0078815700708057007a0107005f
:10bac0000fb89700094878000fb897000804500095
:10bad000080078004f04be000080fa000000060055
:10bae0000400fa00e0bf9f00e4815700812978003c
:10baf0000002eb000f0037006fb89700904078000d
:10bb00007fb89700104078000402e80080cf500012
:10bb1000040032008180fb000080fb0000805000a8
:10bb2000070037006fb897000000e800e0bf9f00f3
:10bb30009309e800820f5200efff3a000000eb008b
:10bb40000080fa00000006000000fa00cfb897005d
:10bb500068815700e0c62600530107000080fa0004
:10bb6000000006008001eb000200370081717800c0
:10bb70008301e800828f5100fcff3a0000000600bc
:10bb80000000fa00cfb8970068815700e0c6260091
:10bb9000fa0307000080fa00000006000c00fa001b
:10bba000889fbe0000047800cfb09700f0ff270008
:10bbb000d0bf9f008004eb0099bf9f0088bf9f000b
:10bbc000a8bf9f00200c2000b0bf9f0078815700c5
:10bbd00070805700e90307000fb897000948780004
:10bbe0000fb8970008045000080078004f04be000a
:10bbf0000080fa0000000600000378008002780050
:10bc0000020278008001eb00080037000402e9001e
:10bc100063c07800805a78008301e8000004e000e7
:10bc200002003a008000eb0006003700828f5100ce
:10bc3000f6ff3a00fbff37000040eb0080f07a008f
:10bc40008100e800848f5000fbff3a000600780076
:10bc500000000600800078003004e000feff3a009b
:10bc6000010050000000e90000000600889fbe00af
:10bc70008a9fbe008c9fbe0000017800e1d526009f
:10bc80001100e0000b003a0020d62600f06a8b007d
:10bc9000d06a8b00116b8b00e16a8b002140900011
:10bca0000004a000a0409800614090000004a000a3
:10bcb000e0409800e7004100c208de00c20cdd0051
:10bcc000e46a8300edde2600e03e27000d0550000b
:10bcd00022002000811f7800110009000205d80011
:10bce00000067800cf007800c308dd00e48540003e
:10bcf0008001eb00e6de2600e5d5260001003700d6
:10bd000001027800244090000008a30002003200e5
:10bd10000a003700110a7800940078002140900052
:10bd20000008a300fbff320009014200828f50008f
:10bd300002003900840f5100460031009400780061
:10bd4000848f5000eeff3e00868f500002003900c5
:10bd5000858f5000eaff3900d06a8300800f5200bf
:10bd60004f003a00858f50004d003a008301e800f3
:10bd7000e18f5100e2ff36008c8f54000400360042
:10bd80008a8f5400020031000b0478001200370043
:10bd9000614ab8006151b900b0ff2f0001002000d6
:10bda0000200500083805800800f5200818f5a009b
:10bdb0000200350009047800070037000d805400a8
:10bdc000123f270002004000110009000a80d8003d
:10bdd0000a80b900000478000800780073fa0700b0
:10bde00080017800e10f40002d003200d06a83000e
:10bdf00003087800d26a830064004100a2409000ea
:10be0000808f5100020032000104a00001003700c1
:10be10000104a10021419800088041006400500005
:10be200080097800d06a8b00e2d5260002087800ed
:10be3000d16a8300214090000004a000a040980037
:10be4000234090000004a100a04198000202780065
:10be5000a7ff3700e26a8b00828f5000090036008e
:10be60009200780080d52600a24190000348780017
:10be7000b16a8b00140978008040eb00e06a83000f
:10be800021409800e06a8300000a78002440900076
:10be90000004a00020429800640042000100370026
:10bea0000000eb004f06be004f05be004f04be0071
:10beb0000000060064005000e06a8b00a040900083
:10bec0000104a1002140980000000600889fbe00e8
:10bed0008a9fbe0000057800e401500013001000a6
:10bee000c285de00234090000008a3000400320059
:10bef000e36a8b00234090000004a100a041980059
:10bf00000100780059ff0700000478000000e000fd
:10bf1000170032008a0f50001500320060b89700f9
:10bf200008005000c284de00898f550001003600f1
:10bf3000890578004259dd008a0078000800780001
:10bf4000c9fe07008a0f5400090031004248dd0095
:10bf5000000044008a0f5000050036000a0050001f
:10bf600000004400b26a8300c36a83000288be00f6
:10bf7000080078004f05be004f04be000000060018
:10bf8000810178000002eb000b003700e4407800ec
:10bf90000104e000030032000402e80093cf5000e7
:10bfa000040032008180fb001380fb000080500001
:10bfb000000006008301e800820f5200f3ff3a0000
:10bfc00000000500889fbe000004be000600370088
:10bfd0000804e8000000fb00890078009c050700c9
:10bfe000e10f400004003200184078000004e00037
:10bff000f7ff3a000000eb004f04be00000006000f
:10c00000881f7800e1c62600eeff070000047800d4
:10c01000e1c62600a00020008d050700080078007a
:10c020004f047800000006008001780000017800cd
:10c0300031407800005978000004e000fcff3a002d
:10c0400003007800000006008001780000017800fd
:10c05000010037000201e8001204e000fdff3a0091
:10c0600031407800005978000004e000fcff3a00fd
:10c070000300780000000600e1c6260074053700c2
:10c080000000fa004fb99700e8815700b705070094
:10c090000080fa00000006000101780080007800ae
:10c0a000e0c6260074063700fe874700889fbe0062
:10c0b0008a9fbe008c9fbe008e1f7800f0b79f0045
:10c0c0000107780082bf9f000000eb00a0b79f002f
:10c0d0009f0237008006eb0050c2b30080cf5000b3
:10c0e000090032000100fb00ffb09700580507006f
:10c0f000e10f400096023200afb097008100e800e7
:10c10000a1b79f00920237009e407800d0c2b300d2
:10c1100080cf50000c00320007003c006d40500002
:10c1200080cf50000a0032006b40400080cf5000aa
:10c130000e003a000800370000c3b30080cf500063
:10c140000a003a00060037000d30a0000500370055
:10c150000d00a000030037000d10a0000100370003
:10c160000d20a0000e07e800e7ff37000d18a30020
:10c17000010032000d00a1000d38a30001003200c3
:10c180000d20a1000100fb0002fd2f000200400075
:10c19000e90f50000e003e000002eb00c4b79f0004
:10c1a00082017800cfb297006a28b9001e01fb0017
:10c1b0000001410003014100c2b79f005e00fb0087
:10c1c00003004000e90f50000b003e00f5ff370070
:10c1d0000006eb00ccb79f00a0c2b30080cf500098
:10c1e00005003a000fb89700c000780080bf9f009c
:10c1f000c1b79f000e07e8000001eb00b2b79f0037
:10c20000e0c2b3009e4f100018003a000de0a000fd
:10c210008e00e80064405000914f10000200320090
:10c22000010778000c0037000fba9700c4027800ad
:10c2300084bf9f00b5b79f000e87e8000b00370052
:10c240003fb697006a60b90000004100030040005b
:10c25000b0b79f000e07e8001e01fb0003fd2f0092
:10c2600003004100e90f5000f5ff3600be407800a2
:10c27000e1d79f00c0c6b30080cf5000220032003b
:10c280000f003c006940500080cf50007700320022
:10c2900004003c000104e000310232006b40500019
:10c2a0000f00370040c6b30080cf5000930032002b
:10c2b0006540400080cf50008b003a008f0037006f
:10c2c00030c7b30080cf50001a00320007003c0096
:10c2d0006440500080cf5000110032000040e80060
:10c2e00080cf500080003a000f00370050c7b300e5
:10c2f00080cf5000800032006340400080cf50006b
:10c3000079003a0009003700000028000d48a3001a
:10c3100001003a000001200080867600d3ff37003c
:10c320000d60a000750037000d50a0000d70a0003a
:10c33000720037008fb897004100780081bf9f00de
:10c34000000478000000e00001003a0028be26004a
:10c350008004eb00010037008104e80089007800c8
:10c36000088044001004e000fbff3a003fb1970052
:10c370000200e00003003200890f5100010031008b
:10c38000820478000002eb00e4af9f00cfb2970078
:10c39000898f52000200360009805200e0af9f00f2
:10c3a0004368de00e10660001b003a000d067800dd
:10c3b00009003700ffb0970000022000a404070026
:10c3c000e10f4000030032002fb097000000e800aa
:10c3d000a0b79f000c06e800efa89700810f560059
:10c3e000f4ff3a000081eb00e2af9f000a00370043
:10c3f000880078003100fb0001047800ffb097004e
:10c4000093040700e10f4000030032002fb29700b1
:10c410000402e800a4b79f000900e9008004780046
:10c42000e10f4000f2ff3a000006eb000d00e000d3
:10c430000a003a00c6013700ffb097000002200052
:10c4400083040700e10f400003003200afb2970001
:10c450008502e800a5b79f000c06e8006fa89700ca
:10c46000800f5600f4ff3a00b90137008fb89700eb
:10c470004100780081bf9f00cf80de00010178007d
:10c48000820178000205be000004be000203be0067
:10c490000002be004822de00482edd0004027600c5
:10c4a000e4d79f000d48a3000a0032000404e00016
:10c4b00008003200e14f42000600320071fd2f00fb
:10c4c00001804700044878001840980029002000a7
:10c4d00002003700f0d79f001900200072fd2f00e6
:10c4e00002844700a1ff370064fd2f000484470049
:10c4f000190020009dff37000d0cb3000d007800df
:10c50000000cb20028003a000d00e00005003d00dc
:10c510008fba97004505be004504be0085bf9f0049
:10c52000140037000d48a3000b0032000fbe970027
:10c530004c00be008cbf9f004f89de00cf91de0013
:10c540000002be0002037800820378000605be00e8
:10c550000404be00070037008fb897004100780040
:10c5600081bf9f0000047800cfc4de000905780079
:10c570008a057800e00f5400e08f5c00e00f5d005a
:10c58000e08f5d001f003d003d00b3006000b8007b
:10c590006011b80008045000898458000a05590049
:10c5a0008b855900170037000d00e00005003d00a5
:10c5b0000fb997004205be004204be0082bf9f0033
:10c5c000100037000d48a300070032000fba970093
:10c5d0004400be0084bf9f006011b8000205be0089
:10c5e0000004be00070037008fba970045007800ae
:10c5f00085bf9f0000047800090020000a00200089
:10c600000b0020003fb697000c00e00007003a0046
:10c61000e00f5400e08f5c00e00f5d00e08f5d00f4
:10c6200002003a0010002000b0b79f008d00780093
:10c63000010cb200e1b79f0000042000808f500081
:10c640003000320003003c000100e000080032002e
:10c6500040003700000820006fb19700800f5100a4
:10c6600014003200000c2000800f510039003a0005
:10c6700014c0b300456626000b0037000400fb0021
:10c680004300dd00050040005001be004000be0038
:10c690000040e10001c8e10002d0e10003d8e10060
:10c6a0002b0039000442e800f44f5200f3ff3a0037
:10c6b0002700370000012000010020006011b800b1
:10c6c00014c0b3000040e10001c8e10002d0e10065
:10c6d00003d8e1001e003900450020000000d00012
:10c6e0008180d2000281d2008381d2008502e900dc
:10c6f000faff3a000442e800f04f5200f1ff3a001e
:10c700001300370080002000010020006011b800f5
:10c7100014c0b3000040e10001c8e10002d0e10014
:10c7200003d8e1000a0039003c0020000000d000de
:10c730008180d2000281d2008381d2000c06e90000
:10c74000faff3a000442e800f54f5200f1ff3a00c8
:10c75000e4d79f00efd097000100fb003fb19700a6
:10c76000820f500002003d00e2d79f000400370016
:10c770003fb29700800f520001003d00b0b79f000c
:10c78000cfb297000500e00004003200638066002d
:10c79000020032008502e900c5b79f000de8a30042
:10c7a0000b0032004fb697003fb09700800f560045
:10c7b00003003c008000eb00c1b79f00040037007d
:10c7c0004fb197003fb2970004015100c2b79f00dc
:10c7d000efd297000500fb000006eb00dcaf9f00e6
:10c7e000cfb09700808f50000200340000805000ce
:10c7f000d0af9f000d28a30037003200e180660013
:10c800000d18a3000c003200d00220000100e0004f
:10c8100001003a000080e900ffb097008c03070098
:10c82000e10f40000e0032002fb197000201e80036
:10c83000a2b79f000a0037000100e00008003200a4
:10c84000ffb097000002200081030700e10f4000c5
:10c85000030032002fb297000402e800a4b79f0043
:10c86000dfaa97000500e0000f0032000006eb0091
:10c87000ffb097000003200075030700e10f4000a0
:10c88000030032002fb097000000e800a0b79f001f
:10c890000c06e800dfa89700810f5600f4ff3a006d
:10c8a0000001eb00d2af9f003fb29700c320dd0034
:10c8b000c06526008080400091b79f004220dd00c7
:10c8c0006400500080b79f006320b900f0af9f0064
:10c8d0006306500084003700dfaa97000500e000df
:10c8e00011003200688066000f003a0000067800f0
:10c8f000ffb097000002200055030700e10f400041
:10c90000030032002fb097000000e800a0b79f009e
:10c910000c06e800dfa89700810f5600f4ff3a00ec
:10c920000001eb00d2af9f00e18066000d18a3006c
:10c930000c003200d00220000100e00001003a00ab
:10c940000080e900ffb0970041030700e10f4000bd
:10c95000d5ff32002fb297000402e800a4b79f0071
:10c96000d1ff37000100e000cfff3200ffb0970099
:10c970000002200036030700e10f4000caff32002a
:10c98000afb297008502e800a5b79f00c6ff370049
:10c9900000042000efb09700808f5000310032007b
:10c9a00003003c000100e000080032003e003700b8
:10c9b000000820006fb19700800f51001100320075
:10c9c000000c2000800f510037003a001fb0970084
:10c9d0003002be002003be000800be000a01be00f7
:10c9e00058f80700a4002000050020006033b800bc
:10c9f0005bf8070004c3b30004424000e4d79f0083
:10ca00002900370095be2600d5b79f000d58a3001a
:10ca100002003a00a0bf2600d0b79f0014002000fb
:10ca2000050020006033b8008fb097008100e90056
:10ca3000050033000402d0008582d2000683d200b4
:10ca40008783d200f9ff37000800be000a01be004c
:10ca50003cf807006f0060005fb19700624078000b
:10ca60001000370014002000050020006033b800db
:10ca70000c0078000000e900050033000402d0003b
:10ca80008582d2000683d2008783d200f9ff370067
:10ca90000800be000a01be002af8070067406000d7
:10caa0000043b000e0d79f00efd097000100fb00eb
:10cab000ffb09700e6020700e10f400003003200dc
:10cac0002fb197000201e800a2b79f001fb29700a4
:10cad0006802520094b79f008fb29700e482520020
:10cae00085b79f0063065600d0ff2f003fb1970027
:10caf0000090b9007faa9700000042006300500038
:10cb0000800f5600a2ff3a000d38a300100032003b
:10cb1000dfaa97000500e0000d0034000006eb00de
:10cb2000ffb0970000022000c9020700e10f40009b
:10cb3000030032002fb097000000e800a0b79f006c
:10cb40000c06e800dfa89700810f5600f4ff3a00ba
:10cb5000be407800e1d79f000104e0005dfd3a008f
:10cb60002fb097004f0778004f06be004f05be005c
:10cb70004f04be00ef01b10000000600fe87470031
:10cb8000889fbe008a9fbe008c9fbe008e1f7800cb
:10cb9000f0b79f000107780082bf9f000000eb0004
:10cba000a0b79f009f0237008006eb0050c2b30081
:10cbb00080cf5000090032000100fb00ffb0970059
:10cbc000a3020700e10f400096023200afb09700c9
:10cbd0008100e800a1b79f00920237009e407800d4
:10cbe000d0c2b30080cf50000c00320007003c00e0
:10cbf0006d40500080cf50000a0032006b40400072
:10cc000080cf50000e003a000800370000c3b30088
:10cc100080cf50000a003a00060037000d30a00017
:10cc2000050037000d00a000030037000d10a00024
:10cc3000010037000d20a0000e07e800e7ff3700d5
:10cc40000d18a300010032000d00a1000d38a30053
:10cc5000010032000d20a1000100fb0002fd2f00a9
:10cc600002004000e90f50000e003e000002eb0001
:10cc7000c4b79f0082017800cfb297006a28b9003c
:10cc80001e01fb000001410003014100c2b79f00eb
:10cc90005e00fb0003004000e90f50000b003e0067
:10cca000f5ff37000006eb00ccb79f00a0c2b30031
:10ccb00080cf500005003a000fb89700c000780000
:10ccc00080bf9f00c1b79f000e07e8000001eb0086
:10ccd000b2b79f00e0c2b3009e4f100018003a00a8
:10cce0000de0a0008e00e80064405000914f10005d
:10ccf00002003200010778000c0037000fba9700dd
:10cd0000c402780084bf9f00b5b79f000e87e8007b
:10cd10000b0037003fb697006a60b9000000410081
:10cd200003004000b0b79f000e07e8001e01fb00a3
:10cd300003fd2f0003004100e90f5000f5ff36000e
:10cd4000be407800e1d79f00c0c6b30080cf50003e
:10cd5000220032000f003c006940500080cf50009c
:10cd60007700320004003c000104e0003102320090
:10cd70006b4050000f00370040c6b30080cf50001a
:10cd8000930032006540400080cf50008b003a0095
:10cd90008f00370030c7b30080cf50001a00320038
:10cda00007003c006440500080cf5000110032006a
:10cdb0000040e80080cf500080003a000f003700ac
:10cdc00050c7b30080cf5000800032006340400065
:10cdd00080cf500079003a00090037000000280099
:10cde0000d48a30001003a00000120008086760073
:10cdf000d3ff37000d60a000750037000d50a00074
:10ce00000d70a000720037008fb8970041007800c5
:10ce100081bf9f00000478000000e00001003a009c
:10ce2000c8c026008004eb00010037008104e80040
:10ce300089007800088044001004e000fbff3a00fd
:10ce40003fb197000200e00003003200890f51005b
:10ce500001003100820478000002eb00e4af9f0083
:10ce6000cfb29700898f520002003600098052002d
:10ce7000e0af9f004368de00e10660001b003a005f
:10ce80000d06780009003700ffb09700000220006f
:10ce9000ef010700e10f4000030032002fb09700c0
:10cea0000000e800a0b79f000c06e800efa897007c
:10ceb000810f5600f4ff3a000081eb00e2af9f00c3
:10cec0000a003700880078003100fb000104780078
:10ced000ffb09700de010700e10f400003003200c1
:10cee0002fb297000402e800a4b79f000900e900f0
:10cef00080047800e10f4000f2ff3a000006eb00ea
:10cf00000d00e0000a003a00c6013700ffb09700ac
:10cf100000022000ce010700e10f400003003200b4
:10cf2000afb297008502e800a5b79f000c06e800a5
:10cf30006fa89700800f5600f4ff3a00b901370040
:10cf40008fb897004100780081bf9f00cf80de003e
:10cf500001017800820178000205be000004be00d5
:10cf60000203be000002be004822de00482edd00a3
:10cf700004027600e4d79f000d48a3000a003200a7
:10cf80000404e00008003200e14f420006003200d5
:10cf900071fd2f0001804700044878001840980078
:10cfa0002900200002003700f0d79f001900200060
:10cfb00072fd2f0002844700a1ff370064fd2f009f
:10cfc00004844700190020009dff37000d0cb300ba
:10cfd0000d007800000cb20028003a000d00e000bf
:10cfe00005003d008fba97004505be004504be0010
:10cff00085bf9f00140037000d48a3000b003200ce
:10d000000fbe97004c00be008cbf9f004f89de0012
:10d01000cf91de000002be00020378008203780098
:10d020000605be000404be00070037008fb8970055
:10d030004100780081bf9f0000047800cfc4de006b
:10d04000090578008a057800e00f5400e08f5c0045
:10d05000e00f5d00e08f5d001f003d003d00b3006c
:10d060006000b8006011b8000804500089845800be
:10d070000a0559008b855900170037000d00e000a4
:10d0800005003d000fb997004205be004204be00f6
:10d0900082bf9f00100037000d48a3000700320038
:10d0a0000fba97004400be0084bf9f006011b80013
:10d0b0000205be000004be00070037008fba9700cb
:10d0c0004500780085bf9f0000047800090020001b
:10d0d0000a0020000b0020003fb697000c00e00083
:10d0e00007003a00e00f5400e08f5c00e00f5d00a5
:10d0f000e08f5d0002003a0010002000b0b79f00f2
:10d100008d007800010cb200e1b79f000004200000
:10d11000808f50003000320003003c000100e0002e
:10d120000800320040003700000820006fb197006f
:10d13000800f510014003200000c2000800f5100bd
:10d1400039003a0014c0b300457026000b003700c8
:10d150000400fb004300dd00050040005001be005c
:10d160004000be000040e10001c8e10002d0e10043
:10d1700003d8e1002b0039000442e800f44f5200cc
:10d18000f3ff3a00270037000001200001002000d3
:10d190006011b80014c0b3000040e10001c8e10014
:10d1a00002d0e10003d8e1001e0039004500200054
:10d1b0000000d0008180d2000281d2008381d200a1
:10d1c0008502e900faff3a000442e800f04f5200fd
:10d1d000f1ff3a001300370080002000010020001a
:10d1e0006011b80014c0b3000040e10001c8e100c4
:10d1f00002d0e10003d8e1000a0039003c00200021
:10d200000000d0008180d2000281d2008381d20050
:10d210000c06e900faff3a000442e800f54f52001c
:10d22000f1ff3a00e4d79f00efd097000100fb0028
:10d230003fb19700820f500002003d00e2d79f00ef
:10d24000040037003fb29700800f520001003d00fc
:10d25000b0b79f00cfb297000500e0000400320095
:10d2600063806600020032008502e900c5b79f00b6
:10d270000de8a3000b0032004fb697003fb09700b7
:10d28000800f560003003c008000eb00c1b79f00f8
:10d29000040037004fb197003fb2970004015100de
:10d2a000c2b79f00efd297000500fb000006eb001d
:10d2b000dcaf9f00cfb09700808f50000200340099
:10d2c00000805000d0af9f000d28a300370032002f
:10d2d000e18066000d18a3000c003200d00220008f
:10d2e0000100e00001003a000080e900ffb0970073
:10d2f000d7000700e10f40000e0032002fb1970069
:10d300000201e800a2b79f000a0037000100e00018
:10d3100008003200ffb0970000022000cc00070098
:10d32000e10f4000030032002fb297000402e80032
:10d33000a4b79f00dfaa97000500e0000f003200ad
:10d340000006eb00ffb0970000032000c0000700bc
:10d35000e10f4000030032002fb097000000e8000a
:10d36000a0b79f000c06e800dfa89700810f5600c9
:10d37000f4ff3a000001eb00d2af9f003fb29700ec
:10d38000c320dd00c06f26008080400091b79f0061
:10d390004220dd006400500080b79f006320b90088
:10d3a000f0af9f006306500084003700dfaa9700ab
:10d3b0000500e00011003200688066000f003a00ae
:10d3c00000067800ffb0970000022000a0000700d0
:10d3d000e10f4000030032002fb097000000e8008a
:10d3e000a0b79f000c06e800dfa89700810f560049
:10d3f000f4ff3a000001eb00d2af9f00e18066002d
:10d400000d18a3000c003200d00220000100e00043
:10d4100001003a000080e900ffb097008c0007008f
:10d42000e10f4000d5ff32002fb297000402e80060
:10d43000a4b79f00d1ff37000100e000cfff32000a
:10d44000ffb097000002200081000700e10f4000bc
:10d45000caff3200afb297008502e800a5b79f006f
:10d46000c6ff370000042000efb09700808f500007
:10d470003100320003003c000100e00008003200ef
:10d480003e003700000820006fb19700800f510068
:10d4900011003200000c2000800f510037003a00cc
:10d4a0001fb097003002be002003be000800be007f
:10d4b0000a01be00a3f50700a4002000050020001b
:10d4c0006033b800a6f5070004c3b300044240006f
:10d4d000e4d79f002900370035c12600d5b79f004b
:10d4e0000d58a30002003a0040c22600d0b79f00aa
:10d4f00014002000050020006033b8008fb09700b2
:10d500008100e900050033000402d0008582d200ca
:10d510000683d2008783d200f9ff37000800be00df
:10d520000a01be0087f507006f0060005fb1970039
:10d530006240780010003700140020000500200031
:10d540006033b8000c0078000000e90005003300eb
:10d550000402d0008582d2000683d2008783d200e5
:10d56000f9ff37000800be000a01be0075f507008c
:10d57000674060000043b000e0d79f00efd0970005
:10d580000100fb00ffb0970031000700e10f4000f1
:10d59000030032002fb197000201e800a2b79f00fc
:10d5a0001fb297006802520094b79f008fb2970095
:10d5b000e482520085b79f0063065600d0ff2f001b
:10d5c0003fb197000090b9007faa97000000420089
:10d5d00063005000800f5600a2ff3a000d38a300f0
:10d5e00010003200dfaa97000500e0000d003400b3
:10d5f0000006eb00ffb097000002200014000700b7
:10d60000e10f4000030032002fb097000000e80057
:10d61000a0b79f000c06e800dfa89700810f560016
:10d62000f4ff3a00be407800e1d79f000104e0001b
:10d630005dfd3a002fb097004f0778004f06be00ff
:10d640004f05be004f04be00ef01b1000000060010
:10d65000889fbe000001780001047800b1009000ae
:10d660000118a3003d0032000198a30003003a0016
:10d67000180090000000e00038003a000190a0007f
:10d680003104980082047800f90fb200180090006d
:10d690000000e00002003a0028009000000c780032
:10d6a000ea8f540006003a00380090000078a3008a
:10d6b00003003a0088007800d0002000e4ff070053
:10d6c0009800900058009000808f50000b003200ae
:10d6d0000100e8001004980018007800095878004c
:10d6e000000c780011c0b30060dc2600014878000f
:10d6f000ea8f5400060032001900370088007800d5
:10d7000009407800ca080700800478001400370038
:10d71000380090000088a30011003200180190002a
:10d72000a80090004800900036f407009800900090
:10d73000810f500004003200380090000003b30055
:10d74000300498008084eb000000eb001004980087
:10d7500028009000000c7800010037008084eb0066
:10d76000090078004f04be00000006000c00fa001b
:10d77000881f780000027800820278000301780098
:10d780008001eb00e18f50000e0036000100e9003f
:10d79000e0bf9f000004eb00a8bf9f0094bf9f0064
:10d7a000b4bf9f00200c2000c0bf9f008500780000
:10d7b0006e805700f1fc0700800178001fb89700c9
:10d7c00008487800030078004f0478000080fa00d1
:10d7d00000000600889fbe008a9fbe00804078003f
:10d7e000d0c6b30080cf5000290036000185fb0071
:10d7f00042062000110009000285d80000017800cf
:10d80000010478004311dd006bff25000b0141008e
:10d810006022b8000600200007fe23000288900066
:10d8200092889000b28990002289900056f50700f6
:10d83000a9002000809fbe00110009000984d800c3
:10d84000000478004f00be004344dd000b04440098
:10d8500048229000d822900068239000f82390007e
:10d8600049f50700801f78000102780011000900c7
:10d870000985d8000102fd004f0078004322dd0039
:10d880000b0242005403be004402be001f003700da
:10d890000180fb0069ff2500eacf5000140036002c
:10d8a000a2002000110009000280d80000017800c9
:10d8b000010478004311dd00090141006022b80035
:10d8c0000600200007fe230042209000d220900096
:10d8d000f2219000622190002bf507004344dd0007
:10d8e000090444003802be002803be0007003700c8
:10d8f0004300dd00090040006022b800060020005f
:10d9000007fe23005001be004000be001ef50700c8
:10d910004f05be004f04be0000000600889fbe00f9
:10d920008a1f7800804078000004e00021003d005c
:10d930008040ea00d0c6b30080cf50000900340018
:10d940008104fb0042062000110009008204d80077
:10d9500000017800010078004311dd006aff250016
:10d960001f0037000100fb0063ff2500390037006e
:10d97000a2002000110009000200d8000001780078
:10d98000010078004311dd00030141004300dd0088
:10d99000030040003002be002003be004220900081
:10d9a000d2209000f221900062219000f6f407004e
:10d9b0002e003700d0c6b30080cf500023003400c3
:10d9c0008104fb0042062000110009008204d800f7
:10d9d00000017800010078004311dd006a0a26008a
:10d9e0000a014100a8002000110009000800d80029
:10d9f0004300dd000a00400040229000d022900049
:10da000060239000f023900002889000928890009c
:10da1000b289900022899000dbf40700801f780013
:10da200001027800110009008804d8000102fd00fd
:10da30004f0078000402fb004322dd000a0242008e
:10da40005403be004402be00d8ff37000100fb00b3
:10da5000630a2600eacf5000c5ff3c004300dd000a
:10da6000030040005001be004000be004f0578009a
:10da70004f04be0000000600ef04b000889fbe0007
:10da80008a9fbe008c9fbe008e1f78006022b80067
:10da90006033b800e4a79f00f5a79f0086af9f0002
:10daa00097af9f00a0af9f00b1af9f00c2af9f0094
:10dab0008002eb00a5a79f00d00737008001eb0094
:10dac00050c2b30080cf5000090032000100fb00bb
:10dad000afa89700defe0700e10f4000c707320045
:10dae0002fa397000603e800a6a79f00c3073700ef
:10daf000bfab970097407800b0c2b30080cf500012
:10db00001900320007003c006b40500080cf5000ed
:10db1000100032006340400080cf500021003a00e6
:10db200016003700d0c2b30080cf5000040032008e
:10db30006340400080cf50001a003a0014003700c4
:10db40000330a0003fac97000804e800b8af9f0086
:10db5000e7ff37000300a000bfac97008904e8008e
:10db6000b9af9f00e2ff37000310a0003fad970060
:10db70000a05e800baaf9f00ddff370003b0a00040
:10db8000bfad97008b05e800bbaf9f00d8ff370003
:10db90000320a0003fa897000000e800b0af9f005e
:10dba000d3ff37000318a300010032000300a100d7
:10dbb0000338a300010032000320a1000100fb0094
:10dbc00002fd2f0002004000e90f500010003e004f
:10dbd0008000eb00e1979f00020278006f919700b0
:10dbe0006a10b900bfaa97001501fb0000014100af
:10dbf00004014100e2979f005500fb00b5af9f0074
:10dc000004004000e90f50000d003e00f3ff370014
:10dc10000003eb00e6979f00a0c2b30080cf500046
:10dc200007003a00cfab970047047800c7af9f00ca
:10dc3000e8979f00bfac97008904e800b9af9f0048
:10dc4000e0c2b3003fad97009a4f100021003a00a8
:10dc5000830678000de0a0008a00e80064405000d0
:10dc6000914f100004003200b1af9f008005eb001f
:10dc7000bba79f00100037004fa89700c000780096
:10dc8000c0af9f00b1a79f003fa997000281e800a5
:10dc9000b2af9f00130037003fa297006a20b9007f
:10dca0000000410003004000b0a79f00bfaa9700fa
:10dcb0008502e800b5af9f003fab97001601fb005f
:10dcc00003fd2f0003004100e90f5000f2ff360072
:10dcd00004003700830678000dc0a0008003eb002d
:10dce000b7a79f003fac9700b8407800b8af9f003f
:10dcf000e1679f0070c6b30080cf50003c00320047
:10dd000017003c006440500080cf50008f0032006c
:10dd10000e003c007c40500080cf500033003200a9
:10dd200006003c000104e0003a07320000c0e900b0
:10dd300080cf5000aa003a002900370080c5b30008
:10dd400080cf5000a6003a002d00370050c6b30027
:10dd500080cf5000230032001f003c00a700370096
:10dd600000c7b30080cf5000250032000a003c00fd
:10dd70006440500080cf50001100320063404000ea
:10dd800080cf50001c0032006640500080cf500011
:10dd900093003a009900370050c7b30080cf50007d
:10dda000950032006340400080cf500015003200e3
:10ddb0006540500080cf500089003a0013003700c2
:10ddc000000028000d48a30001003a0000012000d7
:10ddd00080867600c3ff37000da0a00087003700c3
:10dde0000d50a0000d80a000840037000d50a00051
:10ddf0000d90a000810037000d60a0007f0037006b
:10de00000d50a0000d70a0007c003700cfac970033
:10de100049007800c9af9f00e0a79f000000e00024
:10de200002003a006bc32600eba79f000000eb0046
:10de3000f0a79f00020037008100e800f1a79f00d3
:10de4000ffa097006fa19700028040001004e0003f
:10de5000f9ff3a00bfa197000300e0000400320080
:10de60007fa29700848f510001003100f3a79f002b
:10de70007fa097000005eb006f939700800f530081
:10de800001003600000553004368de00e104600035
:10de900019003a000904780009003700afa897007c
:10dea00000022000eafd0700e10f400003003200fd
:10deb000afa397008703e800a7a79f000804e80026
:10dec0008a0f5400f5ff3a000085eb000a00370086
:10ded000efa097003100fb00e1a79f00afa89700db
:10dee000dbfd0700e10f4000030032002fa4970084
:10def0000804e800a8a79f00ffa597000b00e90011
:10df0000f0a79f00e10f4000f1ff3a000004eb0092
:10df10000900e0000a003a00b8063700afa89700f1
:10df200000022000cafd0700e10f4000030032009c
:10df30002fa197000201e800a2a79f000804e800b3
:10df40008a0f5400f5ff3a00ac063700cfa99700be
:10df500043007800c3af9f00cf80de00010178004e
:10df6000820178000203be000002be00e0a79f000d
:10df7000f1a79f0082af9f0093af9f004822de0071
:10df8000482cdd0004027400e4679f000d48a300e4
:10df90000c0032000404e0000a003200e14f4200ad
:10dfa0000800320079fa2f00098047000448780001
:10dfb0004fcd97001a4098002b002000fba79f0030
:10dfc00003003700f0679f0010002000f0a79f00bb
:10dfd00071fa2f0081804700e1a79f009dff370065
:10dfe00062fa2f000f014100e2a79f0013002000fa
:10dff000f3a79f0097ff37000d0cb30000702000bf
:10e0000000826600820432000dc8a30002003200c4
:10e0100064002000b4a79f000d48a300090032004f
:10e020004fa897004005be004004be00c0af9f004f
:10e03000e89f9f00f99f9f008aa79f009ba79f00d2
:10e04000080037004fa997004200be00c2af9f00f2
:10e05000c2f30700e09f9f00f19f9f0082a79f00ef
:10e0600093a79f006022b8006033b8006f989700b4
:10e07000ff9897000fa197009fa19700d6f3070084
:10e080000000e0000a003d006f9a9700ff9a970099
:10e090000fa397009fa3970007f0a200e49f9f00a3
:10e0a000f59f9f0086a79f0097a79f003d00b300a4
:10e0b0000000eb00d0979f006022b8006033b800ea
:10e0c0006f989700ff9897000fa197009fa1970066
:10e0d000c6f307000000e000340032006f9897009c
:10e0e000ff9897000fa197009fa19700c4f3070026
:10e0f000a5fa2f0005814700ecf307005f90970019
:10e100000000e9006300b900a2002000110009002e
:10e110000200d8008000fd00d1979f000100e000c0
:10e1200002003d000100e900d0979f005f94970036
:10e130000840ea00f9fd07006f9a9700ff9a9700e0
:10e140000fa397009fa397000ff30700a09f9f00c6
:10e15000b19f9f00c29f9f00d39f9f006022b80085
:10e160000600200007ff23009bf307000000e000eb
:10e1700002003d000800e9000b0037006022b800f3
:10e1800006002000470224002f989700bf989700b0
:10e190004f999700df999700c7f307000000e00050
:10e1a000020035000800e800d0979f005f939700b9
:10e1b000d6a79f000600e00003003c0010c0b3009b
:10e1c000e0679f0002003700afcb9700e7679f0032
:10e1d0000d0678000c10b20008003a000d98a3005c
:10e1e000770232005fa49700e40f4400030035007b
:10e1f000bfa49700890f5400f20135003fa5970096
:10e200000a00e000040032000d98a3000200320072
:10e210000a05e900baa79f00bfa5970020c1b30077
:10e22000f28f550001003e006fc09700e0679f002d
:10e230006022b8006033b8006f989700ff9897008d
:10e240000fa197009fa1970068f307000000e0006e
:10e250006d0032006f659700afc897000ac050008c
:10e26000aefd07000002be000203be006f989700db
:10e27000ff9897000fa197009fa1970093f30700c5
:10e28000e09f9f00f19f9f0082a79f0093a79f00a0
:10e29000e8f307000004be000cf40700e00f540090
:10e2a000e08f5c0004003d006022b8000600200002
:10e2b000071f240008f407000002be000203be008e
:10e2c0006f989700ff9897000fa197009fa1970064
:10e2d0007ef407006022b8000600200007fe23003d
:10e2e00075f307000000e0000c0035006022b80064
:10e2f0000600200007fe23006f989700ff98970004
:10e300000fa197009fa19700f3f30700e09f9f00e4
:10e31000f19f9f0082a79f0093a79f006f9897008f
:10e32000ff9897000fa197009fa19700c1f30700e6
:10e330000002be006033b8000a00fb004304dd00a9
:10e34000497a260009004400d00090006001900046
:10e35000f0019000400090000020e10001a8e100e1
:10e3600002b0e10003b8e100100039000400200011
:10e3700005002a009699290097fb23006f989700c3
:10e38000ff9897000fa197009fa197007ef20700ca
:10e39000e09f9f00f19f9f0082a79f0093a79f008f
:10e3a0005fa197000200e800160037000900440052
:10e3b0005001be004000be000020e10001a8e100c5
:10e3c00002b0e10003b8e1000f0031006022b800a4
:10e3d00006002000470224006f989700ff989700de
:10e3e0000fa197009fa1970067f20700e09f9f0091
:10e3f000f19f9f0082a79f0093a79f00dfa1970036
:10e400000300e900d0979f004968de0061006000ca
:10e4100080cf9f000004e000400032000080200018
:10e42000008666003d003a00bfa29700f48f5200bc
:10e430000200340046012000b6a79f006f989700a5
:10e44000ff9897000fa197009fa1970079f307000d
:10e450000004be000c0578008c0578000b00370026
:10e46000bfa397008703e900b7a79f00a40020007f
:10e47000050020006033b8000800be000a01be009d
:10e48000b0f107000205be000004be00e00f54001a
:10e49000e08f5c00e00f5d00e08f5d000b0032005c
:10e4a000a4002000050020006033b8000800be0072
:10e4b0000a01be00aaf10700e00f5000e08f5800eb
:10e4c000e00f5900e08f5900e5ff3200ef60970040
:10e4d0000100fb003fa49700800f54000f003d0097
:10e4e00008c050000dfd07000002be000203be0080
:10e4f0006f989700ff9897000fa197009fa1970032
:10e50000f2f20700e09f9f00f19f9f0082a79f000b
:10e5100093a79f00efc49700e9679f006f9597004e
:10e52000bfa597000b005500650650000b00e000ea
:10e5300002003a000db8a300010032006606500048
:10e5400063806600010032000c06e9000d28a3007c
:10e5500026003200e18066000d18a3000c00320096
:10e56000d00220000100e00001003a000080e90034
:10e57000afa8970036fc0700e10f400018003200fa
:10e580002fa097000000e800a0a79f00140037000c
:10e590000100e00012003200afa897000002200046
:10e5a0002bfc0700e10f40000d003200afa09700e8
:10e5b0008100e800a1a79f0009003700afa89700dd
:10e5c0000003200022fc0700e10f4000030032009e
:10e5d0002fa197000201e800a2a79f000c06e90006
:10e5e0000c00e000f5ff3c002e0037000d38a300c2
:10e5f0000a0032000b003700afa89700000220008d
:10e6000013fc0700e10f400003003200afa19700a8
:10e610008301e800a3a79f000c06e9000c00e000be
:10e62000f5ff3c00e18066000d18a30013003200e6
:10e63000d00220000100e00001003a000080e90063
:10e64000afa8970002fc0700e10f40001500320060
:10e650002fa297000402e800a4a79f001100370032
:10e66000e8a79f00f9a79f008aaf9f009baf9f007c
:10e670008042eb00e5679f00800037000100e0006a
:10e6800008003200afa8970000022000f0fb07004e
:10e69000e10f4000030032002fa397000603e800bb
:10e6a000a6a79f006f989700ff9897000fa197006b
:10e6b0009fa19700dff207000004be006055b8007c
:10e6c000ef6397000700fb004300dd004e7a260051
:10e6d0000e0040003002be002003be000800be0055
:10e6e0000a01be0017f107000003b000afa89700b1
:10e6f000d7fb0700e10f4000030032002fa0970076
:10e700000000e800a0a79f00ef6097000100fb0059
:10e710004300dd000e0040003002be002003be00ba
:10e720000800be000a01be000df107000205be0090
:10e730000004be00e0a79f00f1a79f0082af9f00ea
:10e7400093af9f00bfa297000500e00002003a00cf
:10e750000db8a30049003200afa89700e0022000e6
:10e76000bbfb0700e10f4000030032002fa397001e
:10e770000603e800a6a79f00ef6397000700fb00d1
:10e78000bfa0970000805000809f9f0024003700aa
:10e790000fc997000204e00005003200e00f5400aa
:10e7a000e08f5c00e00f5d00e08f5d00acff3200a9
:10e7b0000000fb004300dd004e7a26000e00400002
:10e7c0003002be002003be000800be000a01be00e9
:10e7d000dcf007000003b000afa897009cfb070027
:10e7e000e10f400003003200afa197008301e80071
:10e7f000a3a79f006f6297000400fb004300dd00a9
:10e800000e0040003002be002003be000800be0023
:10e810000a01be00d2f007000205be000004be00df
:10e82000ef6297000540e900e0679f00e14f40007c
:10e83000d7ff3a00e8a79f00f9a79f008aaf9f0083
:10e840009baf9f000004eb0009003700afa89700c2
:10e85000000320007efb0700e10f400003003200b0
:10e860002fa397000603e800a6a79f000804e8006e
:10e870008f9b9700870f5400f4ff3a000d58a300b8
:10e8800009003200afa897005004200070fb070079
:10e89000e10f40000c0032002fa497000804e800ac
:10e8a000a8a79f0008003700afa8970050062000d7
:10e8b00067fb0700e10f400003003200afa49700a0
:10e8c0008904e800a9a79f005f9097000000e0007e
:10e8d0000b003d000000ea00d0979f00afa8970012
:10e8e000d00220005afb0700e10f40000c0032006c
:10e8f0002fa597000a05e800aaa79f000800370087
:10e90000afa89700b002200051fb0700e10f4000c4
:10e9100003003200afa597008b05e800aba79f006e
:10e920005f909700a8002000110009000800d8009f
:10e930000003b000afa8970045fb0700e10f4000bf
:10e94000030032002fa097000000e800a0a79f005e
:10e95000df909700110009008800d8008000fd00ba
:10e960000003b000afa8970039fb0700e10f40009b
:10e9700003003200afa097008100e800a1a79f002c
:10e980000d38a3001d0432000c00e0001b0434000d
:10e990000004eb00afa89700000220002cfb07004a
:10e9a000e10f4000030032002fa197000201e800b0
:10e9b000a2a79f000804e8008c0f54000f04320047
:10e9c000f4ff3700dfa197000300e00004003d00e2
:10e9d0003fa29700030052000000e900b0a79f008b
:10e9e0006f989700ff9897000fa197009fa197003d
:10e9f000b8f207000205be000004be000c42780019
:10ea0000457a26000b0037000400fb004300dd00c0
:10ea1000050040005001be004000be000040e10083
:10ea200001c8e10002d0e10003d8e1000300390091
:10ea30000442e800f44f5200f3ff3a00e4679f00fd
:10ea40000400fb00bfa2970000875200f80f570098
:10ea50000d003c000e4078005efb07000002be0087
:10ea60000203be006f989700ff9897000fa19700d0
:10ea70009fa1970018f20700e09f9f00f19f9f0061
:10ea800082a79f0093a79f000e407800a3fb07007a
:10ea9000d0af9f00e1af9f00f2af9f0083b79f0010
:10eaa000e00f5400e08f5c00e00f5d00e08f5d0040
:10eab000040035000800be000a01be00b6f20700df
:10eac0001300370010002000010020006011b80082
:10ead00008006000898060000a0161008b8161008c
:10eae0008b03d1000a83d3008982d3000882d3002c
:10eaf0000000720081807200020173008381730044
:10eb0000a5f207000002be000203be00f2f10700fa
:10eb10000002be000203be006f989700ff989700a6
:10eb20000fa197009fa1970068f207000002be00a6
:10eb30000203be005fa89700efa897007fa9970087
:10eb40008fb1970090f0070062f207000205be0047
:10eb50000004be000006eb0008003700a4002000ff
:10eb6000050020006033b8000800be000a01be00a6
:10eb7000f4ef07000205be000004be000c035700be
:10eb8000b6a79f008e0f56001d0032000c06e8004d
:10eb9000a4002000050020006033b8000800be007b
:10eba0000a01be00eeef0700e00f5000e08f5800b2
:10ebb000e00f5900e08f5900e8ff320010003700e5
:10ebc000bfa39700f88f53000d003c00074078006a
:10ebd00000fb07000002be000203be006f98970012
:10ebe000ff9897000fa197009fa19700baf1070027
:10ebf000e09f9f00f19f9f0082a79f0093a79f0027
:10ec00005fa49700e90f540015003c006022b80093
:10ec10006033b8006f989700ff9897000fa1970096
:10ec20009fa19700f1f007000000e00036003200dd
:10ec30006f989700ff9897000fa197009fa19700ea
:10ec400024f20700e00f5000e08f5800e00f590059
:10ec5000e08f59002c003a00e10f54002a003400e4
:10ec60000400200005002e00b6e022001701240059
:10ec70002f989700bf9897004f999700df999700ba
:10ec8000d5f007000000e00003003d00dfa497007e
:10ec900073805400020037005fa597007200550092
:10eca000d0979f002f6897001cfb0700a09f9f0034
:10ecb000b19f9f00c29f9f00d39f9f000002be0094
:10ecc0000203be006f989700ff9897000fa197006e
:10ecd0009fa19700fdf00700fef10700e0a79f004d
:10ece000f1a79f0082af9f0093af9f006000b80024
:10ecf0006011b800d0b79f00e1b79f00f2b79f0046
:10ed000083bf9f00340037006f989700ff989700eb
:10ed10000fa197009fa19700eef10700e0a79f00c9
:10ed2000f1a79f0082af9f0093af9f00e00f5000bc
:10ed3000e08f5800e00f5900e08f590002003500c5
:10ed400015f2070017003700100020000100200016
:10ed50006011b8006fa29700ffa297000fab970059
:10ed60009fab970004006000858060000601610091
:10ed7000878161008703d1000683d3008582d30099
:10ed80000482d300000072008180720002017300cf
:10ed90008381730000f207000002be000203be0080
:10eda0004df107000002be000203be006f989700fd
:10edb000ff9897000fa197009fa19700c3f107004c
:10edc000d0b79f00e1b79f00f2b79f0083bf9f00bd
:10edd0000000eb00d0979f0014c0b300457a2600d6
:10ede0000f0037000400fb004300dd000503400076
:10edf0003600be002601be006fa49700ffa4970056
:10ee00000fad97009fad97000040e10001c8e10001
:10ee100002d0e10003d8e100030039000442e80019
:10ee2000f44f5200efff3a00e4679f000400fb003c
:10ee3000bfa4970000804400df90970001004000cd
:10ee40006f959700000655004b68de00610060007a
:10ee5000004778000004e00002003a000900e000ea
:10ee6000010032000c06e9006380660001003200f8
:10ee70000c06e9000d28a30026003200e1806600a0
:10ee80000d18a3000c003200d00220000100e000a9
:10ee900001003a000080e900afa89700ecf90700f4
:10eea000e10f400018003200afa597008b05e80085
:10eeb000aba79f00140037000100e00012003200f1
:10eec000afa8970000022000e1f90700e10f400021
:10eed0000d0032002fa097000000e800a0a79f00bf
:10eee00009003700afa8970000032000d8f90700f9
:10eef000e10f400003003200afa097008100e8005e
:10ef0000a1a79f000c06e9000c00e000f5ff3c0003
:10ef10003f0037000d38a3000a0032000b00370015
:10ef2000afa8970000022000c9f90700e10f4000d8
:10ef3000030032002fa197000201e800a2a79f0062
:10ef40000c06e9000c00e000f5ff3c00e1806600e3
:10ef50000d18a3000c003200d00220000100e000d8
:10ef600001003a000080e900afa89700b8f9070057
:10ef7000e10f400026003200afa197008301e800b6
:10ef8000a3a79f00220037000100e000200032000c
:10ef9000afa8970000022000adf90700e10f400084
:10efa0001b0032002fa297000402e800a4a79f00d4
:10efb000170037000000fb004300dd00417a260007
:10efc000010040003002be002003be006fa0970089
:10efd000ffa097000fa997009fa99700d9ee0700ff
:10efe000a4002000050020006033b800dcee07001c
:10eff0000003b000afa8970095f90700e10f4000ab
:10f0000003003200afa297008502e800a5a79f0089
:10f010006f6397000640e900e0679f00e14f400002
:10f02000e4ff3a000b003700afa897000003200070
:10f0300087f90700e10f400003003200afa39700fb
:10f040008703e800a7a79f005f9097000000e900f2
:10f05000d0979f005f9097000000e000f2ff3c0017
:10f060003fa49700f20f54000300340020c1b30006
:10f07000e0679f0002003700efc49700e9679f0038
:10f08000ef6097000100fb003fa5970000005500ce
:10f09000f0979f000104e00002003a000e04e00037
:10f0a00008003200afa89700e002200068f90700ce
:10f0b000e10f400003003200afa597008b05e80088
:10f0c000aba79f006f60970014fa07000002be0014
:10f0d0000203be005fb09700efb097007fb19700ca
:10f0e0008fb9970028ef0700faf007001e003700dd
:10f0f0000000fb004300dd004e7a26000e004000b9
:10f100003002be002003be000800be000a01be009f
:10f110008cee0700a4002000050020006033b8003a
:10f120008fee07000003b000afa8970048f9070072
:10f13000e10f4000030032002fa097000000e8001c
:10f14000a0a79f00ef6097000100fb004300dd00d7
:10f150000e0040003002be002003be000800be00ca
:10f160000a01be007eee07000205be000004be00dc
:10f170006f6197000240e900e0679f00e14f4000a7
:10f18000dbff3a00e8a79f00f9a79f008aaf9f0026
:10f190009baf9f000004eb0009003700afa8970069
:10f1a000000320002af90700e10f400003003200ad
:10f1b000afa197008301e800a3a79f000804e8001f
:10f1c0007f929700840f5400f4ff3a000d38a3009b
:10f1d0000a0232000c00e000080234000004eb00d8
:10f1e000afa897000002200019f90700e10f4000c6
:10f1f00003003200afa297008502e800a5a79f0098
:10f200000804e8008c0f5400fc013200f4ff3700c2
:10f210000d007800000cb20032003a000d00e00052
:10f2200009003d004fa897004005be004004be0005
:10f23000c0af9f00e8a79f00f9a79f008aaf9f007b
:10f240009baf9f00160037000d48a3000900320055
:10f250004fa997004200be00c2af9f004f89de0059
:10f26000cf91de000002be00020378008203780026
:10f2700007003700cfa9970043007800c3af9f0075
:10f2800000027800cfa2de00050378008603780034
:10f29000e4a79f00f5a79f0086af9f0097af9f0050
:10f2a0006fa49700ffa497000fad97009fad970044
:10f2b000e00f5400e08f5c00e00f5d00e08f5d0028
:10f2c00026003d003d00b3006000b8006011b800aa
:10f2d00008045000898458000a0559008b8559009c
:10f2e0001a0037000d00e00005003d004faa97000e
:10f2f0004401be004400be00c4af9f0007003700b9
:10f300000d48a3000a003200cfaa97004500be00b6
:10f31000c5af9f000401780084017800e0a79f003a
:10f32000f1a79f0082af9f0093af9f000b003700b3
:10f330004fab970046007800c6af9f0000047800ee
:10f34000090020000a0020000b002000e8a79f0011
:10f35000f9a79f008aaf9f009baf9f00bfa49700b3
:10f360000900e0000b003a006fa09700ffa0970093
:10f370000fa997009fa99700e00f5000e08f580059
:10f38000e00f5900e08f590002003a001100200000
:10f39000b1a79f000d0678000c0cb20000042000fd
:10f3a000800f56003700320003003c000c00e000e4
:10f3b000070032004b00370000082000800f560085
:10f3c00018003200000c2000800f560045003a0063
:10f3d00014c0b300457a26000f0037000400fb007c
:10f3e0004300dd00050040005001be004000be00ab
:10f3f0006fa49700ffa497000fad97009fad9700f3
:10f400000040e10001c8e10002d0e10003d8e100c2
:10f41000330039000442e800f44f5200efff3a0095
:10f420002f00370000012000010020006011b8000b
:10f4300014c0b3006fa49700ffa497000fad97000e
:10f440009fad97000040e10001c8e10002d0e1005b
:10f4500003d8e10022003900490020000000d0005c
:10f460008180d2000281d2008381d2008904e90028
:10f47000faff3a000442e800f04f5200edff3a0074
:10f480001700370080002000010020006011b80044
:10f4900014c0b3006fa49700ffa497000fad9700ae
:10f4a0009fad97000040e10001c8e10002d0e100fb
:10f4b00003d8e1000a003900390020000000d00024
:10f4c0008180d2000281d2008381d2008904e900c8
:10f4d000faff3a000442e800f54f5200edff3a000f
:10f4e000e4679f006f6597000a00fb00bfa59700c7
:10f4f0008b0f500002003d00eb679f0004003700b7
:10f50000bfa09700808f500001003d00b0a79f0072
:10f510006f9197000200e0000400320063806600f3
:10f52000020032000201e900e2979f000de8a3000b
:10f530000b003200ef9197003fa29700848f51009b
:10f5400003003c008002eb00e5979f0004003700b9
:10f550006f939700bfa3970007035300e6979f00a0
:10f56000408c20000080660001842000810f500044
:10f5700006003a006f9497000800e0001100320086
:10f580000804e900e8979f000e003700008c200077
:10f590000080660001882000810f500009003a00b9
:10f5a000ef949700e28f540003003c000005eb004d
:10f5b000ea979f0003003700ef9597008b85e900dd
:10f5c000eb979f00ef6097000100fb000007eb0046
:10f5d0006f919700800f5100010034000007510027
:10f5e0000d28a3004b003200e18066000d18a30037
:10f5f0000c003200d00220000100e00001003a00bf
:10f600000080e900afa8970011f80700e10f400063
:10f6100027003200afa197008301e800a3a79f0055
:10f62000230037000100e00009003200afa8970076
:10f630000002200006f80700e10f40001c00320025
:10f640002fa297000402e800a4a79f00180037002b
:10f65000008c20000080660001882000810f50008f
:10f6600013003a00afa8970000032000f8f7070046
:10f67000e10f400003003200afa297008502e800ce
:10f68000a5a79f00800520000d58a30001003a00a7
:10f6900080072000afa89700edf70700e10f4000ba
:10f6a000030032002fa397000603e800a6a79f00df
:10f6b0000e00e0000d0032000004eb00afa8970040
:10f6c00000032000e2f70700e10f400003003200d2
:10f6d000afa397008703e800a7a79f000804e800ee
:10f6e0008e0f5400f5ff3a000007eb003fa497008f
:10f6f000c340dd00c0792600808540004240dd0027
:10f70000640550006340b900909f9f00630450005f
:10f71000a20037000e00e0000f0032006880660093
:10f720000d003a0000047800afa897000002200006
:10f73000c7f70700e10f400003003200afa49700b5
:10f740008904e800a9a79f000804e8008e0f540070
:10f75000f5ff3a000007eb00e18066000d18a300fa
:10f760000c003200d00220000100e00001003a004d
:10f770000080e900afa89700b5f70700e10f40004f
:10f780000e0032002fa597000a05e800aaa79f00e7
:10f790000a0037000100e00008003200afa897001f
:10f7a00000022000aaf70700e10f4000030032002a
:10f7b000afa597008b05e800aba79f00008c200049
:10f7c0008080660000842000808f500009003a008d
:10f7d000afa89700000320009df70700e10f40004d
:10f7e000c2ff32002fa097000000e800a0a79f00f2
:10f7f000beff370000882000808f5000bbff3a001a
:10f80000afa897000003200091f70700e10f400028
:10f8100003003200afa097008100e800a1a79f007d
:10f82000800520000d58a30001003a008007200049
:10f83000afa8970086f70700e10f4000abff32004a
:10f840002fa197000201e800a2a79f00a7ff3700a1
:10f8500000042000800f56003100320003003c00fd
:10f860000c00e000070032004000370000082000d4
:10f87000800f560012003200000c2000800f56004e
:10f880003a003a003b02be002b03be006fa0970077
:10f89000ffa097000fa997009fa99700a9ec070068
:10f8a000a4002000050020006033b800acec070085
:10f8b00004c3b30004424000e4679f002b003700fc
:10f8c000d9c326000d58a30001003a00e9c4260060
:10f8d00014002000050020006033b8000a00780002
:10f8e0000000e900050033000402d0008582d20048
:10f8f0000683d2008783d200f9ff37006fa09700fc
:10f90000ffa097000fa997009fa997008dec070013
:10f910006f006000e9447800e9679f00130037003a
:10f9200014002000050020006033b8008800780033
:10f930008100e900050033000402d0008582d20076
:10f940000683d2008783d200f9ff37006fa09700ab
:10f95000ffa097000fa997009fa9970079ec0700d7
:10f96000674060000043b000e0679f006f61970050
:10f970000200fb00afa8970035f70700e10f400039
:10f9800003003200afa197008301e800a3a79f0006
:10f99000e88555006405550063045400d0ff2f002e
:10f9a0003fa2970000a0b9009f9a970000804200f4
:10f9b00063005000800f5400a5ff3a000d38a300eb
:10f9c0000e0032000e00e0000c0034000004eb00da
:10f9d000afa89700000220001df70700e10f4000cc
:10f9e000030032002fa397000603e800a6a79f009c
:10f9f0000804e8008e0f5400f5ff3a00bfab9700f3
:10fa0000b7407800b7af9f00e1679f000104e000b6
:10fa10002af83a002fa097004f0778004f06be0043
:10fa20004f05be004f04be00ef04b1000000060009
:10fa30000200fa00889fbe00a0ff9f00010478002a
:10fa4000b1009000810478000904b2000200320085
:10fa50000000fb00360037000118a30005003a0043
:10fa60000103b30031049800190498000080eb00f2
:10fa70002f003700580090000000e00006003a0018
:10fa80004800900012002000e68057005deb070060
:10fa90001904980024003700280090000000e000be
:10faa00008003a0020dc260020049800000c7800b2
:10fab0002000200050049800100498000130a0009d
:10fac0003104980018019000a800900048009000b0
:10fad0004ceb070028009000000c78000080eb0041
:10fae0001004980018007800aff8970001587800cb
:10faf000000c78002ff89700ea4f50000a003a00f7
:10fb0000380090000088a300070032001801900020
:10fb1000a8009000480090003aeb070019049800f4
:10fb2000a8009000010c7800aff897000100fb00de
:10fb30004f04be000080fa00000006003600f80006
:10fb4000809fbe00829fbe00849fbe00869fbe0035
:10fb5000881f78008ec0a90082c4bf000068a3007f
:10fb60002f00320080c4bf000068a3002c003200c8
:10fb70000004200000248800360202000200000079
:10fb8000000478000000e0000900320014f90200cf
:10fb9000010000000000e000210032006022b800f7
:10fba0000001eb00a1c0b3000040eb000c003700e7
:10fbb00032020200020000000000e0000b003200f0
:10fbc00000f90200010000000000e0001400320013
:10fbd0006022b8000801780091c0b30008407800a6
:10fbe0005e810200010000000d00370090ff8000e0
:10fbf0000000e0000a00320090ff80000000e900f1
:10fc000090ff880090ff80000000e00004003a00b0
:10fc100082c4a90070ff80000000e80070ff880027
:10fc20008cc4bf000068a3001e0032008ac4bf005d
:10fc30000068a3001b0032008cc4a900000420004f
:10fc40005024880071ff800070005000808f5000a9
:10fc500002003a000010200080fe88006022b800f8
:10fc60000001eb0011c0b3000040eb005e81020018
:10fc7000010000006022b8000001eb0031c0b300b9
:10fc80000040eb005e810200010000006022b8002d
:10fc90000001eb0071c0b3000040eb005e81020088
:10fca000010000008cc4bf000008a3001600320051
:10fcb0008ac4bf000008a300130032001000200017
:10fcc000502488008c04a9000004eb0088fe880002
:10fcd0006022b80008017800884078000840780069
:10fce0005e810200010000006022b8000801780077
:10fcf00041c0b300084078005e81020001000000ae
