:020000040000fa
:10a220004f1527000eff27000e01880000000000d8
:10a230000c00070080822900010020000f000700a9
:10a24000000020000000e0000200320000000200d8
:10a2500000000000d0f30200000000000040da001f
:10a260000000fe0060c620000000e0000200320096
:10a27000002020009001880000000600a102880054
:10a28000800078000000eb001a003700e2804000f8
:10a2900054a0b4009101ba00e280400054a0b40080
:10a2a0009102ba00e280400054a0b4000002eb002a
:10a2b000472bde00f507b200a6018800602ce10004
:10a2c00008003a000049eb000201e80002003900f2
:10a2d0003420ec0002f0a0008301e900f9ff3e0009
:10a2e000040037006128e100010032000082eb0029
:10a2f000040007001101ba000200e000e3ff3a0089
:10a300000000060004d0a300e20f49001c00390041
:10a31000810278003549ba000201e80002003900e4
:10a320003420ec0002f0a0008301e9000f003200ad
:10a330002549ba000201e800020039003420ec008f
:10a3400002f0a0008301e900080032000400e000f0
:10a350000600320015c9ba000201e8000200390007
:10a360003420ec0002f0a0008301e9008180e800c5
:10a3700054a0b4000300e000e2ff3a000000060031
:10a380009102ba00055978008301e900f7ff320015
:10a39000c82ade00055978008301e900f3ff320086
:10a3a0000400e000f1ff320011d9ba00eeff3700df
:10a3b000aef30400000000001e5004000100000085
:10a3c000264c040001000000004f040001000000c2
:10a3d0002250040001000000dc4d040001000000d8
:10a3e0002650040001000000064f04000100000098
:10a3f0002a500400010000002e500400010000005b
:10a40000664c04000100000042fb04000000000054
:10a410000c4f040001000000744c04000100000017
:10a42000164d040001000000e64d0400010000008c
:10a43000f04d040001000000f43d040001000000a4
:10a4400032500400010000009a5004000100000096
:10a45000fa4d0400010000001c0704000100000088
:10a4600036500400010000003a49040001000000d9
:10a47000124f040001000000244f040001000000fe
:10a48000184f0400010000001e4f040001000000ee
:10a490009e500400010000009c50040001000000d8
:10a4a00014f8040000000000684b040001000000e4
:10a4b0009c160400010000000e4e04000100000084
:10a4c000824c040001000000044e04000100000062
:10a4d000a250040001000000684e040001000000ca
:10a4e000dc4a040001000000a45004000100000048
:10a4f000a050040001000000be2204000100000082
:10a50000c0420400010000005a37040001000000ae
:10a510001e040400010000002a3c040001000000a9
:10a52000b450040001000000b65004000100000017
:10a53000a6a0040000000000e2b504000000000036
:10a54000c250040001000000c450040001000000db
:10a550009841040001000000825004000100000046
:10a560008650040001000000b8440400010000000f
:10a57000c650040001000000c850040001000000a3
:10a58000ce350400010000000e2a04000100000086
:10a59000d0430400010000009435040001000000d5
:10a5a0006627040001000000f243040001000000df
:10a5b000be27040001000000ca5004000100000092
:10a5c0004248040001000000a20504000100000050
:10a5d000282e040001000000c84c04000100000007
:10a5e000e4410400010000006e1a040001000000b4
:10a5f00002200400010000006ef1040000000000d1
:10a600009a3d0400010000009231040001000000a6
:10a61000902b0400010000005400f800a102880003
:10a620008002780062004000e08048003549ba00ae
:10a630003204e0000410a700100032008301e9009a
:10a640000e0032002549ba003204e0000410a700d1
:10a650000a0032008301e900080032000408a30068
:10a66000eeff320015c9ba003204e0000410a70062
:10a67000020032008301e900e8ff3a005400f900cb
:10a6800000000600020ab900001bb9000200b80071
:10a690008100420081004300000006008000780035
:10a6a0001106b100030035009101b10001003c002a
:10a6b0000050a10000000600800078001104b100e5
:10a6c000030035009101b10001003c000050a000e2
:10a6d00000000600889fbe0080047800805a830036
:10a6e0000000e00003003a00470007000000e0001f
:10a6f0000a003500805a83000900e00002003a0099
:10a7000000047800060037000004780009004000cb
:10a710003d0007000000e00001003d000084eb0068
:10a72000080078004f04be00000006000a00fa008e
:10a7300080017800e20f500028003e00905a83000c
:10a74000e10f500008003200802320000000e000ec
:10a75000050032000423200025232000462320008a
:10a760008001780004003700042220002522200008
:10a770004622200083222000144090000004e000c4
:10a78000040035008009eb00144090000074a00024
:10a7900010429800154090000028a30003003a00e2
:10a7a000154090000024a000904298008001eb002a
:10a7b00007003700154090000008a300fdff32009d
:10a7c00063c078000000fb00000b78008301e80004
:10a7d000828f5100f7ff3a00080037003000200058
:10a7e000b0bf9f00c3bf9f00d1bf9f00e2bf9f00cb
:10a7f0006a80570000c0da006fb997000200780045
:10a800000080fa0000000600800078000000e000f0
:10a8100004003a0040b52600805a8b000101780000
:10a82000060037000081eb0040152700808f5000a4
:10a8300002003e00815a8b000001eb00020078000c
:10a84000000006006022b800060220000000d000d0
:10a850008180d2000482d2008582d2000000a00054
:10a860000202520083825a000300310002024200b9
:10a8700083824a000000a1000603e900f3ff3a00ca
:10a8800000000600881f7800000478005001be0018
:10a890004000be00040040008580480006014900d9
:10a8a00087814900009cbe000294be000400e100c4
:10a8b0000588e1000690e1000798e1000200310000
:10a8c000680044001008e8004f047800000006000b
:10a8d000f4874700889fbe008a9fbe008c9fbe0001
:10a8e0008e1f78000205be000004be00d4b79f0092
:10a8f000e5b79f00f6b79f0087bf9f000000eb0001
:10a90000c0b79f00b0b79f00a0b79f0090b79f004f
:10a9100080b79f000d042000bfb097004fb0970094
:10a92000000140000000e0000f003d004f08de0085
:10a9300000007100c0b79f009e00070001003d00ad
:10a9400012002000a100070001003d0012002000bd
:10a95000a6000700b1000700b60007000f00400086
:10a96000c8ff0700220037004f08de000006710014
:10a97000ccb79f008f00070001003d0012002000af
:10a980009200070001003d00120020009700070020
:10a99000a20007000fb297009fb297002fb3970055
:10a9a000bfb39700a90007000000520081805a0041
:10a9b00002015b0083815b0080b79f0091b79f001d
:10a9c000a2b79f00b3b79f000007eb009f000700ee
:10a9d0000020e10001a8e10002b0e10003b8e100bd
:10a9e000010031001e0020000e005600c0b79f007d
:10a9f0004fb297000400e00007003500100020006f
:10aa0000010020006011b800080470008984700003
:10aa10000a0571008b8571008d06e900beff3a00c2
:10aa20000400e00003003d00820007000f0040002a
:10aa300094ff07004fa897000000e00004003a00d0
:10aa40000fb497009fb497002fb59700bfb597003c
:10aa5000940007004f0778004f06be004f05be0068
:10aa60004f04be004f01b10000000600881f7800af
:10aa700018002000881f780095ff07008f87e900e5
:10aa80004f04780000000600801feb0090ff0700d5
:10aa90008f87e90000000600889fbe008a9fbe00e5
:10aaa0008c1f78006e00070007003d007300070050
:10aab000e00f5b00e08f5b0007003d003200070005
:10aac0000006eb00040037003400070002003d00e0
:10aad0002a0007001c00200072000700e3ff0700a7
:10aae0000203be000002be000c00e00001003200c4
:10aaf000220007000400be000601be004f067800d9
:10ab00004f05be004f04be0000000600889fbe0037
:10ab10008a9fbe008c1f78005100070005003d0091
:10ab200056000700e00f5b00e08f5b0006003d0071
:10ab3000040037001900070003003d006000b80062
:10ab40006011b8001000070056000700ceff070094
:10ab50000203be000002be000c00e0000100320053
:10ab6000060007000400be000601be004f06780084
:10ab70004f05be004f04be00000006006000b80094
:10ab80006011b800000037000402500085825800b0
:10ab90000603590087835900000006000006eb00f9
:10aba000e00f5200e08f5a00e00f5b00e08f5b0087
:10abb000000006000180400090b79f000001eb00fc
:10abc0008fb097000100e000000006000200700056
:10abd00090b79f000180400080b79f000001eb000c
:10abe000ffa897000100e0000000060002007000ce
:10abf00080b79f00018040006faa9700cf20de0041
:10ac000001007000f0af9f00040242002500070021
:10ac10004f18de000002720000000600e4af9f0043
:10ac20000804440089844c000a054d008b854d00c2
:10ac3000000006003fb29700cfb297005fb39700c5
:10ac4000efb3970000fe2f00000006003fb0970012
:10ac5000cfb097005fb19700efb1970000000600fa
:10ac60000205be000004be00e00f5000e08f580057
:10ac7000e00f5900e08f5900000006006000b800a6
:10ac80006011b80008045000898458000a05590072
:10ac90008b8559001c002000e00f5200e08f5a0005
:10aca000000006000800be000a01be000000060009
:10acb0008001eb000200370061f079008301e800b9
:10acc000828f5100fcff3a00000006000400fa00e9
:10acd000e0bf9f00e4815700812978000002eb006b
:10ace0000f0037006fb89700904078007fb897004a
:10acf000104078000402e80080cf500004003200c9
:10ad00008180fb000080fb000080500007003700be
:10ad10006fb897000000e800e0bf9f009309e800cb
:10ad2000820f5200efff3a000000eb000080fa00b3
:10ad3000000006008001eb000200370081717800fe
:10ad40008301e800828f5100fcff3a0000000600fa
:10ad50000c00fa00889fbe0000047800cfb0970076
:10ad6000f0ff2700d0bf9f008004eb0099bf9f0039
:10ad700088bf9f00a8bf9f00200c2000b0bf9f008d
:10ad800078815700708057005f0107000fb8970067
:10ad9000094878000fb897000804500008007800b0
:10ada0004f04be000080fa00000006000003780097
:10adb00080027800020278008001eb000800370072
:10adc0000402e90063c07800805a78008301e8003b
:10add0000004e00002003a008000eb0006003700ab
:10ade000828f5100f6ff3a00fbff37000040eb0076
:10adf00080f07a008100e800848f5000fbff3a0069
:10ae00000600780000000600800078003004e000b2
:10ae1000feff3a00010050000000e90000000600bb
:10ae2000889fbe008a9fbe008c9fbe0000017800f4
:10ae300021af26001100e0000b003a0060af2600b1
:10ae400090578b0070578b00b1578b0081578b0048
:10ae5000214090000004a000a040980061409000b4
:10ae60000004a000e0409800e7004100c208de00b6
:10ae7000c20cdd00845783004db526004015270025
:10ae80000d05500022002000811f780011000900ec
:10ae90000205d80000067800cf007800c308dd0066
:10aea000e48540008001eb0046b5260025af260072
:10aeb0000100370001027800244090000008a30040
:10aec000020032000a003700110a7800940078006e
:10aed000214090000008a300fbff3200090142005e
:10aee000828f500002003900840f5100460031006b
:10aef00094007800848f5000eeff3e00868f500053
:10af000002003900858f5000eaff39007057830036
:10af1000800f52004f003a00858f50004d003a00dc
:10af20008301e800e18f5100e2ff36008c8f54006e
:10af3000040036008a8f5400020031000b047800b0
:10af400012003700614ab8006151b900b0ff2f000c
:10af5000010020000200500083805800800f520042
:10af6000818f5a000200350009047800070037007d
:10af70000d805400721527000200400011000900e6
:10af80000a80d8000a80b900000478000800780020
:10af9000d0fd070080017800e10f40002d00320055
:10afa00070578300030878007257830064004100e3
:10afb000a2409000808f5100020032000104a000e6
:10afc000010037000104a1002141980008804100e0
:10afd000640050008009780070578b0022af260073
:10afe0000208780071578300214090000004a000ff
:10aff000a0409800234090000004a100a0419800c8
:10b0000002027800a7ff370082578b00828f500022
:10b010000900360092007800c0ae2600a2419000e0
:10b020000348780051578b00140978008040eb00ea
:10b03000805783002140980080578300000a7800e1
:10b04000244090000004a0002042980064004200c8
:10b05000010037000000eb004f06be004f05be00a8
:10b060004f04be00000006006400500080578b00b3
:10b07000a04090000104a1002140980000000600bb
:10b08000889fbe008a9fbe0000057800e401500042
:10b0900013001000c285de00234090000008a300ca
:10b0a0000400320083578b00234090000004a1006d
:10b0b000a04198000100780059ff070000047800c3
:10b0c0000000e000170032008a0f50001500320027
:10b0d00060b8970008005000c284de00898f5500d8
:10b0e00001003600890578004259dd008a007800a9
:10b0f00008007800eefe07008a0f540009003100b6
:10b100004248dd00000044008a0f50000500360070
:10b110000a00500000004400525783006357830028
:10b120000288be00080078004f05be004f04be0034
:10b1300000000600619626002c0037008001780090
:10b140000001780031407800005978000004e000e8
:10b15000fcff3a0003007800000006008001780040
:10b1600000017800010037000201e8001204e0004d
:10b17000fdff3a0031407800005978000004e000fb
:10b18000fcff3a000300780000000600810178000f
:10b190000002eb000b003700e44078000104e000ff
:10b1a000030032000402e80093cf50000400320094
:10b1b0008180fb001380fb0000805000000006002f
:10b1c0008301e800820f5200f3ff3a0000000500ff
:10b1d0000000fa00cfb897006881570060962600fb
:10b1e000490007000080fa0000000600889fbe00aa
:10b1f0000001780001047800b10090000118a3005c
:10b200003d0032000198a30003003a0018009000ae
:10b210000000e00038003a000190a00031049800de
:10b2200082047800f90fb200180090000000e000de
:10b2300002003a0028009000000c7800ea8f5400c9
:10b2400006003a00380090000078a30003003a009e
:10b2500088007800d0002000e4ff070098009000ec
:10b2600058009000808f50000b0032000100e80071
:10b27000100498001800780009587800000c780035
:10b2800011c0b300c0b3260001487800ea8f540013
:10b290000600320019003700880078000940780065
:10b2a000ce020700800478001400370038009000b8
:10b2b0000088a3001100320018019000a80090003f
:10b2c0004800900019fd070098009000810f500081
:10b2d00004003200380090000003b30030049800ee
:10b2e0008084eb000000eb00100498002800900020
:10b2f000000c7800010037008084eb000900780022
:10b300004f04be0000000600fe874700889fbe0075
:10b310008a9fbe008c9fbe008e1f7800f0b79f00f2
:10b320000107780082bf9f000000eb00a0b79f00dc
:10b330009f0237008006eb0050c2b30080cf500060
:10b34000090032000100fb00ffb09700a7ff0700d3
:10b35000e10f400096023200afb097008100e80094
:10b36000a1b79f00920237009e407800d0c2b30080
:10b3700080cf50000c00320007003c006d405000b0
:10b3800080cf50000a0032006b40400080cf500058
:10b390000e003a000800370000c3b30080cf500011
:10b3a0000a003a00060037000d30a0000500370003
:10b3b0000d00a000030037000d10a00001003700b1
:10b3c0000d20a0000e07e800e7ff37000d18a300ce
:10b3d000010032000d00a1000d38a3000100320071
:10b3e0000d20a1000100fb0002fd2f000200400023
:10b3f000e90f50000e003e000002eb00c4b79f00b2
:10b4000082017800cfb297006a28b9001e01fb00c4
:10b410000001410003014100c2b79f005e00fb0034
:10b4200003004000e90f50000b003e00f5ff37001d
:10b430000006eb00ccb79f00a0c2b30080cf500045
:10b4400005003a000fb89700c000780080bf9f0049
:10b45000c1b79f000e07e8000001eb00b2b79f00e4
:10b46000e0c2b3009e4f100018003a000de0a000ab
:10b470008e00e80064405000914f1000020032003e
:10b48000010778000c0037000fba9700c40278005b
:10b4900084bf9f00b5b79f000e87e8000b00370000
:10b4a0003fb697006a60b900000041000300400009
:10b4b000b0b79f000e07e8001e01fb0003fd2f0040
:10b4c00003004100e90f5000f5ff3600be40780050
:10b4d000e1d79f00c0c6b30080cf500022003200e9
:10b4e0000f003c006940500080cf500077003200d0
:10b4f00004003c000104e000310232006b405000c7
:10b500000f00370040c6b30080cf500093003200d8
:10b510006540400080cf50008b003a008f0037001c
:10b5200030c7b30080cf50001a00320007003c0043
:10b530006440500080cf5000110032000040e8000d
:10b5400080cf500080003a000f00370050c7b30092
:10b5500080cf5000800032006340400080cf500018
:10b5600079003a0009003700000028000d48a300c8
:10b5700001003a000001200080867600d3ff3700ea
:10b580000d60a000750037000d50a0000d70a000e8
:10b59000720037008fb897004100780081bf9f008c
:10b5a000000478000000e00001003a00e892260064
:10b5b0008004eb00010037008104e8008900780076
:10b5c000088044001004e000fbff3a003fb1970000
:10b5d0000200e00003003200890f51000100310039
:10b5e000820478000002eb00e4af9f00cfb2970026
:10b5f000898f52000200360009805200e0af9f00a0
:10b600004368de00e10660001b003a000d0678008a
:10b6100009003700ffb0970000022000f3fe07008a
:10b62000e10f4000030032002fb097000000e80057
:10b63000a0b79f000c06e800efa89700810f560006
:10b64000f4ff3a000081eb00e2af9f000a003700f0
:10b65000880078003100fb0001047800ffb09700fb
:10b66000e2fe0700e10f4000030032002fb2970016
:10b670000402e800a4b79f000900e90080047800f4
:10b68000e10f4000f2ff3a000006eb000d00e00081
:10b690000a003a00c6013700ffb097000002200000
:10b6a000d2fe0700e10f400003003200afb2970066
:10b6b0008502e800a5b79f000c06e8006fa8970078
:10b6c000800f5600f4ff3a00b90137008fb8970099
:10b6d0004100780081bf9f00cf80de00010178002b
:10b6e000820178000205be000004be000203be0015
:10b6f0000002be004822de00482edd000402760073
:10b70000e4d79f000d48a3000a0032000404e000c3
:10b7100008003200e14f42000600320071fd2f00a8
:10b720000180470004487800184098002900200054
:10b7300002003700f0d79f001900200072fd2f0093
:10b7400002844700a1ff370064fd2f0004844700f6
:10b75000190020009dff37000d0cb3000d0078008c
:10b76000000cb20028003a000d00e00005003d008a
:10b770008fba97004505be004504be0085bf9f00f7
:10b78000140037000d48a3000b0032000fbe9700d5
:10b790004c00be008cbf9f004f89de00cf91de00c1
:10b7a0000002be0002037800820378000605be0096
:10b7b0000404be00070037008fb8970041007800ee
:10b7c00081bf9f0000047800cfc4de000905780027
:10b7d0008a057800e00f5400e08f5c00e00f5d0008
:10b7e000e08f5d001f003d003d00b3006000b80029
:10b7f0006011b80008045000898458000a055900f7
:10b800008b855900170037000d00e00005003d0052
:10b810000fb997004205be004204be0082bf9f00e0
:10b82000100037000d48a300070032000fba970040
:10b830004400be0084bf9f006011b8000205be0036
:10b840000004be00070037008fba9700450078005b
:10b8500085bf9f0000047800090020000a00200036
:10b860000b0020003fb697000c00e00007003a00f4
:10b87000e00f5400e08f5c00e00f5d00e08f5d00a2
:10b8800002003a0010002000b0b79f008d00780041
:10b89000010cb200e1b79f0000042000808f50002f
:10b8a0003000320003003c000100e00008003200dc
:10b8b00040003700000820006fb19700800f510052
:10b8c00014003200000c2000800f510039003a00b3
:10b8d00014c0b300656f26000b0037000400fb00a6
:10b8e0004300dd00050040005001be004000be00e6
:10b8f0000040e10001c8e10002d0e10003d8e1000e
:10b900002b0039000442e800f44f5200f3ff3a00e4
:10b910002700370000012000010020006011b8005e
:10b9200014c0b3000040e10001c8e10002d0e10012
:10b9300003d8e1001e003900450020000000d000bf
:10b940008180d2000281d2008381d2008502e90089
:10b95000faff3a000442e800f04f5200f1ff3a00cb
:10b960001300370080002000010020006011b800a3
:10b9700014c0b3000040e10001c8e10002d0e100c2
:10b9800003d8e1000a0039003c0020000000d0008c
:10b990008180d2000281d2008381d2000c06e900ae
:10b9a000faff3a000442e800f54f5200f1ff3a0076
:10b9b000e4d79f00efd097000100fb003fb1970054
:10b9c000820f500002003d00e2d79f0004003700c4
:10b9d0003fb29700800f520001003d00b0b79f00ba
:10b9e000cfb297000500e0000400320063806600db
:10b9f000020032008502e900c5b79f000de8a300f0
:10ba00000b0032004fb697003fb09700800f5600f2
:10ba100003003c008000eb00c1b79f00040037002a
:10ba20004fb197003fb2970004015100c2b79f0089
:10ba3000efd297000500fb000006eb00dcaf9f0093
:10ba4000cfb09700808f500002003400008050007b
:10ba5000d0af9f000d28a30037003200e1806600c0
:10ba60000d18a3000c003200d00220000100e000fd
:10ba700001003a000080e900ffb09700dbfd0700fd
:10ba8000e10f40000e0032002fb197000201e800e4
:10ba9000a2b79f000a0037000100e0000800320052
:10baa000ffb0970000022000d0fd0700e10f40002a
:10bab000030032002fb297000402e800a4b79f00f1
:10bac000dfaa97000500e0000f0032000006eb003f
:10bad000ffb0970000032000c4fd0700e10f400005
:10bae000030032002fb097000000e800a0b79f00cd
:10baf0000c06e800dfa89700810f5600f4ff3a001b
:10bb00000001eb00d2af9f003fb29700c320dd00e1
:10bb1000e06e26008080400091b79f004220dd004b
:10bb20006400500080b79f006320b900f0af9f0011
:10bb30006306500084003700dfaa97000500e0008c
:10bb400011003200688066000f003a00000678009d
:10bb5000ffb0970000022000a4fd0700e10f4000a5
:10bb6000030032002fb097000000e800a0b79f004c
:10bb70000c06e800dfa89700810f5600f4ff3a009a
:10bb80000001eb00d2af9f00e18066000d18a3001a
:10bb90000c003200d00220000100e00001003a0059
:10bba0000080e900ffb0970090fd0700e10f400022
:10bbb000d5ff32002fb297000402e800a4b79f001f
:10bbc000d1ff37000100e000cfff3200ffb0970047
:10bbd0000002200085fd0700e10f4000caff32008f
:10bbe000afb297008502e800a5b79f00c6ff3700f7
:10bbf00000042000efb09700808f50003100320029
:10bc000003003c000100e000080032003e00370065
:10bc1000000820006fb19700800f51001100320022
:10bc2000000c2000800f510037003a001fb0970031
:10bc30003002be002003be000800be000a01be00a4
:10bc40008afb0700a4002000050020006033b80034
:10bc50008dfb070004c3b30004424000e4d79f00fb
:10bc60002900370055932600d5b79f000d58a30033
:10bc700002003a0060942600d0b79f001400200014
:10bc8000050020006033b8008fb097008100e90004
:10bc9000050033000402d0008582d2000683d20062
:10bca0008783d200f9ff37000800be000a01be00fa
:10bcb0006efb07006f0060005fb197006240780084
:10bcc0001000370014002000050020006033b80089
:10bcd0000c0078000000e900050033000402d000e9
:10bce0008582d2000683d2008783d200f9ff370015
:10bcf0000800be000a01be005cfb07006740600050
:10bd00000043b000e0d79f00efd097000100fb0098
:10bd1000ffb0970035fd0700e10f4000030032003f
:10bd20002fb197000201e800a2b79f001fb2970051
:10bd30006802520094b79f008fb29700e4825200cd
:10bd400085b79f0063065600d0ff2f003fb19700d4
:10bd50000090b9007faa97000000420063005000e5
:10bd6000800f5600a2ff3a000d38a30010003200e9
:10bd7000dfaa97000500e0000d0034000006eb008c
:10bd8000ffb097000002200018fd0700e10f4000ff
:10bd9000030032002fb097000000e800a0b79f001a
:10bda0000c06e800dfa89700810f5600f4ff3a0068
:10bdb000be407800e1d79f000104e0005dfd3a003d
:10bdc0002fb097004f0778004f06be004f05be000a
:10bdd0004f04be00ef01b100000006000200fa00af
:10bde000889fbe00a0ff9f0001047800b100900072
:10bdf000810478000904b200020032000000fb0058
:10be0000360037000118a30005003a000103b30013
:10be100031049800190498000080eb002f003700cf
:10be2000580090000000e00006003a004800900032
:10be300012002000e68057003cfa07001904980021
:10be400024003700280090000000e00008003a00bd
:10be500080b3260020049800000c78002000200009
:10be600050049800100498000130a000310498009c
:10be700018019000a8009000480090002bfa0700dd
:10be800028009000000c78000080eb00100498005f
:10be900018007800aff8970001587800000c78007f
:10bea0002ff89700ea4f50000a003a00380090003f
:10beb0000088a3000700320018019000a80090003d
:10bec0004800900019fa070019049800a800900093
:10bed000010c7800aff897000100fb004f04be0092
:10bee0000080fa00000006003600f800809fbe00c7
:10bef000829fbe00849fbe00869fbe00881f780080
:10bf00008ec0a90082c4bf000068a3002f003200c9
:10bf100080c4bf000068a3002c0032000004200091
:10bf20000024880052500200010000000004780044
:10bf30000000e00009003200044b02000100000094
:10bf40000000e000210032006022b8000001eb0098
:10bf5000a1c0b3000040eb000c0037004e500200bf
:10bf6000010000000000e0000b003200f04a020077
:10bf7000010000000000e000140032006022b80060
:10bf80000801780091c0b3000840780090f20200e8
:10bf9000000000000d003700404983000000e00071
:10bfa0000a003200404983000000e90040498b004c
:10bfb000404983000000e00004003a0082c4a90068
:10bfc000204983000000e80020498b008cc4bf009a
:10bfd0000068a3001e0032008ac4bf000068a300ee
:10bfe0001b0032008cc4a9000004200050248800eb
:10bff0002149830070005000808f500002003a00f9
:10c000000010200030488b006022b8000001eb00d7
:10c0100011c0b3000040eb0090f2020000000000ed
:10c020006022b8000001eb0031c0b3000040eb001b
:10c0300090f20200000000006022b8000001eb0056
:10c0400071c0b3000040eb0090f20200000000005d
:10c050008cc4bf000008a300160032008ac4bf00d1
:10c060000008a300130032001000200050248800b4
:10c070008c04a9000004eb0038488b006022b80053
:10c0800008017800884078000840780090f20200ab
:10c09000000000006022b8000801780041c0b30031
:10c0a0000840780090f20200000000003c4f0200bf
:10c0b000010000008044e20006003d008244e200ee
:10c0c00004003d001e2302000100000000082000c3
:10c0d0000024880080c4bf000028a3000d003200a7
:10c0e00082c4bf000028a3000a0032008444e2009a
:10c0f00006003d005a4f020001000000e14f5000d1
:10c1000002003a001e23020001000000400020004f
:10c110000024880080c4bf000038a300190032004a
:10c1200082c4bf000038a30016003200604f020036
:10c1300001000000e14f500010003a004a50020098
:10c14000010000000000e0000c00320084c4bf00c9
:10c15000684060006022b8000001eb0061c0b300dd
:10c16000040032006022b8000001eb0051c0b300af
:10c170000040eb0090f20200000000008000200070
:10c18000002488008ac4bf000058a3000b003200be
:10c190008cc4bf000058a300080032006022b80021
:10c1a0000001eb00b1c0b3000040eb0090f20200d0
:10c1b0000000000000022000502488008cc4bf0052
:10c1c0000038a300d00032008ac4bf000038a300aa
:10c1d000cd0032008cc4bf000018a300080032005c
:10c1e0008ac4bf000018a300050032003049830054
:10c1f0003058900063406000e14f5000c2003a00a8
:10c20000009226001044a1009224800080002000ab
:10c210005024880034498300a4589000f024800002
:10c22000ef8060006f006000808f5000b4003a0023
:10c23000640061000238a30005003200c2a026009d
:10c240000000e00006003a0082a02600040037004b
:10c2500042a026000000e00001003a0002a02600f3
:10c2600000c023009200600000802000808f5000fa
:10c2700037003a00f03f20001201600004089000ef
:10c280009408900002004000e0804800000a9800f6
:10c29000110a98000000eb00700a980034409000ea
:10c2a0004300de00610060000004a2004300dd00e6
:10c2b000b44090000134a10080c070003142980069
:10c2c00004589000f04f500008003200845890004d
:10c2d00000c2b30080cf50000400320084589000a8
:10c2e0007040400080cf500032003a0004099000b6
:10c2f000940990007400900001002000800f51000c
:10c30000818f59007e0039006000b800000a980053
:10c31000110a98000a00370004099000940990005f
:10c3200054009000e4009000800f5100818f59006c
:10c3300073003900344090000004a000304298009f
:10c34000045890000040e800005a98006c00370044
:10c3500000c02000808f50000300320000c0220087
:10c36000808f50001b003a00f03f20001201600057
:10c37000040890009408900002004000e08048000b
:10c38000000a9800110a98000000eb00700a98005b
:10c39000344090004300de00610060000004a20011
:10c3a0004300dd00b44090000134a10080c0700063
:10c3b000314298003458900063406000e14f5000d3
:10c3c000dcff320044009000800f5100d9ff39009b
:10c3d000d1ff370000802200808f500021003a00fa
:10c3e000344090000044a00030429800740890004f
:10c3f0000000e800700a9800345890006300600064
:10c40000e10f5000cbff320003003c000000e000d1
:10c41000080032003a003700e20f500005003200f9
:10c42000e30f500036003a00245890000004e0006a
:10c43000c0ff3500344090000058a30030003200a7
:10c44000f408900004109000808f50002c003600fb
:10c45000244090000064a0002042980070c1b30006
:10c460000700370000802300808f50000a003a0048
:10c47000244090000054a0002042980010c1b30056
:10c48000405a98000458900001cfb300014060006a
:10c49000f040b300acff3700a44090008140e800ba
:10c4a000ffc060002440900002ceb3000240600054
:10c4b0000140700020429800244090007f006000fe
:10c4c000f30f50000e003400244090000064a000e0
:10c4d0002042980030c1b300405a980004589000a0
:10c4e00001cfb30001406000f040b300005a980053
:10c4f000f00f2000702488002000200050248800c5
:10c5000052d70200000000008cc4bf000028a30026
:10c510002c0032008ac4bf000028a300290032008a
:10c520004000200050248800d24883001a003700c1
:10c53000220090000000e00016003200a0009000f1
:10c540000430200003102000100037005108900034
:10c550000030b200840f500002003200830f500000
:10c5600006003a00310090000000e00003003200b5
:10c57000310090000000e900b000980031409000c8
:10c580000044a100b0409800910078000100e00054
:10c59000eeff3a00120178000200e000e4ff3a00ea
:10c5a000009226001004a1001014a1001024a10084
:10c5b0001034a100209226000248780052d70200d1
:10c5c000000000008cc4bf000018a300440032002b
:10c5d0008ac4bf000018a300410032000092260068
:10c5e0001044a10033498300335890006340600039
:10c5f000e14f500036003200a34090008140e80037
:10c60000ffc060002340900002ceb30002406000f3
:10c6100001407000a0419800234090007f0060001e
:10c62000f30f50002a0034008e44e20002003d0067
:10c6300000c2b300c05998008ec4bf000058a300c8
:10c640000200320010c2b300c05998008ec4bf006f
:10c650000048a3000200320020c2b300c059980075
:10c660008ec4bf000038a3000200320030c2b30005
:10c67000c05998008ec4bf000028a30002003200f9
:10c6800040c2b300c05998008ec4bf000018a30078
:10c690000200320050c2b300c05998008ec4bf00df
:10c6a0000008a3000200320060c2b300c059980025
:10c6b000234090000064a000a0419800035890001f
:10c6c00001cfb30001406000f040b30080599800f2
:10c6d000f00f2000702488002000200050248800e3
:10c6e0004f0478004f03be004f02be004f01be0052
:10c6f0004f00be003600f900004006000040da009e
:04c700000000fe0037
:020000040000fa
:10a0000010510400000000007e6304000000000006
:10a010007e630400000000007e6304000000000076
:10a020007e630400000000007e6304000000000066
:10a030007e630400000000002ca704000000000064
:10a040007e630400000000007e6304000000000046
:10a050000aa70400000000007e6304000000000066
:10a060007e63040000000000ccc404000000000077
:10a070007e630400000000005e8c0400000000000d
:10a08000d892040000000000b4900400000000001a
:10a09000b8c40400000000007e630400000000005b
:10a0a000c0950400000000007e6304000000000072
:10a0b0002ad30400000000007e63040000000000ba
:10a0c00060a60400000000003ea60400000000009e
:10a0d0007e630400000000007e63040000000000b6
:10a0e00048dc040000000000d0a4040000000000d0
:10a0f0007e630400000000002a93040000000000ba
:10a1000092900400000000007e6304000000000044
:10a11000808c040000000000e8a60400000000009d
:10a12000c6a6040000000000a4a604000000000071
:10a1300082a60400000000007e630400000000000e
:10a140007e630400000000007e6304000000000045
:10a150007e630400000000007e6304000000000035
:10a160007e63040000000000e2950400000000008f
:10a170007e630400000000007e6304000000000015
:10a180007e630400000000007e6304000000000005
:10a190007e630400000000001cc4040000000000f6
:10a1a0007e630400000000007e63040000000000e5
:10a1b0007e630400000000008093040000000000a3
:10a1c00070900400000000007e63040000000000a6
:10a1d00004960400000000007e63040000000000fc
:10a1e0008c8f0400000000004e900400000000006e
:10a1f0007e63040000000000a28c04000000000048
:10a200007e630400000000001ca6040000000000a3
:10a210007e63040000000000745f04000000000082
:020000040000fa
:10c70400ff0a000011020000040300000c0b0000eb
:10c71400ff250000181700001619000014ff000080
:10c72400ffff0000ffff0000ffff0000ffff00000d
:10c73400ffff0000ff1500001a1300001b12000089
:10c744001cff00000d0100000006000007080000a7
:10c7540009ff0000ffff0000ff0e00001d000000a5
:10c764006400000070000000580000008000000019
:10c774007fff00006400000070000000580000000b
:10c7840002000000fdff00006400000070000000d3
:10c794005800000004000000fbff000068000000d7
:10c7a400740000005c00000020000000dfff0000b7
:10c7b40068000000740000005c00000040000000fd
:10c7c400bfff000068000000740000005c0000006f
:10c7d400800000007fff000068000000740000007b
:10c7e4005c00000000010000fffe00006800000083
:10c7f400740000005c00000002000000fdff000067
:10c80400620000006e0000005600000002000000fc
:10c81400fdff0000620000006e00000056000000f2
:10c8240001000000feff000068000000740000002a
:10c834005c00000004000000fbff00006800000032
:10c84400740000005c00000008000000f7ff000016
:10c8540068000000740000005c000000100000008c
:10c86400efff0000620000006e00000056000000b0
:10c8740000200000ffdf0000620000006e000000e6
:10c884005600000000400000ffbf000062000000ee
:10c894006e0000005600000000800000ff7f0000d2
:10c8a4006400000070000000580000000100000057
:10c8b400feff00006a000000760000005e00000039
:10c8c40010000000efff00006a0000007600000086
:10c8d4005e00000020000000dfff00006800000090
:10c8e400740000005c00000000040000fffb000076
:10c8f40068000000740000005c00000000080000f4
:10c90400fff7000068000000740000005c000000f5
:10c9140000100000ffef0000680000007400000039
:10c924005c00000000200000ffdf00006800000041
:10c93400740000005c00000000400000ffbf000025
:10c9440068000000740000005c000000008000002b
:10c95400ff7f00006a000000760000005e00000017
:10c9640001000000feff00006a00000076000000e5
:10c974005e00000002000000fdff000062000000f5
:10c984006e0000005600000000010000fffe0000e1
:10c99400620000006e00000056000000000200006b
:10c9a400fffd0000620000006e0000005600000061
:10c9b40000040000fffb0000620000006e000000a5
:10c9c4005600000000080000fff7000062000000ad
:10c9d4006e00000056000000800000007fff000091
:10c9e400620000006e0000005600000040000000dd
:10c9f400bfff0000620000006e000000560000004f
:10ca040020000000dfff0000620000006e00000054
:10ca14005600000010000000efff0000620000005c
:10ca24006e0000005600000008000000f7ff000040
:10ca3400620000006e0000005600000004000000c8
:10ca4400fbff0000640000007000000058000000bc
:10ca540000010000fffe0000640000007000000000
:10ca64005800000000020000fffd00006400000008
:10ca7400700000005800000000040000fffb0000ec
:10ca8400640000007000000058000000000800006e
:10ca9400fff7000064000000700000005800000070
:10caa40000100000ffef00006400000070000000b0
:10cab4005800000000200000ffdf000064000000b8
:10cac400700000005800000000400000ffbf00009c
:10cad40064000000700000005800000000800000a6
:10cae400ff7f000066000000720000005a00000092
:10caf40001000000feff0000620000006e00000064
:10cb04005600000000100000ffef0000d0020000fb
:10cb1400e4040000d2020000d4020000d6020000a7
:10cb24001c1c0000041c0000101c0000001000006d
:10cb3400ffef0000010000000c000000e80200000c
:10cb4400ea040000ea020000ec020000ee02000029
:10cb5400161c0000fe1b00000a1c00001000000050
:10cb6400efff00000400000004000000e8020000e1
:10cb7400ea040000ea020000ec020000ee020000f9
:10cb8400161c0000fe1b00000a1c00002000000010
:10cb9400dfff00000400000005000000d8020000d0
:10cba400e6040000da020000dc020000de020000fd
:10cbb4001a1c0000021c00000e1c000000010000f2
:10cbc400fffe00000200000008000000d802000080
:10cbd400e6040000da020000dc020000de020000cd
:10cbe4001a1c0000021c00000e1c000000020000c1
:10cbf400fffd00000200000009000000d802000050
:10cc0400e6040000da020000dc020000de0200009c
:10cc14001a1c0000021c00000e1c0000000400008e
:10cc2400fffb0000020000000a000000d802000020
:10cc3400e6040000da020000dc020000de0200006c
:10cc44001a1c0000021c00000e1c0000000800005a
:10cc5400fff70000020000000b000000d8020000f3
:10cc6400e6040000da020000dc020000de0200003c
:10cc74001a1c0000021c00000e1c00000100000031
:10cc8400feff00000200000000000000d0020000cf
:10cc9400e4040000d2020000d4020000d602000026
:10cca4001c1c0000041c0000101c000000200000dc
:10ccb400ffdf0000010000000d000000d0020000b2
:10ccc400e4040000d2020000d4020000d6020000f6
:10ccd4001c1c0000041c0000101c0000004000008c
:10cce400ffbf0000010000000e000000d802000099
:10ccf400e6040000da020000dc020000de020000ac
:10cd04001a1c0000021c00000e1c0000020000009f
:10cd1400fdff00000200000001000000d802000036
:10cd2400e6040000da020000dc020000de0200007b
:10cd34001a1c0000021c00000e1c0000040000006d
:10cd4400fbff00000200000002000000d802000007
:10cd5400e6040000da020000dc020000de0200004b
:10cd64001a1c0000021c00000e1c00000800000039
:10cd7400f7ff00000200000003000000d8020000da
:10cd8400e6040000da020000dc020000de0200001b
:10cd94001a1c0000021c00000e1c00001000000001
:10cda400efff00000200000004000000d8020000b1
:10cdb400e6040000da020000dc020000de020000eb
:10cdc4001a1c0000021c00000e1c000020000000c1
:10cdd400dfff00000200000005000000d802000090
:10cde400e6040000da020000dc020000de020000bb
:10cdf4001a1c0000021c00000e1c00004000000071
:10ce0400bfff00000200000006000000d80200007e
:10ce1400e6040000da020000dc020000de0200008a
:10ce24001a1c0000021c00000e1c00008000000000
:10ce34007fff00000200000007000000e80200007d
:10ce4400ea040000ea020000ec020000ee02000026
:10ce5400161c0000fe1b00000a1c0000010000005c
:10ce6400feff00000400000000000000e8020000d3
:10ce7400ea040000ea020000ec020000ee020000f6
:10ce8400161c0000fe1b00000a1c0000020000002b
:10ce9400fdff00000400000001000000e0020000ab
:10cea40000000000e2020000e4020000e6020000cc
:10ceb400181c0000001c00000c1c000001000000f5
:10cec400feff00000300000000000000e00200007c
:10ced40000000000e2020000e4020000e60200009c
:10cee400181c0000001c00000c1c000002000000c4
:10cef400fdff00000300000001000000e00200004c
:10cf040000000000e2020000e4020000e60200006b
:10cf1400181c0000001c00000c1c00000400000091
:10cf2400fbff00000300000002000000e00200001c
:10cf340000000000e2020000e4020000e60200003b
:10cf4400181c0000001c00000c1c0000080000005d
:10cf5400f7ff00000300000003000000e0020000ef
:10cf640000000000e2020000e4020000e60200000b
:10cf7400181c0000001c00000c1c00001000000025
:10cf8400efff00000300000004000000e0020000c6
:10cf940000000000e2020000e4020000e6020000db
:10cfa400181c0000001c00000c1c000020000000e5
:10cfb400dfff00000300000005000000e0020000a5
:10cfc40000000000e2020000e4020000e6020000ab
:10cfd400181c0000001c00000c1c00004000000095
:10cfe400bfff00000300000006000000e002000094
:10cff40000000000e2020000e4020000e60200007b
:10d00400181c0000001c00000c1c00008000000024
:10d014007fff00000300000007000000f002000092
:10d02400ec040000f2020000f4020000f60200002a
:10d03400141c0000fc1b0000081c00004000000041
:10d04400bfff00000500000006000000f002000021
:10d05400ec040000f2020000f4020000f6020000fa
:10d06400141c0000fc1b0000081c000080000000d1
:10d074007fff00000500000007000000f002000030
:10d08400ec040000f2020000f4020000f6020000ca
:10d09400141c0000fc1b0000081c00000001000020
:10d0a400fffe00000500000008000000f002000080
:10d0b400ec040000f2020000f4020000f60200009a
:10d0c400141c0000fc1b0000081c000000020000ef
:10d0d400fffd00000500000009000000c802000078
:10d0e400e2040000ca020000cc020000ce020000ec
:10d0f4001e1c0000061c0000121c00002000000082
:10d10400dfff00000000000005000000c80200006e
:10d11400e2040000ca020000cc020000ce020000bb
:10d124001e1c0000061c0000121c00001000000061
:10d13400efff00000000000004000000c80200002f
:10d14400e2040000ca020000cc020000ce0200008b
:10d154001e1c0000061c0000121c00000800000039
:10d16400f7ff00000000000003000000c8020000f8
:10d17400e2040000ca020000cc020000ce0200005b
:10d184001e1c0000061c0000121c0000040000000d
:10d19400fbff00000000000002000000c8020000c5
:10d1a400e2040000ca020000cc020000ce0200002b
:10d1b4001e1c0000061c0000121c000002000000df
:10d1c400fdff00000000000001000000c802000094
:10d1d400e2040000ca020000cc020000ce020000fb
:10d1e4001e1c0000061c0000121c000001000000b0
:10d1f400feff00000000000000000000c802000064
:10d20400e2040000ca020000cc020000ce020000ca
:10d214001e1c0000061c0000121c00004000000040
:10d22400bfff00000000000006000000c80200006c
:10d23400e2040000ca020000cc020000ce0200009a
:10d244001e1c0000061c0000121c000080000000d0
:10d254007fff00000000000007000000c80200007b
:10d26400e2040000ca020000cc020000ce0200006a
:10d274001e1c0000061c0000121c0000000100001f
:10d28400fffe00000000000008000000c8020000cb
:10d29400e2040000ca020000cc020000ce0200003a
:10d2a4001e1c0000061c0000121c000000020000ee
:10d2b400fffd00000000000009000000c80200009b
:10d2c400e2040000ca020000cc020000ce0200000a
:10d2d4001e1c0000061c0000121c000000040000bc
:10d2e400fffb0000000000000a000000c80200006c
:10d2f400e2040000ca020000cc020000ce020000da
:10d304001e1c0000061c0000121c00000008000087
:10d31400fff70000000000000b000000c80200003e
:10d32400e2040000ca020000cc020000ce020000a9
:10d334001e1c0000061c0000121c0000001000004f
:10d34400ffef0000000000000c000000c802000015
:10d35400e2040000ca020000cc020000ce02000079
:10d364001e1c0000061c0000121c0000002000000f
:10d37400ffdf0000000000000d000000c8020000f4
:10d38400e2040000ca020000cc020000ce02000049
:10d394001e1c0000061c0000121c000000400000bf
:10d3a400ffbf0000000000000e000000c8020000e3
:10d3b400e2040000ca020000cc020000ce02000019
:10d3c4001e1c0000061c0000121c0000008000004f
:10d3d400ff7f0000000000000f00000005000000b7
:10d3e400040000000300000002000000010000002f
:10d3f4000000000006000000070000000800000014
:10d40400090000000a0000000b0000000c000000ee
:10d414000d0000000e0000000f0000002423000097
:10d4240022210000201f00002526000027280000dc
:10d43400292a00002b2c00002d2e0000242300009c
:10d4440022210000201f00002526000027280000bc
:10d45400292a00002b2c00002d2e0000ffff0000c5
:10d46400ffff0000ffff0000ffff0000ffff0000c0
:10d47400ffff00000008000009ff0000070a000089
:10d484000b0c00000d0e00000f1000000304000040
:10d4940005060000ffff0000ffff0000131400005a
:10d4a4001516000017180000191a0000ffff0000ed
:10d4b400ffff0000ffff0000ffff0000111200004b
:10d4c400ffff000001020000ffff0000ffff00005b
:10d4d400ffff0000ffff0000ffff0000ffff000050
:10d4e400ffff0000ffff00001b1c00001d1e0000ca
:10d4f400ffff0000ffff0000ffff0000000000002e
:10d504000000000000000000000000000000000017
:10d514000000000000000000000000004e000000b9
:10d5240046f4000090ea00003231000000000000e0
:10d5340045f4000096ea00003200000044f40000c4
:10d544009eea000043f400009eea0000313200002d
:10d554003100000048f40000a8ea00003132000065
:10d564000000000042f40000b0ea000041f40000b2
:10d5740096ea000049f4000096ea000042310000f7
:10d58400323100000000000047f40000c0ea00004f
:10d59400423100000000000040f40000caea00002c
:10d5a400425300005300000033f40000d2ea0000ac
:10d5b400425300000000000032f40000daea0000e8
:10d5c4003400000031f40000e2ea000053000000df
:10d5d40030f40000e8ea000025f4000096ea0000b8
:10d5e40024f400009eea000023f400009eea0000f8
:10d5f400323200000000000022f40000faea0000c9
:10d6040021f4000096ea00004232000032000000db
:10d6140026f4000006eb0000423200000000000087
:10d6240020f400000eeb00003100000008f40000bc
:10d6340016eb000007f4000016eb000006f40000ef
:10d6440016eb00000000000005f4000024eb0000cd
:10d6540004f4000024eb000003f4000016eb0000c7
:10d6640002f4000016eb000001f4000024eb0000bb
:10d674000910000024eb00000510000024eb00005a
:10d684000310000024eb0000313100000000000012
:10d694006d0c000046eb00006c0c000024eb000055
:10d6a400560c000016eb000031450000000000009d
:10d6b400520c000056eb0000450c000016eb000075
:10d6c4004832000000000000370c000062eb00004c
:10d6d40048000000360c00006aeb00003231000004
:10d6e4003232000000000000330c000070eb000038
:10d6f4002a0c000016eb0000290c000024eb0000ab
:10d7040033000000240c000082eb0000200c000019
:10d7140016eb00001a0c000016eb0000180c0000b9
:10d724009eea0000130c000090ea0000120c0000b6
:10d73400caea0000030c000024eb000034340000ab
:10d7440000000000010c0000a0eb00000d08000028
:10d7540062eb00000c0800006aeb00000b080000fc
:10d76400caea0000090800006aeb00004831000022
:10d774003134000034340000340000000708000095
:10d78400b8eb0000483200003232000032000000e2
:10d7940003080000c4eb000034040000caea0000df
:10d7a4004200000033040000d2eb00002f0400000c
:10d7b400d2eb000042340000000000002e04000000
:10d7c400dceb00002d040000d2eb00002c04000070
:10d7d400d2eb0000423100003131000000000000b3
:10d7e4002b040000eceb00001a040000d2eb000054
:10d7f4004231000031320000000000001904000032
:10d80400faeb0000150400006aeb00004831000048
:10d81400000000001304000008ec000011040000e4
:10d824006aeb00000f04000062eb00000e0400002d
:10d83400d2eb000042310000500000000d04000053
:10d844001cec00000c040000d2eb0000425000006d
:10d85400000000000b04000028ec00000a04000093
:10d86400caea000009040000caea00000804000033
:10d87400d2eb00000604000008ec00004232000075
:10d8840031310000323100000000000005040000c6
:10d8940040ec00000204000024eb000033310000df
:10d8a400310000000104000050ec00000091000071
:10d8b400e372000007960000e47500000e9f00006c
:10d8c400ed7c000009980000ea7b00001c8d00003c
:10d8d400ff6e00001b8a0000f8690000128300003c
:10d8e400f160000015840000f667000038a900000c
:10d8f400db4a00003fae0000dc4d000036a700000c
:10d90400d544000031a00000d243000024b500003b
:10d91400c756000023b20000c05100002abb00001b
:10d92400c95800002dbc0000ce5f000070e100006b
:10d934009302000077e60000940500007eef0000eb
:10d944009d0c000079e800009a0b00006cfd0000bb
:10d954008f1e00006bfa00008819000062f30000bb
:10d964008110000065f400008617000048d900000b
:10d97400ab3a00004fde0000ac3d000046d700008b
:10d98400a534000041d00000a233000054c50000bb
:10d99400b726000053c20000b02100005acb00009b
:10d9a400b92800005dcc0000be2f0000e07100002b
:10d9b40003920000e776000004950000ee7f00006b
:10d9c4000d9c0000e97800000a9b0000fc6d00003b
:10d9d4001f8e0000fb6a000018890000f26300003b
:10d9e40011800000f564000016870000d84900008b
:10d9f4003baa0000df4e00003cad0000d64700000b
:10da040035a40000d140000032a30000c45500003a
:10da140027b60000c352000020b10000ca5b00001a
:10da240029b80000cd5c00002ebf0000900100006a
:10da340073e200009706000074e500009e0f0000ea
:10da44007dec0000990800007aeb00008c1d0000ba
:10da54006ffe00008b1a000068f9000082130000ba
:10da640061f000008514000066f70000a83900008a
:10da74004bda0000af3e00004cdd0000a63700008a
:10da840045d40000a130000042d30000b4250000ba
:10da940057c60000b322000050c10000ba2b00009a
:10daa40059c80000bd2c00005ecf000025300000e6
:10dab40032580000200000002530000032780000b9
:10dac4003a25000030320000783a0000253000008a
:10dad400327800003a25000030320000783a000025
:10dae40025300000327800003a2500003032000072
:10daf40078000000000000000000000000000000aa
:10db04001000000080000000008000005f9b000007
:10db140034fb00004e4900004c0000005549000051
:10db24004e540000004900004e540000005500000f
:10db340055490000440000005354000052490000bd
:10db44004e470000004200004f4f00004c00000010
:10db5400444500005300000044450000410000001b
:10db6400555200004c0000008ced000090ed0000c8
:10db740095ed000099ed00009eed0000a5ed00007c
:10db8400aaed0000aeed0000b2ed00002020000080
:10db9400202000000074000079700000652000005f
:10dba4002535000073200000282500007529000099
:10dbb4002c200000656c0000656d0000656e00009f
:10dbc400742000006c6500006e2000002532000007
:10dbd40075200000002c000020760000616c00001d
:10dbe400756500003a200000006c0000656e0000be
:10dbf4002025000075200000283000007825000052
:10dc040030320000782900000a0000002c200000b7
:10dc1400766100006c750000653a00002030000059
:10dc240078250000303800006c7800000a000000fd
:10dc340000950000000000000000000001f9000051
:10dc4400000000000000000008870000040000003d
:10dc54000000000009af0000000000000100000007
:10dc64000a1b000000000000010000000cc30000bb
:10dc740001000000000000000daf000002000000e1
:10dc84000000000010ff0000000000000000000081
:10dc940011ff0000000000000100000012ff00005e
:10dca400000000000100000018ff00000000000058
:10dcb4000100000019ff0000000000000100000046
:10dcc40020ff0000000000000000000021ff000011
:10dcd400000000000000000026df0000010000003a
:10dce4000000000037730000000000000000000086
:10dcf4003a25000004000000000000003b2500005d
:10dd0400000000000000000029ff000004000000e3
:10dd14000000000017ff00000000000000000000e9
:10dd24001c000000010000000100000001020000ce
:10dd340000000000000000000101000001020000da
:10dd440001020000020100000202000002020000c1
:10dd540000000000010100000100000000000000bc
:10dd6400000400000008000001010000010100009f
:10dd7400020200000303000001010000030100008f
:10dd8400020200000302000001040000000300007e
:10dd94000000000000010000020200000001000079
:10dda4000003000050490000584c000030300000cf
:10ddb4003038000000000000000f000000f00000f8
:10ddc40002110000042200000003000000300000e3
:10ddd40000010000191a00002728000000000000bc
:10dde4003600000053000000110000001b0000007a
:10ddf4000000000000000000000000006f010000af
:10de04002802000079000000b7000000a70200000b
:10de1400fd030000e0000000530100004254000034
:10de240073740000616300006b20000000000000b8
:10de3400030500001c1e0000080b00002107000061
:10de44000a200000494f0000494f00003030000014
:10de540030330000004900004f4900004f300000fb
:10de64003030000032000000494f0000494f0000ec
:10de740030300000303100000059000054410000ef
:10de840049300000303000003100000059540000d7
:10de94004149000030300000303200000000000032
:10dea400720000006d610000747200006978000067
:10deb400747000002e620000696e000000660000ad
:10dec400707300002e620000696e000000610000a3
:10ded4007274000064610000746100002e6200002e
:10dee400696e00000077000000000000001c0000c4
:10def4000000000000080000000c00000300000007
:10df0400020000002300000024000000250000009f
:10df140001000000010000000000000000000000fb
:10df24000000000044000000323200000032000013
:10df3400323200003200000032320000440000009f
:10df440032320000324400000032000000000000c1
:10df5400b8520000bc520000c0520000c45200007d
:10df6400c8520000cc520000d0520000d45200002d
:10df7400d852000030310000323300003435000044
:10df840036370000383900004142000043440000a5
:10df94004546000074630000703a00003435000008
:10dfa4003435000000000000001c0000000c0000dc
:10dfb40000080000000400009d000000250000008f
:0cdfc4000d00000055530000420000005a
:020000040000fa
:10dfd0000200fa00889fbe008a9fbe008c1f780056
:10dfe00030488300e10f40000400320030488300d5
:10dff00020498b000080eb0030488b0020498300d3
:10e0000009f020000904600000202000800f540067
:10e01000e001320006003e000800e0000e00320081
:10e0200000102000800f54000c053a0096003700c5
:10e0300000402000800f5400a8043200035020004c
:10e04000830f5400c804320000302000800f5400b9
:10e0500002053a000f02370021498300010fb20088
:10e06000f08f50005c00320003003e000100e00031
:10e0700008003200f904370000022000808f5000b1
:10e080005f00320070004000808f5000f3043a00bf
:10e090007b0037007e33020001000000e04883006f
:10e0a00008087800e048830018009800e1488300e1
:10e0b000314090000024a000b0409800e148830067
:10e0c000314090000014a000b0409800e148830067
:10e0d000314090000054a000b0409800e248830016
:10e0e000201c20000011980000042000400198002e
:10e0f0006000b8000009980011099800285998009c
:10e10000e048830008589800e248830052089000d5
:10e11000f1cf2f00010060005009980080c0eb0093
:10e12000e04883001158980031c0b300a092260047
:10e1300001487800e090260008487800f09026001a
:10e14000084878000091260008487800f8488b00bd
:10e15000d8488b0008498b0068248800f10f200004
:10e1600051248800c00820008224b6006f005000af
:10e1700000248800882488007124880000a02600dc
:10e180004800de00c024880081002000a12488000f
:10e19000a0002000a0248800a124880040032000c3
:10e1a0008624b700200020003025880048258800fc
:10e1b000b8248800aae4a900a00420000025880053
:10e1c0002049830001ff2000010060007000400032
:10e1d00020498b00a1043700a09026001040780051
:10e1e000614060009d0432002049830001ff20004f
:10e1f000010060007000400020498b009704370048
:10e20000c8f79f0020c3b300d0f79f002400200070
:10e21000050020006c8157009106200000c0eb0033
:10e22000c2480200010000000000e0000f003200c0
:10e2300010002000402488008ec0a900f00f2f009d
:10e24000ce20b60000502000ce20b7009ec0a8000f
:10e250002049830001ff20000100600070004000a1
:10e2600020498b008cc4a8007c043700a0902600b5
:10e270001004a1000001200020498b007704370022
:10e280008cc4a8007504370021498300010fb20037
:10e2900000022000808f50008f00320005003e00f9
:10e2a0000100e0000a003200f08f50006b043a00d9
:10e2b0001f00370000032000808f5000f300320061
:10e2c00070004000808f500064043a002a0137003b
:10e2d000204983006f00600003003200e20f50000d
:10e2e0005e043a000c003700100020005024880023
:10e2f0008c04a800b00f200040498b0000042000cf
:10e300000024880082c4a800204983000000e8009f
:10e3100020498b00510437002049830001ff200071
:10e32000010060007000400020498b004b04370062
:10e33000204983006f046000e20f54005100320056
:10e34000e40f54005a0032000800e00043043a0091
:10e35000104883000000e00003003200345802003f
:10e360000000000018488b008000200010570200b9
:10e370000000000010488b000000e00006003a009a
:10e3800030c3b3002191260080487800005020005f
:10e3900020498b003104370003912600e0902600cd
:10e3a00008487800f090260008487800e29126009e
:10e3b000f8488b0031c0b300b092260001487800c5
:10e3c000d000200050258800682588007825880026
:10e3d0008825880098258800a8258800b825880009
:10e3e000c8258800d8258800e8258800f8258800f9
:10e3f00008268800182688002826880038268800e5
:10e40000482688009444e200070035001204a0006a
:10e4100000c8b3008049780000082000b0248800bc
:10e42000aae4a800040037001204a100884978007b
:10e43000b8248800aae4a9009424a8009424a90080
:10e44000e09126001044a1001054a1003c4f0200ae
:10e4500001000000364f0200010000009484a80073
:10e460003003200040498b006d00400000248800ec
:10e4700082c4a800204983000000e80020498b00e6
:10e48000f60337009484a9009404a800b00020008b
:10e4900040498b00000420000024880082c4a800aa
:10e4a000204983000000e80020498b00eb0337007f
:10e4b000f000200060248800f00f200080248800f5
:10e4c0002049830001ff200001006000700040002f
:10e4d00020498b00e1033700204983006f00600072
:10e4e000e10f50002300320003003900e20f50001a
:10e4f000da033a0037003700f05983000000e000eb
:10e500000400320034580200000000000000eb005c
:10e51000f0598b001348830000c8b300804978008d
:10e5200060c0b300904198008040eb00a14198008a
:10e5300010c0b300b0419800c1419800d14198008b
:10e5400080c0b300e0419800f141980084002000b1
:10e550000401780083007800e0488300e02d020089
:10e5600001000000204983000000e80020498b00e2
:10e57000ba033700e1488300314090000018a3003f
:10e58000b6033200314090000008a3000e003200b4
:10e590001048830040409000e94f500006003a00c8
:10e5a00050c3b3002191260080487800005020001d
:10e5b00020498b00a9033700204983000000e800b0
:10e5c00020498b00a50337003e39020001000000fe
:10e5d000a2033700104883001080fb001057020090
:10e5e0000000000080007800f0598b000000e0007f
:10e5f00006003a0030c3b30021912600804878001d
:10e600000050200020498b009403370010488300fd
:10e6100090487800f04090008180fb00e248830041
:10e620004101980034580200000000000000eb0097
:10e6300010488b00e0488300400090001057020013
:10e640000000000010488b000000e00006003a00c7
:10e6500030c3b3002191260080487800005020008c
:10e6600020498b007d03370031c0b300b0922600f3
:10e67000014878002049830001ff2000010060006c
:10e680007000400020498b0074033700204983004c
:10e690006f006000e10f50002000320003003900dd
:10e6a000e20f50006d033a002a0037000092260066
:10e6b000104078007041600068033a001148830000
:10e6c00000c8b3008048780060c0b3009040980054
:10e6d000a240980010c0b300b0409800c24098001b
:10e6e000d2409800f059830010407800e040980034
:10e6f000f2409800f35983001382fb00820020004f
:10e70000e0488300e02d0200010000002049830062
:10e710000000e80020498b0050033700e1488300e7
:10e72000314090000018a3004c03320031409000ab
:10e730000008a30004003200204983000000e80024
:10e7400020498b00450337003e39020001000000dc
:10e750004203370031c0b300b09226000148780070
:10e760002049830001ff200001006000700040008c
:10e7700020498b00390337005a12020001000000c3
:10e7800020498300090060000010b00020498b0080
:10e790003203370024498300040fb2002f033a00ec
:10e7a000204983006f006000e10f50001b00320021
:10e7b00003003900e20f500028033a00250037001b
:10e7c0001291260010c0b300004978001148830060
:10e7d0008448780050c0b3009040980012417800ff
:10e7e000a2409800b4409800c4409800d4409800db
:10e7f000e4409800f44098008401780082002000f2
:10e80000e0488300c4280200010000002049830082
:10e810000000e80020498b0010033700e148830026
:10e82000314090000018a3000c03320031409000ea
:10e830000008a30004003200204983000000e80023
:10e8400020498b00050337003e390200010000001b
:10e8500002033700e091260010407800614060001c
:10e860000080fb004700dd00129126000191260088
:10e870009248700031c0b300b09226000148780081
:10e8800020498300090060000010b00020498b007f
:10e89000f202370022498300020fb200000220007a
:10e8a000800f51009100320005003e000200e000a0
:10e8b0000d003200f00f5100e8023a00210037004d
:10e8c00000042000800f51006901320070004000f8
:10e8d000800f51000a02320000032000800f510017
:10e8e000de023a00cb003700f1598300c0922600c7
:10e8f0009150900001487800090037001004900002
:10e90000100078003458020000000000c048830066
:10e910000008eb003458020000000000c8488b00db
:10e92000c04883000000e000f4ff3a002049830063
:10e9300001ff2000010060007000400020498b00b2
:10e94000c6023700204983006f006000e10f5000cd
:10e950001e00320003003900e20f5000bf023a00ef
:10e96000280037001348830000c8b30080497800ae
:10e9700060c0b30090419800c09226001040e900aa
:10e98000a041980020c0b300b04198008040eb0047
:10e99000c1419800d141980080c0b300e041980087
:10e9a000f141980084002000040178008300780081
:10e9b000e0488300e02d02000100000020498300b0
:10e9c0000000e80020498b00a4023700e1488300e2
:10e9d000314090000018a300a002320031409000a6
:10e9e0000008a30004003200204983000000e80072
:10e9f00020498b00990237003e39020001000000d7
:10ea0000960237006000200010570200000000004e
:10ea1000000478000000e00006003a0030c3b300b4
:10ea200021912600804878000050200020498b006a
:10ea30008a02370011488300314090004800dd0011
:10ea4000a14090008180fb000100400010570200af
:10ea50000000000000017800000c78000000e000d9
:10ea600009003a0008007800345802000000000055
:10ea700030c3b30021912600804878000050200068
:10ea800020498b007502370010488300b040900089
:10ea9000c808dd00204090000080fb00808040001e
:10eaa00021419800c808de0031419800c148830028
:10eab00011049800c8488b00025a8b00c0922600af
:10eac000104078004044980031c0b300b092260056
:10ead000014878002049830001ff20000100600008
:10eae0007000400020498b005c0237002049830001
:10eaf0006f006000e10f5000280032000300390071
:10eb0000e20f500055023a003200370011488300ee
:10eb100000c8b3008048780060c0b30090409800ff
:10eb2000c09226001040e900a040980020c0b30029
:10eb3000b04098000040eb00c0409800d0409800e2
:10eb4000c04883001000780020409000e04098000a
:10eb5000c04883001000780030409000f0409800da
:10eb6000c048830090017800234090000080fb00a3
:10eb7000334290004822dd00000272008200200033
:10eb8000e0488300e02d02000100000020498300de
:10eb90000000e80020498b0030023700e148830084
:10eba000314090000018a3002c0232003140900048
:10ebb0000008a30004003200204983000000e800a0
:10ebc00020498b00250237003e3902000100000079
:10ebd0002202370031c0b300b0922600014878000d
:10ebe000c09226009040e9000148780003003200fe
:10ebf0000031200020498b00180237002049830093
:10ec000001ff2000010060007000400020498b00df
:10ec10001202370020498300ef006000e18f5000ae
:10ec20004600320005003900e28f500069003200d2
:10ec3000e38f500009023a007c003700ac2a020042
:10ec400001000000e0902600104178000204e0007e
:10ec500011003a00c04883000a0037001000780015
:10ec6000005a8b0030ce0200000000000000e000df
:10ec70001d003a00ac2a0200010000002048830079
:10ec80001000900020488b00204883000000e00026
:10ec9000f2ff3a0014003700c148830021488b007e
:10eca00001003700910090000100e00003003200f5
:10ecb00041409000824f5000faff3a0021488b00fb
:10ecc00091007800015a8b0030ce02000000000055
:10ecd000000478000000e00003003a00ac2a0200c3
:10ece0000100000028488b00e091260010407800c9
:10ecf000644060000d003200204883000000e00006
:10ed000006003a002049830001ff20000100600056
:10ed10007000400020498b00d0013700204983005b
:10ed20000000e80020498b00cc0137002049830017
:10ed30000000e80020498b00c8013700e091260060
:10ed40009040780064c160001c003a001024a000cc
:10ed5000114883008248780032c0b3009240980086
:10ed6000104078006840600002003200a240980025
:10ed70000200370040c0b300a04098000040eb0004
:10ed8000b0409800c0409800d0409800e040980003
:10ed9000f04098000002eb0084017800820020001f
:10eda000e0488300c42802000100000020498300dd
:10edb0000000e80020498b00a801370020498300ab
:10edc00001ff2000010060007000400020498b001e
:10edd000a2013700e1488300314090000018a300f1
:10ede0009e013200314090000008a3000a0032006a
:10edf000e091260010407800684060000200320078
:10ee0000664f020001000000204983000000e80076
:10ee100020498b00910137003c4f020001000000a7
:10ee20003e390200010000008c013700b09226003c
:10ee300001487800204883000000e00006003a0006
:10ee40002049830001ff20000100600070004000a5
:10ee500020498b00810137002049830001ff2000f9
:10ee6000010060007000400020498b007b013700ea
:10ee70002c4883000c00e0009b003a0020498300ee
:10ee80006f006000e20f50003d00320005003e00c0
:10ee90000000e00009003200e10f50006f013a006d
:10eea0001c003700e40f50006b00320050003900a6
:10eeb000e50f500069013a007b00370011488300dc
:10eec00000ccb3008048780030c3b3009040980075
:10eed000ac409800bc409800cc409800dc409800c2
:10eee00020c0b300e0409800fc40980024002000bf
:10eef0006391260082002000e0488300e02d02009c
:10ef000001000000204983000000e80020498b0038
:10ef100052013700e1488300314090000018a300ff
:10ef20004e013200314090000008a3000e00320074
:10ef3000609126001000e00006003a00204983009e
:10ef400001ff2000010060007000400020498b009c
:10ef5000420137004c488b00204983000000e80044
:10ef600020498b003d0137002049830001ff20002c
:10ef7000010060007000400020498b00370137001d
:10ef800018488300024c780040c3b3001044980036
:10ef90002c4498003c449800494883004944980018
:10efa0005c449800e6054400898444000ac22100bc
:10efb0006a807c000457020000000000804de800d9
:10efc0007c4498001b82fb00ea817c0082002000c8
:10efd00088007800e0488300c42802000100000097
:10efe000204983000000e80020498b001b01370006
:10eff000e1488300314090000018a300170132005f
:10f00000314090000008a3000d003200404883000a
:10f010000000e80040488b00e60f500004003a0072
:10f02000204983000000e80020498b000b013700d5
:10f03000204983000000e90020498b0007013700c8
:10f040002049830001ff20000100600070004000a3
:10f0500020498b0001013700114883008248780065
:10f0600050c3b30090409800ac409800bc4098005a
:10f07000cc409800dc409800ec409800fc409800a0
:10f080000c0278008c01780082002000e0488300a8
:10f09000c428020001000000204983000000e800ad
:10f0a00020498b00ed003700e1488300314090009b
:10f0b0000018a300e9003200314090000008a300ce
:10f0c000030032000050200020498b00e30037008d
:10f0d0002049830001ff2000010060007000400013
:10f0e00020498b00dd0037002049830001ff20000c
:10f0f000010060007000400020498b00d7003700fd
:10f10000204883000000e00005003a0041c3b3003e
:10f11000209126000148780023498b00cf0037005a
:10f12000204983006f006000e10f50001d00320095
:10f1300005003900e20f500028003200e30f5000b4
:10f14000c6003a002c003700114883000041eb0054
:10f150008248780090c0b30090409800e09026006c
:10f1600010407800a0409800b2409800c24098003b
:10f17000d2409800e2409800f24098000002eb0074
:10f180008401780082002000e0488300c428020047
:10f1900001000000204983000000e80020498b00a6
:10f1a000ae003700e1488300314090000018a30012
:10f1b000aa003200314090000008a3000400320091
:10f1c000204983000000e80020498b00a30037009d
:10f1d0003e39020001000000a000370031c0b3003a
:10f1e000b092260001487800204983000000e80022
:10f1f00020498b00990037002049830001f020004e
:10f20000010060000010b00020498b00e091260052
:10f2100001c4b30010c06000160032003091260017
:10f22000904078000180fb004300dd0002fe2100d9
:10f2300082014000620378008002eb00c490260047
:10f2400023019000b3019000109126001040780037
:10f25000060001000000e00080003a0090c3b30007
:10f2600021912600804878000050200020498b0022
:10f270007a003700d848830015003700f840900026
:10f280000180fb004300dd0002fe210082014000fe
:10f290006203780088027800c49026002301900061
:10f2a000b301900010912600104078000600010084
:10f2b0000000e00005003a0090c3b3002191260051
:10f2c000804878000050200020498b001804780006
:10f2d0000800e000e9ff3a006000370020498300a1
:10f2e000000fb200f00f50005c003a00204983008c
:10f2f0006f006000e30f50000e003200e50f500079
:10f3000017003200e10f500054003a009444a80066
:10f310005001200040498b00000420000024880098
:10f3200082c4a800204983000000e80020498b0027
:10f330004a0037009444a9009404a800b0002000bb
:10f3400040498b00000420000024880082c4a800eb
:10f35000204983000000e80020498b003f0037006f
:10f3600028498b003d00370022498300020fb2007c
:10f370003a003a0086002000a62488006224880013
:10f38000f10f200051248800c00820008224b6001c
:10f390006f005000002488008224880071248800b7
:10f3a0008c04a800209126009041780040c3b3004f
:10f3b00080cf51001400320007003e00d1c6b300d8
:10f3c000e7cf5100180032000040e90080cf510023
:10f3d0000b003a000800370051c6b30050c3b30019
:10f3e00080cf5100100032006440400080cf5100b7
:10f3f00003003a000b003700f1c6b3000a003700e3
:10f4000001c7b300080037006022b80086407800ca
:10f410000240780090f2020000000000c1c6b30074
:10f4200001003700e1c6b3008180fb00140020001a
:10f43000050020004291260010912600104078001f
:10f44000c2480200010000002049830001ff2000a3
:10f45000010060007000400020498b004f067800da
:10f460004f05be004f04be000080fa0000000600f9
:020000040000fa
:10f47000889fbe008a9fbe008c1f780080027800a3
:10f48000010578008204780003067800840578007e
:10f49000221de200040032004f0678004f05be0036
:10f4a0004f04be0000000600180280000002200089
:10f4b000100288009580fb0020e92e0060c17800d2
:10f4c0000241e8000281fb008500780000d42100a1
:10f4d000d6e1020000000000090178008a007800ef
:10f4e00000d42100d6e10200000000000b017800ea
:10f4f0008c00780000d42100d6e10200000000005a
:10f50000180288004f0678004f05be004f04be0069
:10f5100000000600e4ff37000200fa00881f7800b0
:10f520000004780010e98000e20f50002300320050
:10f53000e10f500024003200d690020000000000cd
:10f54000c48c0200000000002696020000000000ab
:10f55000baac02000000000008007800f64b020080
:10f56000010000000000e0001400320031e98000da
:10f570000100e0001f003a0062d22100e480570041
:10f5800000d4210088e102000000000032e9800080
:10f590000200e0000900340020e98000800f5100e3
:10f5a000020034000001780030e98800efb89700cd
:10f5b00008007800e64b0200010000004f047800cc
:10f5c0000080fa0000000600481de200daff3a0061
:10f5d00008007800064c0200010000002000200016
:10f5e00010e988004f0478000080fa00000006004f
:10f5f000f5ff370000d421006ee10200000000009a
:10f60000263def00dcff3700881f7800800178007e
:10f61000221de200020032004f04780000000600c4
:10f620001802800000022000100288009380fb0076
:10f6300020e92e0060c178000241e8000281fb0051
:10f640008300780000d42100d6e102000000000011
:10f65000180288004f04780000000600f0ff370011
:10f66000889fbe008a1f780080017800010578001d
:10f6700082047800221de200030032004f0578006a
:10f680004f04be00000006001802800000022000a7
:10f69000100288009380fb0020e92e0060c17800f2
:10f6a0000241e8000281fb008300780000d42100c1
:10f6b000d6e1020000000000090178008a0078000d
:10f6c00000d42100d6e102000000000018028800ea
:10f6d0004f0578004f04be0000000600eaff370027
:10f6e0001e00fa00881f7800263def00203def0045
:10f6f00011002000f1e888001c3def00483def00bc
:10f70000443def00463def00164c020001000000b2
:10f7100020e98800223def000040eb0080e79f00d9
:10f72000f00f20008fb097008080600000902400d0
:10f730008080700081b79f00f004b30090b79f00f5
:10f740002fb0970001f02f0001006000f004b3001b
:10f75000a0b79f000002eb00830020007b815700d0
:10f7600000f82400011020000c53020000000000eb
:10f770000002eb00830020007381570080f8240012
:10f78000011020000c530200000000006b805700a5
:10f7900041ed2e0007000900315878008000b100cb
:10f7a000221de200030032004f0478000080fa00be
:10f7b00000000600180280000002200010028800ed
:10f7c0000fe097008080fb0020e92e0060c17800e8
:10f7d0000241e8000281fb0001fe2f008f80400003
:10f7e00000d42100d6e102000000000018028800c9
:10f7f0004f0478000080fa0000000600edff37009b
:10f80000889fbe008a9fbe008c9fbe008e1f78001e
:10f81000800478000205be00221de2003f003a008d
:10f82000e00f5100e08f5900200032000c00220050
:10f830002d002200ee022000f2e880006110b900e5
:10f84000800f5500818f5d003b0039000c0078006f
:10f85000201db40089007800585602000000000006
:10f86000f2e88000828444006110b9000005550070
:10f8700081855d0002007800203db4001e3def0050
:10f880001e1de20006003a00e0e88000e10f500093
:10f890003d00320033003900e20f50001400320006
:10f8a000e00f5500e08f5d00e3ff3a0010002000fc
:10f8b0004f0778004f06be004f05be004f04be0044
:10f8c00000000600200022001004e00069003d0056
:10f8d000380022009880fb001080fb004600de000c
:10f8e0006100600000804000f0e88800ecff3a0012
:10f8f0001c3def0010002000f0e88800203def00e4
:10f900001c4078000080fb00010020000402200061
:10f91000840f5000e08f58002a0036000000eb00f2
:10f920004f0778004f06be004f05be004f04be00d3
:10f9300000000600e3ff37000c007800201db40033
:10f940000a01780089007800585602000000000083
:10f950000a007800203db4001e3db5006055b80097
:10f96000c7ff370010002000e0e888009c80fb0003
:10f9700030eb2e00e0c078000180fb00f0e888004a
:10f980000104e000c6ff3a0020002000e0e8880003
:10f990001c407800f14f5000caff32002b003600a7
:10f9a000f44f5000d1023200ff4f50003b003200b4
:10f9b0000000eb00f0e888000000e000b8ff3a002b
:10f9c000cbff3700006001003a00370041013700eb
:10f9d000520137003e0237004e0237000502370061
:10f9e00015023700cdff3700580237006c02370090
:10f9f0005101370068013700720137007f0137007d
:10fa000098013700a7013700bd013700d501370045
:10fa10009d0037001f013700c6003700bfff3700c9
:10fa2000e0003700bd00370014013700ea0037005e
:10fa3000ef00370049003700660037007f003700cd
:10fa4000860037003100370037003700ee4f500096
:10fa5000d7ff3a00f2c3b300110022001140610049
:10fa60000080fb000000e800f0e888008cff3a000e
:10fa70009fff3700f3c3b30090c061008180fb009b
:10fa80001080fb004600de00610060000080400046
:10fa9000f0e8880082ff3a0095ff370040dc020062
:10faa00000000000f0e888000000e0007cff3a0061
:10fab0008fff3700150022009580fb001d80fb00a2
